:1000000000000420FD53000025540000D11700001B
:10001000295400002B5400002D5400000000000063
:100020000000000000000000000000002F5400004D
:10003000315400000000000033540000355400002B
:10004000D925000037540000C132000037540000A9
:1000500037540000375400003926000037540000A0
:100060003754000037540000375400003754000064
:100070003754000037540000375400003754000054
:1000800037540000290D0000375400003754000099
:10009000C90D0000375400003754000037540000E9
:1000A0003754000037540000375400003754000024
:1000B000375400003754000000000000000000002A
:1000C0003754000037540000375400003754000004
:1000D000375400003754000037540000454C0000EE
:1000E00037540000375400003754000037540000E4
:1000F0000000000037540000000000000000000075
:1001000000000000000000000000000000000000EF
:1001100000000000000000000000000000000000DF
:1001200000000000000000000000000000000000CF
:1001300000000000000000000000000000000000BF
:1001400000000000000000000000000000000000AF
:10015000000000000000000000000000000000009F
:10016000000000000000000000000000000000008F
:10017000000000000000000000000000000000007F
:10018000000000000000000000000000000000006F
:10019000000000000000000000000000000000005F
:1001A000000000000000000000000000000000004F
:1001B000000000000000000000000000000000003F
:1001C000000000000000000000000000000000002F
:1001D000000000000000000000000000000000001F
:1001E000000000000000000000000000000000000F
:1001F00000000000000000000000000000000000FF
:1002000010B5054C237833B9044B13B10448AFF350
:1002100000800123237010BDE801002000000000D1
:1002200044640000084B10B51BB108490848AFF3FF
:1002300000800848036803B910BD074B002BFBD0B2
:10024000BDE81040184700BF00000000EC0100208E
:1002500044640000E401002000000000154B002B66
:1002600008BF134B9D46A3F5803A00218B460F46ED
:100270001348144A121A00F065F80F4B002B00D0F7
:1002800098470E4B002B00D0984700200021040017
:100290000D000D48002802D00C48AFF3008000F09C
:1002A0002BF82000290004F0F9FF00F011F800BF3E
:1002B0000000080000000420000000000000000012
:1002C000E8010020A8140020000000000000000049
:1002D00008B5074B044613B10021AFF30080054B6E
:1002E0001868836A03B19847204600F033F800BFCE
:1002F00000000000D85F000070B50E4B0E4CE41AF1
:10030000A41000251E46A54204D056F82530984773
:100310000135F8E705F054FE084C094BE41AA41027
:1003200000251E46A54204D056F8253098470135D1
:10033000F8E770BDDC010020DC010020E0010020B6
:10034000DC01002002440346934202D003F8011B63
:10035000FAE77047FEE700BF0378012B04BF014AAC
:1003600013707047040300202DE9F04FC7B01C46FE
:100370009248002914BF0A23002316460D46009315
:1003800002F092FF002840F0E480002C00F0E580AD
:1003900006AB83460193519B539A9E1820250296E3
:1003A00058460099019A0B46034404933133D318FD
:1003B0000393171800295FD07B4203F003038B429D
:1003C00028BF0B46062900F2EB800B46019A012B51
:1003D000155407F1010200F0E180022B7D7007F156
:1003E000020200F0DB80032BBD7007F1030200F076
:1003F000D580042BFD7007F1040200F0CF80062B9E
:100400003D7107F1050240F0D1807D71BA1D9E4615
:10041000009999422ED0009EC3EB060AAAF104016E
:1004200006F1FF3B8908C3EB0B0B0131BBF1020F57
:100430004FEA810C12D90344019E4FF0203001296C
:1004400006EB030BF05005D00229CBF8040001D0D5
:10045000CBF80800D4456244E6440BD000981570F0
:100460000EF10103834205D20EF1020E7045557064
:1004700000D99570009B1F44039B059707F1330932
:1004800007F1030A264603F101084C46029FDDF8F6
:1004900044910DE00AF8035C0AF8025C0AF8015C7A
:1004A0000AF1030AA24508F8015C08F101082FD0FF
:1004B000BE42EFD24E456BD2509B13F806B00AF8FD
:1004C000015C4FEA2B105FFA80FE09280BF00F0049
:1004D000D4BF0EF1300E0EF1370E092894BF303024
:1004E00037300AF803EC0AF8020C05F085F8584496
:1004F0000AF1030A407810F0970F08BF4FF02E0B57
:10050000A24508F801BC06F1010608F10108CFD1A7
:10051000049B03980297059F019903F1430A0D225A
:100520000A23027443745246254887F8305005F078
:100530007FF85FFA8AF222492048344602F008FE2A
:1005400038B91E4802F0B0FE18B9029B9C42FFF475
:1005500028AF204647B0BDE8F08F55B306A82B68FA
:10056000184A01904FF4807105F06EF80028F0DB16
:100570000546304605F0BEF8019BC22828BFC220C0
:10058000834602463146581905F052F8AB4402E75B
:10059000C9EB0600529B13F800B090E79E4637E780
:1005A000002B7FF413AF3A469E4634E74FF0050E1A
:1005B0002EE706AB25460193DBE700BF6400002071
:1005C00004020020FC5F00002DE9F0416B48C6B03A
:1005D0000C4616461D4602F067FEA8B9C4B106AF28
:1005E0002368674A38464FF4807105F02DF80028DB
:1005F0000ADB4C9B8046062B00F2BD80DFE803F04F
:10060000146670327C405200002046B0BDE8F08194
:100610004C9B062B00F2AC80DFE803F0049C969024
:10062000847E8A004FF00008304605F063F800EB46
:100630000803FF2B044640F29380002CE4DB08EB18
:100640000402B2F5807FDFD8D4B206A94D4804F089
:10065000EFFF22464B49494802F07AFDB0FA80F09C
:100660004009D2E7C0F58071AA686C682B680192D6
:100670000094324607EB080004F0E6FF0446DCE78E
:10068000C0F580712869EA682B680390AC686D68D2
:10069000009502920194324607EB080004F0D4FF63
:1006A0000446CAE7C0F580716A6928692B6804921C
:1006B000EA680390AC686D68009502920194324636
:1006C00007EB080004F0C0FF0446B6E7C0F58071F0
:1006D0002B68324607EB080004F0B6FF0446ACE78F
:1006E000C0F580716A682B68009207EB08003246FB
:1006F00004F0AAFF0446A0E7C0F58071EA68AC6880
:100700002B686D68009502920194324607EB080051
:1007100004F09AFF044690E74FF480714FF0000810
:1007200006AFAFE74FF480714FF0000806AFE5E782
:100730004FF480714FF0000806AFB5E74FF48071B9
:100740004FF0000806AF8FE74FF480714FF00008BC
:1007500006AFC7E74FF480714FF0000806AFB7E768
:1007600006AB314603EB0800224604F061FF64E764
:100770000024224669E7002461E700BF64000020EE
:10078000FC5F000004020020F0B51A4F3B7889B0EE
:100790001BB1194B1B78834229D0184D06460FCD4B
:1007A0006C460FC495E80F004FF0000E84E80F0070
:1007B0000625052107224FF0EB7311480391082409
:1007C00002928DF814E000950194069302F022FC49
:1007D000002E0C4A0A4818BF0022694602F0E4FACB
:1007E00018B9054A012316703B7009B0F0BD00200E
:1007F00009B0F0BD0603002005030020DC5F000007
:10080000640000205903000000487047C90500003B
:10081000004870476903000038B50020FFF7B4FFB7
:10082000044668B9FFF7F0FF0546FFF7F1FF054BF7
:10083000FF22C3F810541C605C60C3F814049A6073
:10084000204638BD080300200120FFF79DBF00BFF0
:100850002DE9F041224C064600200D46A76800F025
:10086000A5FFA2686368D4F8008013440133C8EB85
:100870000303012B1BD8ABB10121002361F301035A
:100880006FF38203052161F3C50308EA02021549EB
:1008900004EB82026FF3891308F1010761F39F23D0
:1008A0002760D3600020BDE8F04100F087BF08F169
:1008B00001030020236000F081FF0122002362F386
:1008C00001036FF3820307EA080766F3C50304EB2D
:1008D00087046FF3891365F39F23E360BDE8F0811C
:1008E00008030020046000002DE9F843264C8046F0
:1008F000002016460F46A56800F058FFA2686368FE
:10090000D4F8009013440133C9EB0303022B1BD826
:10091000ABB10121002361F301036FF382030521D1
:1009200061F3C50309EA0202184804EB82026FF37F
:10093000891309F1010160F39F232160D360002036
:10094000BDE8F84300F03ABF09F10203002023603C
:1009500000F034FF0122002362F3010309EB0201DE
:100960006FF3820305EA090968F3C5030D4004EB40
:10097000890962F3891304EB850467F39F23C9F89F
:100980000C30E660BDE8F883080300200460000036
:100990002DE9F0472A4C8146002017461E4688461E
:1009A000A56800F003FFA2686368D4F800A01344B0
:1009B0000133CAEB0303032B1BD8ABB10121002386
:1009C00061F301036FF38203052161F3C5030AEAB2
:1009D00002021C4804EB82026FF389130AF1010141
:1009E00060F39F232160D3600020BDE8F04700F052
:1009F000E5BE0AF103030020236000F0DFFE0122C0
:100A0000002362F301030AF1020052446FF38203F0
:100A100005EA0A0A2A4069F3C5030221054004EBEE
:100A20008A0A04EB820261F3891304EB850468F3FC
:100A30009F23CAF80C30D760E660BDE8F08700BF9E
:100A400008030020046000002DE9F0474C4E96E8B2
:100A50000C009A428AB070D0B06804E0C4F38912E6
:100A600002EB9452134400EA0305023506EB8502BB
:100A70000133546814F00302F0D0022A28D0C4F3E2
:100A80008312C4F3952C002A75D00DF1100E754613
:100A9000D71800EA030106EB81010133C96845F864
:100AA000041BBB42F5D10092C4F3C20073466246F8
:100AB000D6F81044324D0021A04738B17760306835
:100AC000C01B18BF01200AB0BDE8F0876F68F6E7C9
:100AD00003F1010A20EA0A010340013106EB830316
:100AE00089004FEA94588845DA68DFF894E0C4F347
:100AF000891326D9A9B300EA0A0C5FFA81F90EEB33
:100B00008C0CC9EB08010CF10C0C0EF10C00C9B2F5
:100B100003910290CDF80490CDF800C00021C4F3F9
:100B2000C200D6F81474B847404520D006EB8505BE
:100B300060F38F146C607768C1E700200AB0BDE8ED
:100B4000F08700EA0A000EEB80000C308DE801010E
:100B50000021DEF8149403910291C4F3C200C84747
:100B6000E2E70EF10C0C08465FFA88F9D0E7033093
:100B70000AEB9007A2E71F460DF1100E93E700BFA6
:100B800008030020074B1B5C1F2B86BF03F01F03CD
:100B900005494FF0A041012202FA03F3C1F80C35D8
:100BA000704700BF1460000000030050074B1B5C3F
:100BB0001F2B86BF03F01F0305494FF0A041012200
:100BC00002FA03F3C1F80835704700BF1460000053
:100BD000000300504FF0A04310B44FF480404FF496
:100BE00000544FF400414FF48032C3F80845C3F875
:100BF0000805C3F80815C3F808255DF8044B7047CD
:100C00000D4B10B4195C1F298CBF0C484FF0A0404D
:100C10004FF00102D0F8044588BF01F01F0102FA2D
:100C200001F323EA04022340C0F80825C0F80C357C
:100C30005DF8044B704700BF1460000000030050D3
:100C400030B44FF0A04303224FF400554FF48044DA
:100C50004FF400404FF48031C3F83427C3F83827ED
:100C6000C3F83C27C3F84027C3F80855C3F8084524
:100C7000C3F80805C3F8081530BC7047084B185C6A
:100C80001F288ABF074B4FF0A04300F01F00D3F886
:100C9000103523FA00F000F0010080F001007047E9
:100CA00010600000000300504FF0A0430C22C3F876
:100CB0002C27C3F83027C3F86027C3F86427704790
:100CC00000B585B000230390194601AA44F2010043
:100CD000ADF80430029300F003F805B05DF804FBB2
:100CE00008B50D490120FFF7B3FDFFF7ADFDFFF794
:100CF000ABFE0028FBD109490320FFF7A9FDBFF394
:100D00004F8F0749074BCA6802F4E0621343CB6078
:100D1000BFF34F8F00BFFDE71860000028600000A0
:100D200000ED00E00400FA05F8B5204A204B00254C
:100D3000C2F84051C2F84451C2F84851C2F84C516F
:100D4000C2F80051C2F804511B6813B31949D2F814
:100D500004250C68141B1A6824F07F44A2422F4615
:100D600009D8197CDE69A41A154499B91EB1334615
:100D70001A68A242F5D9104B10491A780B789A429A
:100D80000DD00F490F4A41F823504FF48013C2F899
:100D90000031F8BD1F745A6998699047E6E7531C03
:100DA000DBB2022B08BF00230B70EAE70010014002
:100DB0002407002020070020280700202907002002
:100DC0003808002000E100E02DE9F04F884A894909
:100DD0001378097899428BB037D00133DBB2022BFC
:100DE00008BF002384491370844A0E68029152F8A8
:100DF0002300834905910B6802993218002522F0DF
:100E00007F420A602C462946AE46ABB11A68824240
:100E100000F2E681DD68C3F800E0801A1444DA6964
:100E200035B1371927F07F47D9619D605F6019465A
:100E300013460125002BE9D1002D40F0DC82002370
:100E4000069301230893069A08E06D4B05931B68EF
:100E5000694A02920021069308911A46694BDFF80D
:100E6000AC811B780393059B1B681C46029B1F6883
:100E70000023BA460F460993C3460793994618467E
:100E80004FF0010E0193A4463FB37D68BE6839461A
:100E9000FF695D4BCAEB050424F07F449C423CD8BB
:100EA000A3190B604860886081F810E0C861002ACF
:100EB00068D015689D4249D2164603E025689D42D8
:100EC00034D22646F4695B1B002CF7D1CC610B6051
:100ED0001446F1612246002FD7D198F8003098F8D7
:100EE0000110994200F09480591C03EB43039BF8D6
:100EF000024008EBC303C9B28C421C798BF8001086
:100F000008BF8BF80070022C99684ED0032C3FD09C
:100F1000012C24D014462246DDE7C5EB0A0525F056
:100F20007F45B54209D2731B0B60BBE7ED1A256004
:100F3000CC610B601446F161CCE7086048608860C2
:100F400081F810E0C861EAB115680023EB1A0C467D
:100F500013608C46CA614FF001092246BBE70C7C46
:100F60000494002CD6D1DD684D601E698E605C69EA
:100F7000CC609B698B61039B002B8AD0049B4B60E8
:100F80001D4686E70C468C464FF001092246A2E733
:100F90000AB9BFE71A46D3691074002BFAD11C4670
:100FA0009C464FF00109224695E752B1914200F06C
:100FB0000B81134602E0B14207D03346DE69002EB2
:100FC000F9D114460874224685E7994200F0FE8064
:100FD0001446F5693668DD6115B12B6833442B6022
:100FE000019B0874A24218BF01230193EBE700BFE5
:100FF00028070020290700202007002038080020AB
:10100000240700202A070020FEFF7F002C07002075
:101010005746DDF804A0B9F1000F40F04981079B65
:10102000002B40F0E581099B002B40F0DC81BAF1F8
:10103000000F03D1069B9A4200F03F81002A00F086
:1010400041816C49029BD1F804051B686A4C176802
:101050002578C21A22F07F420332002D51D1674D0C
:10106000DFF89CC1DFF89CE14FF48036C1F844639F
:10107000C1F804634FF40036C5F880612E60012585
:101080000D60DCF800602F2100BF00BF00BF00BF73
:1010900000BF00BF00BF00BF76452FD000BF00BF1C
:1010A00000BF00BF00BF00BF00BF00BF00BF00BF48
:1010B00000BF00BF00BF00BF00BF00BF00BF00BF38
:1010C00000BF00BF00BF00BF00BF00BF00BF00BF28
:1010D00000BF00BF00BF00BF00BF00BF00BF00BF18
:1010E00000BF00BF00BF00BF00BF00BF00BF00BF08
:1010F00000BF00BF00BF00BF00BF00BF0139C3D1A8
:10110000257097422CBFDA199A183A4922F07F438A
:10111000C1F84035D1F80425121A1B1A22F07F427B
:1011200023F07F4303329A4248D9D1F80435344A38
:10113000C1F84035126833492F2300BF00BF00BFFC
:1011400000BF00BF00BF00BF00BF8A422FD000BF5A
:1011500000BF00BF00BF00BF00BF00BF00BF00BF97
:1011600000BF00BF00BF00BF00BF00BF00BF00BF87
:1011700000BF00BF00BF00BF00BF00BF00BF00BF77
:1011800000BF00BF00BF00BF00BF00BF00BF00BF67
:1011900000BF00BF00BF00BF00BF00BF00BF00BF57
:1011A00000BF00BF00BF00BF00BF00BF00BF013BCA
:1011B000C3D1124B4FF40032C3F80021124A00236E
:1011C00013700BB0BDE8F08F16461346D2F81C9092
:1011D000B9F1000F1AD0CC464C464FF00109F8E6A1
:1011E000002D62D1121A1A60069301230893069A01
:1011F00034E600BF001001404008002000E100E09C
:101200006C0000200024F4002A0700207B4C7C4D59
:10121000C4F808E07B4C4FF02F0C246800BF00BFDF
:1012200000BF00BF00BF00BF00BF00BFAC422FD057
:1012300000BF00BF00BF00BF00BF00BF00BF00BFB6
:1012400000BF00BF00BF00BF00BF00BF00BF00BFA6
:1012500000BF00BF00BF00BF00BF00BF00BF00BF96
:1012600000BF00BF00BF00BF00BF00BF00BF00BF86
:1012700000BF00BF00BF00BF00BF00BF00BF00BF76
:1012800000BF00BF00BF00BF00BF00BF00BF00BF66
:10129000BCF1010CC2D1012425460994CC464C4630
:1012A000CA4603950795A94693E6059C236099E7EE
:1012B000059B1946C1F800C0B1E6089B002B3FF41E
:1012C0007DAFBBE64D49504B4E4E4D4C4FF48030F8
:1012D0004FF400370125C3F88070C1F848032F236D
:1012E000C1F808034D6030681E4600BF00BF00BF54
:1012F00000BF00BF00BF00BF00BFA0422FD000BF93
:1013000000BF00BF00BF00BF00BF00BF00BF00BFE5
:1013100000BF00BF00BF00BF00BF00BF00BF00BFD5
:1013200000BF00BF00BF00BF00BF00BF00BF00BFC5
:1013300000BF00BF00BF00BF00BF00BF00BF00BFB5
:1013400000BF00BF00BF00BF00BF00BF00BF00BFA5
:1013500000BF00BF00BF00BF00BF00BF00BF013E15
:10136000C3D18D6002990A6000BF00BF00BF00BFFB
:1013700000BF00BF00BF00BFA0422FD000BF00BF12
:1013800000BF00BF00BF00BF00BF00BF00BF00BF65
:1013900000BF00BF00BF00BF00BF00BF00BF00BF55
:1013A00000BF00BF00BF00BF00BF00BF00BF00BF45
:1013B00000BF00BF00BF00BF00BF00BF00BF00BF35
:1013C00000BF00BF00BF00BF00BF00BF00BF00BF25
:1013D00000BF00BF00BF00BF00BF00BF013BC3D1C3
:1013E0000A4B1A70EAE60A4B9DF80C1019701EE6BB
:1013F000029B1F6017E6059A136020E5001001406C
:101400000024F4006C00002000E100E0400800200F
:101410002A07002083690B60406970472DE9F0417D
:101420000B7886B00C460546092B55D8DFE803F04B
:1014300028282828052D424928284B785FEAD31808
:1014400071D15B09012B47D18B780268202B48D0E2
:10145000222B41D1B1F80730002B3DD1B1F8033038
:10146000117F938303F0010301F001029A4299B2C4
:1014700006D0002900F09F80C3690BB10221984774
:101480000024204606B0BDE8F081037A8A780BB3C9
:10149000837A00F10901DBB1C37ACB5C9342EFD0D0
:1014A000130653D4E378012BEAD056D3032BE7D0AD
:1014B0000324E6E700F0B6FB0446204606B0BDE88C
:1014C000F08100F0BDFB0446204606B0BDE8F08187
:1014D0001B78FFDE5B78FFDE0624204606B0BDE801
:1014E000F081B1F807100729F6D11372B4F807306C
:1014F0000024DBB2537220460A320493039205940F
:1015000000F054F9204603A900F098FF044630B9D2
:101510003B4B029501A9019300F070FF04460020A7
:1015200000F04CF9ADE7C3F34117E7B1012FD3D178
:101530008B78212BD0D1B1F80720072ACCD10168B4
:10154000601C143100F0B8FC04469AE7E478D4B18A
:10155000032C0CBF0024032493E7C369002B8FD016
:10156000002198478CE78E78062E13D00A2EB3D12F
:1015700003A800F073FF424601460770601C00F0AC
:101580009BFC04467DE7C369002B3FF479AF012142
:10159000984776E706ABCA7843F80C7D097900F0E6
:1015A000C3F930B10146039A601C00F085FC044683
:1015B00067E7344665E7C3690BB1032198472B7A87
:1015C000012B14D96A7B05F10C04B2B1AB7BE05C52
:1015D00003F01AFA2B7A012B09D96B7B012B09D95D
:1015E000AB7B23440024587803F00EFA49E700232C
:1015F0005B78FFDE00231B78FFDE1378FFDE00BF81
:101600000516000008B1032070470B681A7A202ADB
:1016100001D00620704710B50722044603F10A01E5
:1016200003F1140004F004F8204610BD03689B8BFE
:10163000DB0701D408207047037A012B12D910B5BB
:10164000437B84B000F10C040BB91B78FFDE837B75
:101650000191E05C0292002301A9039300F0E2FEF5
:1016600004B010BD00235B78FFDE00BF037A012BBE
:1016700011D9437B012B00F10C020FD900B5837BFC
:10168000134483B001A9587803F0E6FC48B90198E7
:1016900003B05DF804FB00235B78FFDE00231B78BA
:1016A000FFDE002003B05DF804FB00BF03689B8BE6
:1016B000DB0701D408207047037A012B12D910B53B
:1016C000437B012B84B000F10C040ED9837B019184
:1016D000234401A9002458780292039400F0A2FE4A
:1016E00004B010BD00235B78FFDE00231B78FFDE13
:1016F000F0B505460E4685B0002017462C6800F070
:1017000055F8731E3F2B34D8DFE803F02020332038
:1017100033333320333333333333332033333333BF
:10172000333333333333333333333320333333339C
:101730003333333333333333333333333333333379
:10174000333333333333333333333320E18BBFB964
:1017500021EA060600230222A1202021E6836682D8
:10176000A072E172A381E38122822A7A52B953786E
:10177000FFDE0624002000F021F8204605B0F0BD71
:101780000E43E7E7AA7A05F109006AB1E97A2A6807
:10179000405C039301A902F10A030A220193029219
:1017A00000F040FE0446E5E71378FFDE72B6024A19
:1017B000136801331360704744080020034A13681C
:1017C000013B136003B962B6704700BF44080020B4
:1017D000094B1EF0040F1CBFEFF309801847EFF30D
:1017E00008800649064A884201D8904202D88D46B0
:1017F0004FF00000184700BF291800000000042027
:1018000000E00320BFF34F8F0549064BCA6802F47E
:10181000E0621343CB60BFF34F8F00BFFDE700BF13
:1018200000ED00E00400FA0510B50849826904469D
:101830000120FFF759F8FFF707F8FFF705F900282F
:10184000FBD12046FFF7DEFF10BD00BF4C6000005B
:1018500070B503780546052B59D8DFE803F034420C
:1018600003420F1C2B4B1C6844B1636820461B6865
:101870002946984723681C68002CF6D1264B294638
:1018800093E8050090472878244B1B6813B1BDE806
:101890007040184770BD83781A064CBF204A1E4A14
:1018A00003F00F0302EBC30393E8050029469047BA
:1018B00038B1A87800F00F03013B062B01D803F0E4
:1018C000EBFB2878E0E7174B1C68F4B1636820460F
:1018D0001B682946984723685C68002CF6D1287855
:1018E000D2E70D4B014693E805009047094B1C6871
:1018F000002CE6D0636820461B6829469847236879
:101900001C68002CF6D12878BEE72046BCE71846B4
:10191000BAE700BF4C0800209C08002048080020BF
:1019200054080020500800202DE9F84344689846E8
:101930000F466368414691469847C8B1D8F80030D1
:10194000ABB10026314603E02478214499420BD202
:1019500044186578BD42F7D1B1450BD024782144B5
:1019600001369942F6B2F3D30020BDE8F883184659
:10197000BDE8F8832378C8F800302046BDE8F88336
:10198000F0B5044683B0284802F02AFC002846D16E
:10199000264B002C45D022681A60254D254B264841
:1019A000264F0024214648222C60254D1C60FEF75E
:1019B000C9FC482221462148FEF7C4FC2B7A6E68F8
:1019C000DFF874E04FF0030C0CFB035C0CF1090C26
:1019D00005F1090262451BD0D2B15478002111E013
:1019E00090780344DA4210D0D35C13F0800F03F0F8
:1019F0000F0314BF0EEBC30307EBC30301311D60DC
:101A000030685860CBB2A342EAD303326245E3D1D7
:101A100002A9062301F8043D09483368984703B03A
:101A2000F0BD1C60B9E700BF511800004808002055
:101A30004C08002050080020540800209C0800207A
:101A40009060000008B502F069FC4FF08042D2F8C7
:101A500038349B07FBD508BD30B583B002F0BCFC21
:101A600018B902F023FF03B030BD09238DF804300C
:101A700002F0DCFD0D4B1C6801AD44B163682046EB
:101A80001B682946984723681C68002CF6D1084B30
:101A9000294693E805009047064B1B68002BE0D0D1
:101AA0000920984702F002FF03B030BD4C08002027
:101AB0009C0800204808002070B582B008231D4D06
:101AC0008DF804300124AB6844F0800008350BB178
:101AD00002F052FD0134E4B2092CF4D1164E012477
:101AE0003546AB68204608350BB102F045FD0134A0
:101AF000E4B2092CF5D196E8090001A998470F4BEB
:101B00001C6844B1636820461B6801A99847236894
:101B10001C68002CF6D10A4B1B680BB108209847B3
:101B2000084B1868003018BF012002F035FC02B0E5
:101B300070BD00BF540800209C0800204C08002005
:101B400048080020500800202DE9F04190F808E0F6
:101B5000314D324F032606FB0E0600F1090C093603
:101B60006246B24282B01BD0DAB15478002111E053
:101B700092F802804344DA420FD0D35C13F0800F16
:101B800003F00F0314BF07EBC30305EBC3030131DD
:101B90001B686BBBCBB2A342EAD30332B242E3D1A0
:101BA00000221D4D1D4ED1B2714525D201EB4101E0
:101BB0001CEB010120D0002712E08C782344D9428D
:101BC00012D0CB5C13F0800F03F00F0314BF06EBB1
:101BD000C30305EBC30301371860446824685C60E5
:101BE0004C78FBB29C42E8D890F808E00132DAE782
:101BF000112002B0BDE8F081094A13681BB11A68D0
:101C00001368002BFBD102A91060062201F8042DF5
:101C100043681B689847ECE79C08002054080020A4
:101C20004C080020054A136823B11A685368002B3A
:101C3000FBD1043210600020704700BF5008002024
:101C40000A4A136843B1984202D108E0834205D0A2
:101C50001A685368002BF9D10520704704320368D5
:101C60005B681360036800205860704750080020CC
:101C700030B5857883B015B1062003B030BD044679
:101C800001A800F0EBFB022201460580601C00F079
:101C900013F903B030BD00BF70B583784579012BCF
:101CA00082B004461DD00DD3032B02D0062002B013
:101CB00070BDB0F80340002CF8D1284603F0ECF9D1
:101CC0002046F4E701A800F0C9FB0646284603F0C9
:101CD000F9F9314630800222601C00F0EDF802B0C4
:101CE00070BDB0F80330002BE0D1104AC2F80C559B
:101CF000BFF36F8FBFF34F8FD2F80C35C3F30123BF
:101D0000012B07D045F48073C2F80C35BFF36F8FF9
:101D1000BFF34F8F05F00F03072B01D90020C6E753
:101D2000284603F0C5F90020C1E700BF007002405B
:101D3000014B1868704700BF4C08002070B4114B6D
:101D40001E68DEB1347AACB13246002307E00133BD
:101D5000DDB2AC4202F103020CD99C4207D0557AA5
:101D60008542F4D1736830461B6870BC1847002365
:101D70001B78FFDE33681E68002EE3D1102070BC94
:101D8000704700BF4C08002003064CBF064B074BB2
:101D900000F00F0003EBC000006810B143681B683F
:101DA00018471020704700BF540800209C080020EE
:101DB00038B5094B1C6805461CB90AE023681C6845
:101DC0003CB1636829461B68204698470628F5D031
:101DD00038BD062038BD00BF4C08002000207047E9
:101DE0002DE9F04F4E6883B0002E53D00C461546B7
:101DF0000192804603F02CF903F02AF9E3689D4232
:101E00002A4628BF1A4607469346002A50D0002586
:101E1000012604F10809A3686BB9E3682BBB1E46D1
:101E2000BBF1000FF7D13046C8F80070C8F8045075
:101E300003B0BDE8F08F5B4528BF5B461A4661687A
:101E400078199A4603F0F4FBA068E2686168CAEB6F
:101E50000000CAEB02025144CAEB0B0B5544A060D0
:101E6000E26061608AB10028DAD1236849461846E9
:101E7000B3B15B685B689847236860601B681B6848
:101E80002360BBF1000FC6D1CDE71646BBF1000FB2
:101E9000C1D1C8E706604660304603B0BDE8F08FA8
:101EA0006360002DBFD0019BAB4288BF0026BAE71C
:101EB00015460126B7E700BF70B5C38893421D469B
:101EC00028BF1546934284B00E4616D80022002043
:101ED000039201960295FFF769FC184B1B7823F0DB
:101EE00010031A1F012A14D9032B12D00824002032
:101EF000FFF764FC204604B070BD8020144602F059
:101F000079FAB4FBF0F303FB1040B0FA80F2520907
:101F1000DDE701A9802002F07DFA04460028E6D121
:101F200003F040F9802801D01024E0E7044A054B73
:101F300092E8030083E80300D9E700BF4D090020C1
:101F4000B0600000E40800202DE9F04F0B78013B61
:101F500085B0082B00F22882DFE803F015683956B7
:101F60001D3172790500AB4A137803F0100303F0BA
:101F7000FF04002B00F085801223137000242046FC
:101F800005B0BDE8F08FA34B0624032220461A704B
:101F900005B0BDE8F08FA04E3368002B00F0A480A0
:101FA0000022C87832600D467168984704460028C0
:101FB00064D13368002B67D003F0CCF8DFE7954B92
:101FC0000024012220461A7005B0BDE8F08F934B23
:101FD000002253E8001F01EA020043E8000494F0E5
:101FE000000FF6D131B18E4B01221A60BFF36F8F13
:101FF000BFF34F8F874A1378002423F01003204645
:10200000137005B0BDE8F08F04230DF105008DF8C5
:10201000043003F079F89DF8053003F01F02032A1D
:1020200000F2C081DFE802F023445136794A137888
:10203000002443F010032046137005B0BDE8F08F74
:102040000024744B20461C7005B0BDE8F08F714B26
:1020500002214FF080421970D2F83824D20744BFD1
:1020600003221A700024204605B0BDE8F08FDA097B
:102070003CD15B0967D0022B0CD0062403F088F812
:102080007DE7022313707AE7AB78002BEAD103F0E7
:1020900075F874E701A8FFF78BFE0446002CEDD11C
:1020A0005D4B1C68002CF2D003F054F8002466E766
:1020B00001A99DF80900FFF741FE06280446EDD16D
:1020C00001A8FFF7D5FD0446E8E79DF809004106A1
:1020D00005D001A9FFF758FE06280446DED101A865
:1020E000FFF7DAFD0446D9E70E24C7E7C3F341132F
:1020F000002BC0D19DF80610062900F0E1800829C8
:1021000000F0CB800029B8D1464C02222046FEF7D1
:1021100019F9454A23781278900743F0010148BF26
:1021200043F0030321700DF1050048BF2370022224
:102130003C49FFF7C1FE0446062CAFD19DF805309F
:10214000C3F3411397E79DF80630013B082B94D861
:1021500001A252F823F000BFA32100007B20000061
:102160008D2100007B2000007D2100007B200000ED
:102170007B2000007B200000B9210000254A137855
:10218000033B022B40F28680082477E7BDF8073036
:10219000012B7FF472AF244A137843F002031370CB
:1021A0007EE7BDF80730012B7FF467AF1E4A137836
:1021B00023F00203137073E7DFF8588098F80030BB
:1021C000043B012BE0D89DF80730002B00F08980FC
:1021D000012B18BF07247FF451AFFFF7A9FD134E61
:1021E0000746002F00F0E28097F808B007F10904D5
:1021F0004FF000095FFA89F39B4540F2D0803A7AAC
:102200009A4244D962789246002A3CD000252B4657
:1022100031E000BF4D090020E4080020380900200B
:102220005C700240EC0800204C0900200070024065
:10223000A3782B44E118E25CC6F80C25BFF36F8F3E
:10224000BFF34F8FD6F80C25C2F30122012A08D024
:10225000E35C43F48073C6F80C35BFF36F8FBFF3B4
:102260004F8F087800F00F03072B09D90135EBB227
:102270009A4508D962789A42DAD800231B78FFDEA3
:1022800002F016FFF2E709F101090334B2E7002377
:102290005B78FFDE0423137002E74F49097821F0D1
:1022A0001001052926D004297FF4E7AE4B4A1370AC
:1022B0000DF1050001224949FFF7FEFD04463BE709
:1022C0009DF80820022A29D0032A16D0012A7FF47B
:1022D000D4AE0DF1050012224149FFF7EDFD044691
:1022E0002AE7042398F800103B4A99423FF4D8AEFD
:1022F0001370D5E6394B1A70DAE7BDF809109DF86E
:10230000070000F0B3F8014600283FF417AF0DF1C5
:1023100005000A78FFF7D0FD04460DE7BDF80B6015
:10232000092E1C4628BF0926FFF702FD092705468E
:1023300065B16B6869465B68284698472B7A2968BF
:10234000009A0D682344DCB21744F1E7234D254978
:102350002846324603F06CF9234B2C711B786F80B2
:102360001BB1EB7943F02003EB71FFF7E1FC1F4B4E
:10237000BDF80B2018600020DA605D609E60FFF7FA
:1023800015FA154B1B7823F010031A1F012A0FD9D9
:10239000032B0DD008240020FFF710FACCE63B6891
:1023A0001F681EE7032469E60624E8E5052399E78C
:1023B0000F49802002F0CCFD04460028EBD102F04A
:1023C000F1FE802801D01024E5E70A4A0A4B92E882
:1023D000030083E80300DEE74D090020EC0800203D
:1023E0007C600000706000002C0900203C09002087
:1023F000A0600000B0600000E408002038B504468A
:102400000D4602F0CFFEA04202D01023184638BD80
:1024100095E80300024A82E803000023184638BD0D
:10242000E4080020044B1B7823F01003052B01D097
:102430000820704701F0EEBF4D090020064B1B78C5
:1024400023F010031A1F012A03D9032B01D00820FF
:10245000704701F0DFBF00BF4D09002008B14023E5
:1024600003600148704700BFEC08002050B1042809
:1024700006D8054B185C20B1044B53F82000704778
:102480000020704702487047CC600000B860000030
:10249000D460000010B50D4C23780BB1852010BD21
:1024A0000B4A6360E3601068A36010F001002361D1
:1024B00007D04FF080420123C2F818352370002066
:1024C00010BD072100F090F8F3E700BF500900208D
:1024D00000E100E030B51A4D6B7883B0044673B16B
:1024E00010B14368002098470020FFF75FF96B6840
:1024F000002001336B60FFF761F903B030BD03F0DA
:10250000FF00FFF753F964B1AA6842B1944208D0C2
:10251000134601E09C4204D01B68002BFAD12260D4
:10252000AC606B68002BE2D1064A1360136801931C
:102530004FF0804301220199C3F804231A60D6E7C3
:1025400050090020000100404FF08043D3F80C04F4
:1025500000F00110A0F10110B0FA80F040097047BE
:1025600010B51A4B1A6882B0A2B100221A601B681B
:1025700000934FF080430122154C0099C3F80823C3
:10258000A368627033B10CCB0020A2609847A368A7
:10259000002BF8D10F4B1A68AAB100221A601B68F1
:1025A00001934FF080430222094C0199C3F808239C
:1025B00023690122A27033B10CCB0120226198471C
:1025C0002369002BF8D102B010BD00BF000100400C
:1025D000500900200401004008B5FFF7C1FFBDE825
:1025E000084000F05FBB00BF002810B418DB00F10A
:1025F000604303F561434901C9B283F80013C3B2D4
:102600004009800000F1604000F5614003F01F02C6
:1026100001239340C0F8803103605DF8044B70479C
:10262000C3B2044A03F00F0449012244C9B211762F
:10263000E6E700BFFCEC00E02DE9F04F89B0002593
:10264000CE4B039502951A68012A00F04C82CC4BC0
:102650001A68012A00F03982CA4B1A68012A00F070
:102660002682C94B1A68012A00F01382C74B1A68E8
:10267000012A00F00082C64B1A68012A00F0ED81A1
:10268000C44B1A68012A00F0DA81C34B1A68012A88
:1026900000F0C781C14B1A68012A00F0B18115F022
:1026A000FF0F1AD0BE4F01260024A30003F1804380
:1026B000354203F5C0434FEA46060BD0D3F8100568
:1026C00057F82420D3F81015C0F30520C1F30141B9
:1026D00002B190470134082CE7D1002D02DB09B08C
:1026E000BDE8F08FAE4DDFF8BC824FF0FF330693AC
:1026F000079395F9603004AF00225C1C7A60049265
:102700002E4600F000815FFA83FE2EF0C00008AB79
:102710004FEAD00903EB090C01210EF007031CF866
:10272000082C01FA03F312EA030421D032184FEA0D
:102730009E1192F9302056F82220002A00F03981AB
:10274000032900F039811F2800F2068104464FF06A
:10275000A04A04F5E0791CF8184C5AF829C01C402E
:10276000CCF3014C40F0EC80BCF1030F00F023826D
:1027700095F96130581C35D0DBB223F0C00008AAAF
:102780004FEAD00C02EB0C0E4FF0010903F00702E8
:102790001EF8081C09FA02F2114223D006EB0009C8
:1027A000990999F9309056F82990B9F1000F00F085
:1027B0000981032900F009811F2800F2F580844671
:1027C0004FF0A04A0CF5E07C1EF818BC5AF82CE03B
:1027D0001BEA020FCEF3014E40F0C380BEF1030F9F
:1027E00000F0CE8195F96230591C34D0DBB223F071
:1027F000C00008AA4FEAD00C02EB0C0E4FF0010902
:1028000003F007021EF8081C09FA02F2114222D056
:1028100006EB0009990999F9309056F82990B9F119
:10282000000F00F0E380032900F0E3801F2800F28E
:10283000828084464FF0A04A0CF5E07C1EF818BC5C
:102840005AF82CE01BEA020FCEF3014E68D1BEF11C
:10285000030F00F07A8195F963305A1C38D0DBB24F
:1028600023F0C00008AA4FEAD00C02EB0C0E4FF088
:10287000010903F007021EF8081C09FA02F21142CE
:1028800026D006EB0009990999F9309056F829905D
:10289000B9F1000F00F0A080032900F0A0801F28EC
:1028A0008ABF03F01F0C8446DFF8F8A01EF818BC9E
:1028B00098BF4FF0A04A0CF5E07C1BEA020F5AF8D3
:1028C0002CE0CEF3014E20D1BEF1030F00F01981B0
:1028D000002C3FF404AF4FF0A0430299D3F8103519
:1028E000D8F81025994203D1039991423FF4F7AEED
:1028F000029395F960300498059903925C1C069048
:1029000007917FF400AF002432E7BEF1020FDFD160
:10291000032900F07681B9F1000FD9D0C847D7E775
:10292000BEF1020F97D1032900F06E81B9F1000FBB
:1029300091D0C8478FE703F01F0CDFF868A07BE752
:10294000BCF1020FDFD1032900F064810024002ACA
:102950003FF40EAF90470BE70EF01F04DFF844A0E2
:10296000F7E6BEF1020F7FF43DAF032900F04F817F
:10297000B9F1000F3FF436AFC84733E700610040BC
:1029800004610040086100400C610040106100409B
:1029900014610040186100401C6100407C610040EF
:1029A000640900200003005003F01F0CDFF86CA244
:1029B00008E7032940F0A38017F809401C4307F8F3
:1029C0000940C0E603297FF40DAF17F80CA04AEACE
:1029D000020A07F80CA0EFE603297FF479AF17F895
:1029E0000CA04AEA020A07F80CA058E703297FF472
:1029F00032AF17F80CA04AEA020A07F80CA015E754
:102A000000221A601B6801934FF0A042019BD2F88C
:102A10001025824B0292D3F81035039345F0004500
:102A20003DE67F4AD2F8042316067FF533AE002236
:102A30001A601B680093009B45F080052AE6784ADF
:102A4000D2F8042357067FF520AE00221A601B68D7
:102A50000093009B45F0400517E6714AD2F8042325
:102A600092067FF50DAE00221A601B680093009B52
:102A700045F0200504E66A4AD2F80423D1067FF522
:102A8000FAAD00221A601B680093009B45F0100508
:102A9000F1E5634AD2F8042310077FF5E7AD002281
:102AA0001A601B680093009B45F00805DEE55C4A50
:102AB000D2F8042354077FF5D4AD00221A601B68B6
:102AC0000093009B45F00405CBE5554AD2F804235A
:102AD00096077FF5C1AD00221A601B680093009B2A
:102AE00045F00205B8E54E49D1F8041311F0010193
:102AF00029D01D601B680093009B1546A7E514466E
:102B000036E603297FF407AF4FF4003C1F288BBF44
:102B1000424A4FF0A04203F01F03034602EB830E2C
:102B20000134DEF8002722F44032CEF80027DEF828
:102B3000002742EA0C02E4B2CEF80027B9F1000FF8
:102B40007FF4ECAEC7E60D4681E503297FF4EEAED7
:102B50004FF4003C1F2848D803464FF0A04202EB38
:102B6000830E0134DEF8003723F44033CEF800370B
:102B7000DEF800274CEA0202E4B2CEF80027D5E6E0
:102B800003297FF4F5AE4FF4003C1F2831D80346EB
:102B90004FF0A04202EB830E0134DEF8003723F43D
:102BA0004033CEF80037DEF800274CEA0202E4B2E8
:102BB000CEF80027DCE603297FF4C9AE4FF40039D4
:102BC0001F281AD803464FF0A04404EB83030124C6
:102BD000D3F800C72CF4403CC3F800C7D3F800E793
:102BE00049EA0E0EC3F800E7B1E603F01F030B4AF3
:102BF000B5E703F01F03094ACCE70EF01F03074CAB
:102C0000E3E74FF4403C81E74FF4403CA2E74FF448
:102C1000403CBAE74FF44039D2E700BF0003005010
:102C20000060004010B5114C23780BB1852010BD19
:102C30000F4B1049002808BF18464FF08042037818
:102C4000C3F34003C2F88035037803F00103C2F8F0
:102C50007835086810F0010003D0012323700020AC
:102C600010BD0721FFF7C0FCF7E700BFD80900201F
:102C70003C61000000E100E010B44FF080434FF4ED
:102C80006072C3F808230649006800240C6010B184
:102C90000860C3F8042300205DF8044B704700BFB0
:102CA000CC09002010B54FF08043D3F804436207ED
:102CB00005D5D3F8082103F58473002A3CD1A30677
:102CC00003D5204B1A68002A30D1600602D51E4B6E
:102CD0001A6822BB210602D51C4B1A68CAB9E20544
:102CE00002D51B4B1A686AB9A3050AD5194B1A6895
:102CF0003AB10021184A196013680220BDE810405B
:102D0000184710BD0021144A196013680120984724
:102D1000EAE70020104A186013689847DFE70021AF
:102D20000E4A1960136801209847D3E700200B4A28
:102D3000186013689847C8E70021094A19601368AA
:102D40009847BCE714010040180100401C010040F6
:102D50002001004024010040CC090020D4090020BB
:102D6000D0090020034B6FF07F41052259601A60A3
:102D7000704700BF10E000E0084B09491B68094A92
:102D8000A1FB03139B0C916800FB03F09368CB1A23
:102D900023F07F438342F9D3704700BF6C000020CB
:102DA00083DE1B4310E000E0F0B50479954E64012A
:102DB000331987B0DD7E15B1082007B0F0BD4D7F17
:102DC0001D770B685F1C19D01F2B4FF001058ABFC0
:102DD0008D4F4FF0A04703F01F0305FA03F3C7F828
:102DE00008350B681F2B86BF03F01F03864D4FF07D
:102DF000A04503F5E073032745F823704B685D1C7D
:102E00000BD01F2B86BF03F01F037F4D4FF0A04553
:102E100003F5E073002745F82370037906EB4313AD
:102E20001B7F002B4DD003688D69C3F824554F7D5F
:102E30000B7D05683B43C5F86C3503680F684D682A
:102E4000C3F80C75C3F814550B7D012B00F0AC8052
:102E5000331905465A600B696A483351EAB12B7938
:102E6000097F2A6800EB4310037F002B76D1C2F85C
:102E70001C31D2F81C712A680097009FC2F84431B7
:102E8000D2F844212B6861480192019AC3F80403E7
:102E9000286840F30730FFF7A7FB2B792A6806EB79
:102EA00043131B7F002B55D00823C2F80035344450
:102EB00000200123E376E0752076A075A07607B0A8
:102EC000F0BD03688D69C3F824554F7D0B7D0568FF
:102ED0003B43C5F86C3591E8A0000368C3F814754E
:102EE000C3F80C550B7D012BB2D18B685F1C0BD046
:102EF0001F2B86BF03F01F03434D4FF0A04503F582
:102F0000E073002745F82370CB685D1C1BD01F2B96
:102F10004FF001058ABF3C4F4FF0A04703F01F035D
:102F200005FA03F3C7F80835CB681F2B88BF03F0F9
:102F30001F0303F5E0738CBF334D4FF0A04503270B
:102F400045F82370CB6805688F68C5F80835C5F863
:102F500010757DE70423C2F80035A8E70023C2F806
:102F60001031D2F810712A680297029FC2F82031FE
:102F7000D2F820712A680397039FC2F82431D2F84F
:102F800024712A680497049FC2F84431D2F844217E
:102F90002B6805921E48059AC3F80403286840F37D
:102FA0000730FFF721FB78E78B685F1C0BD01F2BE6
:102FB00086BF03F01F03144D4FF0A04503F5E073E7
:102FC000002745F82370CB685D1CBCD01F2B8ABF3F
:102FD0000D4F4FF0A04703F01F03012505FA03F33F
:102FE000C7F80835CB681F2B88BF03F01F0303F514
:102FF000E0738CBF044F4FF0A047032547F82350E0
:10300000CB68A0E7DC09002000030050800002002C
:1030100010030200F0B50379484E01685B01F21815
:10302000127F002A00F083800022C1F80025F218E8
:1030300042495268B2B1027901EB42110A7F002A7B
:1030400078D102683E49C2F8081302683D4D120B60
:1030500051B24909203102F01F02012404FA02F2A0
:1030600045F821200279076806EB4212D7F80C5583
:10307000127FD7F814454FF0FF3E002A49D0D7F809
:103080000825D7F81015C7F80CE5C7F814E500684F
:10309000C0F808E5C0F810E56F1C0BD01F2D86BFE7
:1030A00005F01F0528484FF0A04005F5E075022700
:1030B00040F82570651C0BD01F2C86BF04F01F0440
:1030C00021484FF0A04004F5E074022540F8245058
:1030D000481C0BD01F2986BF01F01F011A484FF072
:1030E000A04001F5E071022440F82140511C0BD0B2
:1030F0001F2A86BF02F01F0213494FF0A04102F5BC
:10310000E072022041F8220033440022DA765A604D
:10311000F0BDD7F80825D7F81015C7F814E5C7F89B
:103120000CE50068C0F808E5C0F810E5B4E7C1F8A0
:1031300000257CE70268054985E700BFDC0900201F
:103140008402020000E100E00003005010030200CE
:10315000F0B50379534C5B01E51887B02D7F3DB185
:1031600001F06045B5F1005F02D0102007B0F0BD5E
:1031700023444C4F9E7D16B1112007B0F0BD9A75C7
:1031800099609E8205796D017A19137F13BB0168DE
:10319000C1F81C31D1F81C61016804960126049F16
:1031A0008E600168D2F808E0C1F81C31D1F81C31FA
:1031B0000593059B968A938A5768B6B201331EF829
:1031C00006609BB29382C1F81C65002F2FD00020AF
:1031D00007B0F0BD03689168C3F82061D3F820718F
:1031E00003680197019FC3F85861D3F858610368D9
:1031F0000296967D029FC3F84415C3F8486503689C
:10320000012199605368002BE1D1036801E0002996
:1032100045D1D3F82021D3F85811002AF7D000293E
:1032200014BF0F2000202C440023A3759EE7967D39
:10323000938A9BB29E4202F1140122D9016804E0F4
:10324000938A9BB2B3F5807F03D0D1F81C31002B59
:10325000F6D0938A9BB2B3F5807FE9D0C1F81C7198
:10326000D1F81C310393039BB2F814C0938A1FFA60
:103270008CFC01331EF80CC09BB29382C1F81CC5B4
:10328000D6E70B889BB2B3F5807F08D00268D2F8EE
:103290001C31002BFBD00123D3600020C3E70F209B
:1032A000C1E700BFDC0900200279044B03EB4213A5
:1032B000987D003018BF0120704700BFDC09002056
:1032C00070B59B4C237F8EB0002B75D1994AD2F8F4
:1032D0000413890548D4974BD3F80423520704D527
:1032E000D3F80821002A40F0CA80924BD3F81C2161
:1032F000C2B1A28AA07D8E4992B282424FF00002F2
:10330000C3F81C2180F0A980D3F81C210692069AEC
:10331000888A8A8A8D6880B20132285C92B28A8259
:10332000C3F81C05834BD3F84421DAB10022C3F85B
:103330004421D3F84411A27E04910499002A40F05C
:103340008980E27D7A4B6AB10022587ED968DA75AD
:1033500001228DF830000B918DF828200AA893E8FF
:10336000060090470EB070BDD2F824110029B2D0EB
:10337000C2F82431D2F82411A37E07914FF40171D1
:103380000798C2F808130BB901235360694A022356
:103390008DF82830D2F88034C2F88034E07DE268BD
:1033A0000D9300238DF83000E375237621680B928E
:1033B00063680AA8984798E75E4BD3F82421002A4F
:1033C00040F09380D3F8101161B1C3F81021D3F805
:1033D000101103910399D3F83C15E07DC9B28842DE
:1033E00000F0AA80534BD3F84421B2B10022C3F8B5
:1033F0004421D3F84411E07D019101994C4960B119
:10340000D3F83C35C8688DF830300123CA750B906D
:103410008DF828300AA80AC99847464BD3F82021CE
:10342000002A9FD00022C3F82021D3F82011A07DCC
:10343000009100993E49002894D0D3F84C058B6840
:103440008DF830008A750B938DF828200AC90AA8D8
:10345000984787E701221A6073E7D3F81C31059378
:10346000059B00283FF45EAF8B688DF830008A75AD
:103470000B938DF828200AC90AA8984752E7E17DE6
:103480002B4A002970D00021C3F80811D3F8081185
:1034900008910899D068517ED3F818354354537E6B
:1034A000D17D0133DBB25376627E214B8A427FF4B9
:1034B0001CAF1A7E002A6DD19B7E13B91D4B0122D1
:1034C0005A601C4AE06863684FF40171C2F808133F
:1034D000627E8DF83020002501220B902168E57571
:1034E0008DF828200AA89847FFE60022C3F8242177
:1034F000D3F82411029102218DF828100299D3F8F3
:103500008014C3F880140D91D3F83C15E368E2757C
:1035100022768DF830100B93216863680AA89847CB
:10352000044BD3F84421002A3FF477AF5EE700BF95
:10353000DC09002000200040217EF1B1D3F80062B8
:10354000E17526F02001E568C3F8001226698DF8C0
:10355000300001238DF82830227621680B95E66033
:1035600063680AA898473DE7C3F80811D3F8082113
:103570000992099AD3F8183596E7E268E1750123B4
:103580008DF830008DF828300B9294E80A000AA8D4
:10359000984727E7DE685D7E1869DA750121002209
:1035A000D8601A765A768DF828100B968DF8305020
:1035B00093E806000AA8904797E600BF30B44C682D
:1035C0009C4208D2002545600968016093420CD0F6
:1035D000002030BC704743600D6805600868E41A3D
:1035E0001844934281E81100F2D1201C18BF012039
:1035F00030BC70474B689A4228BF1A4610B40C681A
:103600000460426048680B685DF8044B801A1344FC
:103610004860003018BF01200B6070474B689A4229
:1036200028BF1A4662B10B680360426048680B68A5
:10363000801A13444860101C0B6018BF01207047AB
:103640001346F1E7134B144993F81E210020032A77
:10365000087002D0D3F8103103B1704730B50F4A6B
:1036600083B06FF4807152E8000F00EA010442E871
:10367000004595F0000FF6D1094A8DF80730052175
:1036800088238DF806308DF8041001A81368984738
:1036900003B030BD500A00204D0A0020400A00202F
:1036A000480A00201A4B1B499A7B0020032A087005
:1036B00001D01B688BB1EFF3108372B6164A01215B
:1036C0001160BFF36F8FBFF34F8F1160BFF36F8F28
:1036D000BFF34F8F83F31088704730B50F4A83B024
:1036E0006FF4803152E8000F00EA010442E800451F
:1036F00095F0000FF6D10A4A8DF8063005218DF8B5
:1037000007308DF8041001A81368984703B030BD46
:10371000500A00204D0A00204C700240400A002050
:10372000480A002010B50A4A0A4813680A4982B0BC
:1037300000248DF80440D0F82005ADF8060043F0D1
:1037400001230968136001A8884702B010BD00BFBB
:10375000700B002000700240480A0020704700BF34
:10376000F8B50C4622C90A4F954228BF15460646B1
:103770002A46384601F05CFF756037602368606850
:103780002B44401B60602360003018BF0120F8BD4F
:10379000000A0020F8B54C68944228BF14460D4634
:1037A00006465CB9046074606A682B68121B234487
:1037B000201C6A602B6018BF0120F8BD034F096808
:1037C0003846224601F034FF3760ECE7000A00205B
:1037D000094BD3F86824C3F86824BFF36F8FBFF395
:1037E0004F8F42B1012192FAA2F3B3FA83F301FAA7
:1037F00003F39A43F7D17047007002400D4B0E4916
:1038000093F89E200020032A087002D0D3F890304D
:1038100003B1704710B4094B6FF0010253E8001F69
:1038200001EA020043E8000494F0000FF6D15DF8CD
:10383000044B7047500A00204D0A0020400A002027
:103840000D4B0E4993F8AE200020032A087002D0D9
:10385000D3F8A03003B1704710B4094B6FF00202E7
:1038600053E8001F01EA020043E8000494F0000F4F
:10387000F6D15DF8044B7047500A00204D0A002035
:10388000400A00200D4B0E4993F8BE200020032A69
:10389000087002D0D3F8B03003B1704710B4094BB0
:1038A0006FF0040253E8001F01EA020043E800043D
:1038B00094F0000FF6D15DF8044B7047500A0020D9
:1038C0004D0A0020400A00200D4B0E4993F8CE20EF
:1038D0000020032A087002D0D3F8C03003B170472B
:1038E00010B4094B6FF0080253E8001F01EA020010
:1038F00043E8000494F0000FF6D15DF8044B7047E4
:10390000500A00204D0A0020400A00200D4B0E49AD
:1039100093F8DE200020032A087002D0D3F8D030BC
:1039200003B1704710B4094B6FF0100253E8001F49
:1039300001EA020043E8000494F0000FF6D15DF8BC
:10394000044B7047500A00204D0A0020400A002016
:103950000D4B0E4993F8EE200020032A087002D088
:10396000D3F8E03003B1704710B4094B6FF0200278
:1039700053E8001F01EA020043E8000494F0000F3E
:10398000F6D15DF8044B7047500A00204D0A002024
:10399000400A00200D4B0E4993F8FE200020032A18
:1039A000087002D0D3F8F03003B1704710B4094B5F
:1039B0006FF0400253E8001F01EA020043E80004F0
:1039C00094F0000FF6D15DF8044B7047500A0020C8
:1039D0004D0A0020400A00200D4B0E4993F80E219D
:1039E0000020032A087002D0D3F8003103B17047D9
:1039F00010B4094B6FF0800253E8001F01EA020087
:103A000043E8000494F0000FF6D15DF8044B7047D2
:103A1000500A00204D0A0020400A002030B51D4BFE
:103A20001A78130683B01CD41B4B1C481D68016810
:103A300002F00F031033012404FA03F319432B425D
:103A4000016001D003B030BD154B8DF80620052272
:103A50001B688DF807408DF8042001A8984703B033
:103A600030BD0E4D0C4B28681C68012102F00F037D
:103A700001FA03F3184323402860E3D108498DF885
:103A8000062005228DF8073001A80B688DF8042068
:103A90009847D7E7FC090020400A0020700B00205F
:103AA000480A002010B5134BD3F80044C3F8004473
:103AB00082B0BFF36F8FBFF34F8FBFF36F8FBFF332
:103AC0004F8FE2050CD4A30508D50023019302A86B
:103AD000094B032200F8042D1B68984702B010BD63
:103AE0000023019302A8044B022200F8042D1B6856
:103AF0009847E8E700700240480A00202DE9F04F9F
:103B0000DFF844A2DFF84482DAF80030D8F8002069
:103B1000134087B000F08F8093FAA3F4B4FA84F4D2
:103B20000F2CE6B2C6BF103EF3B246F080030193FD
:103B30009DF904B0BBF1000FC0F2B080019B7B4A3D
:103B400003F00F052B01072D02EB030776D9784A06
:103B5000D2F8C094754A7968D358BA891E4604A829
:103B60004B46B0470499002900F0D880059B994541
:103B700071D80246084602B93A60BA680192012635
:103B8000D8F800206B4906FA04F422EA0404019AEA
:103B9000C8F800401A44072D0E70BA6054D8AE0021
:103BA0007219920002F1804202F51C32C2F800073D
:103BB000C2F80437BBF1000FB4BF042328235E4AC8
:103BC0005E495F4CDFF888811E44F6B2B4BF91466F
:103BD000894606F1804609EB450906F51C360025A5
:103BE00001272560BFF36F8FBFF34F8F3760BFF39F
:103BF0006F8FBFF34F8F0220FFF7BEF82368002BB3
:103C0000EFD01420FFF7B8F8D8F800309A0606D4A1
:103C10000220FFF7B1F8D8F800309B06F8D5012054
:103C2000FFF7AAF8B9F8003003F1804303F51C331D
:103C30001B68002BD5D007B0BDE8F08F05F5947256
:103C40003B4951F8229085E7394AAE00C2F8A007F7
:103C5000C2F8A437AEE70123A3400222DB43BA73C4
:103C60005AE8001F01EA03004AE8000494F0000F3C
:103C7000F6D105238DF80C30324B9DF804101B68EB
:103C80008DF80E108DF80F2003A89847DAF8003051
:103C9000D8F8004023407FF43FAFCCE7019EDFF827
:103CA000B49006F00F054FEA051A09EB0A0704A8BD
:103CB000BA89796859F80A30984750B9802E49F87E
:103CC0000A0006D11A4AD2F8003243F00403C2F8BF
:103CD00000320120D8F80020BB68059900FA04F4EE
:103CE00022EA0402C8F80020124A0B44072D107083
:103CF000BB60049A06D90E4BAE00C3F8A026C3F8E9
:103D0000A41657E7AE0073199B0003F1804303F537
:103D10001C33C3F80026C3F804164BE70246059B84
:103D20000846002A7FF429AF26E700BF500A00208A
:103D3000007002404D0A0020C86100004061000090
:103D400004710240480A0020400A0020700B002045
:103D500074740240E00A002070B5184A184C002321
:103D6000237082B0C2F8A434BFF36F8FBFF34F8FBC
:103D7000144B9A7F032A01D01B692BB123780BB90E
:103D8000FFF7BCFE02B070BD0F4A6FF4003152E87D
:103D9000000F00EA010542E8005696F0000FF6D148
:103DA0000A4A8DF80730052101238DF806308DF879
:103DB000041001A813689847E0E700BF00700240B4
:103DC0004D0A0020500A0020400A0020480A002026
:103DD00070B5184A184C0023237082B0C2F8A8347A
:103DE000BFF36F8FBFF34F8F144B93F82E20032A2E
:103DF00001D01B6A2BB123780BB9FFF77FFE02B00D
:103E000070BD0F4A6FF4802152E8000F00EA0105EF
:103E100042E8005696F0000FF6D10A4A8DF80730B6
:103E2000052102238DF806308DF8041001A81368CF
:103E30009847E0E7007002404D0A0020500A002039
:103E4000400A0020480A002070B5184A184C002388
:103E5000237082B0C2F8AC34BFF36F8FBFF34F8FC3
:103E6000144B93F83E20032A01D01B6B2BB123780F
:103E70000BB9FFF743FE02B070BD0F4A6FF400218B
:103E800052E8000F00EA010542E8005696F0000FE4
:103E9000F6D10A4A8DF80730052103238DF8063044
:103EA0008DF8041001A813689847E0E700700240FD
:103EB0004D0A0020500A0020400A0020480A002035
:103EC00070B5194A194C0023237082B0C2F8B0347F
:103ED000BFF36F8FBFF34F8F154B93F84E20032A1C
:103EE00001D01B6C2BB123780BB9FFF707FE02B092
:103EF00070BD104A6FF4801152E8000F00EA01050E
:103F000042E8005696F0000FF6D10B4A8DF80730C4
:103F1000052104238DF806300DEB03008DF8041005
:103F200013689847DFE700BF007002404D0A002089
:103F3000500A0020400A0020480A002070B5184AA4
:103F4000184C0023237082B0C2F8B434BFF36F8FD3
:103F5000BFF34F8F144B93F85E20032A01D01B6DE3
:103F60002BB123780BB9FFF7C9FD02B070BD0F4A22
:103F70006FF4001152E8000F00EA010542E8005614
:103F800096F0000FF6D10A4A8DF8073005238DF818
:103F900004308DF8063001A813689847E1E700BFA8
:103FA000007002404D0A0020500A0020400A002004
:103FB000480A002070B5184A184C0023237082B0BC
:103FC000C2F8B834BFF36F8FBFF34F8F144B93F821
:103FD0006E20032A01D01B6E2BB123780BB9FFF79B
:103FE0008DFD02B070BD0F4A6FF4800152E8000FE2
:103FF00000EA010542E8005696F0000FF6D10A4AA1
:104000008DF80730052106238DF806308DF8041051
:1040100001A813689847E0E7007002404D0A0020AD
:10402000500A0020400A0020480A002070B5184AB3
:10403000184C0023237082B0C2F8BC34BFF36F8FDA
:10404000BFF34F8F144B93F87E20032A01D01B6FD0
:104050002BB123780BB9FFF751FD02B070BD0F4AA9
:104060006FF4000152E8000F00EA010542E8005633
:1040700096F0000FF6D10A4A8DF807300521072384
:104080008DF806308DF8041001A813689847E0E712
:10409000007002404D0A0020500A0020400A002013
:1040A000480A0020134B144993F88E200020032A5D
:1040B000087002D0D3F8803003B1704730B50F4A92
:1040C00083B06FF0807152E8000F00EA010442E80B
:1040D000004595F0000FF6D1094A8DF8073005210B
:1040E00008238DF806308DF8041001A8136898474E
:1040F00003B030BD500A00204D0A0020400A0020C5
:10410000480A00202DE9F0432F4BD3F86C44C3F844
:104110006C4483B0BFF36F8FBFF34F8FBFF36F8FCC
:10412000BFF34F8F294A136803F0011123F00113E5
:104130001C43116023D0264DDFF89C80DFF89C9053
:104140000127052694FAA4F3B3FA83F3DAB20F2B0E
:10415000A2F11000D8BF42F080002A68D8F8001001
:1041600007FA03F342EA0302C8BFC0B22A6002069C
:1041700024EA030418D40B4209D0002CE2D1154BD9
:104180001B780BB9FFF7BAFC03B0BDE8F0838DF8DC
:1041900006008DF804608DF80770D9F8003001A88A
:1041A0009847002CCED1EAE70B40E6D18DF8060007
:1041B0008DF807308DF80460D9F8003001A89847D1
:1041C000002CBFD1DBE700BF00700240440A002092
:1041D000700B00204D0A0020400A0020480A0020F1
:1041E00038B50446FEF7BEFD24B1494D287818B114
:1041F000082038BD072038BDFEF76CF9FEF7A4F99A
:104200000028FBD0434A444B1460402100224FF465
:10421000007401202870A3F89C10A3F8AC10A3F838
:10422000BC10A3F8CC10A3F8DC10A3F8EC10A3F892
:10423000FC10A3F80C1183F89E20C3F89020C3F85B
:10424000982083F8AE20C3F8A020C3F8A82083F8F4
:10425000BE20C3F8B020C3F8B82083F8CE20C3F83E
:10426000C020C3F8C82083F8DE20C3F8D020C3F8EC
:10427000D82083F8EE20C3F8E020C3F8E82083F8C4
:10428000FE20C3F8F020C3F8F82083F80E21C3F80D
:104290000021C3F8082183F81E21C3F81021C3F8B8
:1042A000182199819A731A609A6099839A771A6192
:1042B0009A61998583F82E201A629A62998783F809
:1042C0003E201A639A63A3F84C1083F84E201A64B8
:1042D0009A64A3F85C1083F85E201A659A65A3F8C7
:1042E0006C1083F86E201A66A3F81C419A66A3F836
:1042F0007C1083F87E201A679A67A3F88C4083F8B5
:104300008E20C3F88020C3F88820104638BD00BF37
:104310004C0A0020480A0020500A0020184A4FF496
:104320000063C2F80034BFF36F8FBFF34F8F0123D8
:10433000C2F80035BFF36F8FBFF34F8FD2F8003450
:104340000F491B05FAD54FF40063F0B4C1F80034EF
:10435000BFF36F8FBFF34F8F80230A480A4AC1F81B
:104360001C350A4E0A4D0B4C0023022140F2FF1768
:104370000370117037602B602370F0BC704700BF72
:1043800000700240FC0900204C0A0020700B002045
:10439000400A00204D0A002010B5084C084BC4F814
:1043A000043307212720FEF71FF90123C4F8043541
:1043B000BFF36F8FBFF34F8F10BD00BF007002407F
:1043C0000714E003034B1878012894BF0020012054
:1043D000704700BF4C0A0020044B1B78012B83BFA1
:1043E000034B5868C0F3C010002070474C0A0020EF
:1043F00000E100E0064B10F0800FA3F1900200F006
:104400000F0008BF134603EB00139889704700BFE5
:10441000E00A00202DE9F0414FFA80F8B8F1000FD2
:1044200000F00F04B4BF00251025064600200F46FB
:104430002544FDF7BBF954B9404B1B78B3423FD03C
:1044400010240020FDF7BAF92046BDE8F0813C4B6E
:10445000DFF820E11B68DEF80060DB439BB201223D
:10446000334302FA05F52B4206D011240020FDF754
:10447000A5F92046BDE8F081072C2FD9B8F1000F2F
:104480003EDB24B222012F492F4B3048885004EBE9
:10449000440403EB840301EB020C97E80700354367
:1044A0002B4FCEF800500024802583E80700CCF87D
:1044B0000430CCF808408CF80E40C7F80451C0E72F
:1044C0001F4BDFF8B0E01B68DEF80060DB439BB2F7
:1044D0000122334302FA05F52B42C6D1B8F1000F91
:1044E00007DB1C4BA20013445B68012BC9D10F24CE
:1044F000A7E7194B04F5847253F82230012BF6D04C
:104500003A68164B164924B202F060422001B2F11B
:10451000005F04EB440403EB840301EB000C06D0C2
:10452000BA68D20754BF0F4A0F4A0A50B5E7BA68B3
:10453000D40754BF0D4A0E4A0A50AEE7FC090020CA
:10454000700B0020500A002014140020BD3500001C
:1045500000E100E04074024000700240A813002017
:10456000E00A00206137000095370000F5350000B3
:104570001D360000400A002070B543B2002B84B005
:1045800000F00F04244D4FF0010234DBD5F8141570
:10459000A2400A43C5F81425BFF36F8FBFF34F8FB6
:1045A000002B1FDB1D4B1C4A1B5D012606FA03F383
:1045B000C2F80433A4B105460020FDF7F7F8184906
:1045C000184B0A6804F1100086401643072C0E6051
:1045D00003EB041616DD03230020B373FDF7EEF89A
:1045E00004B070BD104B0C4A195D01238B40C2F81A
:1045F000043304B070BDD5F81015A2400A43C5F8C5
:104600001025C9E70023284601A9019302930393CB
:10461000FFF700FFDFE700BF00700240BC61000051
:10462000700B0020500A0020DC6100002DE9F047EB
:10463000DFF82481444FD8F800307E8853EA0646DC
:1046400084B018BFC14625D16BE005F00F010122EF
:1046500001F11003D8F80000DFF800E102FA03F3DB
:1046600033EA000C4FEA01120EEB020A4BD1396813
:104670004EF802C0DB4318400B40C9F800003B6015
:1046800003238AF80E300020FDF798F80123A34099
:104690009E4346D096FAA6F3B3FA83F4E3B20F2C06
:1046A000C6BF103BDDB243F080050020FDF77EF869
:1046B0002B06CAD5D7F800E0D8F8001005F00F0295
:1046C000012361EA0E0093401842DCD01F488DF8A8
:1046D0000650120121EA0301C9F8001000218518D3
:1046E0008150DFF87CC0052103228DF804101649A3
:1046F000AA734EEA03038DF8072001A8DCF8002016
:104700000B609047BFE73A681342B9D00729B7D882
:104710000023284601A9019302930393FFF77AFE31
:10472000AEE70B4B40F2FF1100223960C3F80425BD
:10473000BFF36F8FBFF34F8F064B8022C3F88420E7
:1047400004B0BDE8F08700BF700B0020E00A002035
:104750000070024000E100E0400A0020500A002002
:10476000480A00202DE9F04F4A4FDFF838817E8853
:10477000D8F80030484989B0002253EA0646474B32
:104780000A70039300F08280029205AA0192C1464A
:104790009B4625E004F00F01012001F11003D8F839
:1047A0000020DFF804E100FA03F333EA020C4FEAD9
:1047B00001100EEB000A4CD139684EF800C0DB4303
:1047C0001A400B40C9F800203B6003238AF80E30E2
:1047D0000020FCF7F3FF012303FA05F5AE4346D0B2
:1047E00096FAA6F5B5FA85F50F2DECB2C6BF103CCA
:1047F000E4B244F080040020FCF7D8FF2306C9D5BA
:10480000D7F800E0D8F8001004F00F02012361EAA5
:104810000E0093401842DBD021488DF8164012015B
:1048200084184EEA030C21EA0301029B8350C9F865
:1048300000104FF0050E0321164B8DF81710A173D1
:104840008DF814E0DBF800200198C3F800C0904711
:10485000BEE73A681342B8D00729B6D8029B01993F
:104860000593204606930793FFF7D4FDADE7019823
:10487000039B0021012205911B688DF8142040F252
:10488000FF123A60984709B0BDE8F08F05AB01937D
:104890001846EDE7700B0020FC090020480A0020B4
:1048A000E00A0020400A0020500A00202DE9F047CD
:1048B000DFF848814B4FD8F800307E8853EA06462F
:1048C00084B018BFC14625D16BE005F00F0101226D
:1048D00001F11003D8F80000DFF824E102FA03F335
:1048E00033EA000C4FEA01120EEB020A4BD1396891
:1048F0004EF802C0DB4318400B40C9F800003B6093
:1049000003238AF80E300020FCF758FF0123A34050
:104910009E4346D096FAA6F3B3FA83F4E3B20F2C83
:10492000C6BF103BDDB243F080050020FCF73EFF20
:104930002B06CAD5D7F800E0D8F8001005F00F0212
:10494000012361EA0E0093401842DCD026488DF81E
:104950000650120121EA0301C9F800100021851850
:104960008150DFF8A0C0052103228DF804101D49F5
:10497000AA734EEA03038DF8072001A8DCF8002093
:104980000B609047BFE73A681342B9D00729B7D800
:104990000023284601A9019302930393FFF73AFDF0
:1049A000AEE7124B40F2FF1100223960C3F8042534
:1049B000BFF36F8FBFF34F8F0D498020C1F8840084
:1049C000D3F80413C3F80813C3F80025BFF36F8F9F
:1049D000BFF34F8F0749084B0A7001221A7004B0C9
:1049E000BDE8F087700B0020E00A00200070024054
:1049F00000E100E04D0A00204C0A0020400A00209F
:104A0000500A0020480A0020F0B5044685B0002076
:104A1000FCF7CCFE23061FD42C4F2D4D3A6804F032
:104A20000F0101F110000123834033EA020E4FEA27
:104A3000011005EB000639D1264945F800E0086869
:104A4000DB431A4003403A600B600323B37300203A
:104A5000FCF7B4FE05B0F0BD1E4D1C4E2868316851
:104A600004F00F02012361EA000793401F42EED0D9
:104A7000194F8DF80640120107EB020E21EA0301DF
:104A8000164C31600343032100260520BE508DF8EB
:104A900007108EF80E1022688DF8040001A82B6014
:104AA00090470020FCF78AFE05B0F0BD094A126865
:104AB0001342CAD00729C8D80023204601A9019370
:104AC00002930393FFF7A6FCBFE700BF400A002054
:104AD000500A0020700B0020E00A0020480A002045
:104AE0002DE9F04F5049514FD1F80032DFF84C8199
:104AF0004F4C23F00403C1F800323B6898F8009053
:104B00002268D1F88064D94389B219F0800F85B04A
:104B100042EA010228D109F00F0A0AF11001012529
:104B20008D402A4234D1DFF8189101AD06F080069D
:104B300088F800606FF0011254E8001F01EA0200DB
:104B400044E8000696F0000FF6D104210020019001
:104B500043F00103D9F800208DF8041028463B608B
:104B6000904705B0BDE8F08F09F00F0A012505FA5E
:104B70000AF52A42D7D00020FCF718FE3A682368CD
:104B800063EA0201294231D101ADDFF8B49018E0A7
:104B90000020FCF70BFE236826484FEA0A1135EA8D
:104BA000030200EB010B11D142503A68ED432B4058
:104BB000154023603D6001AD0323DFF884908BF83E
:104BC0000E300020FCF7FAFD3B68AFE73B681D4262
:104BD000F1D0BAF1070F01ADEED8002348462946BF
:104BE000019302930393FFF715FCE5E712498DF853
:104BF00006904FEA0A1A23EA050301EB0A00236034
:104C0000DFF83C90002341F80A302A4303230521B2
:104C100001AD83738DF807308DF80410D9F800309A
:104C20003A6028469847CCE700700240700B00209D
:104C3000400A0020500A0020E00A0020FC09002061
:104C4000480A00202DE9F04FB44BD3F804E385B0B7
:104C5000BEF1000F00F0B18000252F4671460126FD
:104C600091FAA1F3AE4AB3FA83F39800024406FA2C
:104C700003F014682CB11760BFF36F8FBFF34F8F31
:104C800005438143ECD1A74E3378EBB105F400071F
:104C900035F4000512D0DFF8B0924FF0010895FA14
:104CA000A5F4B4FA84F459F8243008FA04F49847C7
:104CB000A543F4D13378002B00F08480002F40F01E
:104CC000868005B0BDE8F08FA80240F1C080964A0A
:104CD000964BDFF854C2954F40F2A97111601968E4
:104CE000914A11F0FF0118BF1B6840F2AA7018BF6B
:104CF00019408E4B10601A688C4812F0FF021CBFDE
:104D00001B681A40884B40F2AB741C60036813F0B8
:104D1000FF031CBF0068034040F2AC70CCF80000F9
:104D200038680140824808D0046840F2A9780C43F2
:104D30000460CCF80080396039687B4F7B4940F2D1
:104D4000AD743C600C68224009D0046840F2AA7C33
:104D500044EA02440460C7F800C00A600A68724965
:104D6000724A40F2AE740C60126813400ED0D9073C
:104D700048BF45F400056C49DA066C4A40F2AB7452
:104D80000C601360136848BF45F00105036833F0F9
:104D900001121CBF0EF080710D4313F0011F05D0EE
:104DA0001EF4806F1CBF026045F4806505F40007A7
:104DB00035F400057FF46FAF7CE75A4B1F78002F66
:104DC0007FF47FAFFEF79AFE002F3FF47AAF534A8D
:104DD000584ED2F80032584F584D23F00403C2F811
:104DE0000032306897F800902968D2F88084C34375
:104DF0009BB219F0800F43EA01032FD109F00F0A8B
:104E00000AF110020124944023423BD1DFF83C9187
:104E100001AC08F0800887F800806FF0011355E8B6
:104E2000002F02EA030145E8001797F0000FF6D1C2
:104E30000421002540F001020195D9F800308DF8D9
:104E4000041020463260984705B0BDE8F08F05F4A5
:104E5000000735F400057FF41EAFB3E709F00F0A31
:104E6000012404FA0AF42342D0D00020FCF79EFC6F
:104E700032682B6863EA0201214231D101ACDFF8CC
:104E8000CC9018E00020FCF791FC2B682C484FEAEE
:104E90000A1134EA030200EB010B11D142503268CF
:104EA000E443234014402B60346001AC0323DFF85B
:104EB0009C908BF80E300020FCF780FC3068A8E74F
:104EC00033681C42F1D0BAF1070F01ACEED80023D1
:104ED00048462146019302930393FFF79BFAE5E7C7
:104EE00018498DF806904FEA0A1A23EA040301EBE9
:104EF0000A002B60DFF85490002341F80A30224367
:104F00000323052101AC83738DF807308DF804105D
:104F1000D9F80030326020469847CCE70070024054
:104F2000007102404D0A00200078024004780240DF
:104F3000440A0020700B0020FC090020400A0020D9
:104F4000500A0020E00A002054610000480A0020B6
:104F50002DE9F0414FFA80F8B8F1000F00F00F058D
:104F6000B4BF00241024064600200F462C44FCF752
:104F70001DFC55B92E4B1B78B34236D010240020AF
:104F8000FCF71CFC2046BDE8F0812A4B2A481B6830
:104F90000168DB439BB201220B4302FA04F4234273
:104FA00006D011240020FCF709FC2046BDE8F08162
:104FB000072D26D9214BA3F1900213EA280638BF0A
:104FC00016462D0172194FF0000EC2F808E03B683A
:104FD00073517E681A4D56600C438026046082F837
:104FE0000EE07446C5F80461C9E7124B12481B680D
:104FF0000168DB439BB201220B4302FA04F4234213
:10500000CFD1B8F1000F07DB0E4BAA0013445B6849
:10501000012B0AD10F24B2E70B4B05F5847253F82C
:105020002230012BF6D0054ECBE7084EC9E700BF72
:10503000FC090020700B0020400A0020E00A00203C
:1050400000E100E04074024000700240500A00207D
:1050500000487047000A0020F8B50E4B10F0800F92
:1050600000F00F00A3F190054FEA001418BF1D4691
:105070002E190F460020FCF799FBB3683B602B59B3
:10508000112423B10020FCF799FB2046F8BDB47B26
:10509000F8E700BFE00A0020044B40F48070C3F83A
:1050A0001805BFF36F8FBFF34F8F7047007002403A
:1050B000034BC3F81805BFF36F8FBFF34F8F7047D3
:1050C0000070024000F00F03072B0BD802060BD430
:1050D0000B4A9B001A445068A0F10100B0FA80F01E
:1050E000400970470020704703F58473054A52F861
:1050F0002300A0F10100B0FA80F04009704700BF22
:10510000407402400070024010B50822002104469D
:10511000FBF718F90E4BD3F880242270D3F88424BF
:105120006270D3F88824D3F88C1442EA012262809A
:10513000D3F89024D3F8941442EA0122A280D3F841
:105140009824D3F89C3442EA0323E38010BD00BFC7
:1051500000700240EFF3108372B6074A012111601C
:10516000BFF36F8FBFF34F8F1160BFF36F8FBFF32C
:105170004F8F83F3108870474C700240034B01221D
:105180001A60BFF36F8FBFF34F8F704750700240AC
:10519000034B01221A60BFF36F8FBFF34F8F70472D
:1051A00054700240014B1878704700BFFC09002082
:1051B000032809D0092805D0022800D07047002014
:1051C000FBF7F4BCFBF706BD0020FBF7DBBC00BF20
:1051D00010B5032912D8DFE801F0171207020120E9
:1051E000BDE81040FBF7E2BC0120FBF7CBFC4FF41D
:1051F000806211491148FCF759FAC8B910BD032063
:10520000BDE81040FBF7FCBCFCF730FA0A4C0C4937
:10521000237802460320FBF7BBFB21464FF4806254
:105220000648FCF743FA0220BDE81040FBF7E8BC53
:10523000BDE81040FBF744BD740F0020EC61000096
:105240000C620000012808B517D00AD3022807D144
:105250000E490320FBF7FCFA0D4B01221A7008BD22
:1052600008BD0C490320FBF7F3FAFFF7ABF8002861
:10527000F5D1BDE80840FCF7E5BB07490320FBF783
:10528000E7FA034B00221A7008BD00BF70620000ED
:10529000781300203062000050620000F0B583B047
:1052A000FDF7F8F8002840F084800020FDF7BAFCF4
:1052B000002874D10020FBF7AFFA002876D14549C9
:1052C000454E0320FBF7C4FAFBF7BAFCFBF7ECFCF6
:1052D00040F222324FF0805332805A6E1B6E00240F
:1052E00015461C4306F1200704F00F033B4A022138
:1052F00001A800F0A9F99DF8043026F8023F23091F
:1053000043EA05732A09B7421C461546ECD13448D6
:10531000FCF736FB002859D13248FCF715FC002871
:105320004AD13148FDF7A8FC00284CD12F4E304D12
:10533000374600230CE0FCF7BFFB0020FBF79EFC88
:1053400090B90120FBF79AFC18BBFBF77DFB2346C5
:105350002C78A342F1D0002CEDD1FCF77DFB00208E
:10536000FBF78CFC0028ECD032682249224800F080
:105370009DF94FF4806220491A48FCF757F900283C
:10538000DFD13B68012001333B60FBF777FC00284D
:10539000DBD0002204211348FCF7AAF9D5E7FBF77C
:1053A0008FFC0020FBF738FA002888D0FBF788FC38
:1053B00085E7FBF785FC78E7FBF782FC0A48FDF7F9
:1053C0005BFC0028B2D0FBF77BFCAFE7FBF778FC77
:1053D000A2E700BF8862000080140020A0620000E5
:1053E000E8610000EC610000C0620000741300205E
:1053F00078130020A4620000740B00200649074ABD
:10540000074B9B1A03DD043BC858D050FBDC00F06F
:1054100013F8FAF723FF000050640000000000209A
:10542000E8010020FEE7FEE7FEE7FEE7FEE7FEE715
:10543000FEE7FEE7FEE7FEE770B45E4B1B68082B55
:1054400019D05D4AD2F8883043F47003C2F888302E
:10545000BFF34F8FBFF36F8F4FF01023D3F80022AD
:10546000002A75DBD3F80432002B71DB534B544A0E
:105470001A6070BC7047534B19680029E1D14FF096
:1054800080404FF08052C0F80C114F4BC0F8101103
:10549000C0F83815D2F80414C3F82015D2F808144F
:1054A000C3F82415D2F80C14C3F82815D2F8101438
:1054B000C3F82C15D2F81414C3F83015D2F8181408
:1054C000C3F83415D2F81C14C3F84015D2F82014D0
:1054D000C3F84415D2F82414C3F84815D2F8281498
:1054E000C3F84C15D2F82C14C3F85015D2F8301468
:1054F000C3F85415D2F83414C3F86015D2F8381430
:10550000C3F86415D2F83C14C3F86815D2F84014F7
:10551000C3F86C15D2F844642C4C2D49C3F870655F
:105520002C4D2560FB23C1F81835D0F8E43ED2F8A5
:10553000581204F50F3423F00F0204F56D7401F0D6
:105540000F0313434FF40072C0F8E43E226078E783
:10555000214B0122C3F80425D3F80024002AFBD0F4
:105560004FF0102312221C49C3F80022D1F8003456
:10557000002BFBD04FF0102312221749C3F804224E
:10558000D1F80024144B002AFAD00022C3F80425D5
:10559000D3F80024002AFBD0BFF34F8F06490F4BEE
:1055A000CA6802F4E0621343CB60BFF34F8F00BFC1
:1055B000FDE700BF3001001000ED00E06C000020AE
:1055C0000090D0033401001000C000408C56004011
:1055D00000F000404881030000E001400400FA05AB
:1055E000034B1B68186A034B002808BF1846704716
:1055F000600000207000002008B5034B1868FFF71A
:10560000EFFFD0F8EC0008BD6000002082B001B9C7
:1056100001A93AB143B113780B601278101C18BF7E
:10562000012003E0104601E06FF0010002B0704776
:1056300010B5431E0A44914204D011F8014B03F8FF
:10564000014FF8E710BD00000CB430B5164B0C1E2E
:105650009DB01D6804DA8B232B604FF0FF301EE0F5
:105660004FF40273ADF8143014BF04F1FF33234636
:10567000049307934FF6FF7302900690ADF816302F
:10568000209A21AB02A92846019300F0A1F8431CFF
:10569000BCBF8B232B6014B1029B00221A701DB07B
:1056A000BDE8304002B07047600000200EB400B585
:1056B0009CB04FF402711DABADF81410029006902F
:1056C0006FF000410A48049107914FF6FF7153F8BB
:1056D000042BADF816100068019302A900F078F8C9
:1056E000029B00221A701CB05DF804EB03B07047F7
:1056F00060000020034613F8012B002AFBD1181A82
:105700000138704749B1FF2A85BF8A2303600A70B8
:105710004FF0FF3098BF01207047084670472DE9D1
:10572000F0478E689E4282460C46914698463ED887
:105730008A8912F4906F3AD0256809696F1A6569F1
:10574000022305EB450595FBF3F57B1C43449D4285
:1057500038BF1D4653050FD5294600F083FB06468A
:1057600098B13A462169FFF763FFA38923F4906358
:1057700043F08003A38113E02A4600F0D1FB0646E4
:1057800070B92169504600F01FFB0C23CAF80030A5
:10579000A38943F04003A3814FF0FF30BDE8F087B9
:1057A000266165613E44ED1B2660A5604646464580
:1057B00028BF464632464946206800F0E9FAA36809
:1057C0009B1BA36023681E4426600020BDE8F08771
:1057D0002DE9F04F9DB0804603938B891C060D4642
:1057E00016460DD50B695BB9402100F03BFB2860E4
:1057F000286118B90C23C8F80030CDE040236B6154
:105800000023099320238DF82930DFF89CB1302341
:105810008DF82A3037463C4614F8013B1BB9B7EBEC
:10582000060910D003E0252BF9D02746F3E74B46B5
:10583000324629464046FFF772FF013000F0A7804C
:10584000099B4B4409933B78002B00F0A080002378
:105850004FF0FF3204930793059206938DF853306F
:105860001A930126052221784E4800F041FA671C60
:10587000049B38B14B4A801A06FA00F01843049092
:105880003C46EFE7D90644BF20228DF853201A0783
:1058900044BF2B228DF8532022782A2A03D0079A5E
:1058A00000210A200BE0039A111D12680391002ABF
:1058B00010DA524243F00200079204900BE02746B0
:1058C00001343B78303B092B03D800FB0232012125
:1058D000F5E701B107923B782E2B1ED17B782A2B5E
:1058E0000AD1039B1A1D1B680392002BB8BF4FF00F
:1058F000FF330237059310E000230593781C194607
:105900000A24074601303A78303A092A03D804FBC2
:1059100001210123F5E703B10591032239782248DB
:1059200000F0E6F940B14023CBEB000003FA00F0B1
:10593000049B18430490013739781C488DF82810CF
:1059400006227E1C00F0D4F988B1194B33B9039BB1
:10595000073323F007030833039314E003AB0093EA
:105960002A46144B04A94046AFF3008007E003AB7E
:1059700000932A460F4B04A9404600F093F8B0F17B
:10598000FF3F824603D0099B5344099342E7AB890A
:105990005B0601D4099801E04FF0FF301DB0BDE86F
:1059A000F08F00BF11640000176400001B6400004A
:1059B000000000001F5700002DE9F04791461F46E8
:1059C0000A698B68DDF820809342B8BF1346C9F896
:1059D000003091F8432006460C4612B10133C9F855
:1059E00000302368990642BFD9F800300233C9F865
:1059F0000030256815F0060510D104F1190A07E0FA
:105A00000123524639463046C04701301AD001358D
:105A1000E368D9F800209B1A9D42F1DB94F84330EB
:105A20002268003318BF012392060FD5E1185A1CD3
:105A3000302081F84300224494F8451082F8431046
:105A4000023303E04FF0FF30BDE8F08704F143027A
:105A500039463046C0470130F4D02268D9F80050AA
:105A6000E36802F00602042A08BF5D1B2269A368EE
:105A70000CBF25EAE57500259342C4BF9B1AED18BB
:105A80004FF000091A344D4509D00123224639460A
:105A90003046C0470130D5D009F10109F3E70020B5
:105AA000BDE8F0872DE9F04317460A7E85B06E2ADF
:105AB000984606460C460C9B01F1430E00F0AE8062
:105AC00011D8632A22D009D8002A00F0BB80582AB6
:105AD00040F0CA8081F84520834955E0642A1ED0F1
