:020000022000DC
:10200000000004201D6102004561020047610200DA
:10201000496102004B6102004D61020000000000B6
:102020000000000000000000000000004F610200FE
:10203000516102000000000053610200556102007E
:10204000D13802005761020089480200576102003E
:102050005761020057610200853D0200576102008E
:102060005761020057610200576102005761020088
:102070005761020057610200576102005761020078
:10208000576102000D2E02005761020057610200E5
:10209000AD2E0200576102009567020057610200F1
:1020A0005761020057610200576102005761020048
:1020B00057610200576102000000000000000000AC
:1020C0005761020057610200576102005761020028
:1020D0005761020057610200576102005761020018
:1020E0005761020057610200576102005761020008
:1020F0000000000057610200000000000000000026
:1021000000000000000000000000000000000000CF
:1021100000000000000000000000000000000000BF
:1021200000000000000000000000000000000000AF
:10213000000000000000000000000000000000009F
:10214000000000000000000000000000000000008F
:10215000000000000000000000000000000000007F
:10216000000000000000000000000000000000006F
:10217000000000000000000000000000000000005F
:10218000000000000000000000000000000000004F
:10219000000000000000000000000000000000003F
:1021A000000000000000000000000000000000002F
:1021B000000000000000000000000000000000001F
:1021C000000000000000000000000000000000000F
:1021D00000000000000000000000000000000000FF
:1021E00000000000000000000000000000000000EF
:1021F00000000000000000000000000000000000DF
:1022000010B5054C237833B9044B13B10448AFF330
:1022100000800123237010BDF01D0020000000008D
:1022200018770200084B10B51BB108490848AFF3F6
:1022300000800848036803B910BD074B002BFBD092
:10224000BDE81040184700BF00000000F41D00204A
:1022500018770200EC1D002000000000154B002B39
:1022600008BF134B9D46A3F5803A00218B460F46CD
:102270001348144A121A00F065F80F4B002B00D0D7
:1022800098470E4B002B00D09847002000210400F7
:102290000D000D48002802D00C48AFF3008000F07C
:1022A0002BF82000290002F091FD00F011F800BF8A
:1022B00000000800000004200000000000000000F2
:1022C000F01D0020802B0020000000000000000016
:1022D00008B5074B044613B10021AFF30080054B4E
:1022E0001868836A03B19847204600F033F800BFAE
:1022F000000000001872020070B50E4B0E4CE41A7C
:10230000A41000251E46A54204D056F82530984753
:102310000135F8E704F074FF084C094BE41AA410E7
:1023200000251E46A54204D056F8253098470135B1
:10233000F8E770BDE41D0020E41D0020E81D00202A
:10234000E41D002002440346934202D003F8011B1F
:10235000FAE77047FEE700BF0378012B04BF014A8C
:10236000137070470C1F00202DE9F04FC7B01C46BA
:102370009248002914BF0A23002316460D460093F5
:1023800002F076FA002840F0E480002C00F0E580AE
:1023900006AB83460193519B539A9E1820250296C3
:1023A00058460099019A0B46034404933133D318DD
:1023B0000393171800295FD07B4203F003038B427D
:1023C00028BF0B46062900F2EB800B46019A012B31
:1023D000155407F1010200F0E180022B7D7007F136
:1023E000020200F0DB80032BBD7007F1030200F056
:1023F000D580042BFD7007F1040200F0CF80062B7E
:102400003D7107F1050240F0D1807D71BA1D9E46F5
:10241000009999422ED0009EC3EB060AAAF104014E
:1024200006F1FF3B8908C3EB0B0B0131BBF1020F37
:102430004FEA810C12D90344019E4FF0203001294C
:1024400006EB030BF05005D00229CBF8040001D0B5
:10245000CBF80800D4456244E6440BD000981570D0
:102460000EF10103834205D20EF1020E7045557044
:1024700000D99570009B1F44039B059707F1330912
:1024800007F1030A264603F101084C46029FDDF8D6
:1024900044910DE00AF8035C0AF8025C0AF8015C5A
:1024A0000AF1030AA24508F8015C08F101082FD0DF
:1024B000BE42EFD24E456BD2509B13F806B00AF8DD
:1024C000015C4FEA2B105FFA80FE09280BF00F0029
:1024D000D4BF0EF1300E0EF1370E092894BF303004
:1024E00037300AF803EC0AF8020C04F0B5F9584446
:1024F0000AF1030A407810F0970F08BF4FF02E0B37
:10250000A24508F801BC06F1010608F10108CFD187
:10251000049B03980297059F019903F1430A0D223A
:102520000A23027443745246254887F8305004F059
:10253000BEF95FFA8AF222492048344602F0ECF8EC
:1025400038B91E4802F094F918B9029B9C42FFF476
:1025500028AF204647B0BDE8F08F55B306A82B68DA
:10256000184A01904FF4807104F0ACF90028F0DBB8
:102570000546304604F0D8F9019BC22828BFC22086
:10258000834602463146581904F091F9AB4402E7FC
:10259000C9EB0600529B13F800B090E79E4637E760
:1025A000002B7FF413AF3A469E4634E74FF0050EFA
:1025B0002EE706AB25460193DBE700BF641C002035
:1025C0000C1E00203C7202002DE9F0416B48C6B0A1
:1025D0000C4616461D4602F04BF9A8B9C4B106AF29
:1025E0002368674A38464FF4807104F06BF900287D
:1025F0000ADB4C9B8046062B00F2BD80DFE803F02F
:10260000146670327C405200002046B0BDE8F08174
:102610004C9B062B00F2AC80DFE803F0049C969004
:10262000847E8A004FF00008304604F07DF900EB0C
:102630000803FF2B044640F29380002CE4DB08EBF8
:102640000402B2F5807FDFD8D4B206A94D4804F069
:102650002EF922464B49494802F05EF8B0FA80F064
:102660004009D2E7C0F58071AA686C682B680192B6
:102670000094324607EB080004F024F90446DCE736
:10268000C0F580712869EA682B680390AC686D68B2
:10269000009502920194324607EB080004F012F90B
:1026A0000446CAE7C0F580716A6928692B680492FC
:1026B000EA680390AC686D68009502920194324616
:1026C00007EB080004F0FEF80446B6E7C0F5807199
:1026D0002B68324607EB080004F0F4F80446ACE738
:1026E000C0F580716A682B68009207EB08003246DB
:1026F00004F0E8F80446A0E7C0F58071EA68AC6829
:102700002B686D68009502920194324607EB080031
:1027100004F0D8F8044690E74FF480714FF00008B9
:1027200006AFAFE74FF480714FF0000806AFE5E762
:102730004FF480714FF0000806AFB5E74FF4807199
:102740004FF0000806AF8FE74FF480714FF000089C
:1027500006AFC7E74FF480714FF0000806AFB7E748
:1027600006AB314603EB0800224604F0A0F864E70C
:102770000024224669E7002461E700BF641C0020B2
:102780003C7202000C1E0020F0B51A4F3B7889B055
:102790001BB1194B1B78834229D0184D06460FCD2B
:1027A0006C460FC495E80F004FF0000E84E80F0050
:1027B0000625052107224FF0EB73114803910824E9
:1027C00002928DF814E000950194069301F006FF43
:1027D000002E0C4A0A4818BF0022694601F0C8FDC5
:1027E00018B9054A012316703B7009B0F0BD0020EE
:1027F00009B0F0BD0E1F00200D1F00201C7202004A
:10280000641C00205923020000487047C9250200BB
:10281000004870476923020038B50020FFF7B4FF75
:10282000044668B9FFF7F0FF0546FFF7F1FF054BD7
:10283000FF22C3F810541C605C60C3F814049A6053
:10284000204638BD101F00200120FFF79DBF00BFAC
:102850002DE9F04383B002AB4FF0000803F8018D7F
:10286000254C064618460D46A76800F0ABFFA26847
:102870006368D4F8009013440133C9EB0303012BC0
:1028800007D80BBB9DF8070000F0C4FF03B0BDE8FC
:10289000F08309F101039DF80700236000F0BAFFFF
:1028A0000122002362F3010368F3820307EA0907A8
:1028B00066F3C50304EB870468F3891365F39F236C
:1028C000E36003B0BDE8F0830121434661F30103F7
:1028D00068F38203052161F3C50309EA020207498F
:1028E00004EB820268F3891309F1010761F39F2366
:1028F0002760D360C6E700BF101F002044720200AB
:102900002DE9F04782B002AB002603F8016D294C97
:102910008146184617468846A56800F053FFA2680E
:102920006368D4F800A013440133CAEB0303022BFD
:1029300007D843BB9DF8070000F06CFF02B0BDE86C
:10294000F0870AF102039DF80700236000F062FFA0
:102950000122002362F301030AEB020166F3820302
:1029600069F3C50305EA0A0A0D4004EB8A0A62F31B
:10297000891304EB850468F39F23CAF80C30E760E1
:1029800002B0BDE8F0870121334661F3010366F32D
:102990008203052161F3C5030AEA0202064804EB3B
:1029A000820266F389130AF1010160F39F2321601B
:1029B000D360BFE7101F0020447202002DE9F04FE2
:1029C00083B002AD002605F8016D2D4C82462846E5
:1029D00090461F468946A56800F0F4FEA268636829
:1029E000D4F800B013440133CBEB0303032B07D817
:1029F0007BBB9DF8070000F00DFF03B0BDE8F08F32
:102A00000BF103039DF80700236000F003FF012290
:102A1000002362F301030BF1020066F382035A44C0
:102A20006AF3C503022105EA0B0B2A40054004EBBB
:102A30008B0B04EB820261F3891304EB850469F3C9
:102A40009F23CBF80C30C2F80C80E76003B0BDE8E0
:102A5000F08F0121334661F3010366F38203052100
:102A600061F3C5030BEA0202064804EB820266F337
:102A700089130BF1010160F39F232160D360B8E754
:102A8000101F0020447202002DE9F0474C4E96E8DA
:102A90000C009A428AB070D0B06804E0C4F3891286
:102AA00002EB9452134400EA0305023506EB85025B
:102AB0000133546814F00302F0D0022A28D0C4F382
:102AC0008312C4F3952C002A75D00DF1100E7546B3
:102AD000D71800EA030106EB81010133C96845F804
:102AE000041BBB42F5D10092C4F3C2007346624698
:102AF000D6F81044324D0021A04738B177603068D5
:102B0000C01B18BF01200AB0BDE8F0876F68F6E768
:102B100003F1010A20EA0A010340013106EB8303B5
:102B200089004FEA94588845DA68DFF894E0C4F3E6
:102B3000891326D9A9B300EA0A0C5FFA81F90EEBD2
:102B40008C0CC9EB08010CF10C0C0EF10C00C9B295
:102B500003910290CDF80490CDF800C00021C4F399
:102B6000C200D6F81474B847404520D006EB85055E
:102B700060F38F146C607768C1E700200AB0BDE88D
:102B8000F08700EA0A000EEB80000C308DE80101AE
:102B90000021DEF8149403910291C4F3C200C847E7
:102BA000E2E70EF10C0C08465FFA88F9D0E7033033
:102BB0000AEB9007A2E71F460DF1100E93E700BF46
:102BC000101F00202DE9F84F244B1A788AB3DFF844
:102BD00090B0DFF89090DFF890A00024012703E088
:102BE0000134E4B2944224D226B2D9F80050DBF882
:102BF000003015F8360007FA00FE1EEA030F05EB59
:102C0000C608EDD0164A23EA0E03136001F0AAF8B5
:102C100015F83650DAF8003007FA05F6334000FAB6
:102C200005F6B34207D00D4B01341A78E4B2944252
:102C3000DAD3BDE8F88FD8F80430002BF3D098F839
:102C40000110A1F10101B1FA81F14909091AB1FAA2
:102C500081F1490928469847E5E700BF3023002065
:102C6000582300202C2300205423002070B5064652
:102C7000114800F06BFD40B9104D01242B68B440A1
:102C80001C4203D023EA04042C6070BD304601F0DE
:102C900069F80B4A136860B123432E680949136031
:102CA00034432C60044809680022BDE8704000F0FD
:102CB000F7BC23EA0403F0E7342300205823002064
:102CC0005423002028230020042A01D8072070471D
:102CD0002DE9F04182B088460546174600F0E4FE33
:102CE000002834D01C4C1D481D491E4A1E4B25602F
:102CF000002608F1FF340F6080F8008016601E6027
:102D0000E4B20327B8F1000F03D11AE0DBB2C4B17B
:102D10001C4623B205EBC30215F833009378134A1F
:102D20008DF8053001A98DF804708DF806608DF8D6
:102D3000076000F0C3FE631E0028E7D002B0BDE8C4
:102D4000F0810B4A0B48002100F098FCF6E700F0F8
:102D500065FE0028C6D0F1E72C2300203023002098
:102D60002823002054230020582300206D2C02002B
:102D7000C52B02005072020070B5084D2B785BB174
:102D8000074E00243368012113F8340000F06EFF71
:102D90002B780134A342F5D8002070BD30230020E9
:102DA0002C23002000B585B000230390194601AA0A
:102DB00044F20100ADF80430029300F003F805B0CE
:102DC0005DF804FB08B50D490120FFF741FDFFF751
:102DD0003BFDFFF759FE0028FBD109490320FFF70F
:102DE00037FDBFF34F8F0749074BCA6802F4E06213
:102DF0001343CB60BFF34F8F00BFFDE75472020057
:102E00006472020000ED00E00400FA05F8B5204A03
:102E1000204B0025C2F84051C2F84451C2F8485135
:102E2000C2F84C51C2F80051C2F804511B6813B3E8
:102E30001949D2F804250C68141B1A6824F07F4441
:102E4000A2422F4609D8197CDE69A41A154499B903
:102E50001EB133461A68A242F5D9104B10491A78B0
:102E60000B789A420DD00F490F4A41F823504FF486
:102E70008013C2F80031F8BD1F745A6998699047F1
:102E8000E6E7531CDBB2022B08BF00230B70EAE716
:102E900000100140602300205C23002064230020F8
:102EA000652300207424002000E100E02DE9F04FAC
:102EB000884A89491378097899428BB037D0013311
:102EC000DBB2022B08BF002384491370844A0E68CA
:102ED000029152F82300834905910B680299321838
:102EE000002522F07F420A602C462946AE46ABB14F
:102EF0001A68824200F2E681DD68C3F800E0801AB9
:102F00001444DA6935B1371927F07F47D9619D60DC
:102F10005F60194613460125002BE9D1002D40F0D2
:102F2000DC820023069301230893069A08E06D4B88
:102F300005931B68694A02920021069308911A467C
:102F4000694BDFF8AC811B780393059B1B681C461B
:102F5000029B1F680023BA460F460993C346079396
:102F6000994618464FF0010E0193A4463FB37D6881
:102F7000BE683946FF695D4BCAEB050424F07F4407
:102F80009C423CD8A3190B604860886081F810E02F
:102F9000C861002A68D015689D4249D2164603E0F0
:102FA00025689D4234D22646F4695B1B002CF7D17C
:102FB000CC610B601446F1612246002FD7D198F8FE
:102FC000003098F80110994200F09480591C03EBEE
:102FD00043039BF8024008EBC303C9B28C421C793F
:102FE0008BF8001008BF8BF80070022C99684ED047
:102FF000032C3FD0012C24D014462246DDE7C5EB3C
:103000000A0525F07F45B54209D2731B0B60BBE76B
:10301000ED1A2560CC610B601446F161CCE70860C5
:103020004860886081F810E0C861EAB11568002343
:10303000EB1A0C4613608C46CA614FF00109224618
:10304000BBE70C7C0494002CD6D1DD684D601E6972
:103050008E605C69CC609B698B61039B002B8AD07E
:10306000049B4B601D4686E70C468C464FF00109D9
:103070002246A2E70AB9BFE71A46D3691074002BAB
:10308000FAD11C469C464FF00109224695E752B101
:10309000914200F00B81134602E0B14207D0334663
:1030A000DE69002EF9D114460874224685E799425C
:1030B00000F0FE801446F5693668DD6115B12B68B5
:1030C00033442B60019B0874A24218BF0123019373
:1030D000EBE700BF64230020652300205C23002071
:1030E000742400206023002066230020FEFF7F0060
:1030F000682300205746DDF804A0B9F1000F40F026
:103100004981079B002B40F0E581099B002B40F093
:10311000DC81BAF1000F03D1069B9A4200F03F8197
:10312000002A00F041816C49029BD1F804051B681C
:103130006A4C17682578C21A22F07F420332002DAC
:1031400051D1674DDFF89CC1DFF89CE14FF4803628
:10315000C1F84463C1F804634FF40036C5F88061D8
:103160002E6001250D60DCF800602F2100BF00BF3C
:1031700000BF00BF00BF00BF00BF00BF76452FD01B
:1031800000BF00BF00BF00BF00BF00BF00BF00BF47
:1031900000BF00BF00BF00BF00BF00BF00BF00BF37
:1031A00000BF00BF00BF00BF00BF00BF00BF00BF27
:1031B00000BF00BF00BF00BF00BF00BF00BF00BF17
:1031C00000BF00BF00BF00BF00BF00BF00BF00BF07
:1031D00000BF00BF00BF00BF00BF00BF00BF00BFF7
:1031E0000139C3D1257097422CBFDA199A183A4990
:1031F00022F07F43C1F84035D1F80425121A1B1A7A
:1032000022F07F4223F07F4303329A4248D9D1F81B
:103210000435344AC1F84035126833492F2300BFC2
:1032200000BF00BF00BF00BF00BF00BF00BF8A4299
:103230002FD000BF00BF00BF00BF00BF00BF00BF56
:1032400000BF00BF00BF00BF00BF00BF00BF00BF86
:1032500000BF00BF00BF00BF00BF00BF00BF00BF76
:1032600000BF00BF00BF00BF00BF00BF00BF00BF66
:1032700000BF00BF00BF00BF00BF00BF00BF00BF56
:1032800000BF00BF00BF00BF00BF00BF00BF00BF46
:1032900000BF013BC3D1124B4FF40032C3F80021F1
:1032A000124A002313700BB0BDE8F08F1646134688
:1032B000D2F81C90B9F1000F1AD0CC464C464FF012
:1032C0000109F8E6002D62D1121A1A600693012353
:1032D0000893069A34E600BF001001407C240020C9
:1032E00000E100E0741C00200024F40066230020AC
:1032F0007B4C7C4DC4F808E07B4C4FF02F0C2468CD
:1033000000BF00BF00BF00BF00BF00BF00BF00BFC5
:10331000AC422FD000BF00BF00BF00BF00BF00BF46
:1033200000BF00BF00BF00BF00BF00BF00BF00BFA5
:1033300000BF00BF00BF00BF00BF00BF00BF00BF95
:1033400000BF00BF00BF00BF00BF00BF00BF00BF85
:1033500000BF00BF00BF00BF00BF00BF00BF00BF75
:1033600000BF00BF00BF00BF00BF00BF00BF00BF65
:1033700000BF00BFBCF1010CC2D101242546099455
:10338000CC464C46CA4603950795A94693E6059C4C
:10339000236099E7059B1946C1F800C0B1E6089B78
:1033A000002B3FF47DAFBBE64D49504B4E4E4D4C8C
:1033B0004FF480304FF400370125C3F88070C1F816
:1033C00048032F23C1F808034D6030681E4600BF34
:1033D00000BF00BF00BF00BF00BF00BF00BFA042D2
:1033E0002FD000BF00BF00BF00BF00BF00BF00BFA5
:1033F00000BF00BF00BF00BF00BF00BF00BF00BFD5
:1034000000BF00BF00BF00BF00BF00BF00BF00BFC4
:1034100000BF00BF00BF00BF00BF00BF00BF00BFB4
:1034200000BF00BF00BF00BF00BF00BF00BF00BFA4
:1034300000BF00BF00BF00BF00BF00BF00BF00BF94
:1034400000BF013EC3D18D6002990A6000BF00BF7A
:1034500000BF00BF00BF00BF00BF00BFA0422FD011
:1034600000BF00BF00BF00BF00BF00BF00BF00BF64
:1034700000BF00BF00BF00BF00BF00BF00BF00BF54
:1034800000BF00BF00BF00BF00BF00BF00BF00BF44
:1034900000BF00BF00BF00BF00BF00BF00BF00BF34
:1034A00000BF00BF00BF00BF00BF00BF00BF00BF24
:1034B00000BF00BF00BF00BF00BF00BF00BF00BF14
:1034C000013BC3D10A4B1A70EAE60A4B9DF80C1077
:1034D00019701EE6029B1F6017E6059A136020E52F
:1034E000001001400024F400741C002000E100E002
:1034F0007C24002066230020F0B4564B564A574ED9
:10350000574C4FF480304FF400310125C2F8801041
:10351000C3F848032F21C3F808035D6030680E46E6
:1035200000BF00BF00BF00BF00BF00BF00BF00BFA3
:10353000A0422FD000BF00BF00BF00BF00BF00BF30
:1035400000BF00BF00BF00BF00BF00BF00BF00BF83
:1035500000BF00BF00BF00BF00BF00BF00BF00BF73
:1035600000BF00BF00BF00BF00BF00BF00BF00BF63
:1035700000BF00BF00BF00BF00BF00BF00BF00BF53
:1035800000BF00BF00BF00BF00BF00BF00BF00BF43
:1035900000BF00BF013EC3D19D6000BF00BF00BFA0
:1035A00000BF00BF00BF00BF00BFA0422FD000BFC0
:1035B00000BF00BF00BF00BF00BF00BF00BF00BF13
:1035C00000BF00BF00BF00BF00BF00BF00BF00BF03
:1035D00000BF00BF00BF00BF00BF00BF00BF00BFF3
:1035E00000BF00BF00BF00BF00BF00BF00BF00BFE3
:1035F00000BF00BF00BF00BF00BF00BF00BF00BFD3
:1036000000BF00BF00BF00BF00BF00BF00BF013947
:10361000C3D1144E144D154C1549164F002030706F
:10362000286020704FF48015E0240B260870487045
:103630008E7038701049C2F8805182F814431560BA
:10364000C3F8080582F81143D3F804350B60F0BCC9
:10365000704700BF0010014000E100E0741C002032
:103660000024F4007C240020602300206423002038
:1036700068230020652300205C230020074B9B78F3
:103680000BB9082070473AB130B10368187C0028A4
:10369000F7D159745A61704707207047682300209A
:1036A0002DE9F043264CA37883B01BB9082003B062
:1036B000BDE8F0830028F9D0042903D8072003B01F
:1036C000BDE8F0834369002BF0D0064602A8737C66
:1036D0000025012B00F8015D0CBF8946A9469046E4
:1036E0000F4600F06FF86378A07821785A1CD2B2A8
:1036F000904208BF2A4691421BD003EB430304EBE0
:10370000C30301200F4918719E60D1F804159DF87C
:103710000700D9601F61C3F81490C3F81880627065
:1037200000F078F8084B4FF480122846C3F80021C7
:10373000BDE79DF8070000F06DF80420B7E700BF73
:10374000682300200010014000E100E070B51B4C30
:10375000A37882B013B9082002B070BD0028FAD057
:103760004369002BF7D0064602A8002500F8015D4A
:10377000357400F027F86278A0782178531CDBB20A
:10378000984208BF2B46994212D002EB420204EB4A
:10379000C20202219DF8070096601171637000F06B
:1037A00039F8074B4FF480122846C3F80021D3E7BD
:1037B0009DF8070000F02EF80420CDE768230020D4
:1037C00000E100E0F0B4EFF3108472B60E4B9A689B
:1037D000B2B90E4901259D60D1F880700C4D2E467E
:1037E0003D401D60C1F88060D1F884505D604FF0AD
:1037F000FF33C1F88430027004B962B6F0BC704780
:1038000001230370F8E700BF702B002000E100E007
:10381000FC06FFBD094B9A6872B168B910B4EFF3AA
:10382000108272B606491C680C605C684C60986037
:1038300002B962B65DF8044B704700BF702B0020E0
:1038400000E100E0074B1B5C1F2B86BF03F01F034A
:1038500005494FF0A041012202FA03F3C1F80C35EB
:10386000704700BF8072020000030050074B1B5CD2
:103870001F2B86BF03F01F0305494FF0A041012213
:1038800002FA03F3C1F80835704700BF80720200E6
:103890000003005030B44FF0A04303224FF4005512
:1038A0004FF480444FF400404FF48031C3F8342784
:1038B000C3F83827C3F83C27C3F84027C3F8085596
:1038C000C3F80845C3F80805C3F8081530BC7047AD
:1038D00010B51A4B1A6882B0A2B100221A601B6898
:1038E00000934FF080430122154C0099C3F8082340
:1038F000A368627033B10CCB0020A2609847A36824
:10390000002BF8D10F4B1A68AAB100221A601B686D
:1039100001934FF080430222094C0199C3F8082318
:1039200023690122A27033B10CCB01202261984798
:103930002369002BF8D102B010BD00BF0001004088
:10394000802400200401004058B910B5054CA3683C
:1039500033B10CCB0020A2609847A368002BF8D1AC
:1039600010BD70478024002010B582B002A800234B
:10397000144C00F8013DFFF725FF237893B9124A54
:103980006360E3601068A36010F00100236114D04D
:1039900002F0A6FE20B94FF080430122C3F818259B
:1039A00001232370E3689DF8070001330122E360DF
:1039B000A270FFF72FFF02B010BD072100F006F83C
:1039C000E6E700BF8024002000E100E0002810B4FA
:1039D00018DB00F1604303F561434901C9B283F884
:1039E0000013C3B24009800000F1604000F561405F
:1039F00003F01F0201239340C0F8803103605DF89B
:103A0000044B7047C3B2044A03F00F044901224437
:103A1000C9B21176E6E700BFFCEC00E030B51F4C00
:103A200094F8645083B015B1082003B030BD4FF056
:103A3000FF33FF220721062023636363A363E3634D
:103A400023646364A364E36423656365A365E3653A
:103A500023606360A360E36023616361A361E3614A
:103A6000236284F860306362A36284F86230E362A8
:103A700084F8633084F86120FFF7A8FF084B094AF7
:103A80001D601B68019301984FF0004301212846F7
:103A900084F86410C2F8043303B030BD94240020CD
:103AA0007C61004000600040034B93F864000030EC
:103AB00018BF0120704700BF94240020F0B5694C66
:103AC000251895F93030002B01DB0820F0BD91F866
:103AD00003E09446BEF1000F56D02368013300F096
:103AE000B180082600256B1C5E4F54F8232001325C
:103AF00051D0AB1CB34245D257F8232001324AD0F3
:103B0000EB1CB3423ED257F82320013243D02B1D89
:103B1000B34237D257F8232001323CD06B1DB34259
:103B200030D257F82370013735D0AB1DB34229D2BC
:103B300054F823204B4F01322DD0EB1DB34221D23C
:103B400057F82320013226D005F10803B34219D2D9
:103B500057F8232001321ED005F10903B34211D2D8
:103B600057F82320013216D005F10A03B34209D2D7
:103B700057F8237001370ED00B35B54202D2E36AF5
:103B8000013307D00420F0BD236A013361D00C2635
:103B90000825A8E70B2326185DB244F823C0324657
:103BA00086F83050BEF1000F02D1234483F858004C
:103BB0008B78D3B91F284A7887BF2B4E00F01F039C
:103BC00003464FF0A04603F5E073920046F8232029
:103BD000CB78DBB9083D2C44097894F8602042EAA0
:103BE000811284F860201846F0BD1F2887BF1E4B45
:103BF00000F01F0202464FF0A04303EB8203D3F80C
:103C0000002722F00202C3F80027E1E7AB0003F12E
:103C1000804303F5C0430A78D3F8101521F44F31DF
:103C200021F44071C3F810151204000202F440316F
:103C3000D3F8104500F47C520A432243C3F8102500
:103C40000020F0BD002385F83030C4F800C01D46C8
:103C5000AEE7082685F830603346C4F820C0354604
:103C6000A3E700BF9424002000030050F0B43A4DB5
:103C70002E1882B096F93030072B20DD2B4493F8B4
:103C800058309B09032B45D0012B14BF4FF4403211
:103C90004FF400321F284DD900F01F002F4B03EBCB
:103CA0008000D0F8003723F44033C0F80037D0F854
:103CB00000371A43C0F8002702B0F0BC7047DAB2F0
:103CC000072AF9D8980000F1804000F5C04003F1C0
:103CD00040029200D0F8104592B202F180420027D3
:103CE00044F0010402F5C042C0F810450197019864
:103CF00017600029E0D096F9302055F82220002ADC
:103D0000DAD00122164902FA03F3C1F8043302B0F3
:103D1000F0BC70471F2810D9104BD3F8103500F0B5
:103D20001F00C34013F0010F0CBF4FF400324FF4DB
:103D30004032B3E74FF0A043B1E74FF0A042134643
:103D4000D2F81025C24012F0010F0CBF4FF4003220
:103D50004FF44032A3E700BF94240020000300503A
:103D6000006000401F288ABF054B4FF0A04300F0C1
:103D70001F00D3F8103523FA00F000F0010070475F
:103D8000000300502DE9F04F89B00025CE4B03957C
:103D900002951A68012A00F04C82CC4B1A68012A5D
:103DA00000F03982CA4B1A68012A00F02682C94BFA
:103DB0001A68012A00F01382C74B1A68012A00F022
:103DC0000082C64B1A68012A00F0ED81C44B1A68C4
:103DD000012A00F0DA81C34B1A68012A00F0C7817A
:103DE000C14B1A68012A00F0B18115F0FF0F1AD0FB
:103DF000BE4F01260024A30003F18043354203F5A2
:103E0000C0434FEA46060BD0D3F8100557F82420DC
:103E1000D3F81015C0F30520C1F3014102B190475A
:103E20000134082CE7D1002D02DB09B0BDE8F08F8A
:103E3000AE4DDFF8BC824FF0FF330693079395F940
:103E4000603004AF00225C1C7A6004922E4600F0C1
:103E500000815FFA83FE2EF0C00008AB4FEAD00964
:103E600003EB090C01210EF007031CF8082C01FAE2
:103E700003F312EA030421D032184FEA9E1192F99B
:103E8000302056F82220002A00F03981032900F062
:103E900039811F2800F2068104464FF0A04A04F53C
:103EA000E0791CF8184C5AF829C01C40CCF3014C9E
:103EB00040F0EC80BCF1030F00F0238295F96130F3
:103EC000581C35D0DBB223F0C00008AA4FEAD00C52
:103ED00002EB0C0E4FF0010903F007021EF8081C5C
:103EE00009FA02F2114223D006EB0009990999F967
:103EF000309056F82990B9F1000F00F0098103299C
:103F000000F009811F2800F2F58084464FF0A04A96
:103F10000CF5E07C1EF818BC5AF82CE01BEA020FE6
:103F2000CEF3014E40F0C380BEF1030F00F0CE810E
:103F300095F96230591C34D0DBB223F0C00008AAD6
:103F40004FEAD00C02EB0C0E4FF0010903F0070210
:103F50001EF8081C09FA02F2114222D006EB0009F1
:103F6000990999F9309056F82990B9F1000F00F0AD
:103F7000E380032900F0E3801F2800F2828084465A
:103F80004FF0A04A0CF5E07C1EF818BC5AF82CE063
:103F90001BEA020FCEF3014E68D1BEF1030F00F011
:103FA0007A8195F963305A1C38D0DBB223F0C00017
:103FB00008AA4FEAD00C02EB0C0E4FF0010903F0F7
:103FC00007021EF8081C09FA02F2114226D006EB7D
:103FD0000009990999F9309056F82990B9F1000F24
:103FE00000F0A080032900F0A0801F288ABF03F002
:103FF0001F0C8446DFF8F8A01EF818BC98BF4FF0DD
:10400000A04A0CF5E07C1BEA020F5AF82CE0CEF334
:10401000014E20D1BEF1030F00F01981002C3FF4B6
:1040200004AF4FF0A0430299D3F81035D8F810250B
:10403000994203D1039991423FF4F7AE029395F967
:1040400060300498059903925C1C069007917FF4F8
:1040500000AF002432E7BEF1020FDFD1032900F0E8
:104060007681B9F1000FD9D0C847D7E7BEF1020F6A
:1040700097D1032900F06E81B9F1000F91D0C847A4
:104080008FE703F01F0CDFF868A07BE7BCF1020F9D
:10409000DFD1032900F064810024002A3FF40EAF31
:1040A00090470BE70EF01F04DFF844A0F7E6BEF1DF
:1040B000020F7FF43DAF032900F04F81B9F1000FEB
:1040C0003FF436AFC84733E7006100400461004069
:1040D000086100400C610040106100401461004024
:1040E000186100401C6100407C6100409424002065
:1040F0000003005003F01F0CDFF86CA208E703294F
:1041000040F0A38017F809401C4307F80940C0E6B7
:1041100003297FF40DAF17F80CA04AEA020A07F84A
:104120000CA0EFE603297FF479AF17F80CA04AEA58
:10413000020A07F80CA058E703297FF432AF17F8FA
:104140000CA04AEA020A07F80CA015E700221A6040
:104150001B6801934FF0A042019BD2F81025824BBF
:104160000292D3F81035039345F000453DE67F4AAF
:10417000D2F8042316067FF533AE00221A601B68BE
:104180000093009B45F080052AE6784AD2F8042384
:1041900057067FF520AE00221A601B680093009B33
:1041A00045F0400517E6714AD2F8042392067FF5E0
:1041B0000DAE00221A601B680093009B45F020059D
:1041C00004E66A4AD2F80423D1067FF5FAAD00224C
:1041D0001A601B680093009B45F01005F1E5634AE7
:1041E000D2F8042310077FF5E7AD00221A601B68A0
:1041F0000093009B45F00805DEE55C4AD2F80423F5
:1042000054077FF5D4AD00221A601B680093009B11
:1042100045F00405CBE5554AD2F8042396077FF50F
:10422000C1AD00221A601B680093009B45F0020597
:10423000B8E54E49D1F8041311F0010129D01D60F1
:104240001B680093009B1546A7E5144636E6032934
:104250007FF407AF4FF4003C1F288BBF424A4FF05A
:10426000A04203F01F03034602EB830E0134DEF885
:10427000002722F44032CEF80027DEF8002742EA79
:104280000C02E4B2CEF80027B9F1000F7FF4ECAED7
:10429000C7E60D4681E503297FF4EEAE4FF4003CFE
:1042A0001F2848D803464FF0A04202EB830E01348A
:1042B000DEF8003723F44033CEF80037DEF800276D
:1042C0004CEA0202E4B2CEF80027D5E603297FF4D7
:1042D000F5AE4FF4003C1F2831D803464FF0A04202
:1042E00002EB830E0134DEF8003723F44033CEF8BE
:1042F0000037DEF800274CEA0202E4B2CEF80027CD
:10430000DCE603297FF4C9AE4FF400391F281AD820
:1043100003464FF0A04404EB83030124D3F800C705
:104320002CF4403CC3F800C7D3F800E749EA0E0E6E
:10433000C3F800E7B1E603F01F030B4AB5E703F04B
:104340001F03094ACCE70EF01F03074CE3E74FF4C5
:10435000403C81E74FF4403CA2E74FF4403CBAE7D1
:104360004FF44039D2E700BF000300500060004026
:10437000F0B50479954E6401331987B0DD7E15B12F
:10438000082007B0F0BD4D7F1D770B685F1C19D06A
:104390001F2B4FF001058ABF8D4F4FF0A04703F050
:1043A0001F0305FA03F3C7F808350B681F2B86BFF8
:1043B00003F01F03864D4FF0A04503F5E07303277C
:1043C00045F823704B685D1C0BD01F2B86BF03F094
:1043D0001F037F4D4FF0A04503F5E073002745F81C
:1043E0002370037906EB43131B7F002B4DD003682A
:1043F0008D69C3F824554F7D0B7D05683B43C5F897
:104400006C3503680F684D68C3F80C75C3F8145514
:104410000B7D012B00F0AC80331905465A600B6907
:104420006A483351EAB12B79097F2A6800EB4310BF
:10443000037F002B76D1C2F81C31D2F81C712A6898
:104440000097009FC2F84431D2F844212B6861489C
:104450000192019AC3F80403286840F30730FFF77C
:10446000B5FA2B792A6806EB43131B7F002B55D036
:104470000823C2F80035344400200123E376E075B8
:104480002076A075A07607B0F0BD03688D69C3F8EB
:1044900024554F7D0B7D05683B43C5F86C3591E88D
:1044A000A0000368C3F81475C3F80C550B7D012BED
:1044B000B2D18B685F1C0BD01F2B86BF03F01F038C
:1044C000434D4FF0A04503F5E073002745F82370F6
:1044D000CB685D1C1BD01F2B4FF001058ABF3C4FE2
:1044E0004FF0A04703F01F0305FA03F3C7F80835A0
:1044F000CB681F2B88BF03F01F0303F5E0738CBF4D
:10450000334D4FF0A045032745F82370CB6805686D
:104510008F68C5F80835C5F810757DE70423C2F823
:104520000035A8E70023C2F81031D2F810712A68CC
:104530000297029FC2F82031D2F820712A680397AF
:10454000039FC2F82431D2F824712A680497049F8B
:10455000C2F84431D2F844212B6805921E48059ACE
:10456000C3F80403286840F30730FFF72FFA78E711
:104570008B685F1C0BD01F2B86BF03F01F03144DED
:104580004FF0A04503F5E073002745F82370CB6892
:104590005D1CBCD01F2B8ABF0D4F4FF0A04703F00E
:1045A0001F03012505FA03F3C7F80835CB681F2B55
:1045B00088BF03F01F0303F5E0738CBF044F4FF077
:1045C000A047032547F82350CB68A0E7FC24002030
:1045D000000300508000020010030200F0B50379D0
:1045E000484E01685B01F218127F002A00F08380B8
:1045F0000022C1F80025F21842495268B2B102798E
:1046000001EB42110A7F002A78D102683E49C2F8C4
:10461000081302683D4D120B51B24909203102F0D6
:104620001F02012404FA02F245F8212002790768EA
:1046300006EB4212D7F80C55127FD7F814454FF00D
:10464000FF3E002A49D0D7F80825D7F81015C7F83B
:104650000CE5C7F814E50068C0F808E5C0F810E5F7
:104660006F1C0BD01F2D86BF05F01F0528484FF08B
:10467000A04005F5E075022740F82570651C0BD0B9
:104680001F2C86BF04F01F0421484FF0A04004F502
:10469000E074022540F82450481C0BD01F2986BF27
:1046A00001F01F011A484FF0A04001F5E07102240B
:1046B00040F82140511C0BD01F2A86BF02F01F0278
:1046C00013494FF0A04102F5E072022041F82200A8
:1046D00033440022DA765A60F0BDD7F80825D7F8BF
:1046E0001015C7F814E5C7F80CE50068C0F808E530
:1046F000C0F810E5B4E7C1F800257CE70268054979
:1047000085E700BFFC2400208402020000E100E0F5
:104710000003005010030200F0B50379534C5B0115
:10472000E51887B02D7F3DB101F06045B5F1005F20
:1047300002D0102007B0F0BD23444C4F9E7D16B12F
:10474000112007B0F0BD9A7599609E8205796D01C0
:104750007A19137F13BB0168C1F81C31D1F81C61B1
:10476000016804960126049F8E600168D2F808E073
:10477000C1F81C31D1F81C310593059B968A938AA8
:104780005768B6B201331EF806609BB29382C1F837
:104790001C65002F2FD0002007B0F0BD0368916882
:1047A000C3F82061D3F8207103680197019FC3F813
:1047B0005861D3F8586103680296967D029FC3F84A
:1047C0004415C3F848650368012199605368002BBC
:1047D000E1D1036801E0002945D1D3F82021D3F8C5
:1047E0005811002AF7D0002914BF0F2000202C44B4
:1047F0000023A3759EE7967D938A9BB29E4202F1A9
:10480000140122D9016804E0938A9BB2B3F5807F3A
:1048100003D0D1F81C31002BF6D0938A9BB2B3F5AC
:10482000807FE9D0C1F81C71D1F81C310393039B40
:10483000B2F814C0938A1FFA8CFC01331EF80CC026
:104840009BB29382C1F81CC5D6E70B889BB2B3F527
:10485000807F08D00268D2F81C31002BFBD00123E6
:10486000D3600020C3E70F20C1E700BFFC24002075
:104870000279044B03EB4213987D003018BF0120EE
:10488000704700BFFC24002070B59B4C237F8EB086
:10489000002B75D1994AD2F80413890548D4974B57
:1048A000D3F80423520704D5D3F80821002A40F096
:1048B000CA80924BD3F81C21C2B1A28AA07D8E4936
:1048C00092B282424FF00002C3F81C2180F0A9800E
:1048D000D3F81C210692069A888A8A8A8D6880B24B
:1048E0000132285C92B28A82C3F81C05834BD3F84C
:1048F0004421DAB10022C3F84421D3F84411A27E46
:1049000004910499002A40F08980E27D7A4B6AB1D3
:104910000022587ED968DA7501228DF830000B919B
:104920008DF828200AA893E8060090470EB070BDC5
:10493000D2F824110029B2D0C2F82431D2F82411BF
:10494000A37E07914FF401710798C2F808130BB9C1
:1049500001235360694A02238DF82830D2F880344D
:10496000C2F88034E07DE2680D9300238DF83000BA
:10497000E375237621680B9263680AA8984798E745
:104980005E4BD3F82421002A40F09380D3F8101115
:1049900061B1C3F81021D3F8101103910399D3F832
:1049A0003C15E07DC9B2884200F0AA80534BD3F891
:1049B0004421B2B10022C3F84421D3F84411E07D70
:1049C000019101994C4960B1D3F83C35C8688DF824
:1049D00030300123CA750B908DF828300AA80AC917
:1049E0009847464BD3F82021002A9FD00022C3F8D5
:1049F0002021D3F82011A07D009100993E49002884
:104A000094D0D3F84C058B688DF830008A750B93E1
:104A10008DF828200AC90AA8984787E701221A605A
:104A200073E7D3F81C310593059B00283FF45EAF74
:104A30008B688DF830008A750B938DF828200AC991
:104A40000AA8984752E7E17D2B4A002970D000213F
:104A5000C3F80811D3F8081108910899D068517E5D
:104A6000D3F818354354537ED17D0133DBB25376EE
:104A7000627E214B8A427FF41CAF1A7E002A6DD1E0
:104A80009B7E13B91D4B01225A601C4AE068636883
:104A90004FF40171C2F80813627E8DF830200025B2
:104AA00001220B902168E5758DF828200AA8984707
:104AB000FFE60022C3F82421D3F824110291022139
:104AC0008DF828100299D3F88014C3F880140D9142
:104AD000D3F83C15E368E27522768DF830100B931D
:104AE000216863680AA89847044BD3F84421002A38
:104AF0003FF477AF5EE700BFFC24002000200040B9
:104B0000217EF1B1D3F80062E17526F02001E5685D
:104B1000C3F8001226698DF8300001238DF8283083
:104B2000227621680B95E66063680AA898473DE7FE
:104B3000C3F80811D3F808210992099AD3F8183557
:104B400096E7E268E17501238DF830008DF8283092
:104B50000B9294E80A000AA8984727E7DE685D7E72
:104B60001869DA7501210022D8601A765A768DF814
:104B700028100B968DF8305093E806000AA890474D
:104B800097E600BF3EDF704775DF704776DF7047FE
:104B90008ADF70478BDF70478CDF704769DF7047B3
:104BA0000146014801F0B2BB1C2500200B280FD1A3
:104BB00010B50C480C4601F0D5FC58B143F2020286
:104BC00090420ED008280CD0BDE81040FEF7EAB89D
:104BD000FEF7E8B8224604490320BDE81040FDF77F
:104BE0008FBE10BD1C250020A072020070B50D788C
:104BF000012D0C460ED0022D0BD10A791449032049
:104C0000FDF77EFE23792846BBB9BDE87040FEF76C
:104C10002DBE70BD0A1D064649880E4801F0EAFC0B
:104C200062880D490320FDF76BFEFEF7A5F860B919
:104C3000304601F04FFC20B970BDBDE87040FEF772
:104C400001BEBDE87040FEF7ADB8FEF7ABF8EFE788
:104C5000047302001C250020C4720200F8B503880A
:104C60001D2B04463CD013D93B2B28D0562B26D0E5
:104C70001F2B2DD021464D4800F0E2FA21464C482A
:104C800001F0D2FB21464B48BDE8F84001F044B9A1
:104C9000102B4AD0112BEDD147490320FDF7D8FD49
:104CA000FFF778FF4548FFF773FF08B1FEF77AF882
:104CB0000120FEF7DBFD0020FEF7C4FDDAE713213B
:104CC000A088FFF763FF0028D4D0FEF76BF8D1E788
:104CD00000F108018088FFF757FF0028CAD0F4E7E9
:104CE000C07DC00804F11801C4D0677E257E092F5D
:104CF0002A4656D0002303E05678CA5C092E2CD0F1
:104D000001321344834201EB0302F5D3082F4AD04A
:104D1000002203E05B788D5C082B3AD001352A44F1
:104D2000824201EB0203F5D3A4E725490320FDF7F6
:104D30008FFD0022A1881E4801F05CFC70BBA18899
:104D40001A4800F049FA08B1FEF72CF80120FEF7E6
:104D500079FD0020FEF78AFD8CE70233013A95B217
:104D6000CE18184801F0E0FD002883D02A463146CD
:104D7000144801F08DFD034600287FF47BAF124AF2
:104D80000E4904F10800FFF707FF00283FF472AF57
:104D90009BE70232013DADB28E18E2E7FEF702F862
:104DA000CDE70223DAE70222F4E700BF98250020CE
:104DB0001C2500207C250020507302009073020007
:104DC00038730200887202009872020000B5002059
:104DD00087B0FDF721FD08B1FDF7E4FFFEF78CFB7E
:104DE00008B1FDF7DFFFFEF755FD40F266620121D5
:104DF0004148FDF769FF08B1FDF7D4FF3F4B40493B
:104E0000186801900023502201A801F06FFC08B13E
:104E1000FDF7C8FF06AC002344F8103D204601F022
:104E2000D1FC08B1FDF7BEFF0C22002103A8FDF75D
:104E300089FA002001238DF80C0003A9029A8DF84D
:104E40000D3040208DF80E30FFF7A8FE08B1FDF7B9
:104E5000A9FF0C2200210DEB0200FDF773FAF823E5
:104E6000029A039303A9A120FFF798FE08B1FDF76A
:104E700099FF204601F0B0FC08B1FDF793FF2148EF
:104E800001F07EFC08B1FDF78DFF00211E4801F006
:104E900027F808B1FDF786FF1C4800F01BF908B1A0
:104EA000FDF780FF1A4B1B48039303A901F090FA0A
:104EB00008B1FDF777FF18490320FDF7C9FCFFF79C
:104EC00069FE1648FFF764FE08B1FDF76BFF01208D
:104ED000FEF7CCFC0020FEF7B5FC0020FEF7B2FC8C
:104EE000FDF7D2FD0028FBD1FFF74CFE0028F7D0DC
:104EF000FDF758FFF4E700BF6C1C0020847202002D
:104F00002C2500205D4C02007C250020A14B0200D6
:104F1000ED4B02001C2500206C7302009073020010
:104F200094DF704796DF704797DF7047F0B5334BDB
:104F30001D6890F85A329BB065B303EB830303EB13
:104F400083039B00C6182E4CB678A778B74223D0AF
:104F5000012D1FD9A779DFF8A8E0B74247D0022D6D
:104F600018D0A77ADFF898E0B7423AD0032D11D0D5
:104F7000A77BDFF88CE0B7422DD0042D0AD0A77CA8
:104F8000DFF87CE0B74220D0052D03D0A47D1C4D76
:104F9000B44214D01BB0F0BDB4F800E0C75ABE450F
:104FA000D6D1184B1C68002CF4D00123ADF8022098
:104FB00001918DF800306846A0471BB0F0BDAC8A67
:104FC000C35A9C42EDD01BB0F0BDBEF810E0C75AEA
:104FD000BE45D9D1E5E7BEF80CE0C75ABE45CCD1F5
:104FE000DFE7BEF808E0C75ABE45BFD1D9E7BEF833
:104FF00004E0C75ABE45B2D1D3E700BFA42A0020BF
:10500000882A0020F82700202DE9F04390F85A4222
:1050100090F8593204EB840E0EEB8E0E00EB8E0EE0
:105020004FF0640C0CFB04FC9EF8047003EBC3040B
:105030000CEB44045E1C0444BE4283B004F10A0538
:105040003CD0BB4238BF07F1FF382DD25E1C06EBC7
:10505000C6040CEB4404984500EB04092B8912D0DC
:10506000B9F810500133AB4217D0013DADF80650EE
:10507000ADF8043000230B70104601A9FFF754FF70
:1050800003B0BDE8F083BEF80840A34212D001335C
:10509000ADF80430ADF80640ECE709F10A05F3B2CB
:1050A0009F4280F85932D1D8012300200B7003B001
:1050B000BDE8F083002508F10106F0E72B89BEF872
:1050C00008008342F0D00133ADF80430ADF806009B
:1050D000D0E700BF68B170B40749084A084E094DCF
:1050E0001060012400230C7033602B60184670BCE4
:1050F00070470E2318467047A02A0020F82700208A
:10510000A42A0020842A002020B12F4B1B781BB931
:10511000082070470E20704770B42C4C2C4B22682E
:10512000002A46D081789D788D4220D0012A49D925
:105130009D79274E8D4237D0022A43D09D7A244E46
:105140008D422CD0032A3DD09D7B214E8D4221D013
:10515000042A37D09D7C1E4E8D4216D0052A31D0B0
:105160009D7D1B4E8D420BD0042070BC70471E8865
:105170000588AE42DAD11749096809B30020F4E77F
:10518000B58A01888D42EFD1F5E7368A0588AE42AF
:10519000E4D1F0E7B6890588AE42D9D1EBE736898C
:1051A0000588AE42CED1E6E7B6880588AE42C3D1C7
:1051B000E1E70121006843F8220021600020D4E7E4
:1051C000052AD1D8511CF5E7A02A0020A42A0020E6
:1051D000882A0020F827002070B138B5144B1B78BE
:1051E0000BB9082038BD134B1B68002BF9D090F881
:1051F0005B421CB1112038BD0E2070470E4A0F4D86
:1052000003461068A3F85E12186083F85C420846F3
:1052100083F85A4283F859421A4601212C60FFF75D
:105220007FFE0028E7D1012283F85B2238BD00BF52
:10523000A02A0020A42A0020882A0020842A0020F6
:1052400090B389B3884B1B7873B32DE9F04F0B886B
:10525000113BA1B005460C46222B00F2D780DFE8B7
:1052600013F03202D500D500D500D500D500D50009
:10527000D500D500D500D500D500D500D500D50086
:10528000D500D500D500D500D500D500D500D50076
:10529000D500D500D500D500D500D500D500D50066
:1052A000D701D5000B01D8007047002685F8596258
:1052B000A2880DF117012846FFF7A6FE002840F04E
:1052C00077849DF81730002B00F0A080DFF8A481D0
:1052D000B4F804E0D8F8007095F85A12002F00F0E6
:1052E000B48501EB810303EB83039B00EA185F4E57
:1052F0009278B078904200F05685012F40F2C78531
:10530000B079DFF868C1904200F05485022F1DD0BB
:10531000B07ADFF858C1904200F03E85032F15D0D7
:10532000B07BDFF848C1904200F02F85042F0DD0EC
:10533000B07CDFF838C1904200F02085052F05D001
:10534000B07DDFF828C1904200F0A682744695F83F
:105350005C320133DBB2BB4285F85C3280F0AB815A
:1053600095F85A22DFF804810132D2B2642312FB8D
:1053700003F105EB010E56F8220085F85A224FF092
:10538000000985F8599203FB0252685001218EF8FA
:1053900004902046FFF7C4FD002837D095F85A2224
:1053A00085F85B9212FB03F3EA1898F802109278E2
:1053B000914200F06585012F24D096F806E02B4934
:1053C000964500F07D85022F1CD096F80AE027490B
:1053D000964500F06E85032F14D096F80EE0234911
:1053E000964500F05F85042F0CD096F812E01F4917
:1053F000964500F05085052F04D0B67D1B49964296
:1054000000F02A851A4B03225C801A7021B0BDE897
:10541000F08F8A88B0F85E329A42F7D1C88895F842
:10542000597295F85A12002840F06A816389002B5E
:1054300000F06681642303FB01F307EBC70603EB6F
:1054400046062E442246D389A3F52453082B00F2A6
:10545000ED81DFE813F0E901E501E201EB01EB0189
:10546000EB01EB01EB014201A02A0020882A002079
:10547000FC270020A42A00208A88B0F85E329A42D5
:10548000C4D1CB88002B7FF410AF90F85AE2897A10
:105490000EEB8E0606EB860600EB86063379194482
:1054A0000529D5BFC9B205220A461146934231717A
:1054B0007DD22246642000FB0EF003EBC30152F8BC
:1054C0000C8F00EB41012944D2F804C0C1F80EC092
:1054D000C1F80A8012894A8200228A82CA820A831B
:1054E0004A8331795F1C8F4280F09D8207EBC701B0
:1054F000274600EB410157F8169F2944D7F804804E
:10550000C1F80E80C1F80A903F894F828A82CA8210
:105510000A834A8331799F1C8F4280F0848207EB93
:10552000C701274600EB410157F8209F2944D7F8CF
:105530000480C1F80E80C1F80A903F894F828A82A8
:10554000CA820A834A833179DF1C8F4280F06B82E2
:1055500007EBC701274600EB410157F82A9F294472
:10556000D7F80480C1F80E80C1F80A903F894F82B5
:105570008A82CA820A834A8331791F1D8F4280F052
:10558000528207EBC701274600EB410157F8348FE1
:105590002944D7F804C0C1F80EC0C1F80A803F8979
:1055A0004F828A82CA820A834A8331790533642210
:1055B000013B02FB0EFE03EBC3030EEB43032B4444
:1055C00032895B8A9342BFF470AE05293FF46DAE19
:1055D00085F85912A088002940F07183F388328938
:1055E000ADF81A2006A9ADF81830FFF79BFC00288B
:1055F0003FF40CAF002385F85B320146A2882846B1
:10560000FFF794FCBF4BA2885A8003221A70FDE674
:10561000B1F804E0B0F85E3273457FF4F7AECA88A3
:1056200090F85A12002A00F07781DFF8E482D8F867
:105630000070002F00F0CD8301EB810303EB8303A7
:105640009B00C218B04E9278B078904200F027824A
:10565000012F40F26883B079DFF8ACC2904200F0CD
:105660002582022F1DD0B07ADFF89CC2904200F054
:105670002D82032F15D0B07BDFF88CC2904200F052
:105680001D82042F0DD0B07CDFF87CC2904200F068
:10569000FF81052F05D0B07DDFF86CC2904200F08D
:1056A000C780744695F85C320133DBB2BB4285F8A3
:1056B0005C32C0F0BA81934B032100225C801970E8
:1056C00085F85B22A2E68B88B0F85E229A427FF4CE
:1056D0009DAE002380F85B3298E6B2F80CE0B38A06
:1056E000A6F81AE02BB1F38A1BB1338B0BB1738B85
:1056F00033B963890130984202F10602FFF4A3AE88
:10570000642202FB01527B1C1279002693428DF821
:10571000176040F0768101238DF81730DFF8F081B3
:10572000B4F804E0D8F80070002F00F08E836422F3
:1057300002FB01F2AB18744E9B78B078984200F0EF
:10574000B782012F40F2EF82B079DFF8BCC19842F6
:1057500000F08982022FA4D0B07ADFF8ACC1984261
:1057600000F09882032F9CD0B07BDFF89CC1984258
:1057700000F08082042F94D0B07CDFF88CC1984276
:1057800000F08F82052F8CD0B07DDFF87CC198426D
:1057900087D1BCF81400AB5A984282D15B4B1B688E
:1057A0000393002B3FF47DAFDFF868A1DAF8009097
:1057B000B9F1050F3FF675AF524A01926C2303FB16
:1057C00009F302EB030B642202FB01510BF104000D
:1057D000ABF802E0029301F06AF8039BCBF8683063
:1057E00009F101010198029BCAF800100022B94298
:1057F000C2544FD181469346D9F8683048469847FD
:10580000D8F800700BF1010BBB4509F16C09F3D31B
:105810000023A488CAF8003044E79389B38261E783
:1058200093893383B38A5DE79389F382B38A59E717
:10583000BCF81420EB5A9A427FF433AF334B1B6809
:105840000393002B3FF42DAFDFF8C8A0DAF80090E7
:10585000B9F1050F3FF625AF2A4B01934FF06C0BC2
:105860000BFB09FB5B44642202FB0151181DA3F8EA
:1058700002E0029301F01BF8029B0398986609F17D
:105880000102019BCAF800200221BA4203F80B1062
:1058900000F07E81A48805E7BCF81420EB5A9A42F8
:1058A0007FF454AD194B1B680393002B3FF44EADAE
:1058B000DFF860A0DAF80090B9F1050F3FF646ADC9
:1058C000104B01936C2202FB09F203EB020B0292D4
:1058D000642202FB01510BF10400ABF802E000F07E
:1058E000E6FF039BCBF8683009F10101019B0298A8
:1058F000CAF800100022B9421A5400F09182A4881C
:1059000025E500BFFC270020882A0020F82700207A
:10591000A42A0020842A002001EB810303EB8303E7
:105920009B00E268C25003442269C3F8062090F845
:105930005922A088002A40F09D80DA881B89ADF8A2
:105940001A3006A9ADF81820FFF7ECFA00283FF44A
:105950005DADCC4B95F85A221F68002385F85B3269
:10596000A188B7B302EB820202EB82029300EA182D
:10597000C54E927896F802E0964500F0CC81012F52
:1059800027D996F806E0DFF800C3964500F0BB8102
:10599000022F1ED096F80AE0DFF8ECC2964500F020
:1059A000AA81032F15D096F80EE0DFF8DCC29645E9
:1059B00000F09981042F0CD096F812E0DFF8C8C2ED
:1059C000964500F08881052F03D0B67DAE4F9642F4
:1059D00005D00B46AD4A03215380117016E5BA8AF3
:1059E000EB5A9A42F5D1AA4B1A68002AF1D001234A
:1059F00007908DF81830ADF81A1006A89047A388C4
:105A0000E8E785F85932A2880DF117012846FFF71B
:105A1000FBFA002861D19DF81730002B3FF4F6AC5B
:105A200095F85A127AE63B46C1E595F85A320133A9
:105A3000DBB203EB830101EB810189006F1856F89B
:105A4000230085F85A320026642285F8596202FB49
:105A50000352685001213E712046FFF761FA002889
:105A60003FF4D4AC014685F85B6228462246FFF736
:105A70005DFAC7E4013AD2B2642602EBC20206FB29
:105A800001F101EB42022A44528A013292B255E7F7
:105A9000BCF810C0E85A84457FF4FBADCEE635F87B
:105AA00003C0308884457FF4D3ADC7E6BCF804005A
:105AB00035F803C084457FF4D4ADBFE6BCF80C00D4
:105AC00035F803C084457FF4DCADB7E6BCF808C008
:105AD000E85A84457FF4CDADB0E66A4B85F85B6249
:105AE0001F68A18895F85A22002F3FF472AF02EB8D
:105AF000820202EB82029300EA18634E927896F8D3
:105B000002E0964500F03281012F7FF662AF96F8F1
:105B100006E0DFF874C1964500F02081022F3FF4C3
:105B200058AF96F80AE0DFF860C1964500F00E81A4
:105B3000032F3FF44EAF96F80EE0DFF84CC19645C8
:105B400000F0FC80042F3FF444AF96F812E0DFF839
:105B500038C1964500F0EA80052F3FF43AAFB67D94
:105B6000494F96427FF435AFBA8AEB5A9A427FF496
:105B700030AF474B1A68002A3FF42BAF0123079040
:105B80008DF81830ADF81A1006A89047A38821E7C1
:105B900099464FF0000BD9F8683048469847D8F836
:105BA00000700BF1010BBB4509F16C09F3D32FE633
:105BB000344B85F85B621F6895F85A22A388002F42
:105BC0003FF408AF02EB820202EB82029200A918B6
:105BD0002D4E897896F802E08E4500F01981012F4C
:105BE0007FF6F8AE96F806E0DFF89CC08E4500F030
:105BF0000781022F3FF4EEAE96F80AE0DFF888C086
:105C00008E4500F0F580032F3FF4E4AE96F80EE0E9
:105C1000DFF874C08E4500F0E380042F3FF4DAAE65
:105C200096F812E0DFF860C08E4500F0CA80052FBC
:105C30003FF4D0AEB67D144F8E427FF4CBAEB98A1E
:105C4000AA5A91427FF4C6AE114A1268002A3FF464
:105C5000C1AE0121ADF81A3007908DF8181006A8D2
:105C60009047A388B6E6BCF804C0A85A84457FF4E0
:105C700071AD93E5BCF80CC0A85A84457FF47AADA9
:105C80008CE500BFA42A0020882A0020FC270020E1
:105C9000F8270020BCF808C0A85A84457FF462ADFC
:105CA0007CE5BCF810C0A85A84457FF46BAD75E55F
:105CB000B6F800C0A85A84457FF443AD6EE54B1E8C
:105CC000DBB203EBC3030EEB430E05EB0E035B8A63
:105CD00001339BB283E4BCF810E035F803C0F4450F
:105CE0007FF471AE7FE6BCF80CE035F803C0F445F4
:105CF0007FF460AE77E6BCF808E035F803C0F44501
:105D00007FF44FAE6FE6BCF804C035F803E0F4450D
:105D10007FF43EAE67E635F803C0B6F800E0F44520
:105D20007FF42DAE5FE674460127BBE4BCF810C0DB
:105D300035F803E0F4457FF40FAF1AE7BCF80CC068
:105D400035F803E0F4457FF4FDAE12E7BCF808C077
:105D500035F803E0F4457FF4EBAE0AE7BCF804C085
:105D600035F803E0F4457FF4D9AE02E7B6F800C099
:105D700035F803E0F4457FF4C7AEFAE6BCF810C08E
:105D8000E85A84457FF4DAAA8CE5BCF80CC0E85ADE
:105D900084457FF4CBAA85E5BCF808C0E85A844561
:105DA0007FF4BCAA7EE5B6F800C0E85A84457FF4CB
:105DB000A4AA77E5BCF804C0E85A84457FF4A6AAF3
:105DC00070E5BCF810E035F802C0F4457FF42FAF61
:105DD0003AE790F85C2201321C4680F85C226AE4C3
:105DE000BCF80CC035F802E0F4457FF416AF2BE7A1
:105DF000BCF808C035F802E0F4457FF404AF23E7AF
:105E0000BCF804E035F802C0F4457FF4F2AE1BE7BD
:105E1000B6F800C035F802E0F4457FF4E0AE13E7D1
:105E2000DDF804909346D9F8683048469847D8F88A
:105E300000700BF1010BBB4509F16C09F3D3002392
:105E4000A488CAF80030FFF782BA95F85C320133B3
:105E5000744685F85C322EE48A8AEB5A9A427FF4C3
:105E6000D1AA1B4B1B68002B3FF4CCAA0122079040
:105E7000ADF81A408DF8182006A89847FFF7C2BA67
:105E8000B8F800E0E95A8E457FF495AAE9E7744630
:105E90000127FFF75CBAB1F810E0E95A8E457FF4AC
:105EA000AAAADEE7B1F80CE0E95A8E457FF49BAA76
:105EB000D7E7B1F808E0E95A8E457FF48CAAD0E71D
:105EC000B1F804E0E95A8E457FF47DAAC9E700BF26
:105ED000F827002090DF70479EDF7047ADDF7047E6
:105EE000B8B110B417221B240023816102804280C4
:105EF000C2800281C28102820471047344730475FA
:105F000044758372C3728374C3745DF8044B18467E
:105F100070470E20704700BFF0B58D88012D83B00B
:105F200001D903B0F0BD0B88222B044673D01BD9D6
:105F30003A2B00F0B080552B00F08780232B23D024
:105F4000EE00A3199B7A002BEBD0A3192846D98821
:105F5000FFF7C2FF00285AD01128E2D002466B4951
:105F60000120FCF7CDFCDCE7102B23D0112BE7D16F
:105F700000EBC503002117201B22D88018819972DD
:105F8000D9721A735A73CCE7EE0087190A7A7A73BA
:105F90008369002B39D000214DF67A2EADF804101C
:105FA000ADF8025069468DF80420ADF800E098473E
:105FB000BB7AC8E7EE00871903793B73CB7B012BD3
:105FC00000F08680022B00F08C80F9883B898B42A0
:105FD000C0F08A803B7B7A7B9A4216D24FF0000E4B
:105FE0009BB2724669462846ADF80030ADF80230E3
:105FF000ADF804E0ADF806E0FFF76CFF28B103460A
:106000002A4643490120FCF7D9FCBB7A9BE70122D1
:106010009872DA7285E7EE0087190A7A3B7B0020D6
:10602000934228BF13460190024669462846ADF8C0
:106030000030ADF80230FFF74DFF0028E5D00246F2
:1060400034490120FCF75CFCDFE7EE00CB888719C0
:10605000172BF98838BF17238B4228BF0B46002225
:106060003B81BA722846FFF739FF002833D1FB7A0B
:10607000002BCAD1A369002BC7D040F677213A89FB
:10608000ADF80010ADF80250ADF804206946204686
:106090009847BB7A57E700EBC5064A89F3889342D5
:1060A00028BF1346172B38BF1723338182695AB193
:1060B000F17A49B140F67721ADF80010ADF8025001
:1060C000ADF80430694690470023F372B37228E7B5
:1060D0000188F9807AE702460F490120FCF710FC9D
:1060E000C5E74188F98071E72846FFF7F5FE10B94A
:1060F0000123FB726EE7112802D10123BB7269E70D
:10610000024602490120FCF7FBFB63E7987302009B
:10611000F4730200C0740200687402000649074A62
:10612000074B9B1A03DD043BC858D050FBDC00F042
:1061300013F8FCF793F8000024770200001C0020FD
:10614000F01D0020FEE7FEE7FEE7FEE7FEE7FEE7C4
:10615000FEE7FEE7FEE7FEE770B45E4B1B68082B28
:1061600019D05D4AD2F8883043F47003C2F8883001
:10617000BFF34F8FBFF36F8F4FF01023D3F8002280
:10618000002A75DBD3F80432002B71DB534B544AE1
:106190001A6070BC7047534B19680029E1D14FF069
:1061A00080404FF08052C0F80C114F4BC0F81011D6
:1061B000C0F83815D2F80414C3F82015D2F8081422
:1061C000C3F82415D2F80C14C3F82815D2F810140B
:1061D000C3F82C15D2F81414C3F83015D2F81814DB
:1061E000C3F83415D2F81C14C3F84015D2F82014A3
:1061F000C3F84415D2F82414C3F84815D2F828146B
:10620000C3F84C15D2F82C14C3F85015D2F830143A
:10621000C3F85415D2F83414C3F86015D2F8381402
:10622000C3F86415D2F83C14C3F86815D2F84014CA
:10623000C3F86C15D2F844642C4C2D49C3F8706532
:106240002C4D2560FB23C1F81835D0F8E43ED2F878
:10625000581204F50F3423F00F0204F56D7401F0A9
:106260000F0313434FF40072C0F8E43E226078E756
:10627000214B0122C3F80425D3F80024002AFBD0C7
:106280004FF0102312221C49C3F80022D1F8003429
:10629000002BFBD04FF0102312221749C3F8042221
:1062A000D1F80024144B002AFAD00022C3F80425A8
:1062B000D3F80024002AFBD0BFF34F8F06490F4BC1
:1062C000CA6802F4E0621343CB60BFF34F8F00BF94
:1062D000FDE700BF3001001000ED00E0741C00205D
:1062E0000090D0033401001000C000408C560040E4
:1062F00000F000404881030000E001400400FA057E
:106300009ADF70479CDF704762DF70470B78002B85
:106310003AD12DE9F0478C88024641F2235084425D
:1063200084B002D004B0BDE8F0878C79107B844241
:10633000F8D148880D7AADF8060001208DF80400E8
:1063400075B3BDF80CA0BDF80A80BDF808C0994629
:106350009E46184641F2245641F225570AE0BC42B7
:1063600003D1B1F816A04FF0010E0130A84201F19F
:1063700012010AD0CC89B442F1D10123B1F81680C0
:10638000B1F818C09946F0E77047BEF1000F1CD174
:10639000B9F1000F01D0ADF80A800BB1ADF808C01B
:1063A00011884FF6FF7399420AD0536843B9538856
:1063B00033B904AB53F8080DC2F802009B88D380B0
:1063C0001046936801A99847ACE7ADF80CA0DFE749
:1063D00070B5144B86B09A6805460E461868596821
:1063E000DB6802AC0FC4D5B1CEB13368BBB10023BA
:1063F0004FF6FF7285E80C003368AB6002A805F128
:106400000C01FFF781FF58B906A841F2235320F889
:10641000143D2B7B8DF80630FEF776FE00E00E2053
:1064200006B070BD2075020030B585B038B131B10D
:106430000B88382B26D0392B03D0112B18D005B060
:1064400030BD04888B88A342F9D14D898488A54248
:10645000F5D1CC89012CF2D1097C8DF808100221EC
:10646000ADF806308DF80410836801A99847E6E777
:106470008B8801889942E2D14FF6FF71002380E8B2
:106480000A00DCE702888B889A42D8D10E4C0F4A6A
:10649000236812689342D2D003EB83000C4D800036
:1064A00029188A7852B98988285AFFF729FF0028C5
:1064B000C5D1013303F007032360C0E70831285A30
:1064C000FFF720FFF3E700BFA82A00204C2B002095
:1064D000AC2A0020002836D0F8B501884FF6FF73AB
:1064E000994201D10820F8BD1B4FB0F802E03B688B
:1064F0001A4E1B4D03EB83008000013303F00702AB
:106500002C6831523318022100203A60D9811F1DB6
:1065100001219442A3F80AE01F6198815871197211
:106520001971997016D004EB84039B00F1188A78D6
:106530005AB98988F05AFFF7E3FE58B9013404F0DC
:1065400007042C60F8BD0E2070470831F05AFFF7A1
:10655000D9FEF2E70020F8BD4C2B0020AC2A002029
:10656000A82A0020002836D0F8B502884FF6FF731D
:106570009A4201D10820F8BD1B4C1C4F2368B0F88B
:1065800006E01B4D03EB8306B600BA190133117107
:10659000111D11610021918103F007030221117285
:1065A000236001212C68A2F80AE0D1810088B85349
:1065B000A342917016D004EB84039B00F9188A78EB
:1065C0005AB98988F85AFFF79BFE58B9013404F08C
:1065D00007042C60F8BD0E2070470831F85AFFF709
:1065E00091FEF2E70020F8BD4C2B0020AC2A0020E1
:1065F000A82A002040B1018022B11368C0F80230FF
:106600009388C380002070470E20704748DF704792
:1066100010DF704760DF704761DF7047FCF7D2BB67
:106620002DE9F047DFF8B090284ED9F80040DFF8A8
:10663000AC80274FB4FA84F482B064090025B5B960
:106640003378DFF888A07BB901A8FFF7DFFF0528C2
:1066500034D020B3FCF7A6FB6CB13378DFF86CA024
:1066600001240025002BEFD002B0BDE8F087002CFC
:10667000FAD1DFF858A09AF80030002BF4D102A923
:106680003A68B8F8003021F8043D1046FFF7C4FF1F
:10669000052817D068B1FCF785FB0024CFE70198E7
:1066A000FDF752F90B4B1B68002BD5D0019898478A
:1066B000D2E71046D9F800309847EEE7002CD3D146
:1066C0000125D8E7002DC8D0CEE700BF502B002011
:1066D000542B0020582B00205C2B0020522B002034
:1066E000014B1878704700BF512B002011B111F0F9
:1066F000030F01D007207047F8B51A4F1A4E1B4DF3
:106700001B4C396032802B602368DB0708D50123DE
:10671000C4F880301749FFF77BFF30B12360F8BD24
:106720001449FFF775FF00B1F8BD134B01221A7031
:10673000FDF71AF90E4A92F81633C3F34113012BF1
:106740000CD90E4B986818B94FF480031360F8BD4C
:106750001A6842F480021A600020F8BD42F202007A
:10676000F8BD00BF542B0020522B0020602B0020CE
:1067700000E100E01D660200512B0020702B00207C
:10678000034618B1024A0020136070470E2070477C
:106790005C2B002008B5094B1B6833B1984700B942
:1067A00008BDBDE80840FCF7FDBA054B1B78002B7F
:1067B000F6D0BDE80840FFF733BF00BF602B0020D4
:1067C000512B002082B0034B0193019B03600020FA
:1067D00002B07047001C002010B5034682B002A82A
:1067E0001A6840F8042DFFF715FF019A1B689342C1
:1067F00004460BD110B9204602B010BD02460D4927
:106800000120FCF77DF8204602B010BD0A490220A5
:10681000FCF776F84FF08052019BD2F80C21074923
:10682000C3EB822202F100520220FCF769F82046F5
:1068300002B010BD98750200307502006475020048
:10684000034B1B68186A034B002808BF18467047A3
:10685000601C0020781C002008B5034B1868FFF767
:10686000EFFFD0F8EC0008BD601C002082B001B939
:1068700001A93AB143B113780B601278101C18BF0C
:10688000012003E0104601E06FF0010002B0704704
:1068900010B501390244904207D010F8013B11F8BD
:1068A000014FA342F7D0181B10BD002010BD10B53A
:1068B000431E0A44914204D011F8014B03F8014FE2
:1068C000F8E710BD0CB430B5164B0C1E9DB01D681A
:1068D00004DA8B232B604FF0FF301EE04FF402737D
:1068E000ADF8143014BF04F1FF332346049307932B
:1068F0004FF6FF7302900690ADF81630209A21AB48
:1069000002A92846019300F07DF8431CBCBF8B23ED
:106910002B6014B1029B00221A701DB0BDE83040FC
:1069200002B07047601C0020034613F8012B002AB8
:10693000FBD1181A0138704749B1FF2A85BF8A2355
:1069400003600A704FF0FF3098BF0120704708467F
:1069500070472DE9F0478E689E4282460C4691466C
:1069600098463ED88A8912F4906F3AD02568096912
:106970006F1A6569022305EB450595FBF3F57B1C52
:1069800043449D4238BF1D4653050FD5294600F0AC
:1069900089FB064698B13A462169FFF788FFA3892B
:1069A00023F4906343F08003A38113E02A4600F0B0
:1069B000D7FB064670B92169504600F025FB0C2331
:1069C000CAF80030A38943F04003A3814FF0FF30A1
:1069D000BDE8F087266165613E44ED1B2660A56039
:1069E0004646464528BF464632464946206800F09E
:1069F000EFFAA3689B1BA36023681E442660002057
:106A0000BDE8F0872DE9F04F9DB0804603938B8958
:106A10001C060D4616460DD50B695BB9402100F0EA
:106A200041FB2860286118B90C23C8F80030CDE07C
:106A300040236B610023099320238DF82930DFF870
:106A40009CB130238DF82A3037463C4614F8013B80
:106A50001BB9B7EB060910D003E0252BF9D0274668
:106A6000F3E74B46324629464046FFF772FF0130B6
:106A700000F0A780099B4B4409933B78002B00F062
:106A8000A08000234FF0FF320493079305920693F2
:106A90008DF853301A930126052221784E4800F0D4
:106AA00047FA671C049B38B14B4A801A06FA00F07B
:106AB000184304903C46EFE7D90644BF20228DF8E6
:106AC00053201A0744BF2B228DF8532022782A2AFC
:106AD00003D0079A00210A200BE0039A111D1268C7
:106AE0000391002A10DA524243F002000792049008
:106AF0000BE0274601343B78303B092B03D800FBE1
:106B000002320121F5E701B107923B782E2B1ED10D
:106B10007B782A2B0AD1039B1A1D1B680392002B3A
:106B2000B8BF4FF0FF330237059310E00023059301
:106B3000781C19460A24074601303A78303A092A67
:106B400003D804FB01210123F5E703B105910322DA
:106B50003978224800F0ECF940B14023CBEB00003B
:106B600003FA00F0049B18430490013739781C485D
:106B70008DF8281006227E1C00F0DAF988B1194B36
:106B800033B9039B073323F007030833039314E05F
:106B900003AB00932A46144B04A94046AFF3008090
:106BA00007E003AB00932A460F4B04A9404600F0D0
:106BB00093F8B0F1FF3F824603D0099B53440993F9
:106BC00042E7AB895B0601D4099801E04FF0FF3042
:106BD0001DB0BDE8F08F00BFE3760200E976020049
:106BE000ED76020000000000536902002DE9F04735
:106BF00091461F460A698B68DDF820809342B8BF32
:106C00001346C9F8003091F8432006460C4612B1ED
:106C10000133C9F800302368990642BFD9F8003023
:106C20000233C9F80030256815F0060510D104F1CB
:106C3000190A07E00123524639463046C047013061
:106C40001AD00135E368D9F800209B1A9D42F1DB88
:106C500094F843302268003318BF012392060FD501
:106C6000E1185A1C302081F84300224494F8451062
:106C700082F84310023303E04FF0FF30BDE8F087A5
:106C800004F1430239463046C0470130F4D022684F
:106C9000D9F80050E36802F00602042A08BF5D1B21
:106CA0002269A3680CBF25EAE57500259342C4BF9D
:106CB0009B1AED184FF000091A344D4509D00123F5
:106CC000224639463046C0470130D5D009F1010986
:106CD000F3E70020BDE8F0872DE9F04317460A7E70
:106CE00085B06E2A984606460C460C9B01F1430E71
:106CF00000F0AE8011D8632A22D009D8002A00F013
:106D0000BB80582A40F0CA8081F84520834955E06D
:106D1000642A1ED0692A1CD0C0E0732A00F0B0801B
:106D200009D86F2A2ED0702A40F0B8800A6842F045
:106D300020020A603EE0752A24D0782A3AD0ADE0DD
:106D40001A6801F14205111D1960136884F8423078
:106D5000A8E021681A6811F0800F02D0111D196097
:106D600008E011F0400F02F10401196002D0B2F9FD
:106D7000003000E01368002B3CDA2D225B4284F8DF
:106D8000432037E021681A6811F0800F02D0111DEE
:106D9000196007E011F0400F02F10401196001D001
:106DA000138800E01368227E5C496F2A14BF0A2210
:106DB00008221BE078225A4984F845202268186886
:106DC00012F0800F00F104051D6003D1550601D5B6
:106DD000038800E00368D00744BF42F0200222602D
:106DE0001BB9226822F0200222601022002084F8C1
:106DF000430001E049490A226568A560002D08DBCF
:106E0000206820F0040020602BB9002D7DD175464C
:106E10000CE0002B79D07546B3FBF2F002FB103387
:106E2000CB5C05F8013D03460028F5D1082A0BD1BB
:106E30002368DA0708D5236962689A42DEBF3023E7
:106E400005F8013C05F1FF35C5EB0E0323612EE08B
:106E500008681A68496910F0800F03D0101D186087
:106E6000136808E010F0400F02F104001860136886
:106E700001D0198000E0196000232361754616E0F7
:106E80001A68111D1960156862680021284600F013
:106E90004FF808B1401B6060636804E004F14205EC
:106EA00084F8422001232361002384F84330CDF885
:106EB00000803B4603AA21463046FFF797FE01308B
:106EC00002D14FF0FF3026E023692A46394630468A
:106ED000C0470130F5D023689B0710D5002504F189
:106EE000190907E001234A4639463046C0470130B8
:106EF000E7D00135E368039A9B1A9D42F2DBE06814
:106F0000039B9842B8BF184605E00B7884F84230DE
:106F100004F142058AE705B0BDE8F083F47602008B
:106F200005770200000000000000000000000000E3
:106F300001F0FF01102A2BDB10F0070F08D010F82A
:106F4000013B013A8B422DD010F0070F42B3F6D12E
:106F5000F0B441EA012141EA014122F007047FF047
:106F600000070023F0E80256083C85EA010586EA9E
:106F7000010685FA47F5A3FA87F586FA47F6A5FADA
:106F800087F68EB9EED1F0BC01F0FF0102F00702E6
:106F900032B110F8013B013A83EA010313B1F8D191
:106FA0000020704701387047002D06BF3546033872
:106FB000073815F0010F07D1013015F4807F02BFAB
:106FC000013015F4C03F0130F0BC0138704700BFFC
:106FD000884210B501EB020301D8421E0BE0984233
:106FE000FBD28118D21AD34204D013F8014D01F814
:106FF000014DF8E710BD994204D011F8014B02F899
:10700000014FF8E710BD000038B50546002946D00D
:1070100051F8043C0C1F002BB8BFE41800F0D6F860
:107020001F4A1368114613B96360146032E0A3422B
:107030000ED92268A018834204BF18685B68636099
:1070400004BF121822600C6024E0A24203D8134649
:107050005A68002AF9D118681918A1420BD1216881
:10706000014458188242196014D1106852685A605D
:10707000014419600EE002D90C232B600AE021685C
:107080006018824204BF10685268626004BF091829
:1070900021605C602846BDE8384000F098B838BDF3
:1070A000682B002070B5CD1C25F0030508350C2D8C
:1070B00038BF0C25002D064601DBA94202D90C235E
:1070C000336046E000F082F8234B1C681A462146E4
:1070D000A1B10B685B1B0ED40B2B03D90B60CC1832
:1070E000CD501EE08C420DBF63684B686360136037
:1070F00018BF0C4615E00C464968E9E7174C2368B1
:107100001BB9304600F052F820602946304600F0A6
:107110004DF8431C18D0C41C24F00304A0420DD128
:107120002560304600F053F804F10B00231D20F0D9
:107130000700C31A0ED05A42E25070BD211A3046E1
:1071400000F034F80130EBD10C233360304600F00E
:107150003EF8002070BD00BF682B0020642B00208B
:10716000F8B5074615460E4621B91146BDE8F84068
:10717000FFF798BF1AB9FFF747FF2846F8BD00F0A0
:1071800027F885420ED929463846FFF78BFF04467B
:1071900050B131462A46FFF78AFB31463846FFF7A1
:1071A00033FF01E03046F8BD2046F8BD38B5064C47
:1071B000002305460846236000F014F8431C02D162
:1071C000236803B12B6038BD7C2B002070477047CB
:1071D00051F8040C0028BEBF091851F8043CC0182F
:1071E00004387047044A05491368002B08BF0B4652
:1071F00018441060184670476C2B0020802B00202C
:10720000F8B500BFF8BC08BC9E467047F8B500BF93
:10721000F8BC08BC9E467047001C0020FFFFFFFF23
:10722000FFFFFFFFFFFFFFFFFFFFFFFF000000006A
:10723000000000000000D601070100005B25303887
:10724000645D00004F766572666C6F770D0A000012
:10725000342300203A4552524F523A466174616CD1
:107260000D0A00003A494E464F3A48697420776546
:10727000616B2068616E646C65720D0A000000002D
:107280000D0E0F10010000074E6F726469635F42BC
:107290006C696E6B79000000060018000000900118
:1072A0004150503A494E464F3A4C4253207772690A
:1072B0007465204C45442073746174652025640D09
:1072C0000A0000004150503A494E464F3A4C45445E
:1072D00020427574746F6E207365727669636520E1
:1072E000646973636F7665726564206F6E20636F87
:1072F0006E6E5F68616E646C6520307825782E0D47
:107300000A0000004150503A494E464F3A427574C7
:10731000746F6E207374617465206368616E676555
:1073200064206F6E207065657220746F2030782540
:10733000782E0D0A000000004150503A494E464F49
:107340003A436F6E6E65637465642E0D0A0000002B
:107350004150503A494E464F3A446973636F6E6EDE
:1073600065637465642E0D0A000000004150503AB8
:10737000494E464F3A426C696E6B79206578616D73
:10738000706C6520737461727465642E0D0A000060
:107390000100A000500000006E72665F626C655FC5
:1073A000676174743A4552524F523A73645F626C2B
:1073B000655F67617474635F65786368616E676554
:1073C0005F6D74755F7265717565737428292072BD
:1073D000657475726E656420756E6578706563742A
:1073E00065642076616C756520307825782E0D0AED
:1073F000000000006E72665F626C655F67617474A6
:107400003A4552524F523A73645F626C655F6761EE
:10741000705F646174615F6C656E6774685F7570DE
:1074200064617465282920287265717565737429F3
:10743000206F6E20636F6E6E656374696F6E2030AF
:107440007825782072657475726E656420756E6536
:10745000787065637465642076616C75652030783A
:1074600025782E0D0A0000006E72665F626C655F03
:10747000676174743A4552524F523A73645F626C5A
:10748000655F67617474735F65786368616E676573
:107490005F6D74755F7265706C79282920726574F0
:1074A00075726E656420756E657870656374656469
:1074B0002076616C756520307825782E0D0A0000E5
:1074C0006E72665F626C655F676174743A455252B2
:1074D0004F523A73645F626C655F6761705F6461AD
:1074E00074615F6C656E6774685F75706461746504
:1074F000282920287265706C79292072657475724C
:107500006E656420756E6578706563746564207659
:10751000616C756520307825782E0D0A000000001A
:1075200023D1BCEA5F782315DEEF121200000000C1
:107530005344483A5741524E494E473A52414D20E2
:1075400073746172742073686F756C642062652057
:1075500061646A757374656420746F20307825786F
:107560002E0D0A005344483A5741524E494E473A6D
:1075700052414D2073697A652073686F756C642081
:1075800062652061646A757374656420746F20306D
:107590007825782E0D0A00005344483A4552524F40
:1075A000523A73645F626C655F656E61626C6528F8
:1075B000292072657475726E656420756E657870C9
:1075C00065637465642076616C75653A2030782552
:1075D000782E0D0A000000004300504F5349580018
:1075E0002E000020202020202020202028282828AD
:1075F0002820202020202020202020202020202083
:1076000020202088101010101010101010101010D2
:1076100010101004040404040404040404101010E2
:10762000101010104141414141410101010101018E
:10763000010101010101010101010101010110101C
:107640001010101042424242424202020202020262
:1076500002020202020202020202020202021010EE
:1076600010102000000000000000000000000000DA
:10767000000000000000000000000000000000000A
:1076800000000000000000000000000000000000FA
:1076900000000000000000000000000000000000EA
:1076A00000000000000000000000000000000000DA
:1076B00000000000000000000000000000000000CA
:1076C00000000000000000000000000000000000BA
:1076D00000000000000000000000000000000000AA
:1076E000000000232D302B2000686C4C006566677D
:1076F0004546470030313233343536373839414228
:1077000043444546003031323334353637383961F9
:0C77100062636465660000000000000079
:08771C0040ABFF7F01000000FB
:107724000000000000000000000000000000000055
:107734000000000000000000000000000000000045
:107744000000000000000000000000000000000035
:107754000000000000000000000000000000000025
:107764000000000000000000000000000000000015
:107774000000000000000000000000000000000005
:10778400001C002000200040000000000B0003004B
:10779400AD4B02000090D003430000000000000045
:1077A40000000000000000000000000000000000D5
:1077B4000000000000000000430000000000000082
:1077C40000000000000000000000000000000000B5
:1077D4000000000000000000430000000000000062
:1077E4000000000000000000000000000000000095
:1077F4000000000000000000430000000000000042
:107804000000000000000000000000000000000074
:107814000000000000000000430000000000000021
:107824000000000000000000000000000000000054
:107834000000000000000000430000000000000001
:107844000000000000000000000000000000000034
:1078540000000000000000004300000000000000E1
:107864000000000000000000000000000000000014
:107874000000000000000000396902006D68020089
:1078840000000000E2750200E0750200E8760200E4
:10789400E8760200E8760200E8760200E876020064
:1078A400E8760200E8760200E8760200E876020054
:1078B400FFFFFFFFFFFFFFFFFFFFFFFFFFFF0000D2
:1078C400010041534349490000000000000000004A
:1078D40000000000000000000000000000000000A4
:1078E400000041534349490000000000000000002B
:1078F4000000000000000000000000000000000084
:107904000000000025220200012202000000000005
:040000032000611D5B
:00000001FF
