:020000022000DC
:1020000000000420458C02006D8C02006F8C0200E1
:10201000718C0200738C0200758C020000000000BD
:10202000000000000000000000000000778C0200AB
:10203000798C0200000000007B8C02007D8C020085
:10204000993A02007F8C0200C94E02007F8C020088
:102050007F8C02007F8C0200BD3F02007F8C02005B
:102060007F8C02007F8C02007F8C02007F8C02003C
:102070007F8C02007F8C02007F8C02007F8C02002C
:102080007F8C0200692F02007F8C02007F8C02008F
:10209000093002007F8C0200B18F02007F8C0200A9
:1020A0007F8C02007F8C02007F8C02007F8C0200FC
:1020B0007F8C02007F8C0200000000000000000006
:1020C0007F8C02007F8C02007F8C02007F8C0200DC
:1020D0003D4602007F8C02007F8C02007F8C020054
:1020E0007F8C02007F8C02007F8C02007F8C0200BC
:1020F000000000007F8C02000000000000000000D3
:1021000000000000000000000000000000000000CF
:1021100000000000000000000000000000000000BF
:1021200000000000000000000000000000000000AF
:10213000000000000000000000000000000000009F
:10214000000000000000000000000000000000008F
:10215000000000000000000000000000000000007F
:10216000000000000000000000000000000000006F
:10217000000000000000000000000000000000005F
:10218000000000000000000000000000000000004F
:10219000000000000000000000000000000000003F
:1021A000000000000000000000000000000000002F
:1021B000000000000000000000000000000000001F
:1021C000000000000000000000000000000000000F
:1021D00000000000000000000000000000000000FF
:1021E00000000000000000000000000000000000EF
:1021F00000000000000000000000000000000000DF
:1022000010B5054C237833B9044B13B10448AFF330
:1022100000800123237010BDDC320020000000008C
:102220003CAA0200084B10B51BB108490848AFF39F
:1022300000800848036803B910BD074B002BFBD092
:10224000BDE81040184700BF00000000E032002049
:102250003CAA0200D832002000000000154B002BE1
:1022600008BF134B9D46A3F5803A00218B460F46CD
:102270001348144A121A00F065F80F4B002B00D0D7
:1022800098470E4B002B00D09847002000210400F7
:102290000D000D48002802D00C48AFF3008000F07C
:1022A0002BF82000290003F005FF00F011F800BF13
:1022B00000000800000004200000000000000000F2
:1022C000DC320020EC410020000000000000000093
:1022D00008B5074B044613B10021AFF30080054B4E
:1022E0001868836A03B19847204600F033F800BFAE
:1022F00000000000289A020070B50E4B0E4CE41A44
:10230000A41000251E46A54204D056F82530984753
:102310000135F8E707F07CFB084C094BE41AA410E0
:1023200000251E46A54204D056F8253098470135B1
:10233000F8E770BDD0320020D0320020D432002027
:10234000D032002002440346934202D003F8011B1E
:10235000FAE77047FEE700BF0378012B04BF014A8C
:1023600013707047F83300202DE9F04FC7B01C46BA
:102370009248002914BF0A23002316460D460093F5
:1023800002F078FC002840F0E480002C00F0E580AA
:1023900006AB83460193519B539A9E1820250296C3
:1023A00058460099019A0B46034404933133D318DD
:1023B0000393171800295FD07B4203F003038B427D
:1023C00028BF0B46062900F2EB800B46019A012B31
:1023D000155407F1010200F0E180022B7D7007F136
:1023E000020200F0DB80032BBD7007F1030200F056
:1023F000D580042BFD7007F1040200F0CF80062B7E
:102400003D7107F1050240F0D1807D71BA1D9E46F5
:10241000009999422ED0009EC3EB060AAAF104014E
:1024200006F1FF3B8908C3EB0B0B0131BBF1020F37
:102430004FEA810C12D90344019E4FF0203001294C
:1024400006EB030BF05005D00229CBF8040001D0B5
:10245000CBF80800D4456244E6440BD000981570D0
:102460000EF10103834205D20EF1020E7045557044
:1024700000D99570009B1F44039B059707F1330912
:1024800007F1030A264603F101084C46029FDDF8D6
:1024900044910DE00AF8035C0AF8025C0AF8015C5A
:1024A0000AF1030AA24508F8015C08F101082FD0DF
:1024B000BE42EFD24E456BD2509B13F806B00AF8DD
:1024C000015C4FEA2B105FFA80FE09280BF00F0029
:1024D000D4BF0EF1300E0EF1370E092894BF303004
:1024E00037300AF803EC0AF8020C06F0C3FD584432
:1024F0000AF1030A407810F0970F08BF4FF02E0B37
:10250000A24508F801BC06F1010608F10108CFD187
:10251000049B03980297059F019903F1430A0D223A
:102520000A23027443745246254887F8305006F057
:10253000CCFD5FFA8AF222492048344602F0EEFAD6
:1025400038B91E4802F096FB18B9029B9C42FFF472
:1025500028AF204647B0BDE8F08F55B306A82B68DA
:10256000184A01904FF4807106F0BAFD0028F0DBA4
:102570000546304606F0E6FD019BC22828BFC22072
:10258000834602463146581906F09FFDAB4402E7E8
:10259000C9EB0600529B13F800B090E79E4637E760
:1025A000002B7FF413AF3A469E4634E74FF0050EFA
:1025B0002EE706AB25460193DBE700BF3431002050
:1025C000F83200204C9A02002DE9F0416B48C6B069
:1025D0000C4616461D4602F04DFBA8B9C4B106AF25
:1025E0002368674A38464FF4807106F079FD002869
:1025F0000ADB4C9B8046062B00F2BD80DFE803F02F
:10260000146670327C405200002046B0BDE8F08174
:102610004C9B062B00F2AC80DFE803F0049C969004
:10262000847E8A004FF00008304606F08BFD00EBF8
:102630000803FF2B044640F29380002CE4DB08EBF8
:102640000402B2F5807FDFD8D4B206A94D4806F067
:102650003CFD22464B49494802F060FAB0FA80F04E
:102660004009D2E7C0F58071AA686C682B680192B6
:102670000094324607EB080006F032FD0446DCE722
:10268000C0F580712869EA682B680390AC686D68B2
:10269000009502920194324607EB080006F020FDF7
:1026A0000446CAE7C0F580716A6928692B680492FC
:1026B000EA680390AC686D68009502920194324616
:1026C00007EB080006F00CFD0446B6E7C0F5807184
:1026D0002B68324607EB080006F002FD0446ACE723
:1026E000C0F580716A682B68009207EB08003246DB
:1026F00006F0F6FC0446A0E7C0F58071EA68AC6815
:102700002B686D68009502920194324607EB080031
:1027100006F0E6FC044690E74FF480714FF00008A5
:1027200006AFAFE74FF480714FF0000806AFE5E762
:102730004FF480714FF0000806AFB5E74FF4807199
:102740004FF0000806AF8FE74FF480714FF000089C
:1027500006AFC7E74FF480714FF0000806AFB7E748
:1027600006AB314603EB0800224606F0AEFC64E7F8
:102770000024224669E7002461E700BF34310020CD
:102780004C9A0200F8320020F0B51A4F3B7889B01D
:102790001BB1194B1B78834229D0184D06460FCD2B
:1027A0006C460FC495E80F004FF0000E84E80F0050
:1027B0000625052107224FF0EB73114803910824E9
:1027C00002928DF814E000950194069302F008F946
:1027D000002E0C4A0A4818BF0022694601F0CAFFC1
:1027E00018B9054A012316703B7009B0F0BD0020EE
:1027F00009B0F0BDFA330020F93300202C9A020012
:10280000343100205923020000487047C9250200D6
:10281000004870476923020010B50E4B1B7882B048
:1028200073B90D4C0D48237001220DF1070102F020
:102830002DFA2378002BFCD09DF8070002B010BDC4
:1028400001220DF10701054802F020FA9DF807006A
:1028500002B010BDF9330020F833002034310020DD
:1028600038B50020FFF790FF044668B9FFF7CCFFAA
:102870000546FFF7CDFF054BFF22C3F810541C603F
:102880005C60C3F814049A60204638BDFC33002015
:102890000120FFF779BF00BF2DE9F04383B002AB01
:1028A0004FF0000803F8018D254C064618460D46EA
:1028B000A76801F035F8A2686368D4F80090134463
:1028C0000133C9EB0303012B07D80BBB9DF80700AD
:1028D00001F04EF803B0BDE8F08309F101039DF863
:1028E0000700236001F044F80122002362F3010392
:1028F00068F3820307EA090766F3C50304EB87045C
:1029000068F3891365F39F23E36003B0BDE8F083A8
:102910000121434661F3010368F38203052161F35A
:10292000C50309EA0202074904EB820268F389132E
:1029300009F1010761F39F232760D360C6E700BF59
:10294000FC330020549A02002DE9F04782B002AB1C
:10295000002603F8016D294C814618461746884623
:10296000A56800F0DDFFA2686368D4F800A01344F6
:102970000133CAEB0303022B07D843BB9DF80700C2
:1029800000F0F6FF02B0BDE8F0870AF102039DF8FF
:102990000700236000F0ECFF0122002362F3010333
:1029A0000AEB020166F3820369F3C50305EA0A0A2A
:1029B0000D4004EB8A0A62F3891304EB850468F383
:1029C0009F23CAF80C30E76002B0BDE8F087012110
:1029D000334661F3010366F38203052161F3C50306
:1029E0000AEA0202064804EB820266F389130AF13E
:1029F000010160F39F232160D360BFE7FC33002017
:102A0000549A02002DE9F04F83B002AD002605F87C
:102A1000016D2D4C8246284690461F468946A56882
:102A200000F07EFFA2686368D4F800B0134401335D
:102A3000CBEB0303032B07D87BBB9DF8070000F00B
:102A400097FF03B0BDE8F08F0BF103039DF807007B
:102A5000236000F08DFF0122002362F301030BF1DC
:102A6000020066F382035A446AF3C503022105EAB1
:102A70000B0B2A40054004EB8B0B04EB820261F345
:102A8000891304EB850469F39F23CBF80C30C2F85B
:102A90000C80E76003B0BDE8F08F0121334661F39D
:102AA000010366F38203052161F3C5030BEA020209
:102AB000064804EB820266F389130BF1010160F30F
:102AC0009F232160D360B8E7FC330020549A0200B2
:102AD0002DE9F04F83B002AF002607F8016D314CAD
:102AE0008246384690461F46A568894600F018FF82
:102AF000A2686368D4F800B013440133CBEB03033E
:102B0000042B07D8BBBB9DF8070000F031FF03B0D2
:102B1000BDE8F08F0BF104039DF80700236000F07F
:102B200027FF0122002362F3010366F382030BEB0C
:102B300002010BF103060BF102026AF3C503032045
:102B400005EA0B0B04EB8B0B60F3891369F39F23EE
:102B500029402A403540CBF80C3004EB810104EBCE
:102B600082020C9BC1F80C8004EB8504D760E36003
:102B700003B0BDE8F08F0121334661F3010366F332
:102B80008203052161F3C5030BEA0202064804EB48
:102B9000820266F389130BF1010160F39F23216028
:102BA000D360B0E7FC330020549A02002DE9F047CF
:102BB0004C4E96E80C009A428AB070D0B06804E09F
:102BC000C4F3891202EB9452134400EA0305023560
:102BD00006EB85020133546814F00302F0D0022A98
:102BE00028D0C4F38312C4F3952C002A75D00DF1BC
:102BF000100E7546D71800EA030106EB8101013378
:102C0000C96845F8041BBB42F5D10092C4F3C20069
:102C100073466246D6F81044324D0021A04738B1C1
:102C200077603068C01B18BF01200AB0BDE8F0878C
:102C30006F68F6E703F1010A20EA0A010340013157
:102C400006EB830389004FEA94588845DA68DFF879
:102C500094E0C4F3891326D9A9B300EA0A0C5FFAF9
:102C600081F90EEB8C0CC9EB08010CF10C0C0EF188
:102C70000C00C9B203910290CDF80490CDF800C0C9
:102C80000021C4F3C200D6F81474B847404520D0E0
:102C900006EB850560F38F146C607768C1E7002050
:102CA0000AB0BDE8F08700EA0A000EEB80000C30A5
:102CB0008DE801010021DEF8149403910291C4F320
:102CC000C200C847E2E70EF10C0C08465FFA88F92B
:102CD000D0E703300AEB9007A2E71F460DF1100E74
:102CE00093E700BFFC330020FFF796BD2DE9F84FB6
:102CF000244B1A788AB3DFF890B0DFF89090DFF8B1
:102D000090A00024012703E00134E4B2944224D2CD
:102D100026B2D9F80050DBF8003015F8360007FA73
:102D200000FE1EEA030F05EBC608EDD0164A23EAA3
:102D30000E03136001F032F915F83650DAF800305E
:102D400007FA05F6334000FA05F6B34207D00D4BFB
:102D500001341A78E4B29442DAD3BDE8F88FD8F897
:102D60000430002BF3D098F80110A1F10101B1FA61
:102D700081F14909091AB1FA81F1490928469847B0
:102D8000E5E700BF1C380020443800201838002038
:102D90004038002070B50646114800F085FD40B966
:102DA000104D01242B68B4401C4203D023EA0404D4
:102DB0002C6070BD304601F0F1F80B4A136860B129
:102DC00023432E680949136034432C600448096882
:102DD0000022BDE8704000F011BD23EA0403F0E7D3
:102DE00020380020443800204038002014380020CB
:102DF000042A01D8072070472DE9F04182B08846A7
:102E00000546174600F034FF002834D01C4C1D48FE
:102E10001D491E4A1E4B2560002608F1FF340F6035
:102E200080F8008016601E60E4B20327B8F1000F3E
:102E300003D11AE0DBB2C4B11C4623B205EBC302D6
:102E400015F833009378134A8DF8053001A98DF8F1
:102E500004708DF806608DF8076000F013FF631EA4
:102E60000028E7D002B0BDE8F0810B4A0B480021F2
:102E700000F0B2FCF6E700F0B5FE0028C6D0F1E79E
:102E8000183800201C38002014380020403800205A
:102E900044380020952D0200ED2C0200609A0200BB
:102EA00070B5084D2B785BB1074E002433680121C3
:102EB00013F8340000F0BEFF2B780134A342F5D89C
:102EC000002070BD1C3800201838002070B5094D56
:102ED0002B7853B1084E0024336813F8340001F006
:102EE00025F82B780134A342F6D80448BDE8704099
:102EF00000F0DABC1C3800201838002020380020F0
:102F000000B585B000230390194601AA44F20100E0
:102F1000ADF80430029300F003F805B05DF804FB4F
:102F200008B50D490120FFF7B7FCFFF7B1FCFFF72B
:102F30003DFE0028FBD109490320FFF7ADFCBFF39C
:102F40004F8F0749074BCA6802F4E0621343CB6016
:102F5000BFF34F8F00BFFDE7649A0200749A02002E
:102F600000ED00E00400FA05F8B5204A204B0025EA
:102F7000C2F84051C2F84451C2F84851C2F84C510D
:102F8000C2F80051C2F804511B6813B31949D2F8B2
:102F900004250C68141B1A6824F07F44A2422F46B3
:102FA00009D8197CDE69A41A154499B91EB13346B3
:102FB0001A68A242F5D9104B10491A780B789A4238
:102FC0000DD00F490F4A41F823504FF48013C2F837
:102FD0000031F8BD1F745A6998699047E6E7531CA1
:102FE000DBB2022B08BF00230B70EAE700100140A0
:102FF0004C3800204838002050380020513800203C
:103000006039002000E100E02DE9F04F884A89494D
:103010001378097899428BB037D00133DBB2022B99
:1030200008BF002384491370844A0E68029152F845
:103030002300834905910B6802993218002522F07C
:103040007F420A602C462946AE46ABB11A688242DE
:1030500000F2E681DD68C3F800E0801A1444DA6902
:1030600035B1371927F07F47D9619D605F601946F8
:1030700013460125002BE9D1002D40F0DC8200230E
:10308000069301230893069A08E06D4B05931B688D
:10309000694A02920021069308911A46694BDFF8AB
:1030A000AC811B780393059B1B681C46029B1F6821
:1030B0000023BA460F460993C3460793994618461C
:1030C0004FF0010E0193A4463FB37D68BE683946B8
:1030D000FF695D4BCAEB050424F07F449C423CD859
:1030E000A3190B604860886081F810E0C861002A6D
:1030F00068D015689D4249D2164603E025689D4276
:1031000034D22646F4695B1B002CF7D1CC610B60EE
:103110001446F1612246002FD7D198F8003098F874
:103120000110994200F09480591C03EB43039BF873
:10313000024008EBC303C9B28C421C798BF8001023
:1031400008BF8BF80070022C99684ED0032C3FD03A
:10315000012C24D014462246DDE7C5EB0A0525F0F4
:103160007F45B54209D2731B0B60BBE7ED1A2560A2
:10317000CC610B601446F161CCE708604860886060
:1031800081F810E0C861EAB115680023EB1A0C461B
:1031900013608C46CA614FF001092246BBE70C7CE4
:1031A0000494002CD6D1DD684D601E698E605C6988
:1031B000CC609B698B61039B002B8AD0049B4B6086
:1031C0001D4686E70C468C464FF001092246A2E7D1
:1031D0000AB9BFE71A46D3691074002BFAD11C460E
:1031E0009C464FF00109224695E752B1914200F00A
:1031F0000B81134602E0B14207D03346DE69002E50
:10320000F9D114460874224685E7994200F0FE8001
:103210001446F5693668DD6115B12B6833442B60BF
:10322000019B0874A24218BF01230193EBE700BF82
:1032300050380020513800204838002060390020E4
:103240004C38002052380020FEFF7F005438002008
:103250005746DDF804A0B9F1000F40F04981079B03
:10326000002B40F0E581099B002B40F0DC81BAF196
:10327000000F03D1069B9A4200F03F81002A00F024
:1032800041816C49029BD1F804051B686A4C1768A0
:103290002578C21A22F07F420332002D51D1674DAA
:1032A000DFF89CC1DFF89CE14FF48036C1F844633D
:1032B000C1F804634FF40036C5F880612E60012523
:1032C0000D60DCF800602F2100BF00BF00BF00BF11
:1032D00000BF00BF00BF00BF76452FD000BF00BFBA
:1032E00000BF00BF00BF00BF00BF00BF00BF00BFE6
:1032F00000BF00BF00BF00BF00BF00BF00BF00BFD6
:1033000000BF00BF00BF00BF00BF00BF00BF00BFC5
:1033100000BF00BF00BF00BF00BF00BF00BF00BFB5
:1033200000BF00BF00BF00BF00BF00BF00BF00BFA5
:1033300000BF00BF00BF00BF00BF00BF0139C3D145
:10334000257097422CBFDA199A183A4922F07F4328
:10335000C1F84035D1F80425121A1B1A22F07F4219
:1033600023F07F4303329A4248D9D1F80435344AD6
:10337000C1F84035126833492F2300BF00BF00BF9A
:1033800000BF00BF00BF00BF00BF8A422FD000BFF8
:1033900000BF00BF00BF00BF00BF00BF00BF00BF35
:1033A00000BF00BF00BF00BF00BF00BF00BF00BF25
:1033B00000BF00BF00BF00BF00BF00BF00BF00BF15
:1033C00000BF00BF00BF00BF00BF00BF00BF00BF05
:1033D00000BF00BF00BF00BF00BF00BF00BF00BFF5
:1033E00000BF00BF00BF00BF00BF00BF00BF013B68
:1033F000C3D1124B4FF40032C3F80021124A00230C
:1034000013700BB0BDE8F08F16461346D2F81C902F
:10341000B9F1000F1AD0CC464C464FF00109F8E63E
:10342000002D62D1121A1A60069301230893069A9E
:1034300034E600BF001001406839002000E100E0E0
:10344000603100200024F400523800207B4C7C4D79
:10345000C4F808E07B4C4FF02F0C246800BF00BF7D
:1034600000BF00BF00BF00BF00BF00BFAC422FD0F5
:1034700000BF00BF00BF00BF00BF00BF00BF00BF54
:1034800000BF00BF00BF00BF00BF00BF00BF00BF44
:1034900000BF00BF00BF00BF00BF00BF00BF00BF34
:1034A00000BF00BF00BF00BF00BF00BF00BF00BF24
:1034B00000BF00BF00BF00BF00BF00BF00BF00BF14
:1034C00000BF00BF00BF00BF00BF00BF00BF00BF04
:1034D000BCF1010CC2D1012425460994CC464C46CE
:1034E000CA4603950795A94693E6059C236099E78C
:1034F000059B1946C1F800C0B1E6089B002B3FF4BC
:103500007DAFBBE64D49504B4E4E4D4C4FF4803095
:103510004FF400370125C3F88070C1F848032F230A
:10352000C1F808034D6030681E4600BF00BF00BFF1
:1035300000BF00BF00BF00BF00BFA0422FD000BF30
:1035400000BF00BF00BF00BF00BF00BF00BF00BF83
:1035500000BF00BF00BF00BF00BF00BF00BF00BF73
:1035600000BF00BF00BF00BF00BF00BF00BF00BF63
:1035700000BF00BF00BF00BF00BF00BF00BF00BF53
:1035800000BF00BF00BF00BF00BF00BF00BF00BF43
:1035900000BF00BF00BF00BF00BF00BF00BF013EB3
:1035A000C3D18D6002990A6000BF00BF00BF00BF99
:1035B00000BF00BF00BF00BFA0422FD000BF00BFB0
:1035C00000BF00BF00BF00BF00BF00BF00BF00BF03
:1035D00000BF00BF00BF00BF00BF00BF00BF00BFF3
:1035E00000BF00BF00BF00BF00BF00BF00BF00BFE3
:1035F00000BF00BF00BF00BF00BF00BF00BF00BFD3
:1036000000BF00BF00BF00BF00BF00BF00BF00BFC2
:1036100000BF00BF00BF00BF00BF00BF013BC3D160
:103620000A4B1A70EAE60A4B9DF80C1019701EE658
:10363000029B1F6017E6059A136020E50010014009
:103640000024F4006031002000E100E0683900202F
:1036500052380020F0B4564B564A574E574C4FF450
:1036600080304FF400310125C2F88010C3F84803C0
:103670002F21C3F808035D6030680E4600BF00BF0D
:1036800000BF00BF00BF00BF00BF00BFA0422FD0DF
:1036900000BF00BF00BF00BF00BF00BF00BF00BF32
:1036A00000BF00BF00BF00BF00BF00BF00BF00BF22
:1036B00000BF00BF00BF00BF00BF00BF00BF00BF12
:1036C00000BF00BF00BF00BF00BF00BF00BF00BF02
:1036D00000BF00BF00BF00BF00BF00BF00BF00BFF2
:1036E00000BF00BF00BF00BF00BF00BF00BF00BFE2
:1036F000013EC3D19D6000BF00BF00BF00BF00BF3F
:1037000000BF00BF00BFA0422FD000BF00BF00BF5E
:1037100000BF00BF00BF00BF00BF00BF00BF00BFB1
:1037200000BF00BF00BF00BF00BF00BF00BF00BFA1
:1037300000BF00BF00BF00BF00BF00BF00BF00BF91
:1037400000BF00BF00BF00BF00BF00BF00BF00BF81
:1037500000BF00BF00BF00BF00BF00BF00BF00BF71
:1037600000BF00BF00BF00BF00BF0139C3D1144E6E
:10377000144D154C1549164F0020307028602070EC
:103780004FF48015E0240B26087048708E70387056
:103790001049C2F8805182F814431560C3F8080537
:1037A00082F81143D3F804350B60F0BC704700BFBA
:1037B0000010014000E100E0603100200024F4002E
:1037C000683900204C380020503800205438002040
:1037D0005138002048380020074B9B780BB908204F
:1037E00070473AB130B10368187C0028F7D159749A
:1037F0005A61704707207047543800202DE9F04384
:10380000264CA37883B01BB9082003B0BDE8F08331
:103810000028F9D0042903D8072003B0BDE8F083BD
:103820004369002BF0D0064602A8737C0025012BCB
:1038300000F8015D0CBF8946A94690460F4600F08E
:103840006FF86378A07821785A1CD2B2904208BFF2
:103850002A4691421BD003EB430304EBC303012030
:103860000F4918719E60D1F804159DF80700D960C2
:103870001F61C3F81490C3F81880627000F078F8E4
:10388000084B4FF480122846C3F80021BDE79DF88D
:10389000070000F06DF80420B7E700BF543800209F
:1038A0000010014000E100E070B51B4CA37882B02D
:1038B00013B9082002B070BD0028FAD04369002B6C
:1038C000F7D0064602A8002500F8015D357400F027
:1038D00027F86278A0782178531CDBB2984208BFA1
:1038E0002B46994212D002EB420204EBC2020221A3
:1038F0009DF8070096601171637000F039F8074B6E
:103900004FF480122846C3F80021D3E79DF8070042
:1039100000F02EF80420CDE75438002000E100E04C
:10392000F0B4EFF3108472B60E4B9A68B2B90E4938
:1039300001259D60D1F880700C4D2E463D401D60E4
:10394000C1F88060D1F884505D604FF0FF33C1F85A
:103950008430027004B962B6F0BC70470123037072
:10396000F8E700BFDC41002000E100E0FC06FFBDFD
:10397000094B9A6872B168B910B4EFF3108272B64D
:1039800006491C680C605C684C60986002B962B6BD
:103990005DF8044B704700BFDC41002000E100E00F
:1039A000074B1B5C1F2B86BF03F01F0305494FF01D
:1039B000A041012202FA03F3C1F80C35704700BFA1
:1039C000909A020000030050074B1B5C1F2B86BF20
:1039D00003F01F0305494FF0A041012202FA03F34F
:1039E000C1F80835704700BF909A020000030050EC
:1039F0004FF0A04310B44FF480404FF400544FF404
:103A000000414FF48032C3F80845C3F80805C3F8F5
:103A10000815C3F808255DF8044B70470D4B10B42A
:103A2000195C1F298CBF0C484FF0A0404FF00102D9
:103A3000D0F8044588BF01F01F0102FA01F323EA20
:103A400004022340C0F80825C0F80C355DF8044B8B
:103A5000704700BF909A02000003005030B44FF04E
:103A6000A04303224FF400554FF480444FF400402C
:103A70004FF48031C3F83427C3F83827C3F83C2704
:103A8000C3F84027C3F80855C3F80845C3F808052C
:103A9000C3F8081530BC704710B51A4B1A6882B0CD
:103AA000A2B100221A601B6800934FF080430122EC
:103AB000154C0099C3F80823A368627033B10CCB8E
:103AC0000020A2609847A368002BF8D10F4B1A681A
:103AD000AAB100221A601B6801934FF080430222B2
:103AE000094C0199C3F8082323690122A27033B15C
:103AF0000CCB0120226198472369002BF8D102B03A
:103B000010BD00BF000100406C39002004010040DE
:103B100058B910B5054CA36833B10CCB0020A26096
:103B20009847A368002BF8D110BD70476C3900206E
:103B300010B582B002A80023144C00F8013DFFF735
:103B4000EFFE237893B9124A6360E3601068A360C4
:103B500010F00100236114D005F0D0F920B94FF026
:103B600080430122C3F8182501232370E3689DF8E0
:103B7000070001330122E360A270FFF7F9FE02B0F3
:103B800010BD072100F006F8E6E700BF6C39002001
:103B900000E100E0002810B418DB00F1604303F5F9
:103BA00061434901C9B283F80013C3B240098000E0
:103BB00000F1604000F5614003F01F0201239340D3
:103BC000C0F8803103605DF8044B7047C3B2044A0B
:103BD00003F00F0449012244C9B21176E6E700BFA1
:103BE000FCEC00E030B51F4C94F8645083B015B184
:103BF000082003B030BD4FF0FF33FF22072106201D
:103C000023636363A363E36323646364A364E36480
:103C100023656365A365E36523606360A360E36078
:103C200023616361A361E361236284F860306362AE
:103C3000A36284F86230E36284F8633084F8612020
:103C4000FFF7A8FF084B094A1D601B680193019804
:103C50004FF000430121284684F86410C2F8043371
:103C600003B030BD803900207C610040006000401E
:103C7000034B93F86400003018BF0120704700BF69
:103C800080390020F0B5694C251895F93030002BAB
:103C900001DB0820F0BD91F803E09446BEF1000F6F
:103CA00056D02368013300F0B180082600256B1C34
:103CB0005E4F54F82320013251D0AB1CB34245D2A1
:103CC00057F8232001324AD0EB1CB3423ED257F8BA
:103CD0002320013243D02B1DB34237D257F8232083
:103CE00001323CD06B1DB34230D257F823700137FC
:103CF00035D0AB1DB34229D254F823204B4F0132AB
:103D00002DD0EB1DB34221D257F82320013226D00B
:103D100005F10803B34219D257F8232001321ED00F
:103D200005F10903B34211D257F82320013216D00E
:103D300005F10A03B34209D257F8237001370ED0B8
:103D40000B35B54202D2E36A013307D00420F0BD3F
:103D5000236A013361D00C260825A8E70B23261817
:103D60005DB244F823C0324686F83050BEF1000FF1
:103D700002D1234483F858008B78D3B91F284A789E
:103D800087BF2B4E00F01F0303464FF0A04603F5FC
:103D9000E073920046F82320CB78DBB9083D2C4431
:103DA000097894F8602042EA811284F8602018466D
:103DB000F0BD1F2887BF1E4B00F01F0202464FF0C8
:103DC000A04303EB8203D3F8002722F00202C3F8DA
:103DD0000027E1E7AB0003F1804303F5C0430A7815
:103DE000D3F8101521F44F3121F44071C3F81015A8
:103DF0001204000202F44031D3F8104500F47C5262
:103E00000A432243C3F810250020F0BD002385F8A3
:103E10003030C4F800C01D46AEE7082685F8306093
:103E20003346C4F820C03546A3E700BF80390020E0
:103E300000030050F0B43A4D2E1882B096F930309D
:103E4000072B20DD2B4493F858309B09032B45D0DA
:103E5000012B14BF4FF440324FF400321F284DD9CC
:103E600000F01F002F4B03EB8000D0F8003723F445
:103E70004033C0F80037D0F800371A43C0F80027A5
:103E800002B0F0BC7047DAB2072AF9D8980000F106
:103E9000804000F5C04003F140029200D0F8104588
:103EA00092B202F18042002744F0010402F5C042C0
:103EB000C0F810450197019817600029E0D096F9E5
:103EC000302055F82220002ADAD00122164902FAC1
:103ED00003F3C1F8043302B0F0BC70471F2810D9B7
:103EE000104BD3F8103500F01F00C34013F0010F42
:103EF0000CBF4FF400324FF44032B3E74FF0A04311
:103F0000B1E74FF0A0421346D2F81025C24012F09C
:103F1000010F0CBF4FF400324FF44032A3E700BF53
:103F2000803900200003005000600040184B03441B
:103F300093F93030072B13DD1F288ABF154B4FF044
:103F4000A04300F01F0003EB8000D0F8003723F4FB
:103F50004033C0F80037D0F80037C0F8003770475A
:103F6000DAB2072A13D810B49A0002F1804202F59F
:103F7000C042094CD2F81005012120F0010001FADD
:103F800003F3C2F81005C4F808335DF8044B70471A
:103F90008039002000030050006000401F288ABFC5
:103FA000054B4FF0A04300F01F00D3F8103523FA63
:103FB00000F000F001007047000300502DE9F04FC1
:103FC00089B00025CE4B039502951A68012A00F0AE
:103FD0004C82CC4B1A68012A00F03982CA4B1A680D
:103FE000012A00F02682C94B1A68012A00F01382C8
:103FF000C74B1A68012A00F00082C64B1A68012AD2
:1040000000F0ED81C44B1A68012A00F0DA81C34B3D
:104010001A68012A00F0C781C14B1A68012A00F012
:10402000B18115F0FF0F1AD0BE4F01260024A30066
:1040300003F18043354203F5C0434FEA46060BD0F7
:10404000D3F8100557F82420D3F81015C0F3052035
:10405000C1F3014102B190470134082CE7D1002D92
:1040600002DB09B0BDE8F08FAE4DDFF8BC824FF047
:10407000FF330693079395F9603004AF00225C1C70
:104080007A6004922E4600F000815FFA83FE2EF0E3
:10409000C00008AB4FEAD00903EB090C01210EF078
:1040A00007031CF8082C01FA03F312EA030421D0D9
:1040B00032184FEA9E1192F9302056F82220002A39
:1040C00000F03981032900F039811F2800F20681B0
:1040D00004464FF0A04A04F5E0791CF8184C5AF851
:1040E00029C01C40CCF3014C40F0EC80BCF1030F24
:1040F00000F0238295F96130581C35D0DBB223F0F3
:10410000C00008AA4FEAD00C02EB0C0E4FF00109D8
:1041100003F007021EF8081C09FA02F2114223D02C
:1041200006EB0009990999F9309056F82990B9F1F0
:10413000000F00F00981032900F009811F2800F217
:10414000F58084464FF0A04A0CF5E07C1EF818BCC0
:104150005AF82CE01BEA020FCEF3014E40F0C38068
:10416000BEF1030F00F0CE8195F96230591C34D0B6
:10417000DBB223F0C00008AA4FEAD00C02EB0C0E11
:104180004FF0010903F007021EF8081C09FA02F2B9
:10419000114222D006EB0009990999F9309056F89E
:1041A0002990B9F1000F00F0E380032900F0E380CB
:1041B0001F2800F2828084464FF0A04A0CF5E07C74
:1041C0001EF818BC5AF82CE01BEA020FCEF3014E81
:1041D00068D1BEF1030F00F07A8195F963305A1C63
:1041E00038D0DBB223F0C00008AA4FEAD00C02EBB3
:1041F0000C0E4FF0010903F007021EF8081C09FA23
:1042000002F2114226D006EB0009990999F9309083
:1042100056F82990B9F1000F00F0A080032900F0B2
:10422000A0801F288ABF03F01F0C8446DFF8F8A087
:104230001EF818BC98BF4FF0A04A0CF5E07C1BEAB2
:10424000020F5AF82CE0CEF3014E20D1BEF1030F3D
:1042500000F01981002C3FF404AF4FF0A043029905
:10426000D3F81035D8F81025994203D1039991421B
:104270003FF4F7AE029395F96030049805990392E4
:104280005C1C069007917FF400AF002432E7BEF17A
:10429000020FDFD1032900F07681B9F1000FD9D0E8
:1042A000C847D7E7BEF1020F97D1032900F06E810E
:1042B000B9F1000F91D0C8478FE703F01F0CDFF86A
:1042C00068A07BE7BCF1020FDFD1032900F0648115
:1042D0000024002A3FF40EAF90470BE70EF01F04B6
:1042E000DFF844A0F7E6BEF1020F7FF43DAF0329EB
:1042F00000F04F81B9F1000F3FF436AFC84733E704
:104300000061004004610040086100400C61004011
:104310001061004014610040186100401C610040C1
:104320007C610040803900200003005003F01F0C26
:10433000DFF86CA208E7032940F0A38017F80940D2
:104340001C4307F80940C0E603297FF40DAF17F8B6
:104350000CA04AEA020A07F80CA0EFE603297FF452
:1043600079AF17F80CA04AEA020A07F80CA058E740
:1043700003297FF432AF17F80CA04AEA020A07F8C3
:104380000CA015E700221A601B6801934FF0A042B1
:10439000019BD2F81025824B0292D3F8103503937B
:1043A00045F000453DE67F4AD2F8042316067FF526
:1043B00033AE00221A601B680093009B45F0800515
:1043C0002AE6784AD2F8042357067FF520AE002269
:1043D0001A601B680093009B45F0400517E6714A80
:1043E000D2F8042392067FF50DAE00221A601B68F6
:1043F0000093009B45F0200504E66A4AD2F80423A6
:10440000D1067FF5FAAD00221A601B680093009B6D
:1044100045F01005F1E5634AD2F8042310077FF553
:10442000E7AD00221A601B680093009B45F0080569
:10443000DEE55C4AD2F8042354077FF5D4AD0022B0
:104440001A601B680093009B45F00405CBE5554AB4
:10445000D2F8042396077FF5C1AD00221A601B68CD
:104460000093009B45F00205B8E54E49D1F80413CE
:1044700011F0010129D01D601B680093009B1546B7
:10448000A7E5144636E603297FF407AF4FF4003C56
:104490001F288BBF424A4FF0A04203F01F03034680
:1044A00002EB830E0134DEF8002722F44032CEF80E
:1044B0000027DEF8002742EA0C02E4B2CEF800271B
:1044C000B9F1000F7FF4ECAEC7E60D4681E5032994
:1044D0007FF4EEAE4FF4003C1F2848D803464FF05F
:1044E000A04202EB830E0134DEF8003723F44033A0
:1044F000CEF80037DEF800274CEA0202E4B2CEF82C
:104500000027D5E603297FF4F5AE4FF4003C1F28C1
:1045100031D803464FF0A04202EB830E0134DEF89F
:10452000003723F44033CEF80037DEF800274CEA9A
:104530000202E4B2CEF80027DCE603297FF4C9AE1C
:104540004FF400391F281AD803464FF0A04404EB5B
:1045500083030124D3F800C72CF4403CC3F800C700
:10456000D3F800E749EA0E0EC3F800E7B1E603F01E
:104570001F030B4AB5E703F01F03094ACCE70EF00F
:104580001F03074CE3E74FF4403C81E74FF4403C06
:10459000A2E74FF4403CBAE74FF44039D2E700BFFE
:1045A00000030050006000405AB1F8B54379114F44
:1045B000114D03EB430445F823203C5D1CB108205A
:1045C000F8BD0720704705460E4690F9040089782B
:1045D000FFF7E0FA2B683288C3F808256B79F17889
:1045E000357903EB4303FA180126FE545570917098
:1045F0002046F8BDEC390020E83900200368044A61
:1046000001211960437903EB43030221D154704720
:10461000EC3900200368044901225A60437903EB16
:104620004303CA54704700BFEC39002002680123DD
:10463000C2F848330268C2F80833704710B5474BD8
:10464000D3F80423D10384B003D5454A1168002967
:1046500045D1424BD3F80423920303D5414A116854
:1046600000294BD13D4BD3F80423540303D53E4AD4
:104670001168002952D1394BD3F80423100303D514
:104680003A4A1168002959D1344BD3F80423D10791
:1046900002D5D3F80021B2B9304BD3F804239207E6
:1046A00002D5D3F804210AB904B010BD0022C3F822
:1046B00004212F4AD3F80431019305201368019A8D
:1046C000984704B010BD0022C3F80021284AD3F84F
:1046D0000031029304201368029A9847DCE74FF4F4
:1046E00080310020C3F84813214CC3F80813106030
:1046F000136803932368039A9847AAE74FF400319D
:104700000024C3F848131A48C3F808131460136848
:1047100003930368039A01209847A3E74FF480218D
:104720000024C3F848131248C3F808131460136830
:1047300003930368039A022098479CE74FF40021F3
:104740000024C3F848130A48C3F808131460136818
:1047500003930368039A0320984795E700400240BB
:104760004041024044410240484102404C41024025
:10477000E8390020F0B50479954E6401331987B00B
:10478000DD7E15B1082007B0F0BD4D7F1D770B68A9
:104790005F1C19D01F2B4FF001058ABF8D4F4FF0C2
:1047A000A04703F01F0305FA03F3C7F808350B68A9
:1047B0001F2B86BF03F01F03864D4FF0A04503F566
:1047C000E073032745F823704B685D1C0BD01F2B4B
:1047D00086BF03F01F037F4D4FF0A04503F5E07344
:1047E000002745F82370037906EB43131B7F002B4A
:1047F0004DD003688D69C3F824554F7D0B7D056846
:104800003B43C5F86C3503680F684D68C3F80C75F9
:10481000C3F814550B7D012B00F0AC80331905460D
:104820005A600B696A483351EAB12B79097F2A68CB
:1048300000EB4310037F002B76D1C2F81C31D2F875
:104840001C712A680097009FC2F84431D2F84421B5
:104850002B6861480192019AC3F80403286840F369
:104860000730FFF797F92B792A6806EB43131B7F74
:10487000002B55D00823C2F8003534440020012312
:10488000E376E0752076A075A07607B0F0BD0368EA
:104890008D69C3F824554F7D0B7D05683B43C5F8F2
:1048A0006C3591E8A0000368C3F81475C3F80C5583
:1048B0000B7D012BB2D18B685F1C0BD01F2B86BFE9
:1048C00003F01F03434D4FF0A04503F5E0730027AD
:1048D00045F82370CB685D1C1BD01F2B4FF00105E2
:1048E0008ABF3C4F4FF0A04703F01F0305FA03F3C4
:1048F000C7F80835CB681F2B88BF03F01F0303F5EB
:10490000E0738CBF334D4FF0A045032745F823706B
:10491000CB6805688F68C5F80835C5F810757DE760
:104920000423C2F80035A8E70023C2F81031D2F8FA
:1049300010712A680297029FC2F82031D2F82071C4
:104940002A680397039FC2F82431D2F824712A6899
:104950000497049FC2F84431D2F844212B68059291
:104960001E48059AC3F80403286840F30730FFF790
:1049700011F978E78B685F1C0BD01F2B86BF03F003
:104980001F03144D4FF0A04503F5E073002745F8D1
:104990002370CB685D1CBCD01F2B8ABF0D4F4FF01E
:1049A000A04703F01F03012505FA03F3C7F80835F4
:1049B000CB681F2B88BF03F01F0303F5E0738CBF88
:1049C000044F4FF0A047032547F82350CB68A0E7DA
:1049D000F0390020000300508000020010030200A4
:1049E000F0B50379484E01685B01F218127F002A86
:1049F00000F083800022C1F80025F2184249526875
:104A0000B2B1027901EB42110A7F002A78D1026823
:104A10003E49C2F8081302683D4D120B51B24909D4
:104A2000203102F01F02012404FA02F245F821208D
:104A30000279076806EB4212D7F80C55127FD7F8B7
:104A400014454FF0FF3E002A49D0D7F80825D7F883
:104A50001015C7F80CE5C7F814E50068C0F808E5BC
:104A6000C0F810E56F1C0BD01F2D86BF05F01F0589
:104A700028484FF0A04005F5E075022740F8257062
:104A8000651C0BD01F2C86BF04F01F0421484FF07B
:104A9000A04004F5E074022540F82450481C0BD0D7
:104AA0001F2986BF01F01F011A484FF0A04001F5F1
:104AB000E071022440F82140511C0BD01F2A86BF10
:104AC00002F01F0213494FF0A04102F5E0720220EC
:104AD00041F8220033440022DA765A60F0BDD7F85C
:104AE0000825D7F81015C7F814E5C7F80CE50068D5
:104AF000C0F808E5C0F810E5B4E7C1F800257CE788
:104B00000268054985E700BFF039002084020200F1
:104B100000E100E00003005010030200F0B503794B
:104B2000534C5B01E51887B02D7F3DB101F0604526
:104B3000B5F1005F02D0102007B0F0BD23444C4F08
:104B40009E7D16B1112007B0F0BD9A7599609E82C6
:104B500005796D017A19137F13BB0168C1F81C3107
:104B6000D1F81C61016804960126049F8E600168DB
:104B7000D2F808E0C1F81C31D1F81C310593059B2F
:104B8000968A938A5768B6B201331EF806609BB2C4
:104B90009382C1F81C65002F2FD0002007B0F0BD14
:104BA00003689168C3F82061D3F820710368019706
:104BB000019FC3F85861D3F8586103680296967D47
:104BC000029FC3F84415C3F8486503680121996042
:104BD0005368002BE1D1036801E0002945D1D3F8E7
:104BE0002021D3F85811002AF7D0002914BF0F2034
:104BF00000202C440023A3759EE7967D938A9BB2E8
:104C00009E4202F1140122D9016804E0938A9BB20A
:104C1000B3F5807F03D0D1F81C31002BF6D0938AF6
:104C20009BB2B3F5807FE9D0C1F81C71D1F81C317B
:104C30000393039BB2F814C0938A1FFA8CFC0133D0
:104C40001EF80CC09BB29382C1F81CC5D6E70B8836
:104C50009BB2B3F5807F08D00268D2F81C31002BDC
:104C6000FBD00123D3600020C3E70F20C1E700BFC2
:104C7000F03900200279044B03EB4213987D003099
:104C800018BF0120704700BFF0390020F0B403794D
:104C90008C4E5B01F41888B0257F4DB101F0604562
:104CA000B5F1005F59D01022104608B0F0BC704733
:104CB0006568002D42D13344824FDC7D002C2BD11E
:104CC000DA75D9605C761C7605796D0173191F7FE2
:104CD000002F50D19B7E8BB984B90368C3F824415F
:104CE000D3F8242103680392039AC3F80841D3F848
:104CF000082103680492012204991A6071194B6813
:104D0000002B6FD003684FF40172C3F80423002214
:104D1000104608B0F0BC70471C7ED4B1002D00F0E6
:104D2000AA80037907EB43173B7F002B53D003681E
:104D30004FF40472C3F804231122B5E704684FF45A
:104D400001773344C4F80873DC7D5E4F002CB7D084
:104D5000E2E719611A760124B6E76568002DAAD04A
:104D600004684FF404773344C4F80873DC7D554F6E
:104D7000002CA5D0D0E703680025C3F81051D3F864
:104D8000107103680197019FC3F84451D3F844514F
:104D900003680295029DC3F83415C3F8382594B909
:104DA000036801221A6002795201B3185B68002B74
:104DB00063D003684FF40472C3F804230022104642
:104DC00008B0F0BC70470268D2F8003243F020030C
:104DD000C2F80032E7E703684FF40172C3F8042316
:104DE000112261E70268C2F84431D2F844310593D8
:104DF000059B0368D3F82471D3F80841D3F8442104
:104E000044B9002A30D1002FF4D035440023EB758B
:104E1000032249E7002FF8D142BBCC7DC3F808211B
:104E2000D4B1D3F808410694069CCF684C7ED3F8E1
:104E300018353B554B7ECC7D0133DBB24B764B7E38
:104E40009C42D6D835440021AB7EE975002B34D086
:104E500003680121196027E7D3F808410794079CEC
:104E6000D3F818354B7EEDE7002FCED13544002323
:104E7000EB750F2218E7112216E7036801E0A0B9CD
:104E8000BCB9D3F81011D3F84401D3F82441002958
:104E9000F5D01644002C4FF0000314BF03221A462D
:104EA0009842F37518BF0F22FEE616440F22F175E3
:104EB000FAE616440322F075F6E60368012159600C
:104EC000F2E600BFF039002070B59B4C237F8EB016
:104ED000002B75D1994AD2F80413890548D4974B11
:104EE000D3F80423520704D5D3F80821002A40F050
:104EF000CA80924BD3F81C21C2B1A28AA07D8E49F0
:104F000092B282424FF00002C3F81C2180F0A980C7
:104F1000D3F81C210692069A888A8A8A8D6880B204
:104F20000132285C92B28A82C3F81C05834BD3F805
:104F30004421DAB10022C3F84421D3F84411A27EFF
:104F400004910499002A40F08980E27D7A4B6AB18D
:104F50000022587ED968DA7501228DF830000B9155
:104F60008DF828200AA893E8060090470EB070BD7F
:104F7000D2F824110029B2D0C2F82431D2F8241179
:104F8000A37E07914FF401710798C2F808130BB97B
:104F900001235360694A02238DF82830D2F8803407
:104FA000C2F88034E07DE2680D9300238DF8300074
:104FB000E375237621680B9263680AA8984798E7FF
:104FC0005E4BD3F82421002A40F09380D3F81011CF
:104FD00061B1C3F81021D3F8101103910399D3F8EC
:104FE0003C15E07DC9B2884200F0AA80534BD3F84B
:104FF0004421B2B10022C3F84421D3F84411E07D2A
:10500000019101994C4960B1D3F83C35C8688DF8DD
:1050100030300123CA750B908DF828300AA80AC9D0
:105020009847464BD3F82021002A9FD00022C3F88E
:105030002021D3F82011A07D009100993E4900283D
:1050400094D0D3F84C058B688DF830008A750B939B
:105050008DF828200AC90AA8984787E701221A6014
:1050600073E7D3F81C310593059B00283FF45EAF2E
:105070008B688DF830008A750B938DF828200AC94B
:105080000AA8984752E7E17D2B4A002970D00021F9
:10509000C3F80811D3F8081108910899D068517E17
:1050A000D3F818354354537ED17D0133DBB25376A8
:1050B000627E214B8A427FF41CAF1A7E002A6DD19A
:1050C0009B7E13B91D4B01225A601C4AE06863683D
:1050D0004FF40171C2F80813627E8DF8302000256C
:1050E00001220B902168E5758DF828200AA89847C1
:1050F000FFE60022C3F82421D3F8241102910221F3
:105100008DF828100299D3F88014C3F880140D91FB
:10511000D3F83C15E368E27522768DF830100B93D6
:10512000216863680AA89847044BD3F84421002AF1
:105130003FF477AF5EE700BFF03900200020004069
:10514000217EF1B1D3F80062E17526F02001E56817
:10515000C3F8001226698DF8300001238DF828303D
:10516000227621680B95E66063680AA898473DE7B8
:10517000C3F80811D3F808210992099AD3F8183511
:1051800096E7E268E17501238DF830008DF828304C
:105190000B9294E80A000AA8984727E7DE685D7E2C
:1051A0001869DA7501210022D8601A765A768DF8CE
:1051B00028100B968DF8305093E806000AA8904707
:1051C00097E600BF9ADF70479CDF704762DF704749
:1051D0000B785BB92DE9F04F8C88024641F22350E1
:1051E000844287B003D007B0BDE8F08F70478E7956
:1051F000107BB042F7D10F7A4888ADF80A00B7B3F8
:10520000BDF810000190BDF80CB0BDF80EA0994695
:105210009846184641F2245E41F2255C06E064455A
:1052200012D00130B84201F1120113D0CC890D7CAB
:105230007445F4D1AE42F4D14FF00109C846B1F83B
:1052400018B0B1F816A0ECE7AE42EAD1CB8A0193D0
:105250000123E6E7B8F1000F22D1B9F1000F01D028
:10526000ADF80EA01BB1BDF80430ADF810301188B8
:105270004FF6FF7399420AD0538843B9938833B9E4
:1052800006AB53F80C0DC2F802009B88D38006A928
:10529000002301F8103D1361104693689847A2E778
:1052A000ADF80CB0D9E700BF30B329B370B5134BDC
:1052B00086B006469A6818680D465968DB6802ACE5
:1052C0000FC406F10C0102A8FFF780FF90B906ABEE
:1052D00041F2235223F8142D4FF6FF723061708093
:1052E000B080F080B56018463280337B8DF8063090
:1052F00002F05AFA06B070BD0E207047949A020070
:1053000040B1018022B11368C0F802309388C38095
:10531000002070470E20704700285CD000295AD02A
:10532000F0B50B88362B85B005460C4633D0392BAB
:1053300007D0112B23D02B88A288934233D005B0FD
:10534000F0BD02888B889A42F9D14A8983889A42B3
:1053500029D1C989036982680B4403612169A7883F
:10536000E6890393012302918DF80030ADF80270B5
:10537000ADF80460694690472B88A288DDE7028873
:105380008B889A42DBD100224FF6FF7303604260A4
:1053900002618A88D1E702888B889342CFD14989FC
:1053A000C28891421DD0144C144A2368126893425B
:1053B000C5D003EB8300124D800029188A785AB9B2
:1053C0008988285AFFF7FEFE0028B8D1013303F080
:1053D00007032360B3E770470831285AFFF7F4FE4C
:1053E000F2E702212269ADF802308DF80010019237
:1053F0008368694698479EE7103A0020B43A002037
:10540000143A0020002836D0F8B501884FF6FF7313
:10541000994201D10820F8BD1B4FB0F802E03B686B
:105420001A4E1B4D03EB83008000013303F007028B
:105430002C6831523318022100203A60D9811F1D97
:1054400001219442A3F80AE01F61988158711972F2
:105450001971997016D004EB84039B00F1188A78B7
:105460005AB98988F05AFFF7ADFE58B9013404F0F3
:1054700007042C60F8BD0E2070470831F05AFFF782
:10548000A3FEF2E70020F8BDB43A0020143A002051
:10549000103A002080B3F8B502884FF6FF739A42A5
:1054A00001D10820F8BD194F194E3B68194DB0F8CD
:1054B00006E02C6803EB83029200B118013303F07D
:1054C0000703A1F804E0B0F800E03B600020A3422D
:1054D00026F802E0887016D004EB84039B00F118D4
:1054E0008A785AB98988F05AFFF76CFE58B90134A6
:1054F00004F007042C60F8BD0E2070470831F05A04
:10550000FFF762FEF2E70020F8BD00BFB43A0020CA
:10551000143A0020103A0020A0DF7047A4DF704743
:10552000A6DF704762DF70472DE9F041036A428BC6
:10553000C8B0B3F5801F0446ADF8062053D20DF174
:10554000060100228088069108AD0121049205928F
:10555000ADF810008DF81210079502AF4FF0020859
:105560004FEA132E1E0C1A0E04A920882B7085F802
:1055700001E0AE70EA70FFF7D3FF13282ED090B988
:10558000BDF80620236AE16913449A0A9142236216
:10559000E6D07B6087F800806369E26197E80300EA
:1055A0009847236ADCE7024617490120FDF7CCF94A
:1055B000BDF80610236AE2690B44990A91422362FE
:1055C00009D00220039302AA8DF80800E161636903
:1055D00092E80300984748B0BDE8F08101232376A4
:1055E00048B0BDE8F0810321039302AA8DF80810AA
:1055F000636992E803009847002323762362E361FE
:1056000048B0BDE8F08100BFB49A02000B88112BAE
:10561000024625D01FD9502B04D0572B28D1037E0A
:1056200013BB70470089CB889842FAD10B8A022BB2
:10563000F7D110B5084682B01230144602F09CFF34
:1056400002AB80F0010003F8080D626993E80300E3
:10565000904702B010BD102B0BD18B880380704790
:105660004FF6FF730380704700230376FFF75CBF9C
:1056700070477047F0B5374B97B004469A68186882
:105680000E465968DB6802AD0FC5A11C02A8FFF7E2
:1056900049FF00285AD1A3788DF806300DF1020297
:1056A00041F2235301A90120ADF80430FFF734FF84
:1056B000002848D12022002106A8FCF743FE9DF8CF
:1056C0002530A2788DF81A20012543F0100341F20D
:1056D000245EF727BDF802008DF8253006A9221DAB
:1056E000ADF818E0ADF81C708DF82B508DF82450F3
:1056F00002F046FF20BB202200210EA8FCF722FE6C
:105700009DF84530A2788DF83A2043F0020341F22B
:10571000255E04270125BDF802008DF845300EA94D
:1057200004F10C02ADF838E0ADF83C708DF849504A
:1057300002F026FF08B1FDF7E3FB666117B0F0BD8C
:10574000FDF7DEFBD7E7FDF7DBFBB3E7FDF7D8FBA3
:10575000A1E700BFA49A02000022C2610262FFF723
:10576000E3BE00BF0A8840F677239A4202D18B88B5
:10577000033B4383704700BFF0B585B00C46054638
:105780000822002102A8FCF7DDFD270C4FEA142EA9
:10579000260E8DF8044004240DEB040302AAA98907
:1057A00028888DF805E08DF806708DF80760ADF853
:1057B00008400393FFF7B2FE20B1024602490120E0
:1057C000FDF7C2F805B0F0BDE49A02004FF0FF30DB
:1057D000FDF796BB00B50C4B0C4A18689B8883B04C
:1057E00069460090ADF8043009482023ADF8003038
:1057F000FEF7DAFE08B1FDF783FB0548FEF716FF5A
:1058000003B05DF804FB00BF189B0200CD570200F7
:10581000209B0200024B034801221A60FEF7EEBEF5
:1058200008400240209B02000148FEF7F3BE00BF83
:10583000209B0200014BD3F8040570470040024052
:1058400073DF704774DF704775DF704776DF70472E
:105850007ADF70477CDF70478ADF70478BDF7047E5
:105860008CDF70478FDF7047A9DF704769DF7047B3
:1058700066DF704767DF70473EDF70470378012BB4
:1058800004BF014A13707047D43A0020FDF738BBBB
:1058900038B50B8840F6772293420C4611D04DF66E
:1058A0007A22934207D10E4B0A790E490125032033
:1058B0001D70FDF749F821460B48BDE83840FFF759
:1058C00051BF0A4B8A880A49012503201D70FDF744
:1058D0003BF821460448BDE83840FFF743BF00BF0E
:1058E000563D0020809B0200903E00204C3D002051
:1058F000449B020001460148FFF76ABC383D002086
:10590000182808B50AD0192807D108490320FCF740
:10591000C3FF074B02221A7008BD08BD05490320CA
:10592000FCF7BAFF024B01221A7008BDD89B020097
:10593000543D0020AC9B0200F0B52E4C2E4ADFF8FF
:10594000ECE021882D4F2E4E2E4D2F4800238EF84F
:10595000003013704FF6FF7291423B7085B0337088
:105960002B7003700AD029490320FCF795FF20888B
:105970001321FFF76BFFF0B905B0F0BD244A13788F
:10598000DBB2012B04BF23490B701378022BF3D138
:10599000214B1C78012C15D020490320FCF77CFFFB
:1059A0000020FDF7FDFF1E48FFF756FF0028E3D05B
:1059B000FDF7A6FAE0E702461A490120FCF7C4FF0A
:1059C00005B0F0BD00254FF49673174902950320EA
:1059D000ADF80A30009501950395FCF75DFF284668
:1059E000FDF7DEFF21466846FFF72AFF0028C3D0F7
:1059F000DEE700BF4C3100204E3D00204C3D002032
:105A0000563D0020553D0020D43A0020089C02005D
:105A1000543D00208C3E00204D3D00207C9C020027
:105A20003C9B0200249C0200589C02004F3D002039
:105A30002DE9F0430388013B83B00446552B00F267
:105A40008880DFE813F0A7008600860086008600C5
:105A50008600860086008600860086008600860016
:105A6000860086005600AE0086008600860086000E
:105A70008600860086008600860086008600BE00BE
:105A80008600E9008600FA0086008600860086000F
:105A900086008600860086008600860086008600D6
:105AA00086008600860086008600860086008600C6
:105AB000860086008600860086001001860086002B
:105AC00086008600860086008600860086008600A6
:105AD0008600860086008600860086008600860096
:105AE00086008600860086009C0086008600860070
:105AF0001001C37B8F4A9048A1880370012B11804D
:105B000000F00281022B00F00481FFF7A7FEFFF7EF
:105B100099FE8A490320FCF7BFFE00214FF418725A
:105B20008748FCF70FFCA188854801F0A5FE0028F6
:105B300040F0E780834BA0889B798DF80030694660
:105B40008DF80130FFF78EFE08B1FDF7D9F9FDF7AA
:105B50004FFF204601F09EFC2146794801F0C0FE2F
:105B60002146794802F06AFF21467848FFF74EFD4A
:105B700021467748FFF7D0FB03B0BDE8F083002350
:105B80001A4619468088FFF76FFE0028E1D0FDF71E
:105B9000B7F9DEE700218088FFF76AFE0028D8D039
:105BA000F5E76C4B634A1B784FF6FF7111801BB110
:105BB00069490220FCF770FEFDF71AFFFFF7BCFEF3
:105BC000C7E790F817805FEAD80800F11807C0D03F
:105BD000417E067E0929B14600F0A080002304E042
:105BE000527817F80390092A52D009F101094B4461
:105BF000434507EB0302F3D3082900F0918000230B
:105C000003E05278FE5C082A4FD001363344434506
:105C100007EB0302F5D39CE700F1080393E80300C8
:105C20008DE803006946BDF80030A088ADF8023069
:105C3000FFF70AFE00288CD0A9E7027A232A88D031
:105C4000437A464D464947480126013B2E70002ABB
:105C500014BF0A460246062B18D8DFE803F01513D6
:105C6000130D17171300334B13211888FFF7EEFDA0
:105C700000283FF46EAF8AE73B4B3C490320FCF71A
:105C8000C1FE66E73A4BF8E73A4BF6E73A4BF4E7E2
:105C90009D1C3A4803F056FA09F1FF391FFA89F9B9
:105CA00048453FD0617E267EA6E79D1C334803F021
:105CB00049FA013EB6B2B0427FF44BAF02467919C1
:105CC0002E4803F0F3F900287FF443AF2C4D2B4A04
:105CD0002C490320FCF738FE0626FFF7B3FD2A49BE
:105CE0002E802A46012304F108006E80FFF7B8FDDC
:105CF00000283FF42EAF024624490120FCF724FE81
:105D000027E7FDF7FDF815E721490320FCF7C4FD5F
:105D1000FBE620490320FCF7BFFDF6E60225B8E7C5
:105D20000225C3E702467919144803F0BFF9002899
:105D3000B8D1CBE74C3100204D3D0020149D02002E
:105D4000D83A002050310020B83A0020903E002080
:105D5000383D00204F3D00203C9D0200553D002075
:105D6000909D0200849D0200AC9D0200BC9D02003B
:105D7000A49D02009C9D0200B49D02002C9B020089
:105D800058310020E89D02003C9B0200989C0200D4
:105D9000C89C0200F09C020070B52DED028B84B00F
:105DA00004AB03E903009DF80830039C032B19D8CA
:105DB000DFE803F002988B1C6C490320FCF76CFDB4
:105DC0000120FDF7EDFD6A4A6A4B012111701B7835
:105DD0008B4207D1684D2C788C4200F0B280022CA7
:105DE00000F0958004B0BDEC028B70BDFFF71CFD88
:105DF0000220FDF7E9FD0320FDF7D2FDFFF71AFDB4
:105E000007EE900A9FED5D7A5D49F8EE677AE20051
:105E100087EE876A0546032007EE902AF8EE677A38
:105E2000C7EE866A86EE878AFCF736FD5549032061
:105E3000FCF732FD544A5549A2FB053292094FF452
:105E40007A7303FB12530320FCF7DCFDB5EEC08A26
:105E5000F1EE10FA52D44E4ADFED4E6A4E49FDEE95
:105E6000C87AB5EEC08AB8EEE77AF1EE10FACCBF88
:105E700038EE478A37EE488A17EE903A28EE268A9F
:105E80000320BDEEC88A8DED008AFCF721FE3D4956
:105E90000320FCF701FD224640490320FCF754FD96
:105EA00003203F49FCF7F8FC3E48FFF7F3FA0028CF
:105EB00098D002463C490120FCF746FD04B0BDECF9
:105EC000028BBDE87040FFF737BDA20A37490320B7
:105ED000FCF73AFD022004B0BDEC028BBDE8704037
:105EE000FDF79CBD32490320FCF7D6FC012004B02D
:105EF000BDEC028BBDE87040FDF766BDFFEE007A99
:105F0000B4EEE78AF1EE10FAA5DD2A4AA4E72A4B9F
:105F10002A492B4A2B4D528808881A800124194699
:105F20005A802C70FFF790FC00283FF45BAF2649A5
:105F30000246204604B0BDEC028BBDE87040FCF781
:105F400003BD1F4B1C4A5B881E491380002601338A
:105F5000104653800E7001F0F9FA08B92C783EE72C
:105F600002461A492046FCF7EFFCF7E7249E0200A0
:105F70004E3D0020543D00204D3D002000007A445D
:105F8000049F0200189F0200D34D6210449F02003C
:105F90006CA602000000C842749F02009C9F020091
:105FA000C89F0200383D002004A00200E89E0200C5
:105FB000C49E0200709F0200583100204C31002026
:105FC00050310020D43A0020889E0200489E0200F2
:105FD000F8B50B78012B0C461CD00BD3022B08D143
:105FE0004A682D490320FCF7AFFCBDE8F840FFF7F5
:105FF000A3BCF8BD054629490320FCF74DFC221D32
:1060000061882846FFF77CF968BB2846FFF7FAF954
:1060100028BBF8BD8B68F3B1214D2B68A288204EB8
:106020001344B3F5806F2B6020D8E368B3F5801F6D
:10603000EFD302201B4EFDF7C7FC0023E2681A498C
:10604000336003202B60FCF77FFCE1681748BDE854
:10605000F840FFF791BB134A114D1360DEE7BDE82E
:10606000F840FCF74DBFFCF74BFFCEE70220FDF7F1
:10607000D5FC0C48326803680D490133A2F58067EE
:1060800003601A4603203760FCF75EFCE1680748AE
:10609000FFF772FBC9E700BFC4A0020038A00200EE
:1060A000503D0020583D002084A00200903E00207A
:1060B00064A002002DE98048002093B0FCF7D0FBDB
:1060C00008B1FCF71DFFFDF7C9FCFDF7C3FA08B1E5
:1060D000FCF716FFFFF77EFB40F266620221A34841
:1060E000FCF786FE08B1FCF70BFFA14BA14918682D
:1060F000019000234FF4987201A802F005FF08B147
:10610000FCF7FEFE12AC002344F8403D204602F0AE
:1061100067FF08B1FCF7F4FE0C22002103A8FCF78E
:1061200011F9012303A9029A8DF80C3040208DF853
:106130000D308DF80E30FFF799FB08B1FCF7E0FE4B
:106140000C2200210DEB0200FCF7FCF80121F723E3
:106150008DF80C10029AADF80E3003A92320FFF73A
:1061600085FB08B1FCF7CCFE0C2200210DEB0200F0
:10617000FCF7E8F84FF4A0750123029A8DF80C3073
:1061800003A920208DF80E30ADF81050FFF76EFBFC
:1061900008B1FCF7B5FE0C2200210DEB0200FCF764
:1061A000D1F801231846029A8DF80C3003A9FFF7A5
:1061B0005DFB08B1FCF7A4FE204602F01BFF08B10E
:1061C000FCF79EFE6C4802F0E9FE08B1FCF798FE71
:1061D0009DF80C306948012262F3030362F3071350
:1061E0008DF80C3002F0AEFF644982B203A8FFF7CD
:1061F00031FB08B1FCF784FE6148FFF729FB08B1C9
:10620000FCF77EFE00234FF48042022601255D4C00
:106210005D49069303A807930393049205928DF8B2
:1062200018608DF81C500894099101F0F9F808B134
:10623000FCF766FE5549564802F0A6FB08B1FCF78C
:106240005FFE3C22002103A8FCF77CF80222062313
:10625000002103A88DF80C208DF80F3000F0E6FD2A
:1062600008B1FCF74DFE4B484B49FFF703FA4B488A
:1062700001F080FA08B1FCF743FE49494948FFF7AD
:1062800013F808B1FCF73CFE474C414825882946E5
:1062900002F096FB08B1FCF733FE29463C4802F0B9
:1062A0009BFB08B1FCF72CFE23793948002B0CBF6F
:1062B0001B22FB224FF6FF7102F09AFB00210822FD
:1062C00003A86579FCF73EF89DF80C3003A965F347
:1062D000000302208DF80C30FFF7CCFA08B1FCF770
:1062E0000FFE0021082203A8A579FCF72BF803A9CB
:1062F00027208DF80C508DF80D50FFF7BBFA08B130
:10630000FCF7FEFD29490320FCF7C6FA28490320C3
:10631000FCF7C2FA27490320FCF7BEFAFCF746FC5B
:106320000028FBD1FCF7BCFD08B1FCF7E9FD224DCC
:106330002B7823B9FFF7A0FA2B78002BFAD0FCF7C3
:10634000C5FD08B1FCF7DCFD2B781C4EDBB2012B40
:1063500008BF33702B78022B00F0B682DFF860B0F4
:10636000DFF860A0DFF860903AE000BF3C31002029
:10637000289B02005C3D0020315A0200F8A0020078
:10638000583100207D5802008D58020091580200BB
:10639000B83A0020903E0020995D0200F5580200B6
:1063A000D15F0200383D00205031002008A10200DA
:1063B0002CA1020068A10200543D00208C3E002068
:1063C0004D3D0020D43A00204E3D00202B78DBB21A
:1063D000012B00F09980FCF7E9FB002800F0CB804E
:1063E0003378002BF2D0B9491320FCF755FAB8499D
:1063F0000320FCF751FAB7490320FCF74DFA228835
:10640000B5490320FCF7A0FA6288B4490320FCF7E1
:106410009BFA2079B24BB34AB349002818BF1A46F9
:106420000320FCF791FAA379013B062B00F2F581DA
:10643000DFE813F0F101EF01EF010700F301F301D1
:10644000EF01AA4AAA490320FCF77EFAA1490320DA
:10645000FCF722FA9D491320FCF71EFAFCF7A6FB75
:106460000028FBD1A3490320FCF716FAA249032018
:10647000FCF712FAA1490320FCF70EFAFCF796FB91
:106480000028FBD1FCF730FC322800F0AC809C499E
:106490000320FCF701FAFCF789FB0028FBD19BF8ED
:1064A0000080B8F1010F074600F0F581B8F1020F46
:1064B00000F0E1814FF49673924905900320ADF806
:1064C0001630039704970697FCF7E6F93846FDF770
:1064D00067FA012103A8FFF7B3F908B1FCF710FD33
:1064E00089490320FCF7D8F90020FDF759FA8748BD
:1064F000FFF7B2F9002840F0CB81002333702B78EE
:10650000DBB2012B7FF467AF9AF80020002A3FF43A
:1065100062AF99F80020002A3FF45DAF7C4A127800
:10652000002A3FF458AF7B4A1278002A3FF453AF59
:10653000794A1278002A3FF44EAF784A1178002940
:106540007FF449AF614913701320FCF7A5F9744932
:106550000320FCF7A1F9FCF729FB0028FBD1FCF78D
:10656000C3FBFFF757F96F48FFF7F6F8FCF71EFB80
:1065700000287FF435AFFFF77FF931E76A49032040
:10658000FCF78AF969490320FCF786F9684903207A
:10659000FCF782F967490320FCF77EF9FCF706FB5C
:1065A0000028FBD1FCF7A0FB322800F061813328E2
:1065B00000F052811727278039465F4802F000FA21
:1065C000002840F0528139465B4802F005FA08B1D4
:1065D000FCF796FC228859490320FCF7B5F9FCF733
:1065E000E5FA0028FBD139491320FCF755F9544945
:1065F0000320FCF751F953490320FCF74DF95249A8
:106600000320FCF749F951490320FCF745F95049AB
:106610000320FCF741F92D491320FCF73DF94D49C2
:106620000320FCF739F929491320FCF735F9FCF769
:10663000BDFA0028FBD1FCF757FB313803283FF6A1
:10664000D2AE01A353F820F07D650200A9670200D5
:1066500069670200596602003F490320FCF71CF9F4
:106660003E490320FCF718F93D490320FCF714F9D3
:106670003C490320FCF710F9FCF798FA0028FBD1FD
:10668000FCF732FB322800F0E480332800F0DE8093
:106690000127A7710021082203A8FBF753FE03A9D5
:1066A00027208DF80C708DF80D70FFF7E3F808B116
:1066B000FCF726FCA379013B062B00F2A880DFE85B
:1066C00003F0A4A2A298A6A6A20000BF149F0200F5
:1066D00094A10200BCA10200E8A1020004A20200F1
:1066E0003CA2020040A2020044A20200AC9D0200B3
:1066F00070A2020090A20200B0A20200CCA202008E
:10670000F4A20200589C02007C9C02003C9B020008
:106710004C3D0020563D0020553D00204F3D0020BF
:1067200098A60200903E002014A3020038A30200A5
:1067300054A3020070A30200B83A00208CA3020008
:106740009CA50200C0A50200E4A5020010A602005C
:1067500048A6020070A602000CA5020030A50200A7
:1067600048A5020060A502006B490320FCF794F8DD
:10677000FCF71CFA0028FBD1FCF7B6FA79280CBF0D
:106780000123002323714AD1FB224FF6FF71634896
:1067900002F02EF9624A63490320FCF7D5F8FCF7B2
:1067A00005FA0028FBD11EE75F490320FCF774F8C7
:1067B0005E490320FCF770F85D490320FCF76CF894
:1067C0005C490320FCF768F8FCF7F0F90028FBD1DE
:1067D000FCF78AFA322832D0332828D006235649CB
:1067E00063800320FCF758F8FCF7E0F90028FBD1A0
:1067F000F9E6524A52490320FCF7A6F8FCF7D6F90D
:106800000028FBD1EFE64F4AF4E74F4AF2E74F4A40
:10681000F0E74C4A16E64C4A14E64C4A12E61B22B4
:106820004FF6FF713D4802F0E3F8494AB3E74FF4F1
:10683000A073484963800320FCF72EF8D4E728238F
:10684000454963800320FCF727F8CDE70427A771AB
:1068500020E70227A7711DE7F72739462F48278031
:1068600002F0AEF800283FF4AEAEFCF749FBAAE612
:106870009E272780A0E639490320FCF70DF838460B
:10688000FDF78EF83648FEF7E7FF00283FF435AEF7
:10689000FCF736FB31E64FF496733249059003203E
:1068A000ADF81630039704970697FBF7F5FF3846C7
:1068B000FDF776F8414603A8FEF7C2FF00283FF433
:1068C0001CAEFCF71DFB18E600274FF49673254914
:1068D00005970320ADF81630039704970697FBF74A
:1068E000DBFF3846FDF75CF8012103A8FEF7A8FF9F
:1068F00008B1FCF705FB19490320FBF7CDFF002089
:10690000FDF74EF81648FEF7A7FF00283FF426AD26
:10691000FCF7F6FA22E500BFB4A40200B83A002062
:106920003CA20200E4A40200B0A30200DCA3020027
:10693000F4A302000CA4020024A40200AC9D0200F7
:1069400078A50200A49D02009C9D0200B49D020057
:1069500040A2020084A4020054A402007C9C020015
:106960003C9B0200589C02006DDF704772DF70474D
:1069700079DF70477DDF704764DF70472DE9F04FA6
:1069800083B004880C9FBDF83490B7F800A0002CA9
:106990004CD09846002316468B4605461C4603E01D
:1069A0002A880134A24224DD6A6852F8240001904A
:1069B00000220DF1030101A8FFF7DEFF10BB9DF8D7
:1069C0000320B242ECD103B33A8893194B4518DC4B
:1069D00042440DF1030101A80123FFF7CDFF88B95F
:1069E0003A889DF803100A443A802A880134A2426A
:1069F000DADCDBB13B88013BCAEB03039BB2FF2B24
:106A000012D90C2003B0BDE8F08F3B885A1C3344E8
:106A100002334B4592B2F4DC3A8008F802B03A886F
:106A2000013292B23A80D3E708F80A30002003B06E
:106A3000BDE8F08F2DE9F04700231788138090F808
:106A40002D3084B0144605460E46002B49D1AA7855
:106A5000002A70D1EA78002A2ED16A68A2B1D91C26
:106A6000B94225D8022192F90020F154238801333C
:106A70009BB20A212380F154238801339BB22380E7
:106A8000F2542388013323802B89002B40F02A8184
:106A90002B8A002B40F03F812B8B002B40F0548140
:106AA0002A6A002A00F0A78021888B1DBB4262D988
:106AB0000C2004B0BDE8F087D91CB942F8D80221F7
:106AC000F154238801339BB201212380F1542388A0
:106AD0000B449BB22380F25423880B449BB2238047
:106AE000BBE7082FE4D902A8FFF73EFF0028E0D15A
:106AF00013880822CA54238801339BB21B222380A7
:106B0000CA542088013080B22080062208440DF14A
:106B1000090102F0DAFA23889DF8082006339BB2B7
:106B200012F0FE0218BF01222380F25423880133A1
:106B30009BB223808BE70433BB42B9D802A8FFF78E
:106B400017FF0028B5D12388BDF808200321F15490
:106B5000238801339BB219212380F1542388013308
:106B60009BB2F1182380F254120A4A702388023330
:106B70009BB223806EE71388052B40F2AF806FF441
:106B8000486803EB080080B24FF27D3E704540F24A
:106B9000A5805088052840F2A1806FF4486C844499
:106BA0001FFA8CFCF44540F299804FF6FF7E734546
:106BB00004D0704502D0834200F2908005237354C4
:106BC000238801339BB212212380F154238801339F
:106BD0009BB223801188F1543344090A59702388E9
:106BE00002339BB223805288F2543344120A5A7003
:106BF000238802332380D5F82480B8F1000F30D0E9
:106C0000B8F804202188131D0B44BB423FF650AF57
:106C1000931CFE2B3FF64CAF033272542388013392
:106C20009BB2FF222380F254238801339BB223803E
:106C3000B8F80020F2543344120A5A702088023007
:106C400080B22080B8F804205AB1D8F80810002982
:106C500044D0304402F039FAB8F8043022881344A2
:106C6000238095F82C30002B40F08B80287800286A
:106C70003FF41FAF2B88012B30D023889A1CBA42D7
:106C80003FF616AF012805D16978023119448F42C9
:106C9000FFF40EAF023FFB1A04A99BB221F8083D96
:106CA000B018FFF767FE00287FF403AF2A78022AA6
:106CB00000F0B480012A60D01A460821FE2A3FF66F
:106CC000F7AE2388551CF554238801339BB22380EB
:106CD000F154238801331A442280EAE6072004B0E5
:106CE000BDE8F08705F1080802228DE890004046D3
:106CF00011463346FFF742FE00287FF4DAAE8DE8F6
:106D000090004046334610220621FFF737FE002848
:106D10007FF4CFAEBCE605F110088DE89000404648
:106D2000334602220321FFF729FE00287FF4C1AE7B
:106D30008DE890004046334610220721FFF71EFEE3
:106D400000287FF4B6AEA7E605F118088DE890009C
:106D50004046334602221421FFF710FE00287FF43C
:106D6000A8AE8DE890004046334610221521FFF76B
:106D700005FE00287FF49DAE92E66A7893429CD28D
:106D80009AE7D5F82880B8F1000FA7D0B8F804200A
:106D90000232FE2A3FF68CAE23884FF000094FF0F6
:106DA000160A0132F254238801339BB2238006F87D
:106DB00003A0238801339BB22380B8F80020F2544B
:106DC0003344120A5A70238802339BB22380B8F8E6
:106DD0000410F0180A4669B1D8F808301946002B9B
:106DE0003FF47CAF02F071F9B8F804302288134404
:106DF0009BB2238009F1010995F82C205FFA89F9EB
:106E00004A4509EB49087FF631AFAA6A02EB8808C8
:106E1000B8F804200232FE2AC3D949E6BDF808209A
:106E20009342FFF449AF092148E700BF2DE9F04341
:106E300095B01F230D46ADF80E300446002800F033
:106E40008480C27853077CD590F82D300021ADF8AE
:106E50000C10002B40F0DD8183780CAF002B40F04C
:106E600019821946032014AE31445F1C023316FA0E
:106E700087F74FF0020E16FA83F601F840EC83B262
:106E8000012107F8401CADF80C3006F8402C66686C
:106E9000002E00F08C80D81C1F2874D90C2015B04F
:106EA000BDE8F083A76A002F4BD0BA880232FE2AD1
:106EB000F4D8BDF80C304FF0000804AE4FF01609BE
:106EC0001AE002F002F9BDF80C20BB8894F82C10EF
:106ED00013449BB2ADF80C3008F101085FFA88F852
:106EE000884508EB480780F0F080A26A02EB87072C
:106EF000BA880232FE2AD1D80DF1500E9E44581C99
:106F000001320DF1500C0EF8402C1CFA80F09A1C46
:106F100092B200F8409CADF80C203888B05432444E
:106F2000000A50700433B7F804E09BB27246F018C0
:106F3000ADF80C30BEF1000FCED0BB681946002B67
:106F4000BFD1072015B0BDE8F083ADF80C00ADB19E
:106F5000EB78002BF5D128460CA90DF10E02FFF7B6
:106F600069FD0028EED19DF80E300CAA20469DF850
:106F70000C10FFF7FBFC15B0BDE8F0832B46ADF815
:106F80000E502A46F2E714AF591C9A1C17FA81F1E9
:106F90003B4417FA82F296F90060ADF80C00022724
:106FA0000A2003F8407C01F8400C02F8406C238969
:106FB000002B40F08F80238A002B40F0AB80238B86
:106FC000002B40F0C780226A002A42D0BDF80C3066
:106FD000991D1F293FF662AF10880528B1D96FF4BB
:106FE000486C00EB0C06B6B24FF27D37BE42A8D912
:106FF0005688052EA5D96FF4486EB6441FFA8EFE4A
:10700000BE459ED94FF6FF77B84203D0BE4201D0AD
:10701000B04296D814A8C7185E1C10FA86F64FF036
:10702000050E981C07F840EC80B2122706F8407C49
:10703000ADF80C001788ADF80C1004AE31183754B9
:1070400004333F0A4F709BB25288F2543344120A01
:107050005A70676AA7B3B888BDF80C30811C9A1CB7
:1070600056181F2E3FF61AAFFE293FF617AF14AE83
:107070001E44591C0DF1500E1EFA81F1033006F822
:10708000400C92B2FF2001F8400CADF80C2039887A
:1070900004AEB018B154090A41700433BA8898B2EA
:1070A000ADF80C0062B1B96800293FF44AAF304432
:1070B00002F00BF8BDF80C20BB881344ADF80C307F
:1070C00094F82C1000297FF4EDAE2378002B61D1C9
:1070D00004AC3CE703A904F1080704AE4FF01F0815
:1070E0000222009138463346CDF804801146FFF75E
:1070F00045FC00287FF426AF03AB0093CDF8048055
:107100003346384610220621FFF738FC00287FF46A
:1071100019AF50E703AA04F1100704AE4FF01F089F
:10712000009238463346CDF8048002220321FFF74F
:1071300025FC00287FF406AF03AB0093CDF8048054
:107140003346384610220721FFF718FC00287FF449
:10715000F9AE34E703AA04F1180704AE4FF01F0894
:10716000009238463346CDF8048002221421FFF7FE
:1071700005FC00287FF4E6AE03AB0093CDF8048055
:107180003346384610221521FFF7F8FB00287FF41C
:10719000D9AE18E72288012A3FF4D3AEBDF80C20FF
:1071A000901C1F283FF67AAE012B05D1637813445B
:1071B00002331F2B3FF672AEC2F11D0314A99BB21E
:1071C00004AE21F8203D3044FFF7D4FB00287FF4C3
:1071D000B9AE2278022A00F08780012A00F08B8065
:1071E000ADF830301A460820FE2A3FF657AEBDF8FB
:1071F0000C3014AC591CE71814FA81F10233134413
:10720000013207F8402C3446ADF80C3001F8400C40
:107210009DE60CAF3846FFF7A7FB00287FF492AE3F
:10722000BDF80C3014A903F1010E9A1C11FA8EFE60
:107230000B4492B204AEB01808211B2603F8401C80
:10724000ADF80C200DF1310106220EF8406C01F072
:107250003CFFBDF80C209DF83010931D11F0FE018D
:107260009BB23BD114A8034403F8401CD31DA27861
:107270009BB2ADF80C304AB9E278002A3FF407AE71
:10728000D81C1F2819463FF609AEECE504331F2B26
:107290003FF604AE3846FFF76BFB00287FF452AE92
:1072A000BDF80C30BDF83010E2785F1C14AE16FA51
:1072B00087F71E44981C4FF0030E06F840EC80B28E
:1072C00004AE4FF0190E07F840EC04333718315470
:1072D0009BB2090AADF80C307970CEE714A90B44C3
:1072E000012103F8401CC1E7BDF830209342FFF4B0
:1072F00077AF092078E762789342FFF471AFADF879
:107300003020082070E700BF75DF704776DF7047D8
:107310007ADF70477BDF7047184B18884FF6FF7392
:1073200098422AD010B5164A164C1378217B0133A7
:10733000DBB2994282B013700CD2237C0021117011
:107340008BB9636923B102A8002200F8042D984785
:1073500002B010BD0C49FFF7D7FF0028F8D0A36991
:10736000002BF4D1F4E73B21FFF7D0FF0028E8D051
:10737000A369002BE5D09847E3E77047003F002062
:10738000C03E0020C43E0020043F002070B51E4BCC
:107390001E4A5B881188994282B00FD852889A425F
:1073A0000CD31B4B5B6923B102A8012200F8042D0A
:1073B0009847184C0023237002B070BD154C2278FA
:1073C00062B1134B5B69002BF4D002A8002200F8D5
:1073D000042D98470023237002B070BD0C4D0E4859
:1073E00069680678AB680D48002E18BF1946FCF78F
:1073F00005FA0028DED0AB69002BDBD098470023CC
:10740000237002B070BD00BFB83E0020043F0020D2
:10741000C43E0020B43E0020C03E0020E03E0020DC
:10742000F8B505460FCD144C144F0FC4064695E829
:107430000700002384E807003B70B6B13068104BAA
:10744000716803C3A3F10800FFF762FF90B90D4D07
:107450000D4C0E4A0E4800234FF6FF762E80237007
:107460001946BDE8F840FCF7B7B90548FFF752FFE9
:107470000028ECD0F8BD00BFC43E0020B43E002080
:10748000043F0020003F0020C03E0020197302008E
:10749000C8A6020070B50388112B27D012D9122B71
:1074A00007D0502B47D1244CC288E3899A4230D070
:1074B00070BD083003C8214B83E80300BDE870406D
:1074C000FFF764BF102B35D11D491B4C1B4B1D4DC5
:1074D000E48900F110028088088092E8030000220D
:1074E00083E803002A70002CE8D070BD1449154BC6
:1074F00015484FF6FF7400220C801A70FCF7D4F97F
:107500000028D5D00C4B9B69002BD1D0BDE8704032
:107510001847038A022BCBD1123001F02DF8002836
:10752000CCD10948FCF7C0F90028C1D0A369002BD1
:10753000ECD1BDE770BD70BDC43E0020B83E002058
:10754000003F0020C03E0020E03E002010B5034672
:10755000154A00685968134603C382B01046FFF706
:10756000D7FE044678B9114B11885B8899420DD833
:1075700052889A420AD30E4B5B6923B102A80122BA
:1075800000F8042D9847204602B010BD094B0A4A66
:107590001888054901231370FFF7B6FE074A044611
:1075A0002046137002B010BD043F0020B83E0020FA
:1075B000C43E0020003F0020B43E0020C03E00201A
:1075C00094DF704796DF704797DF7047F0B5334B15
:1075D0001D6890F85A329BB065B303EB830303EB4D
:1075E00083039B00C6182E4CB678A778B74223D0E9
:1075F000012D1FD9A779DFF8A8E0B74247D0022DA7
:1076000018D0A77ADFF898E0B7423AD0032D11D00E
:10761000A77BDFF88CE0B7422DD0042D0AD0A77CE1
:10762000DFF87CE0B74220D0052D03D0A47D1C4DAF
:10763000B44214D01BB0F0BDB4F800E0C75ABE4548
:10764000D6D1184B1C68002CF4D00123ADF80220D1
:1076500001918DF800306846A0471BB0F0BDAC8AA0
:10766000C35A9C42EDD01BB0F0BDBEF810E0C75A23
:10767000BE45D9D1E5E7BEF80CE0C75ABE45CCD12E
:10768000DFE7BEF808E0C75ABE45BFD1D9E7BEF86C
:1076900004E0C75ABE45B2D1D3E700BFB8410020CD
:1076A0009C4100200C3F00202DE9F04390F85A4205
:1076B00090F8593204EB840E0EEB8E0E00EB8E0E1A
:1076C0004FF0640C0CFB04FC9EF8047003EBC30445
:1076D0000CEB44045E1C0444BE4283B004F10A0572
:1076E0003CD0BB4238BF07F1FF382DD25E1C06EB01
:1076F000C6040CEB4404984500EB04092B8912D016
:10770000B9F810500133AB4217D0013DADF8065027
:10771000ADF8043000230B70104601A9FFF754FFA9
:1077200003B0BDE8F083BEF80840A34212D0013395
:10773000ADF80430ADF80640ECE709F10A05F3B204
:107740009F4280F85932D1D8012300200B7003B03A
:10775000BDE8F083002508F10106F0E72B89BEF8AB
:1077600008008342F0D00133ADF80430ADF80600D4
:10777000D0E700BF68B170B40749084A084E094D08
:107780001060012400230C7033602B60184670BC1D
:1077900070470E2318467047B44100200C3F00206C
:1077A000B84100209841002020B12F4B1B781BB915
:1077B000082070470E20704770B42C4C2C4B226868
:1077C000002A46D081789D788D4220D0012A49D95F
:1077D0009D79274E8D4237D0022A43D09D7A244E80
:1077E0008D422CD0032A3DD09D7B214E8D4221D04D
:1077F000042A37D09D7C1E4E8D4216D0052A31D0EA
:107800009D7D1B4E8D420BD0042070BC70471E889E
:107810000588AE42DAD11749096809B30020F4E7B8
:10782000B58A01888D42EFD1F5E7368A0588AE42E8
:10783000E4D1F0E7B6890588AE42D9D1EBE73689C5
:107840000588AE42CED1E6E7B6880588AE42C3D100
:10785000E1E70121006843F8220021600020D4E71D
:10786000052AD1D8511CF5E7B4410020B8410020C9
:107870009C4100200C3F002070B138B5144B1B78A0
:107880000BB9082038BD134B1B68002BF9D090F8BA
:107890005B421CB1112038BD0E2070470E4A0F4DBF
:1078A00003461068A3F85E12186083F85C4208462D
:1078B00083F85A4283F859421A4601212C60FFF797
:1078C0007FFE0028E7D1012283F85B2238BD00BF8C
:1078D000B4410020B84100209C4100209841002084
:1078E00090B389B3884B1B7873B32DE9F04F0B88A5
:1078F000113BA1B005460C46222B00F2D780DFE8F1
:1079000013F03202D500D500D500D500D500D50042
:10791000D500D500D500D500D500D500D500D500BF
:10792000D500D500D500D500D500D500D500D500AF
:10793000D500D500D500D500D500D500D500D5009F
:10794000D701D5000B01D8007047002685F8596291
:10795000A2880DF117012846FFF7A6FE002840F087
:1079600077849DF81730002B00F0A080DFF8A48109
:10797000B4F804E0D8F8007095F85A12002F00F01F
:10798000B48501EB810303EB83039B00EA185F4E90
:107990009278B078904200F05685012F40F2C7856A
:1079A000B079DFF868C1904200F05485022F1DD0F5
:1079B000B07ADFF858C1904200F03E85032F15D011
:1079C000B07BDFF848C1904200F02F85042F0DD026
:1079D000B07CDFF838C1904200F02085052F05D03B
:1079E000B07DDFF828C1904200F0A682744695F879
:1079F0005C320133DBB2BB4285F85C3280F0AB8194
:107A000095F85A22DFF804810132D2B2642312FBC6
:107A100003F105EB010E56F8220085F85A224FF0CB
:107A2000000985F8599203FB0252685001218EF833
:107A300004902046FFF7C4FD002837D095F85A225D
:107A400085F85B9212FB03F3EA1898F8021092781B
:107A5000914200F06585012F24D096F806E02B496D
:107A6000964500F07D85022F1CD096F80AE0274944
:107A7000964500F06E85032F14D096F80EE023494A
:107A8000964500F05F85042F0CD096F812E01F4950
:107A9000964500F05085052F04D0B67D1B499642CF
:107AA00000F02A851A4B03225C801A7021B0BDE8D1
:107AB000F08F8A88B0F85E329A42F7D1C88895F87C
:107AC000597295F85A12002840F06A816389002B98
:107AD00000F06681642303FB01F307EBC70603EBA9
