:1000000000000420251500004D1500004F150000CC
:1000100051150000531500005515000000000000A8
:100020000000000000000000000000005715000064
:1000300059150000000000005B1500005D15000070
:10004000011100005F150000C91100005F150000DC
:100050005F1500005F1500005F1500005F150000D0
:100060005F1500005F1500005F1500005F150000C0
:100070005F1500005F1500005F1500005F150000B0
:100080005F1500009D0300005F1500005F15000074
:100090003D0400005F1500005F1500005F150000C3
:1000A0005F1500005F1500005F1500005F15000080
:1000B0005F1500005F150000000000000000000058
:1000C0005F1500005F1500005F1500005F15000060
:1000D0005F1500005F1500005F1500005F15000050
:1000E0005F1500005F1500005F1500005F15000040
:1000F000000000005F15000000000000000000008C
:1001000000000000000000000000000000000000EF
:1001100000000000000000000000000000000000DF
:1001200000000000000000000000000000000000CF
:1001300000000000000000000000000000000000BF
:1001400000000000000000000000000000000000AF
:10015000000000000000000000000000000000009F
:10016000000000000000000000000000000000008F
:10017000000000000000000000000000000000007F
:10018000000000000000000000000000000000006F
:10019000000000000000000000000000000000005F
:1001A000000000000000000000000000000000004F
:1001B000000000000000000000000000000000003F
:1001C000000000000000000000000000000000002F
:1001D000000000000000000000000000000000001F
:1001E000000000000000000000000000000000000F
:1001F00000000000000000000000000000000000FF
:1002000010B5054C237833B9044B13B10448AFF350
:1002100000800123237010BD70000020000000004A
:1002200054170000084B10B51BB108490848AFF33C
:1002300000800848036803B910BD074B002BFBD0B2
:10024000BDE81040184700BF000000007400002007
:10025000541700006C00002000000000154B002B1C
:1002600008BF134B9D46A3F5803A00218B460F46ED
:100270001348144A121A00F065F80F4B002B00D0F7
:1002800098470E4B002B00D0984700200021040017
:100290000D000D48002802D00C48AFF3008000F09C
:1002A0002BF82000290001F00DF900F011F800BF33
:1002B0000000080000000420000000000000000012
:1002C000700000206002002000000000000000001C
:1002D00008B5074B044613B10021AFF30080054B6E
:1002E0001868836A03B19847204600F033F800BFCE
:1002F000000000003817000070B50E4B0E4CE41AD9
:10030000A41000251E46A54204D056F82530984773
:100310000135F8E701F004FA084C094BE41AA4107F
:1003200000251E46A54204D056F8253098470135D1
:10033000F8E770BD64000020640000206800002021
:100340006400002002440346934202D003F8011BDC
:10035000FAE77047FEE700BF00B585B000230390C1
:10036000194601AA44F20100ADF80430029300F0EE
:1003700003F805B05DF804FBBFF34F8F0549064B4A
:10038000CA6802F4E0621343CB60BFF34F8F00BF33
:10039000FDE700BF00ED00E00400FA05F8B5204AD3
:1003A000204B0025C2F84051C2F84451C2F84851D0
:1003B000C2F84C51C2F80051C2F804511B6813B383
:1003C0001949D2F804250C68141B1A6824F07F44DC
:1003D000A2422F4609D8197CDE69A41A154499B99E
:1003E0001EB133461A68A242F5D9104B10491A784B
:1003F0000B789A420DD00F490F4A41F823504FF421
:100400008013C2F80031F8BD1F745A69986990478B
:10041000E6E7531CDBB2022B08BF00230B70EAE7B0
:1004200000100140900000208C000020940000206B
:1004300095000020A401002000E100E02DE9F04F2C
:10044000884A89491378097899428BB037D00133AB
:10045000DBB2022B08BF002384491370844A0E6864
:10046000029152F82300834905910B6802993218D2
:10047000002522F07F420A602C462946AE46ABB1E9
:100480001A68824200F2E681DD68C3F800E0801A53
:100490001444DA6935B1371927F07F47D9619D6077
:1004A0005F60194613460125002BE9D1002D40F06D
:1004B000DC820023069301230893069A08E06D4B23
:1004C00005931B68694A02920021069308911A4617
:1004D000694BDFF8AC811B780393059B1B681C46B6
:1004E000029B1F680023BA460F460993C346079331
:1004F000994618464FF0010E0193A4463FB37D681C
:10050000BE683946FF695D4BCAEB050424F07F44A1
:100510009C423CD8A3190B604860886081F810E0C9
:10052000C861002A68D015689D4249D2164603E08A
:1005300025689D4234D22646F4695B1B002CF7D116
:10054000CC610B601446F1612246002FD7D198F898
:10055000003098F80110994200F09480591C03EB88
:1005600043039BF8024008EBC303C9B28C421C79D9
:100570008BF8001008BF8BF80070022C99684ED0E1
:10058000032C3FD0012C24D014462246DDE7C5EBD6
:100590000A0525F07F45B54209D2731B0B60BBE706
:1005A000ED1A2560CC610B601446F161CCE7086060
:1005B0004860886081F810E0C861EAB115680023DE
:1005C000EB1A0C4613608C46CA614FF001092246B3
:1005D000BBE70C7C0494002CD6D1DD684D601E690D
:1005E0008E605C69CC609B698B61039B002B8AD019
:1005F000049B4B601D4686E70C468C464FF0010974
:100600002246A2E70AB9BFE71A46D3691074002B45
:10061000FAD11C469C464FF00109224695E752B19B
:10062000914200F00B81134602E0B14207D03346FD
:10063000DE69002EF9D114460874224685E79942F6
:1006400000F0FE801446F5693668DD6115B12B684F
:1006500033442B60019B0874A24218BF012301930D
:10066000EBE700BF94000020950000208C000020E4
:10067000A40100209000002096000020FEFF7F00D3
:10068000980000205746DDF804A0B9F1000F40F0B3
:100690004981079B002B40F0E581099B002B40F02E
:1006A000DC81BAF1000F03D1069B9A4200F03F8132
:1006B000002A00F041816C49029BD1F804051B68B7
:1006C0006A4C17682578C21A22F07F420332002D47
:1006D00051D1674DDFF89CC1DFF89CE14FF48036C3
:1006E000C1F84463C1F804634FF40036C5F8806173
:1006F0002E6001250D60DCF800602F2100BF00BFD7
:1007000000BF00BF00BF00BF00BF00BF76452FD0B5
:1007100000BF00BF00BF00BF00BF00BF00BF00BFE1
:1007200000BF00BF00BF00BF00BF00BF00BF00BFD1
:1007300000BF00BF00BF00BF00BF00BF00BF00BFC1
:1007400000BF00BF00BF00BF00BF00BF00BF00BFB1
:1007500000BF00BF00BF00BF00BF00BF00BF00BFA1
:1007600000BF00BF00BF00BF00BF00BF00BF00BF91
:100770000139C3D1257097422CBFDA199A183A492A
:1007800022F07F43C1F84035D1F80425121A1B1A14
:1007900022F07F4223F07F4303329A4248D9D1F8B6
:1007A0000435344AC1F84035126833492F2300BF5D
:1007B00000BF00BF00BF00BF00BF00BF00BF8A4234
:1007C0002FD000BF00BF00BF00BF00BF00BF00BFF1
:1007D00000BF00BF00BF00BF00BF00BF00BF00BF21
:1007E00000BF00BF00BF00BF00BF00BF00BF00BF11
:1007F00000BF00BF00BF00BF00BF00BF00BF00BF01
:1008000000BF00BF00BF00BF00BF00BF00BF00BFF0
:1008100000BF00BF00BF00BF00BF00BF00BF00BFE0
:1008200000BF013BC3D1124B4FF40032C3F800218B
:10083000124A002313700BB0BDE8F08F1646134622
:10084000D2F81C90B9F1000F1AD0CC464C464FF0AC
:100850000109F8E6002D62D1121A1A6006930123ED
:100860000893069A34E600BF00100140AC01002056
:1008700000E100E0600000200024F4009600002069
:100880007B4C7C4DC4F808E07B4C4FF02F0C246867
:1008900000BF00BF00BF00BF00BF00BF00BF00BF60
:1008A000AC422FD000BF00BF00BF00BF00BF00BFE1
:1008B00000BF00BF00BF00BF00BF00BF00BF00BF40
:1008C00000BF00BF00BF00BF00BF00BF00BF00BF30
:1008D00000BF00BF00BF00BF00BF00BF00BF00BF20
:1008E00000BF00BF00BF00BF00BF00BF00BF00BF10
:1008F00000BF00BF00BF00BF00BF00BF00BF00BF00
:1009000000BF00BFBCF1010CC2D1012425460994EF
:10091000CC464C46CA4603950795A94693E6059CE6
:10092000236099E7059B1946C1F800C0B1E6089B12
:10093000002B3FF47DAFBBE64D49504B4E4E4D4C26
:100940004FF480304FF400370125C3F88070C1F8B0
:1009500048032F23C1F808034D6030681E4600BFCE
:1009600000BF00BF00BF00BF00BF00BF00BFA0426C
:100970002FD000BF00BF00BF00BF00BF00BF00BF3F
:1009800000BF00BF00BF00BF00BF00BF00BF00BF6F
:1009900000BF00BF00BF00BF00BF00BF00BF00BF5F
:1009A00000BF00BF00BF00BF00BF00BF00BF00BF4F
:1009B00000BF00BF00BF00BF00BF00BF00BF00BF3F
:1009C00000BF00BF00BF00BF00BF00BF00BF00BF2F
:1009D00000BF013EC3D18D6002990A6000BF00BF15
:1009E00000BF00BF00BF00BF00BF00BFA0422FD0AC
:1009F00000BF00BF00BF00BF00BF00BF00BF00BFFF
:100A000000BF00BF00BF00BF00BF00BF00BF00BFEE
:100A100000BF00BF00BF00BF00BF00BF00BF00BFDE
:100A200000BF00BF00BF00BF00BF00BF00BF00BFCE
:100A300000BF00BF00BF00BF00BF00BF00BF00BFBE
:100A400000BF00BF00BF00BF00BF00BF00BF00BFAE
:100A5000013BC3D10A4B1A70EAE60A4B9DF80C1011
:100A600019701EE6029B1F6017E6059A136020E5C9
:100A7000001001400024F4006000002000E100E0CC
:100A8000AC01002096000020F0B4564B564A574E59
:100A9000574C4FF480304FF400310125C2F88010DC
:100AA000C3F848032F21C3F808035D6030680E4681
:100AB00000BF00BF00BF00BF00BF00BF00BF00BF3E
:100AC000A0422FD000BF00BF00BF00BF00BF00BFCB
:100AD00000BF00BF00BF00BF00BF00BF00BF00BF1E
:100AE00000BF00BF00BF00BF00BF00BF00BF00BF0E
:100AF00000BF00BF00BF00BF00BF00BF00BF00BFFE
:100B000000BF00BF00BF00BF00BF00BF00BF00BFED
:100B100000BF00BF00BF00BF00BF00BF00BF00BFDD
:100B200000BF00BF013EC3D19D6000BF00BF00BF3A
:100B300000BF00BF00BF00BF00BFA0422FD000BF5A
:100B400000BF00BF00BF00BF00BF00BF00BF00BFAD
:100B500000BF00BF00BF00BF00BF00BF00BF00BF9D
:100B600000BF00BF00BF00BF00BF00BF00BF00BF8D
:100B700000BF00BF00BF00BF00BF00BF00BF00BF7D
:100B800000BF00BF00BF00BF00BF00BF00BF00BF6D
:100B900000BF00BF00BF00BF00BF00BF00BF0139E2
:100BA000C3D1144E144D154C1549164F002030700A
:100BB000286020704FF48015E0240B2608704870E0
:100BC0008E7038701049C2F8805182F81443156055
:100BD000C3F8080582F81143D3F804350B60F0BC64
:100BE000704700BF0010014000E100E060000020FD
:100BF0000024F400AC0100209000002094000020AC
:100C000098000020950000208C000020074B9B7866
:100C10000BB9082070473AB130B10368187C00283E
:100C2000F7D159745A617047072070479800002027
:100C30002DE9F041234CA37813B90820BDE8F081D9
:100C40000028FAD0042902D80720BDE8F0814369C2
:100C5000002BF2D0437C0546012B4FF000000CBF67
:100C60008846804617460E4600F032F86378A07832
:100C700021785A1CD2B2904208BF002291421AD069
:100C800003EB430304EBC30301200F499D6018717C
:100C9000D1F80415D9601E61C3F814809F6100204B
:100CA000627000F01DF8094B4FF48012C3F8002168
:100CB0000020BDE8F081002000F012F80420BDE81B
:100CC000F08100BF980000200010014000E100E02A
:100CD00072B6024A1368013313607047B0010020F6
:100CE000034A1368013B136003B962B6704700BF43
:100CF000B001002038B51D4A1368002B0DDD1C49DA
:100D00008988FF3B1360C9B21A4800F093F900B913
:100D100038BDBDE83840FFF71FBB1548437873B1B5
:100D2000447BC37B8188E51AA9421ADB4369A1B2DF
:100D3000002481804470002BE4D00533E2E7847BFB
:100D4000C17B83886518AB4207DC0369A1B201242B
:100D500081804470002BD5D0EFE7591A89B2818089
:100D6000D1E7194489B28180CDE700BFD4010020CA
:100D7000D801002008020020F8B543780BB90720FD
:100D8000F8BD82789A42FAD2C378002BF7D0C368B4
:100D9000002BF4D01B4D1C4F044654220021284642
:100DA000FFF7D0FA1422214605F10C0000F0ACFC4C
:100DB000287BA278E378E16885F82000E068A862E3
:100DC0002669A96013440020AB802870FF236E625F
:100DD0000E4A85F82130012605F1200105F1300089
:100DE000EF626E7000F084F80028C9D1AE70A1786F
:100DF000E378194405F13000C9B2BDE8F84000F0CD
:100E000019B900BFD80100203C170000F50C000004
:100E10000146014800F0AAB80802002010B5037D81
:100E2000044633B9836943B398472379022B24D00E
:100E300010BD0378E3B9036AC268C3F80825A37834
:100E4000E178591A03FB01F10912002305312161F0
:100E5000637023752379022BEAD1E369224618686F
:100E6000FFF7E6FE0028E3D0BDE81040FFF774BAB4
:100E7000036AC268C3F80C25E1E7E178A3788B42E6
:100E80001BD0237851B94BB3236AE268C3F80C2511
:100E9000A1780023053121616370DBE7CBB1236AC0
:100EA000E268C3F80825A37811FB03F109120123B6
:100EB0000531216163702375CCE723789BB9236AE0
:100EC000E268C3F80C25A178012305312161637024
:100ED000C0E7236AE268C3F80C25E4E7236AE26806
:100EE000C3F80825D4E7236AE268C3F80825EAE7CF
:100EF00038B582610B788C6803708B6883608B686F
:100F0000C3604B6803624B7883700546C868E8612C
:100F1000144A0021FFF77AFEE8B903218CB1E307F8
:100F20000BD51F288BBF00F01F0303460E4A4FF05E
:100F3000A04203F5E07342F82310640800F10100B9
:100F4000EDD12B7843B92B6AEA68C3F80825002055
:100F5000012368702B7138BD2B6AEA68C3F80C2531
:100F6000F5E700BF1D0E00000003005038B5037800
:100F7000C16002220446027133BB036AC3F808153C
:100F8000A368E278A078A569194390424FF0000366
:100F900063702375A361A160237830D0C2B1002BA8
:100FA00038D0236AE168C3F80815A17812FB01F173
:100FB0000912012305312161637023752379022B06
:100FC00013D0A561002038BD036AC3F80C15D7E71C
:100FD0002BB3236AE268C3F80C250023A178637061
:100FE00023790531022B2161EBD1E3692246186890
:100FF000FFF71EFE0028E4D0FFF7AEF9E1E79BB94A
:10100000236AE268C3F80C25A17801230531216128
:101010006370D3E7236AE168C3F80C15C5E7236A58
:10102000E268C3F80825D8E7236AE268C3F8082510
:10103000EAE700BF83788B4226BFC17000200720FB
:10104000704700BF10B50D4C23780BB1852010BD43
:101050000B4A6360E3601068A36010F00100236135
:1010600007D04FF080420123C2F8183523700020CA
:1010700010BD072100F080F8F3E700BF2C0200202C
:1010800000E100E030B51B4DAB7883B0044673B18E
:1010900010B14368012098470020FFF719FEEB6864
:1010A00000200133EB60FFF71BFE03B030BD03F0FF
:1010B000FF00FFF70DFE64B12A6942B1944208D0E7
:1010C000134601E09C4204D01B68002BFAD1226039
:1010D0002C61EB68002BE2D1074A084913601368C2
:1010E00001934FF0804202200123019CC2F80403C7
:1010F0000B60D4E72C0200200401004008000040EF
:1011000010B51A4B1A6882B0A2B100221A601B688F
:1011100000934FF080430122154C0099C3F8082337
:10112000A368627033B10CCB0020A2609847A3681B
:10113000002BF8D10F4B1A68AAB100221A601B6865
:1011400001934FF080430222094C0199C3F8082310
:1011500023690122A27033B10CCB01202261984790
:101160002369002BF8D102B010BD00BF0001004080
:101170002C02002004010040002810B418DB00F10C
:10118000604303F561434901C9B283F80013C3B258
:101190004009800000F1604000F5614003F01F024B
:1011A00001239340C0F8803103605DF8044B704721
:1011B000C3B2044A03F00F0449012244C9B21176B4
:1011C000E6E700BFFCEC00E070B59B4C237F8EB0DF
:1011D000002B75D1994AD2F80413890548D4974B4E
:1011E000D3F80423520704D5D3F80821002A40F08D
:1011F000CA80924BD3F81C21C2B1A28AA07D8E492D
:1012000092B282424FF00002C3F81C2180F0A98004
:10121000D3F81C210692069A888A8A8A8D6880B241
:101220000132285C92B28A82C3F81C05834BD3F842
:101230004421DAB10022C3F84421D3F84411A27E3C
:1012400004910499002A40F08980E27D7A4B6AB1CA
:101250000022587ED968DA7501228DF830000B9192
:101260008DF828200AA893E8060090470EB070BDBC
:10127000D2F824110029B2D0C2F82431D2F82411B6
:10128000A37E07914FF401710798C2F808130BB9B8
:1012900001235360694A02238DF82830D2F8803444
:1012A000C2F88034E07DE2680D9300238DF83000B1
:1012B000E375237621680B9263680AA8984798E73C
:1012C0005E4BD3F82421002A40F09380D3F810110C
:1012D00061B1C3F81021D3F8101103910399D3F829
:1012E0003C15E07DC9B2884200F0AA80534BD3F888
:1012F0004421B2B10022C3F84421D3F84411E07D67
:10130000019101994C4960B1D3F83C35C8688DF81A
:1013100030300123CA750B908DF828300AA80AC90D
:101320009847464BD3F82021002A9FD00022C3F8CB
:101330002021D3F82011A07D009100993E4900287A
:1013400094D0D3F84C058B688DF830008A750B93D8
:101350008DF828200AC90AA8984787E701221A6051
:1013600073E7D3F81C310593059B00283FF45EAF6B
:101370008B688DF830008A750B938DF828200AC988
:101380000AA8984752E7E17D2B4A002970D0002136
:10139000C3F80811D3F8081108910899D068517E54
:1013A000D3F818354354537ED17D0133DBB25376E5
:1013B000627E214B8A427FF41CAF1A7E002A6DD1D7
:1013C0009B7E13B91D4B01225A601C4AE06863687A
:1013D0004FF40171C2F80813627E8DF830200025A9
:1013E00001220B902168E5758DF828200AA89847FE
:1013F000FFE60022C3F82421D3F824110291022130
:101400008DF828100299D3F88014C3F880140D9138
:10141000D3F83C15E368E27522768DF830100B9313
:10142000216863680AA89847044BD3F84421002A2E
:101430003FF477AF5EE700BF40020020002000408D
:10144000217EF1B1D3F80062E17526F02001E56854
:10145000C3F8001226698DF8300001238DF828307A
:10146000227621680B95E66063680AA898473DE7F5
:10147000C3F80811D3F808210992099AD3F818354E
:1014800096E7E268E17501238DF830008DF8283089
:101490000B9294E80A000AA8984727E7DE685D7E69
:1014A0001869DA7501210022D8601A765A768DF80B
:1014B00028100B968DF8305093E806000AA8904744
:1014C00097E600BF30B587B0FFF7BCFDB0B900208C
:1014D000FFF7D8FDFFF7D8FAC8B9114D0FCD01AC11
:1014E0000FC42B68236001A8FFF746FCA8B94FF48E
:1014F000F030FFF78DFC68B920BFFDE7FEF72CFF49
:101500000020FFF7BFFDFFF7BFFA0028E5D0FEF788
:1015100023FFE2E7FEF720FFEEE7FEF71DFFE6E719
:10152000401700000649074A074B9B1A03DD043B9E
:10153000C858D050FBDC00F013F8FEF78FFE000017
:10154000601700000000002070000020FEE7FEE7AA
:10155000FEE7FEE7FEE7FEE7FEE7FEE7FEE7FEE763
:1015600070B45E4B1B68082B19D05D4AD2F88830E6
:1015700043F47003C2F88830BFF34F8FBFF36F8F0F
:101580004FF01023D3F80022002A75DBD3F8043281
:10159000002B71DB534B544A1A6070BC7047534B9D
:1015A00019680029E1D14FF080404FF08052C0F817
:1015B0000C114F4BC0F81011C0F83815D2F80414B4
:1015C000C3F82015D2F80814C3F82415D2F80C1467
:1015D000C3F82815D2F81014C3F82C15D2F8141437
:1015E000C3F83015D2F81814C3F83415D2F81C1407
:1015F000C3F84015D2F82014C3F84415D2F82414C7
:10160000C3F84815D2F82814C3F84C15D2F82C1496
:10161000C3F85015D2F83014C3F85415D2F8341466
:10162000C3F86015D2F83814C3F86415D2F83C1426
:10163000C3F86815D2F84014C3F86C15D2F84464A6
:101640002C4C2D49C3F870652C4D2560FB23C1F847
:101650001835D0F8E43ED2F8581204F50F3423F0D0
:101660000F0204F56D7401F00F0313434FF4007281
:10167000C0F8E43E226078E7214B0122C3F804253C
:10168000D3F80024002AFBD04FF0102312221C496B
:10169000C3F80022D1F80034002BFBD04FF0102308
:1016A00012221749C3F80422D1F80024144B002A4F
:1016B000FAD00022C3F80425D3F80024002AFBD076
:1016C000BFF34F8F06490F4BCA6802F4E062134321
:1016D000CB60BFF34F8F00BFFDE700BF30010010AC
:1016E00000ED00E0600000200090D0033401001005
:1016F00000C000408C56004000F0004048810300CC
:1017000000E001400400FA0510B5431E0A4491426E
:1017100004D011F8014B03F8014FF8E710BD0000A9
:10172000F8B500BFF8BC08BC9E467047F8B500BFCE
:10173000F8BC08BC9E46704700000020B4010020A1
:1017400000DC0005000001000000000000E00100D6
:08175000000000500000000041
:0817580004EBFF7F010000001B
:101760000000000000000000000000000000000079
:101770000000000000000000000000000000000069
:101780000000000000000000000000000000000059
:101790000000000000000000000000000000000049
:1017A0000000000000000000000000000000000039
:1017B0000000000000000000000000000000000029
:1017C0000090D0032502000001020000000000008C
:0400000300001525BF
:00000001FF
