:020000022000DC
:1020000000000420196102004161020043610200E6
:1020100045610200476102004961020000000000C2
:102020000000000000000000000000004B61020002
:102030004D610200000000004F610200516102008A
:102040001D3A020053610200454A0200536102003A
:102050005361020053610200413F020053610200DC
:102060005361020053610200536102005361020098
:102070005361020053610200536102005361020088
:1020800053610200412E02005361020053610200BD
:10209000E12E020053610200D96602005361020082
:1020A0005361020053610200536102005361020058
:1020B00053610200536102000000000000000000B4
:1020C0005361020053610200536102005361020038
:1020D0005361020053610200536102005361020028
:1020E0005361020053610200536102005361020018
:1020F000000000005361020000000000000000002A
:1021000000000000000000000000000000000000CF
:1021100000000000000000000000000000000000BF
:1021200000000000000000000000000000000000AF
:10213000000000000000000000000000000000009F
:10214000000000000000000000000000000000008F
:10215000000000000000000000000000000000007F
:10216000000000000000000000000000000000006F
:10217000000000000000000000000000000000005F
:10218000000000000000000000000000000000004F
:10219000000000000000000000000000000000003F
:1021A000000000000000000000000000000000002F
:1021B000000000000000000000000000000000001F
:1021C000000000000000000000000000000000000F
:1021D00000000000000000000000000000000000FF
:1021E00000000000000000000000000000000000EF
:1021F00000000000000000000000000000000000DF
:1022000010B5054C237833B9044B13B10448AFF330
:1022100000800123237010BD083900200000000059
:1022200074760200084B10B51BB108490848AFF39B
:1022300000800848036803B910BD074B002BFBD092
:10224000BDE81040184700BF000000000C39002016
:10225000747602000439002000000000154B002BAA
:1022600008BF134B9D46A3F5803A00218B460F46CD
:102270001348144A121A00F065F80F4B002B00D0D7
:1022800098470E4B002B00D09847002000210400F7
:102290000D000D48002802D00C48AFF3008000F07C
:1022A0002BF82000290002F061FE00F011F800BFB9
:1022B00000000800000004200000000000000000F2
:1022C00008390020F8410020000000000000000054
:1022D00008B5074B044613B10021AFF30080054B4E
:1022E0001868836A03B19847204600F033F800BFAE
:1022F000000000003871020070B50E4B0E4CE41A5D
:10230000A41000251E46A54204D056F82530984753
:102310000135F8E704F004FF084C094BE41AA41057
:1023200000251E46A54204D056F8253098470135B1
:10233000F8E770BDFC380020FC3800200039002090
:10234000FC38002002440346934202D003F8011BEC
:10235000FAE77047FEE700BF0378012B04BF014A8C
:1023600013707047243A00202DE9F04FC7B01C4687
:102370009248002914BF0A23002316460D460093F5
:1023800002F054FB002840F0E480002C00F0E580CF
:1023900006AB83460193519B539A9E1820250296C3
:1023A00058460099019A0B46034404933133D318DD
:1023B0000393171800295FD07B4203F003038B427D
:1023C00028BF0B46062900F2EB800B46019A012B31
:1023D000155407F1010200F0E180022B7D7007F136
:1023E000020200F0DB80032BBD7007F1030200F056
:1023F000D580042BFD7007F1040200F0CF80062B7E
:102400003D7107F1050240F0D1807D71BA1D9E46F5
:10241000009999422ED0009EC3EB060AAAF104014E
:1024200006F1FF3B8908C3EB0B0B0131BBF1020F37
:102430004FEA810C12D90344019E4FF0203001294C
:1024400006EB030BF05005D00229CBF8040001D0B5
:10245000CBF80800D4456244E6440BD000981570D0
:102460000EF10103834205D20EF1020E7045557044
:1024700000D99570009B1F44039B059707F1330912
:1024800007F1030A264603F101084C46029FDDF8D6
:1024900044910DE00AF8035C0AF8025C0AF8015C5A
:1024A0000AF1030AA24508F8015C08F101082FD0DF
:1024B000BE42EFD24E456BD2509B13F806B00AF8DD
:1024C000015C4FEA2B105FFA80FE09280BF00F0029
:1024D000D4BF0EF1300E0EF1370E092894BF303004
:1024E00037300AF803EC0AF8020C04F057F95844A4
:1024F0000AF1030A407810F0970F08BF4FF02E0B37
:10250000A24508F801BC06F1010608F10108CFD187
:10251000049B03980297059F019903F1430A0D223A
:102520000A23027443745246254887F8305004F059
:1025300051F95FFA8AF222492048344602F0CAF97A
:1025400038B91E4802F072FA18B9029B9C42FFF497
:1025500028AF204647B0BDE8F08F55B306A82B68DA
:10256000184A01904FF4807104F040F90028F0DB24
:102570000546304604F06CF9019BC22828BFC220F2
:10258000834602463146581904F024F9AB4402E769
:10259000C9EB0600529B13F800B090E79E4637E760
:1025A000002B7FF413AF3A469E4634E74FF0050EFA
:1025B0002EE706AB25460193DBE700BF7C37002002
:1025C000243900205C7102002DE9F0416B48C6B04F
:1025D0000C4616461D4602F029FAA8B9C4B106AF4A
:1025E0002368674A38464FF4807104F0FFF80028EA
:1025F0000ADB4C9B8046062B00F2BD80DFE803F02F
:10260000146670327C405200002046B0BDE8F08174
:102610004C9B062B00F2AC80DFE803F0049C969004
:10262000847E8A004FF00008304604F011F900EB78
:102630000803FF2B044640F29380002CE4DB08EBF8
:102640000402B2F5807FDFD8D4B206A94D4804F069
:10265000C1F822464B49494802F03CF9B0FA80F0F3
:102660004009D2E7C0F58071AA686C682B680192B6
:102670000094324607EB080004F0B8F80446DCE7A3
:10268000C0F580712869EA682B680390AC686D68B2
:10269000009502920194324607EB080004F0A6F878
:1026A0000446CAE7C0F580716A6928692B680492FC
:1026B000EA680390AC686D68009502920194324616
:1026C00007EB080004F092F80446B6E7C0F5807105
:1026D0002B68324607EB080004F088F80446ACE7A4
:1026E000C0F580716A682B68009207EB08003246DB
:1026F00004F07CF80446A0E7C0F58071EA68AC6895
:102700002B686D68009502920194324607EB080031
:1027100004F06CF8044690E74FF480714FF0000825
:1027200006AFAFE74FF480714FF0000806AFE5E762
:102730004FF480714FF0000806AFB5E74FF4807199
:102740004FF0000806AF8FE74FF480714FF000089C
:1027500006AFC7E74FF480714FF0000806AFB7E748
:1027600006AB314603EB0800224604F033F864E779
:102770000024224669E7002461E700BF7C3700207F
:102780005C71020024390020F0B51A4F3B7889B003
:102790001BB1194B1B78834229D0184D06460FCD2B
:1027A0006C460FC495E80F004FF0000E84E80F0050
:1027B0000625052107224FF0EB73114803910824E9
:1027C00002928DF814E000950194069301F0E4FF65
:1027D000002E0C4A0A4818BF0022694601F0A6FEE6
:1027E00018B9054A012316703B7009B0F0BD0020EE
:1027F00009B0F0BD263A0020253A00203C710200C5
:102800007C3700205923020000487047C925020088
:10281000004870476923020038B50020FFF7B4FF75
:10282000044668B9FFF7F0FF0546FFF7F1FF054BD7
:10283000FF22C3F810541C605C60C3F814049A6053
:10284000204638BD283A00200120FFF79DBF00BF79
:102850002DE9F04383B002AB4FF0000803F8018D7F
:10286000254C064618460D46A76800F0C5FFA2682D
:102870006368D4F8009013440133C9EB0303012BC0
:1028800007D80BBB9DF8070000F0DEFF03B0BDE8E2
:10289000F08309F101039DF80700236000F0D4FFE5
:1028A0000122002362F3010368F3820307EA0907A8
:1028B00066F3C50304EB870468F3891365F39F236C
:1028C000E36003B0BDE8F0830121434661F30103F7
:1028D00068F38203052161F3C50309EA020207498F
:1028E00004EB820268F3891309F1010761F39F2366
:1028F0002760D360C6E700BF283A00206471020059
:102900002DE9F04782B002AB002603F8016D294C97
:102910008146184617468846A56800F06DFFA268F4
:102920006368D4F800A013440133CAEB0303022BFD
:1029300007D843BB9DF8070000F086FF02B0BDE852
:10294000F0870AF102039DF80700236000F07CFF86
:102950000122002362F301030AEB020166F3820302
:1029600069F3C50305EA0A0A0D4004EB8A0A62F31B
:10297000891304EB850468F39F23CAF80C30E760E1
:1029800002B0BDE8F0870121334661F3010366F32D
:102990008203052161F3C5030AEA0202064804EB3B
:1029A000820266F389130AF1010160F39F2321601B
:1029B000D360BFE7283A0020647102002DE9F04F90
:1029C00083B002AD002605F8016D2D4C82462846E5
:1029D00090461F468946A56800F00EFFA26863680E
:1029E000D4F800B013440133CBEB0303032B07D817
:1029F0007BBB9DF8070000F027FF03B0BDE8F08F18
:102A00000BF103039DF80700236000F01DFF012276
:102A1000002362F301030BF1020066F382035A44C0
:102A20006AF3C503022105EA0B0B2A40054004EBBB
:102A30008B0B04EB820261F3891304EB850469F3C9
:102A40009F23CBF80C30C2F80C80E76003B0BDE8E0
:102A5000F08F0121334661F3010366F38203052100
:102A600061F3C5030BEA0202064804EB820266F337
:102A700089130BF1010160F39F232160D360B8E754
:102A8000283A0020647102002DE9F0474C4E96E888
:102A90000C009A428AB070D0B06804E0C4F3891286
:102AA00002EB9452134400EA0305023506EB85025B
:102AB0000133546814F00302F0D0022A28D0C4F382
:102AC0008312C4F3952C002A75D00DF1100E7546B3
:102AD000D71800EA030106EB81010133C96845F804
:102AE000041BBB42F5D10092C4F3C2007346624698
:102AF000D6F81044324D0021A04738B177603068D5
:102B0000C01B18BF01200AB0BDE8F0876F68F6E768
:102B100003F1010A20EA0A010340013106EB8303B5
:102B200089004FEA94588845DA68DFF894E0C4F3E6
:102B3000891326D9A9B300EA0A0C5FFA81F90EEBD2
:102B40008C0CC9EB08010CF10C0C0EF10C00C9B295
:102B500003910290CDF80490CDF800C00021C4F399
:102B6000C200D6F81474B847404520D006EB85055E
:102B700060F38F146C607768C1E700200AB0BDE88D
:102B8000F08700EA0A000EEB80000C308DE80101AE
:102B90000021DEF8149403910291C4F3C200C847E7
:102BA000E2E70EF10C0C08465FFA88F9D0E7033033
:102BB0000AEB9007A2E71F460DF1100E93E700BF46
:102BC000283A00202DE9F84F244B1A788AB3DFF811
:102BD00090B0DFF89090DFF890A00024012703E088
:102BE0000134E4B2944224D226B2D9F80050DBF882
:102BF000003015F8360007FA00FE1EEA030F05EB59
:102C0000C608EDD0164A23EA0E03136001F088F9D6
:102C100015F83650DAF8003007FA05F6334000FAB6
:102C200005F6B34207D00D4B01341A78E4B2944252
:102C3000DAD3BDE8F88FD8F80430002BF3D098F839
:102C40000110A1F10101B1FA81F14909091AB1FAA2
:102C500081F1490928469847E5E700BF483E002032
:102C6000703E0020443E00206C3E002070B50646B9
:102C7000114800F085FD40B9104D01242B68B44087
:102C80001C4203D023EA04042C6070BD304601F0DE
:102C900047F90B4A136860B123432E680949136052
:102CA00034432C60044809680022BDE8704000F0FD
:102CB00011BD23EA0403F0E74C3E0020703E0020E3
:102CC0006C3E0020403E0020042A01D807207047B7
:102CD0002DE9F04182B088460546174600F08AFF8C
:102CE000002834D01C4C1D481D491E4A1E4B25602F
:102CF000002608F1FF340F6080F8008016601E6027
:102D0000E4B20327B8F1000F03D11AE0DBB2C4B17B
:102D10001C4623B205EBC30215F833009378134A1F
:102D20008DF8053001A98DF804708DF806608DF8D6
:102D3000076000F069FF631E0028E7D002B0BDE81D
:102D4000F0810B4A0B48002100F0B2FCF6E700F0DE
:102D50000BFF0028C6D0F1E7443E0020483E00208B
:102D6000403E00206C3E0020703E00206D2C020092
:102D7000C52B02007071020070B5084D2B785BB155
:102D8000074E00243368012113F8340001F014F8D1
:102D90002B780134A342F5D8002070BD483E0020B6
:102DA000443E002070B5094D2B7853B1084E0024E5
:102DB000336813F8340001F07BF82B780134A34218
:102DC000F6D80448BDE8704000F0DABC483E002068
:102DD000443E00204C3E002000B585B00023039007
:102DE000194601AA44F20100ADF80430029300F044
:102DF00003F805B05DF804FB08B50D490120FFF7A5
:102E000027FDFFF721FDFFF73FFE0028FBD1094911
:102E10000320FFF71DFDBFF34F8F0749074BCA681B
:102E200002F4E0621343CB60BFF34F8F00BFFDE7B6
:102E3000747102008471020000ED00E00400FA05E4
:102E4000F8B5204A204B0025C2F84051C2F8445141
:102E5000C2F84851C2F84C51C2F80051C2F80451AE
:102E60001B6813B31949D2F804250C68141B1A689F
:102E700024F07F44A2422F4609D8197CDE69A41AA7
:102E8000154499B91EB133461A68A242F5D9104BC0
:102E900010491A780B789A420DD00F490F4A41F821
:102EA00023504FF48013C2F80031F8BD1F745A69E3
:102EB00098699047E6E7531CDBB2022B08BF00235A
:102EC0000B70EAE700100140783E0020743E0020BD
:102ED0007C3E00207D3E00208C3F002000E100E091
:102EE0002DE9F04F884A89491378097899428BB0C7
:102EF00037D00133DBB2022B08BF002384491370A3
:102F0000844A0E68029152F82300834905910B68A8
:102F100002993218002522F07F420A602C46294689
:102F2000AE46ABB11A68824200F2E681DD68C3F8B2
:102F300000E0801A1444DA6935B1371927F07F4769
:102F4000D9619D605F60194613460125002BE9D1C8
:102F5000002D40F0DC820023069301230893069A9B
:102F600008E06D4B05931B68694A029200210693A5
:102F700008911A46694BDFF8AC811B780393059BD7
:102F80001B681C46029B1F680023BA460F46099324
:102F9000C3460793994618464FF0010E0193A44685
:102FA0003FB37D68BE683946FF695D4BCAEB0504D7
:102FB00024F07F449C423CD8A3190B604860886091
:102FC00081F810E0C861002A68D015689D4249D296
:102FD000164603E025689D4234D22646F4695B1B01
:102FE000002CF7D1CC610B601446F1612246002F12
:102FF000D7D198F8003098F80110994200F09480E9
:10300000591C03EB43039BF8024008EBC303C9B20E
:103010008C421C798BF8001008BF8BF80070022CD2
:1030200099684ED0032C3FD0012C24D01446224660
:10303000DDE7C5EB0A0525F07F45B54209D2731BD4
:103040000B60BBE7ED1A2560CC610B601446F161A3
:10305000CCE708604860886081F810E0C861EAB198
:1030600015680023EB1A0C4613608C46CA614FF0BA
:1030700001092246BBE70C7C0494002CD6D1DD6804
:103080004D601E698E605C69CC609B698B61039B9F
:10309000002B8AD0049B4B601D4686E70C468C466D
:1030A0004FF001092246A2E70AB9BFE71A46D369E1
:1030B0001074002BFAD11C469C464FF001092246A1
:1030C00095E752B1914200F00B81134602E0B14204
:1030D00007D03346DE69002EF9D114460874224623
:1030E00085E7994200F0FE801446F5693668DD6197
:1030F00015B12B6833442B60019B0874A24218BFA2
:1031000001230193EBE700BF7C3E00207D3E0020C1
:10311000743E00208C3F0020783E00207E3E002040
:10312000FEFF7F00803E00205746DDF804A0B9F185
:10313000000F40F04981079B002B40F0E581099B7F
:10314000002B40F0DC81BAF1000F03D1069B9A42BC
:1031500000F03F81002A00F041816C49029BD1F8C8
:1031600004051B686A4C17682578C21A22F07F4252
:103170000332002D51D1674DDFF89CC1DFF89CE18F
:103180004FF48036C1F84463C1F804634FF400364D
:10319000C5F880612E6001250D60DCF800602F21EC
:1031A00000BF00BF00BF00BF00BF00BF00BF00BF27
:1031B00076452FD000BF00BF00BF00BF00BF00BFDB
:1031C00000BF00BF00BF00BF00BF00BF00BF00BF07
:1031D00000BF00BF00BF00BF00BF00BF00BF00BFF7
:1031E00000BF00BF00BF00BF00BF00BF00BF00BFE7
:1031F00000BF00BF00BF00BF00BF00BF00BF00BFD7
:1032000000BF00BF00BF00BF00BF00BF00BF00BFC6
:1032100000BF00BF0139C3D1257097422CBFDA1916
:103220009A183A4922F07F43C1F84035D1F8042575
:10323000121A1B1A22F07F4223F07F4303329A4274
:1032400048D9D1F80435344AC1F8403512683349B9
:103250002F2300BF00BF00BF00BF00BF00BF00BFE3
:1032600000BF8A422FD000BF00BF00BF00BF00BF19
:1032700000BF00BF00BF00BF00BF00BF00BF00BF56
:1032800000BF00BF00BF00BF00BF00BF00BF00BF46
:1032900000BF00BF00BF00BF00BF00BF00BF00BF36
:1032A00000BF00BF00BF00BF00BF00BF00BF00BF26
:1032B00000BF00BF00BF00BF00BF00BF00BF00BF16
:1032C00000BF00BF00BF013BC3D1124B4FF400321F
:1032D000C3F80021124A002313700BB0BDE8F08F31
:1032E00016461346D2F81C90B9F1000F1AD0CC46FE
:1032F0004C464FF00109F8E6002D62D1121A1A600F
:10330000069301230893069A34E600BF001001409B
:10331000943F002000E100E08C3700200024F400FE
:103320007E3E00207B4C7C4DC4F808E07B4C4FF087
:103330002F0C246800BF00BF00BF00BF00BF00BF4C
:1033400000BF00BFAC422FD000BF00BF00BF00BF16
:1033500000BF00BF00BF00BF00BF00BF00BF00BF75
:1033600000BF00BF00BF00BF00BF00BF00BF00BF65
:1033700000BF00BF00BF00BF00BF00BF00BF00BF55
:1033800000BF00BF00BF00BF00BF00BF00BF00BF45
:1033900000BF00BF00BF00BF00BF00BF00BF00BF35
:1033A00000BF00BF00BF00BFBCF1010CC2D10124AF
:1033B00025460994CC464C46CA4603950795A9462E
:1033C00093E6059C236099E7059B1946C1F800C068
:1033D000B1E6089B002B3FF47DAFBBE64D49504B57
:1033E0004E4E4D4C4FF480304FF400370125C3F85A
:1033F0008070C1F848032F23C1F808034D6030687E
:103400001E4600BF00BF00BF00BF00BF00BF00BF1F
:1034100000BFA0422FD000BF00BF00BF00BF00BF51
:1034200000BF00BF00BF00BF00BF00BF00BF00BFA4
:1034300000BF00BF00BF00BF00BF00BF00BF00BF94
:1034400000BF00BF00BF00BF00BF00BF00BF00BF84
:1034500000BF00BF00BF00BF00BF00BF00BF00BF74
:1034600000BF00BF00BF00BF00BF00BF00BF00BF64
:1034700000BF00BF00BF013EC3D18D6002990A604A
:1034800000BF00BF00BF00BF00BF00BF00BF00BF44
:10349000A0422FD000BF00BF00BF00BF00BF00BFD1
:1034A00000BF00BF00BF00BF00BF00BF00BF00BF24
:1034B00000BF00BF00BF00BF00BF00BF00BF00BF14
:1034C00000BF00BF00BF00BF00BF00BF00BF00BF04
:1034D00000BF00BF00BF00BF00BF00BF00BF00BFF4
:1034E00000BF00BF00BF00BF00BF00BF00BF00BFE4
:1034F00000BF00BF013BC3D10A4B1A70EAE60A4B7A
:103500009DF80C1019701EE6029B1F6017E6059AC5
:10351000136020E5001001400024F4008C370020E7
:1035200000E100E0943F00207E3E0020F0B4564BC6
:10353000564A574E574C4FF480304FF40031012516
:10354000C2F88010C3F848032F21C3F808035D6058
:1035500030680E4600BF00BF00BF00BF00BF00BF05
:1035600000BF00BFA0422FD000BF00BF00BF00BF00
:1035700000BF00BF00BF00BF00BF00BF00BF00BF53
:1035800000BF00BF00BF00BF00BF00BF00BF00BF43
:1035900000BF00BF00BF00BF00BF00BF00BF00BF33
:1035A00000BF00BF00BF00BF00BF00BF00BF00BF23
:1035B00000BF00BF00BF00BF00BF00BF00BF00BF13
:1035C00000BF00BF00BF00BF013EC3D19D6000BF70
:1035D00000BF00BF00BF00BF00BF00BF00BFA042D0
:1035E0002FD000BF00BF00BF00BF00BF00BF00BFA3
:1035F00000BF00BF00BF00BF00BF00BF00BF00BFD3
:1036000000BF00BF00BF00BF00BF00BF00BF00BFC2
:1036100000BF00BF00BF00BF00BF00BF00BF00BFB2
:1036200000BF00BF00BF00BF00BF00BF00BF00BFA2
:1036300000BF00BF00BF00BF00BF00BF00BF00BF92
:1036400000BF0139C3D1144E144D154C1549164F06
:1036500000203070286020704FF48015E0240B2685
:10366000087048708E7038701049C2F8805182F826
:1036700014431560C3F8080582F81143D3F80435E4
:103680000B60F0BC704700BF0010014000E100E09B
:103690008C3700200024F400943F0020783E002066
:1036A0007C3E0020803E00207D3E0020743E0020B5
:1036B000074B9B780BB9082070473AB130B10368CB
:1036C000187C0028F7D159745A6170470720704759
:1036D000803E00202DE9F043264CA37883B01BB92F
:1036E000082003B0BDE8F0830028F9D0042903D8EE
:1036F000072003B0BDE8F0834369002BF0D00646F5
:1037000002A8737C0025012B00F8015D0CBF8946DF
:10371000A94690460F4600F06FF86378A0782178AC
:103720005A1CD2B2904208BF2A4691421BD003EBEA
:10373000430304EBC30301200F4918719E60D1F8C5
:1037400004159DF80700D9601F61C3F81490C3F8F1
:103750001880627000F078F8084B4FF48012284609
:10376000C3F80021BDE79DF8070000F06DF80420C4
:10377000B7E700BF803E00200010014000E100E0FC
:1037800070B51B4CA37882B013B9082002B070BD8D
:103790000028FAD04369002BF7D0064602A800257E
:1037A00000F8015D357400F027F86278A078217880
:1037B000531CDBB2984208BF2B46994212D002EB51
:1037C000420204EBC20202219DF8070096601171CB
:1037D000637000F039F8074B4FF480122846C3F8A5
:1037E0000021D3E79DF8070000F02EF80420CDE774
:1037F000803E002000E100E0F0B4EFF3108472B6E8
:103800000E4B9A68B2B90E4901259D60D1F88070BF
:103810000C4D2E463D401D60C1F88060D1F88450AB
:103820005D604FF0FF33C1F88430027004B962B6B6
:10383000F0BC704701230370F8E700BFE8410020A7
:1038400000E100E0FC06FFBD094B9A6872B168B95F
:1038500010B4EFF3108272B606491C680C605C6805
:103860004C60986002B962B65DF8044B704700BFC7
:10387000E841002000E100E010B40023012401E051
:10388000202B0AD004FA03F2024299B203F1010399
:10389000F6D008465DF8044B70474FF6FF705DF8B0
:1038A000044B704798B191B130B40238002402E063
:1038B0000134202C0AD030F8025F9542F8D13BB198
:1038C0000A68012303FA04F414430C6030BC704707
:1038D0000B68012202FA04F423EA04030B60F5E703
:1038E00070B49DF80C60C0B1B9B1B2B10238002417
:1038F00002E00134202C10D030F8025F9D42F8D154
:10390000012303FA04F401EB820246B9E4430B6895
:10391000234041F8043B9142F9D170BC70470B68D9
:10392000234341F8043B8A42F7D00B68234341F814
:10393000043B8A42F3D1F0E7F0B491B100252B4665
:10394000012606FA03F4144205D000EB450431F8D1
:103950001370A78001350133202BF2D10560F0BC34
:1039600070470D460560F0BC704700BF002310B4DF
:103970001946012404FA03F202400133002A18BF59
:103980000131202BF6D108465DF8044B704700BF8B
:10399000074B1B5C1F2B86BF03F01F0305494FF02D
:1039A000A041012202FA03F3C1F80C35704700BFB1
:1039B000A071020000030050074B1B5C1F2B86BF49
:1039C00003F01F0305494FF0A041012202FA03F35F
:1039D000C1F80835704700BFA07102000003005015
:1039E00030B44FF0A04303224FF400554FF480440D
:1039F0004FF400404FF48031C3F83427C3F8382720
:103A0000C3F83C27C3F84027C3F80855C3F8084556
:103A1000C3F80805C3F8081530BC704710B51A4B39
:103A20001A6882B0A2B100221A601B6800934FF09E
:103A300080430122154C0099C3F80823A3686270E3
:103A400033B10CCB0020A2609847A368002BF8D1BB
:103A50000F4B1A68AAB100221A601B6801934FF03D
:103A600080430222094C0199C3F8082323690122EB
:103A7000A27033B10CCB0120226198472369002B3F
:103A8000F8D102B010BD00BF00010040983F0020F7
:103A90000401004058B910B5054CA36833B10CCBF4
:103AA0000020A2609847A368002BF8D110BD704792
:103AB000983F002010B582B002A80023144C00F8F3
:103AC000013DFFF799FE237893B9124A6360E360E2
:103AD0001068A36010F00100236114D002F0A2FD71
:103AE00020B94FF080430122C3F818250123237029
:103AF000E3689DF8070001330122E360A270FFF73D
:103B0000A3FE02B010BD072100F006F8E6E700BFF3
:103B1000983F002000E100E0002810B418DB00F11D
:103B2000604303F561434901C9B283F80013C3B28E
:103B30004009800000F1604000F5614003F01F0281
:103B400001239340C0F8803103605DF8044B704757
:103B5000C3B2044A03F00F0449012244C9B21176EA
:103B6000E6E700BFFCEC00E030B51F4C94F8645071
:103B700083B015B1082003B030BD4FF0FF33FF22F2
:103B80000721062023636363A363E3632364636401
:103B9000A364E36423656365A365E36523606360F1
:103BA000A360E36023616361A361E361236284F83E
:103BB00060306362A36284F86230E36284F8633049
:103BC00084F86120FFF7A8FF084B094A1D601B68B5
:103BD000019301984FF000430121284684F86410B6
:103BE000C2F8043303B030BDAC3F00207C6100401C
:103BF00000600040034B93F86400003018BF0120C0
:103C0000704700BFAC3F0020F0B5694C251895F90E
:103C10003030002B01DB0820F0BD91F803E0944622
:103C2000BEF1000F56D02368013300F0B1800826A2
:103C300000256B1C5E4F54F82320013251D0AB1C81
:103C4000B34245D257F8232001324AD0EB1CB3428D
:103C50003ED257F82320013243D02B1DB34237D236
:103C600057F8232001323CD06B1DB34230D257F8B5
:103C70002370013735D0AB1DB34229D254F823202D
:103C80004B4F01322DD0EB1DB34221D257F82320E8
:103C9000013226D005F10803B34219D257F8232088
:103CA00001321ED005F10903B34211D257F8232087
:103CB000013216D005F10A03B34209D257F8237036
:103CC00001370ED00B35B54202D2E36A013307D07B
:103CD0000420F0BD236A013361D00C260825A8E733
:103CE0000B2326185DB244F823C0324686F83050C4
:103CF000BEF1000F02D1234483F858008B78D3B96A
:103D00001F284A7887BF2B4E00F01F0303464FF051
:103D1000A04603F5E073920046F82320CB78DBB988
:103D2000083D2C44097894F8602042EA811284F816
:103D300060201846F0BD1F2887BF1E4B00F01F02F1
:103D400002464FF0A04303EB8203D3F8002722F092
:103D50000202C3F80027E1E7AB0003F1804303F55B
:103D6000C0430A78D3F8101521F44F3121F4407183
:103D7000C3F810151204000202F44031D3F81045C4
:103D800000F47C520A432243C3F810250020F0BD02
:103D9000002385F83030C4F800C01D46AEE7082681
:103DA00085F830603346C4F820C03546A3E700BF2D
:103DB000AC3F002000030050F0B43A4D2E1882B002
:103DC00096F93030072B20DD2B4493F858309B09AF
:103DD000032B45D0012B14BF4FF440324FF4003277
:103DE0001F284DD900F01F002F4B03EB8000D0F8A7
:103DF000003723F44033C0F80037D0F800371A43B7
:103E0000C0F8002702B0F0BC7047DAB2072AF9D830
:103E1000980000F1804000F5C04003F1400292009C
:103E2000D0F8104592B202F18042002744F001041C
:103E300002F5C042C0F810450197019817600029AB
:103E4000E0D096F9302055F82220002ADAD001225D
:103E5000164902FA03F3C1F8043302B0F0BC70470C
:103E60001F2810D9104BD3F8103500F01F00C340A5
:103E700013F0010F0CBF4FF400324FF44032B3E7A0
:103E80004FF0A043B1E74FF0A0421346D2F81025FF
:103E9000C24012F0010F0CBF4FF400324FF4403219
:103EA000A3E700BFAC3F00200003005000600040CB
:103EB000184B034493F93030072B13DD1F288ABFBA
:103EC000154B4FF0A04300F01F0003EB8000D0F82B
:103ED000003723F44033C0F80037D0F80037C0F87B
:103EE00000377047DAB2072A13D810B49A0002F1EB
:103EF000804202F5C042094CD2F81005012120F0A1
:103F0000010001FA03F3C2F81005C4F808335DF8A4
:103F1000044B7047AC3F002000030050006000409D
:103F20001F288ABF054B4FF0A04300F01F00D3F8B5
:103F3000103523FA00F000F0010070470003005034
:103F40002DE9F04F89B00025CE4B039502951A68F4
:103F5000012A00F04C82CC4B1A68012A00F0398209
:103F6000CA4B1A68012A00F02682C94B1A68012A36
:103F700000F01382C74B1A68012A00F00082C64B7A
:103F80001A68012A00F0ED81C44B1A68012A00F07A
:103F9000DA81C34B1A68012A00F0C781C14B1A6845
:103FA000012A00F0B18115F0FF0F1AD0BE4F012693
:103FB0000024A30003F18043354203F5C0434FEAD8
:103FC00046060BD0D3F8100557F82420D3F8101567
:103FD000C0F30520C1F3014102B190470134082C20
:103FE000E7D1002D02DB09B0BDE8F08FAE4DDFF860
:103FF000BC824FF0FF330693079395F9603004AF0E
:1040000000225C1C7A6004922E4600F000815FFA68
:1040100083FE2EF0C00008AB4FEAD00903EB090C79
:1040200001210EF007031CF8082C01FA03F312EA31
:10403000030421D032184FEA9E1192F9302056F82D
:104040002220002A00F03981032900F039811F283D
:1040500000F2068104464FF0A04A04F5E0791CF80E
:10406000184C5AF829C01C40CCF3014C40F0EC80AD
:10407000BCF1030F00F0238295F96130581C35D054
:10408000DBB223F0C00008AA4FEAD00C02EB0C0E02
:104090004FF0010903F007021EF8081C09FA02F2AA
:1040A000114223D006EB0009990999F9309056F88E
:1040B0002990B9F1000F00F00981032900F009816E
:1040C0001F2800F2F58084464FF0A04A0CF5E07CF2
:1040D0001EF818BC5AF82CE01BEA020FCEF3014E72
:1040E00040F0C380BEF1030F00F0CE8195F962303D
:1040F000591C34D0DBB223F0C00008AA4FEAD00C20
:1041000002EB0C0E4FF0010903F007021EF8081C29
:1041100009FA02F2114222D006EB0009990999F935
:10412000309056F82990B9F1000F00F0E380032990
:1041300000F0E3801F2800F2828084464FF0A04AFE
:104140000CF5E07C1EF818BC5AF82CE01BEA020FB4
:10415000CEF3014E68D1BEF1030F00F07A8195F9DC
:1041600063305A1C38D0DBB223F0C00008AA4FEAF3
:10417000D00C02EB0C0E4FF0010903F007021EF801
:10418000081C09FA02F2114226D006EB000999092F
:1041900099F9309056F82990B9F1000F00F0A080FD
:1041A000032900F0A0801F288ABF03F01F0C84465B
:1041B000DFF8F8A01EF818BC98BF4FF0A04A0CF525
:1041C000E07C1BEA020F5AF82CE0CEF3014E20D11E
:1041D000BEF1030F00F01981002C3FF404AF4FF043
:1041E000A0430299D3F81035D8F81025994203D18D
:1041F000039991423FF4F7AE029395F96030049829
:10420000059903925C1C069007917FF400AF00248F
:1042100032E7BEF1020FDFD1032900F07681B9F158
:10422000000FD9D0C847D7E7BEF1020F97D10329B5
:1042300000F06E81B9F1000F91D0C8478FE703F00D
:104240001F0CDFF868A07BE7BCF1020FDFD1032968
:1042500000F064810024002A3FF40EAF90470BE782
:104260000EF01F04DFF844A0F7E6BEF1020F7FF462
:104270003DAF032900F04F81B9F1000F3FF436AF95
:10428000C84733E700610040046100400861004016
:104290000C61004010610040146100401861004052
:1042A0001C6100407C610040AC3F002000030050D6
:1042B00003F01F0CDFF86CA208E7032940F0A3808D
:1042C00017F809401C4307F80940C0E603297FF4AA
:1042D0000DAF17F80CA04AEA020A07F80CA0EFE6A7
:1042E00003297FF479AF17F80CA04AEA020A07F80D
:1042F0000CA058E703297FF432AF17F80CA04AEA64
:10430000020A07F80CA015E700221A601B68019347
:104310004FF0A042019BD2F81025824B0292D3F8B5
:104320001035039345F000453DE67F4AD2F804235B
:1043300016067FF533AE00221A601B680093009BBF
:1043400045F080052AE6784AD2F8042357067FF51F
:1043500020AE00221A601B680093009B45F04005C8
:1043600017E6714AD2F8042392067FF50DAE0022BB
:104370001A601B680093009B45F0200504E66A4A1A
:10438000D2F80423D1067FF5FAAD00221A601B682B
:104390000093009B45F01005F1E5634AD2F8042331
:1043A00010077FF5E7AD00221A601B680093009BA1
:1043B00045F00805DEE55C4AD2F8042354077FF592
:1043C000D4AD00221A601B680093009B45F00405E1
:1043D000CBE5554AD2F8042396077FF5C1AD0022FC
:1043E0001A601B680093009B45F00205B8E54E4932
:1043F000D1F8041311F0010129D01D601B6800934E
:10440000009B1546A7E5144636E603297FF407AF5F
:104410004FF4003C1F288BBF424A4FF0A04203F0EC
:104420001F03034602EB830E0134DEF8002722F45B
:104430004032CEF80027DEF8002742EA0C02E4B250
:10444000CEF80027B9F1000F7FF4ECAEC7E60D46B9
:1044500081E503297FF4EEAE4FF4003C1F2848D8D5
:1044600003464FF0A04202EB830E0134DEF8003722
:1044700023F44033CEF80037DEF800274CEA02027E
:10448000E4B2CEF80027D5E603297FF4F5AE4FF469
:10449000003C1F2831D803464FF0A04202EB830EA8
:1044A0000134DEF8003723F44033CEF80037DEF86D
:1044B00000274CEA0202E4B2CEF80027DCE603292A
:1044C0007FF4C9AE4FF400391F281AD803464FF0C5
:1044D000A04404EB83030124D3F800C72CF4403C30
:1044E000C3F800C7D3F800E749EA0E0EC3F800E7A7
:1044F000B1E603F01F030B4AB5E703F01F03094AB7
:10450000CCE70EF01F03074CE3E74FF4403C81E794
:104510004FF4403CA2E74FF4403CBAE74FF4403937
:10452000D2E700BF0003005000600040F0B50479FE
:10453000954E6401331987B0DD7E15B1082007B0B0
:10454000F0BD4D7F1D770B685F1C19D01F2B4FF0FE
:1045500001058ABF8D4F4FF0A04703F01F0305FAF6
:1045600003F3C7F808350B681F2B86BF03F01F0342
:10457000864D4FF0A04503F5E073032745F82370FF
:104580004B685D1C0BD01F2B86BF03F01F037F4DB4
:104590004FF0A04503F5E073002745F82370037939
:1045A00006EB43131B7F002B4DD003688D69C3F8C6
:1045B00024554F7D0B7D05683B43C5F86C3503687A
:1045C0000F684D68C3F80C75C3F814550B7D012BAB
:1045D00000F0AC80331905465A600B696A483351C4
:1045E000EAB12B79097F2A6800EB4310037F002B87
:1045F00076D1C2F81C31D2F81C712A680097009F4E
:10460000C2F84431D2F844212B6861480192019AE2
:10461000C3F80403286840F30730FFF77DFA2B79CD
:104620002A6806EB43131B7F002B55D00823C2F8E2
:104630000035344400200123E376E0752076A07530
:10464000A07607B0F0BD03688D69C3F824554F7D8F
:104650000B7D05683B43C5F86C3591E8A000036805
:10466000C3F81475C3F80C550B7D012BB2D18B68C0
:104670005F1C0BD01F2B86BF03F01F03434D4FF071
:10468000A04503F5E073002745F82370CB685D1C57
:104690001BD01F2B4FF001058ABF3C4F4FF0A047A6
:1046A00003F01F0305FA03F3C7F80835CB681F2B87
:1046B00088BF03F01F0303F5E0738CBF334D4FF049
:1046C000A045032745F82370CB6805688F68C5F8B7
:1046D0000835C5F810757DE70423C2F80035A8E752
:1046E0000023C2F81031D2F810712A680297029F95
:1046F000C2F82031D2F820712A680397039FC2F8CC
:104700002431D2F824712A680497049FC2F84431F6
:10471000D2F844212B6805921E48059AC3F8040379
:10472000286840F30730FFF7F7F978E78B685F1CDC
:104730000BD01F2B86BF03F01F03144D4FF0A04575
:1047400003F5E073002745F82370CB685D1CBCD0EF
:104750001F2B8ABF0D4F4FF0A04703F01F03012509
:1047600005FA03F3C7F80835CB681F2B88BF03F0A1
:104770001F0303F5E0738CBF044F4FF0A0470325E0
:1047800047F82350CB68A0E71440002000030050F6
:104790008000020010030200F0B50379484E016862
:1047A0005B01F218127F002A00F083800022C1F81A
:1047B0000025F21842495268B2B1027901EB421168
:1047C0000A7F002A78D102683E49C2F808130268BD
:1047D0003D4D120B51B24909203102F01F02012454
:1047E00004FA02F245F821200279076806EB42122A
:1047F000D7F80C55127FD7F814454FF0FF3E002A2A
:1048000049D0D7F80825D7F81015C7F80CE5C7F830
:1048100014E50068C0F808E5C0F810E56F1C0BD07F
:104820001F2D86BF05F01F0528484FF0A04005F555
:10483000E075022740F82570651C0BD01F2C86BF41
:1048400004F01F0421484FF0A04004F5E074022555
:1048500040F82450481C0BD01F2986BF01F01F01CF
:104860001A484FF0A04001F5E071022440F82140C1
:10487000511C0BD01F2A86BF02F01F0213494FF0B4
:10488000A04102F5E072022041F8220033440022E8
:10489000DA765A60F0BDD7F80825D7F81015C7F8B2
:1048A00014E5C7F80CE50068C0F808E5C0F810E5A5
:1048B000B4E7C1F800257CE70268054985E700BF39
:1048C000144000208402020000E100E000030050D8
:1048D00010030200F0B50379534C5B01E51887B073
:1048E0002D7F3DB101F06045B5F1005F02D0102091
:1048F00007B0F0BD23444C4F9E7D16B1112007B088
:10490000F0BD9A7599609E8205796D017A19137FC1
:1049100013BB0168C1F81C31D1F81C610168049611
:104920000126049F8E600168D2F808E0C1F81C31AE
:10493000D1F81C310593059B968A938A5768B6B2C5
:1049400001331EF806609BB29382C1F81C65002FEC
:104950002FD0002007B0F0BD03689168C3F8206134
:10496000D3F8207103680197019FC3F85861D3F809
:10497000586103680296967D029FC3F84415C3F8F8
:1049800048650368012199605368002BE1D10368F1
:1049900001E0002945D1D3F82021D3F85811002A8D
:1049A000F7D0002914BF0F2000202C440023A3754A
:1049B0009EE7967D938A9BB29E4202F1140122D912
:1049C000016804E0938A9BB2B3F5807F03D0D1F8ED
:1049D0001C31002BF6D0938A9BB2B3F5807FE9D0CF
:1049E000C1F81C71D1F81C310393039BB2F814C0B9
:1049F000938A1FFA8CFC01331EF80CC09BB2938281
:104A0000C1F81CC5D6E70B889BB2B3F5807F08D0F0
:104A10000268D2F81C31002BFBD00123D3600020A8
:104A2000C3E70F20C1E700BF144000200279044B08
:104A300003EB4213987D003018BF0120704700BF80
:104A40001440002070B59B4C237F8EB0002B75D195
:104A5000994AD2F80413890548D4974BD3F8042314
:104A6000520704D5D3F80821002A40F0CA80924B9F
:104A7000D3F81C21C2B1A28AA07D8E4992B2824293
:104A80004FF00002C3F81C2180F0A980D3F81C214C
:104A90000692069A888A8A8A8D6880B20132285CDA
:104AA00092B28A82C3F81C05834BD3F84421DAB151
:104AB0000022C3F84421D3F84411A27E0491049942
:104AC000002A40F08980E27D7A4B6AB10022587E4C
:104AD000D968DA7501228DF830000B918DF8282005
:104AE0000AA893E8060090470EB070BDD2F82411D2
:104AF0000029B2D0C2F82431D2F82411A37E079144
:104B00004FF401710798C2F808130BB901235360E1
:104B1000694A02238DF82830D2F88034C2F88034F4
:104B2000E07DE2680D9300238DF83000E375237675
:104B300021680B9263680AA8984798E75E4BD3F800
:104B40002421002A40F09380D3F8101161B1C3F8FA
:104B50001021D3F8101103910399D3F83C15E07D8F
:104B6000C9B2884200F0AA80534BD3F84421B2B1B5
:104B70000022C3F84421D3F84411E07D019101994A
:104B80004C4960B1D3F83C35C8688DF8303001230A
:104B9000CA750B908DF828300AA80AC99847464B69
:104BA000D3F82021002A9FD00022C3F82021D3F877
:104BB0002011A07D009100993E49002894D0D3F89F
:104BC0004C058B688DF830008A750B938DF8282082
:104BD0000AC90AA8984787E701221A6073E7D3F841
:104BE0001C310593059B00283FF45EAF8B688DF860
:104BF00030008A750B938DF828200AC90AA89847B7
:104C000052E7E17D2B4A002970D00021C3F808113A
:104C1000D3F8081108910899D068517ED3F8183557
:104C20004354537ED17D0133DBB25376627E214BF8
:104C30008A427FF41CAF1A7E002A6DD19B7E13B985
:104C40001D4B01225A601C4AE06863684FF40171F1
:104C5000C2F80813627E8DF83020002501220B90E7
:104C60002168E5758DF828200AA89847FFE60022FC
:104C7000C3F82421D3F82411029102218DF82810C1
:104C80000299D3F88014C3F880140D91D3F83C1521
:104C9000E368E27522768DF830100B932168636823
:104CA0000AA89847044BD3F84421002A3FF477AF71
:104CB0005EE700BF1440002000200040217EF1B1DB
:104CC000D3F80062E17526F02001E568C3F8001210
:104CD00026698DF8300001238DF82830227621686E
:104CE0000B95E66063680AA898473DE7C3F808118A
:104CF000D3F808210992099AD3F8183596E7E268A3
:104D0000E17501238DF830008DF828300B9294E87E
:104D10000A000AA8984727E7DE685D7E1869DA75F9
:104D200001210022D8601A765A768DF828100B9649
:104D30008DF8305093E806000AA8904797E600BF28
:104D400073DF704776DF70477ADF70477CDF70472C
:104D50007FDF7047A8DF7047A9DF704769DF7047C2
:104D600066DF70473EDF7047FEF736B80B282AD162
:104D70002DE9F04192B001A80D4601F097F8019E8F
:104D8000D6B1002443F2020743F2014812AB03EB11
:104D900044032A4633F8400C0C4901F0B9FB30F0CB
:104DA000080205D0B84203D0404501D0FEF714F800
:104DB0000134E4B2A642E9D80549032012B0BDE8A7
:104DC000F041FDF745BDFEF707B800BF34400020B5
:104DD000A871020010B50446022042B9FEF7ECFDAE
:104DE000224607490320BDE81040FDF789BDFEF7C4
:104DF000CFFD224603490320BDE81040FDF780BDEA
:104E000014720200E871020030B5044685B000F06B
:104E1000B5FF2388132B00F08B800ED9512B6FD058
:104E20004FD9522B44D0562B0DD11321A088FFF718
:104E300089FF40B1FDF7D0FF05E0102B44D0112BC6
:104E40000ED0012B55D0204600F034FF21464348B8
:104E500001F05CFA2146424801F05CF805B030BD33
:104E600001F01AF8237AA2883E4905460320FDF78F
:104E7000A5FD002D68D0032DE5D110220021684644
:104E8000FDF760FA00234022684619468DF800308D
:104E900001938DF80830ADF80C30ADF80A20FFF71B
:104EA0004FFF08B1FDF798FF0020FEF771FDCAE73C
:104EB00000231A461946A088FFF74EFF0028C2D0EB
:104EC000B8E73B2BB1D0BEE700F0E6FFA288264949
:104ED00005460320FDF714FDFDF74EFF002830D1F5
:104EE0000120FEF755FD042DC7D10020FEF764FD1B
:104EF000A9E70021A088FFF733FF0028A3D099E796
:104F0000A279002A9FD0A37B043B022B9BD8022AC4
:104F10000CBF022201224FF4C1736946A0888DF8AC
:104F20000020ADF80430FFF715FF00288BD081E793
:104F300000231A468521A088FFF70AFF002882D0A7
:104F400078E7FDF749FFCBE70120FEF735FDFDF7D8
:104F500029FF00283FF477AF6CE700BF3440002002
:104F60009C400020747202004072020000B5A1B0A3
:104F7000FEF736FDFEF7DAFA08B1FDF72DFF002047
:104F8000FDF74AFC08B1FDF727FF40F266620121F8
:104F90007348FDF799FE08B1FDF71EFF714B72498A
:104FA0001868019001AD28460023502201F040FB13
:104FB00008B1FDF711FF20AC002344F8783D2046EE
:104FC00001F0A2FB08B1FDF707FF0C22002111A898
:104FD000FDF7B8F9042000238DF8440011A9029AC6
:104FE0008DF8453040208DF84630FFF7B7FE08B108
:104FF000FDF7F2FE204601F091FB08B1FDF7ECFE53
:105000005A4801F05FFB08B1FDF7E6FE9DF8083055
:105010005748012262F3030362F307138DF8083047
:1050200001F016FC524982B22046FFF78FFE08B10C
:10503000FDF7D2FE0822002111A8FDF783F95026C2
:10504000A02100224FF4C87311A8ADF84460ADF858
:105050004610ADF84820ADF84A30FFF775FE08B1AC
:10506000FDF7BAFE0021434800F038FF08B1FDF714
:10507000B3FE414B4148119311A901F061F908B108
:10508000FDF7AAFE00F072FE3C4A927C8DF80620E5
:1050900041F223533C2200212046ADF80430FDF7B5
:1050A00051F902200126062300218DF808003C2238
:1050B00011A88DF80A608DF80B30FDF743F92046F2
:1050C00011A9ADF85460169500F0C0FA08B1FDF7CB
:1050D00083FE1C22002111A8FDF734F94FF420268D
:1050E00000234FF4203503240121254A119311A8F0
:1050F000ADF85230129613958DF850408DF854103B
:10510000179200F09DFD08B1FDF766FE1D490320D2
:10511000FDF79EFB1022002111A8FDF713F90023D3
:10512000402211A819468DF8443012938DF84C3066
:10513000ADF85030ADF84E20FFF702FE08B1FDF794
:105140004BFE0020FEF724FCFDF79EFC0028FBD15F
:10515000FFF708FE0028F7D0FDF73EFEF4E700BF9A
:1051600084370020A47102004C400020094E020048
:10517000B47202009C400020D54D02003440002053
:10518000694D0200C47202006DDF704772DF704724
:1051900079DF70477DDF704764DF70472DE9F04F9E
:1051A00083B004880C9FBDF83490B7F800A0002CA1
:1051B0004CD09846002316468B4605461C4603E015
:1051C0002A880134A24224DD6A6852F82400019042
:1051D00000220DF1030101A8FFF7DEFF10BB9DF8CF
:1051E0000320B242ECD103B33A8893194B4518DC43
:1051F00042440DF1030101A80123FFF7CDFF88B957
:105200003A889DF803100A443A802A880134A24261
:10521000DADCDBB13B88013BCAEB03039BB2FF2B1B
:1052200012D90C2003B0BDE8F08F3B885A1C3344E0
:1052300002334B4592B2F4DC3A8008F802B03A8867
:10524000013292B23A80D3E708F80A30002003B066
:10525000BDE8F08F2DE9F04700231788138090F800
:105260002D3084B0144605460E46002B49D1AA784D
:10527000002A70D1EA78002A2ED16A68A2B1D91C1E
:10528000B94225D8022192F90020F1542388013334
:105290009BB20A212380F154238801339BB22380DF
:1052A000F2542388013323802B89002B40F02A817C
:1052B0002B8A002B40F03F812B8B002B40F0548138
:1052C0002A6A002A00F0A78021888B1DBB4262D980
:1052D0000C2004B0BDE8F087D91CB942F8D80221EF
:1052E000F154238801339BB201212380F154238898
:1052F0000B449BB22380F25423880B449BB223803F
:10530000BBE7082FE4D902A8FFF73EFF0028E0D151
:1053100013880822CA54238801339BB21B2223809E
:10532000CA542088013080B22080062208440DF142
:10533000090101F04FFA23889DF8082006339BB23B
:1053400012F0FE0218BF01222380F2542388013399
:105350009BB223808BE70433BB42B9D802A8FFF786
:1053600017FF0028B5D12388BDF808200321F15488
:10537000238801339BB219212380F1542388013300
:105380009BB2F1182380F254120A4A702388023328
:105390009BB223806EE71388052B40F2AF806FF439
:1053A000486803EB080080B24FF27D3E704540F242
:1053B000A5805088052840F2A1806FF4486C844491
:1053C0001FFA8CFCF44540F299804FF6FF7E73453E
:1053D00004D0704502D0834200F2908005237354BC
:1053E000238801339BB212212380F1542388013397
:1053F0009BB223801188F1543344090A59702388E1
:1054000002339BB223805288F2543344120A5A70FA
:10541000238802332380D5F82480B8F1000F30D0E0
:10542000B8F804202188131D0B44BB423FF650AF4F
:10543000931CFE2B3FF64CAF03327254238801338A
:105440009BB2FF222380F254238801339BB2238036
:10545000B8F80020F2543344120A5A7020880230FF
:1054600080B22080B8F804205AB1D8F8081000297A
:1054700044D0304401F0AEF9B8F804302288134427
:10548000238095F82C30002B40F08B802878002862
:105490003FF41FAF2B88012B30D023889A1CBA42CF
:1054A0003FF616AF012805D16978023119448F42C1
:1054B000FFF40EAF023FFB1A04A99BB221F8083D8E
:1054C000B018FFF767FE00287FF403AF2A78022A9E
:1054D00000F0B480012A60D01A460821FE2A3FF667
:1054E000F7AE2388551CF554238801339BB22380E3
:1054F000F154238801331A442280EAE6072004B0DD
:10550000BDE8F08705F1080802228DE890004046CA
:1055100011463346FFF742FE00287FF4DAAE8DE8ED
:1055200090004046334610220621FFF737FE002840
:105530007FF4CFAEBCE605F110088DE89000404640
:10554000334602220321FFF729FE00287FF4C1AE73
:105550008DE890004046334610220721FFF71EFEDB
:1055600000287FF4B6AEA7E605F118088DE8900094
:105570004046334602221421FFF710FE00287FF434
:10558000A8AE8DE890004046334610221521FFF763
:1055900005FE00287FF49DAE92E66A7893429CD285
:1055A0009AE7D5F82880B8F1000FA7D0B8F8042002
:1055B0000232FE2A3FF68CAE23884FF000094FF0EE
:1055C000160A0132F254238801339BB2238006F875
:1055D00003A0238801339BB22380B8F80020F25443
:1055E0003344120A5A70238802339BB22380B8F8DE
:1055F0000410F0180A4669B1D8F808301946002B93
:105600003FF47CAF01F0E6F8B8F804302288134488
:105610009BB2238009F1010995F82C205FFA89F9E2
:105620004A4509EB49087FF631AFAA6A02EB8808C0
:10563000B8F804200232FE2AC3D949E6BDF8082092
:105640009342FFF449AF092148E700BF2DE9F04339
:1056500095B01F230D46ADF80E300446002800F02B
:105660008480C27853077CD590F82D300021ADF8A6
:105670000C10002B40F0DD8183780CAF002B40F044
:1056800019821946032014AE31445F1C023316FA06
:1056900087F74FF0020E16FA83F601F840EC83B25A
:1056A000012107F8401CADF80C3006F8402C666864
:1056B000002E00F08C80D81C1F2874D90C2015B047
:1056C000BDE8F083A76A002F4BD0BA880232FE2AC9
:1056D000F4D8BDF80C304FF0000804AE4FF01609B6
:1056E0001AE001F077F8BDF80C20BB8894F82C1074
:1056F00013449BB2ADF80C3008F101085FFA88F84A
:10570000884508EB480780F0F080A26A02EB870723
:10571000BA880232FE2AD1D80DF1500E9E44581C90
:1057200001320DF1500C0EF8402C1CFA80F09A1C3E
:1057300092B200F8409CADF80C203888B054324446
:10574000000A50700433B7F804E09BB27246F018B8
:10575000ADF80C30BEF1000FCED0BB681946002B5F
:10576000BFD1072015B0BDE8F083ADF80C00ADB196
:10577000EB78002BF5D128460CA90DF10E02FFF7AE
:1057800069FD0028EED19DF80E300CAA20469DF848
:105790000C10FFF7FBFC15B0BDE8F0832B46ADF80D
:1057A0000E502A46F2E714AF591C9A1C17FA81F1E1
:1057B0003B4417FA82F296F90060ADF80C0002271C
:1057C0000A2003F8407C01F8400C02F8406C238961
:1057D000002B40F08F80238A002B40F0AB80238B7E
:1057E000002B40F0C780226A002A42D0BDF80C305E
:1057F000991D1F293FF662AF10880528B1D96FF4B3
:10580000486C00EB0C06B6B24FF27D37BE42A8D909
:105810005688052EA5D96FF4486EB6441FFA8EFE41
:10582000BE459ED94FF6FF77B84203D0BE4201D0A5
:10583000B04296D814A8C7185E1C10FA86F64FF02E
:10584000050E981C07F840EC80B2122706F8407C41
:10585000ADF80C001788ADF80C1004AE31183754B1
:1058600004333F0A4F709BB25288F2543344120AF9
:105870005A70676AA7B3B888BDF80C30811C9A1CAF
:1058800056181F2E3FF61AAFFE293FF617AF14AE7B
:105890001E44591C0DF1500E1EFA81F1033006F81A
:1058A000400C92B2FF2001F8400CADF80C20398872
:1058B00004AEB018B154090A41700433BA8898B2E2
:1058C000ADF80C0062B1B96800293FF44AAF30442A
:1058D00000F080FFBDF80C20BB881344ADF80C30FD
:1058E00094F82C1000297FF4EDAE2378002B61D1C1
:1058F00004AC3CE703A904F1080704AE4FF01F080D
:105900000222009138463346CDF804801146FFF755
:1059100045FC00287FF426AF03AB0093CDF804804C
:105920003346384610220621FFF738FC00287FF462
:1059300019AF50E703AA04F1100704AE4FF01F0897
:10594000009238463346CDF8048002220321FFF747
:1059500025FC00287FF406AF03AB0093CDF804804C
:105960003346384610220721FFF718FC00287FF441
:10597000F9AE34E703AA04F1180704AE4FF01F088C
:10598000009238463346CDF8048002221421FFF7F6
:1059900005FC00287FF4E6AE03AB0093CDF804804D
:1059A0003346384610221521FFF7F8FB00287FF414
:1059B000D9AE18E72288012A3FF4D3AEBDF80C20F7
:1059C000901C1F283FF67AAE012B05D16378134453
:1059D00002331F2B3FF672AEC2F11D0314A99BB216
:1059E00004AE21F8203D3044FFF7D4FB00287FF4BB
:1059F000B9AE2278022A00F08780012A00F08B805D
:105A0000ADF830301A460820FE2A3FF657AEBDF8F2
:105A10000C3014AC591CE71814FA81F1023313440A
:105A2000013207F8402C3446ADF80C3001F8400C38
:105A30009DE60CAF3846FFF7A7FB00287FF492AE37
:105A4000BDF80C3014A903F1010E9A1C11FA8EFE58
:105A50000B4492B204AEB01808211B2603F8401C78
:105A6000ADF80C200DF1310106220EF8406C00F06B
:105A7000B1FEBDF80C209DF83010931D11F0FE0111
:105A80009BB23BD114A8034403F8401CD31DA27859
:105A90009BB2ADF80C304AB9E278002A3FF407AE69
:105AA000D81C1F2819463FF609AEECE504331F2B1E
:105AB0003FF604AE3846FFF76BFB00287FF452AE8A
:105AC000BDF80C30BDF83010E2785F1C14AE16FA49
:105AD00087F71E44981C4FF0030E06F840EC80B286
:105AE00004AE4FF0190E07F840EC04333718315468
:105AF0009BB2090AADF80C307970CEE714A90B44BB
:105B0000012103F8401CC1E7BDF830209342FFF4A7
:105B100077AF092078E762789342FFF471AFADF870
:105B20003020082070E700BF75DF704776DF7047D0
:105B30007ADF70477BDF7047184B18884FF6FF738A
:105B400098422AD010B5164A164C1378217B01339F
:105B5000DBB2994282B013700CD2237C0021117009
:105B60008BB9636923B102A8002200F8042D98477D
:105B700002B010BD0C49FFF7D7FF0028F8D0A36989
:105B8000002BF4D1F4E73B21FFF7D0FF0028E8D049
:105B9000A369002BE5D09847E3E770470441002054
:105BA000C4400020C84000200841002070B51E4BB2
:105BB0001E4A5B881188994282B00FD852889A4257
:105BC0000CD31B4B5B6923B102A8012200F8042D02
:105BD0009847184C0023237002B070BD154C2278F2
:105BE00062B1134B5B69002BF4D002A8002200F8CD
:105BF000042D98470023237002B070BD0C4D0E4851
:105C000069680678AB680D48002E18BF1946FDF785
:105C100061FD0028DED0AB69002BDBD09847002364
:105C2000237002B070BD00BFBC40002008410020BE
:105C3000C8400020B8400020C4400020E4400020BC
:105C4000F8B505460FCD144C144F0FC4064695E821
:105C50000700002384E807003B70B6B13068104BA2
:105C6000716803C3A3F10800FFF762FF90B90D4DFF
:105C70000D4C0E4A0E4800234FF6FF762E802370FF
:105C80001946BDE8F840FDF713BD0548FFF752FF80
:105C90000028ECD0F8BD00BFC8400020B84000206C
:105CA0000841002004410020C4400020395B02006C
:105CB000F072020070B50388112B27D012D9122B75
:105CC00007D0502B47D1244CC288E3899A4230D068
:105CD00070BD083003C8214B83E80300BDE8704065
:105CE000FFF764BF102B35D11D491B4C1B4B1D4DBD
:105CF000E48900F110028088088092E80300002205
:105D000083E803002A70002CE8D070BD1449154BBD
:105D100015484FF6FF7400220C801A70FDF730FD15
:105D20000028D5D00C4B9B69002BD1D0BDE870402A
:105D30001847038A022BCBD1123000F0C5F8002897
:105D4000CCD10948FDF71CFD0028C1D0A369002B68
:105D5000ECD1BDE770BD70BDC8400020BC40002044
:105D600004410020C4400020E4400020B82200216B
:105D70000148FCF7E7BA00BF104100200388112B4F
:105D800072D02DE9F0431A2B95B0804651D0102BDC
:105D900002D015B0BDE8F083DFF8EC90D9F84820C8
:105DA000D9F8443009F1040123EA020203A8FDF7FF
:105DB000C3FD039E7EB1002427460DF10E05314937
:105DC00035F8023F00970134A1F140001D22FDF794
:105DD00087FDA642F3D1D9F84400B8F804602A4CF4
:105DE000C043FDF749FD4FF6FF73984243D004EBE3
:105DF0004005324604F14801201D0123AE80FDF725
:105E000051FD324604F14401201D0123FDF74AFDF6
:105E100098F80F30B8F80420A3F10203B3FA83F323
:105E20005B0904F14C01201D15B0BDE8F043FDF7FE
:105E300039BD037A154982881F2B94BF00230123A3
:105E4000A1F14C00FDF72EFD98F808301049B8F884
:105E500004202F2B94BF00230123A1F1500015B083
:105E6000BDE8F043FDF71EBD0A4982880023A1F179
:105E70004400FDF717BD042015B0BDE8F043FCF762
:105E8000ABBF00BF54410020104100206041002002
:105E90006441002058410020034BD86C9B6C23EADE
:105EA0000000FDF763BD00BF1041002010B505499B
:105EB000CA6C8B6C0446043123EA0202FDF73CFDF8
:105EC000204610BD10410020007800F0010070470E
:105ED00090DF70479EDF7047ADDF7047B8B110B4F8
:105EE00017221B240023816102804280C28002812C
:105EF000C281028204710473447304754475837211
:105F0000C3728374C3745DF8044B184670470E2047
:105F1000704700BFF0B58D88012D83B001D903B063
:105F2000F0BD0B88222B044673D01BD93A2B00F00E
:105F3000B080552B00F08780232B23D0EE00A319CF
:105F40009B7A002BEBD0A3192846D988FFF7C2FF14
:105F500000285AD01128E2D002466B490120FCF7F4
:105F6000CFFCDCE7102B23D0112BE7D100EBC503CE
:105F7000002117201B22D88018819972D9721A73B8
:105F80005A73CCE7EE0087190A7A7A738369002B7B
:105F900039D000214DF67A2EADF80410ADF802503C
:105FA00069468DF80420ADF800E09847BB7AC8E751
:105FB000EE00871903793B73CB7B012B00F08680C1
:105FC000022B00F08C80F9883B898B42C0F08A80DC
:105FD0003B7B7A7B9A4216D24FF0000E9BB2724600
:105FE00069462846ADF80030ADF80230ADF804E05F
:105FF000ADF806E0FFF76CFF28B103462A46434997
:106000000120FCF7DBFCBB7A9BE701229872DA7275
:1060100085E7EE0087190A7A3B7B0020934228BF70
:1060200013460190024669462846ADF80030ADF8A7
:106030000230FFF74DFF0028E5D002463449012029
:10604000FCF75EFCDFE7EE00CB888719172BF98899
:1060500038BF17238B4228BF0B4600223B81BA7200
:106060002846FFF739FF002833D1FB7A002BCAD12D
:10607000A369002BC7D040F677213A89ADF800100C
:10608000ADF80250ADF80420694620469847BB7A27
:1060900057E700EBC5064A89F388934228BF1346A9
:1060A000172B38BF1723338182695AB1F17A49B16E
:1060B00040F67721ADF80010ADF80250ADF804308D
:1060C000694690470023F372B37228E70188F9808C
:1060D0007AE702460F490120FCF712FCC5E7418828
:1060E000F98071E72846FFF7F5FE10B90123FB722E
:1060F0006EE7112802D10123BB7269E7024602490B
:106100000120FCF7FDFB63E7F4720200507302000C
:106110001C740200C47302000649074A074B9B1A0D
:1061200003DD043BC858D050FBDC00F013F8FCF74B
:1061300095F800008076020018370020083900200A
:10614000FEE7FEE7FEE7FEE7FEE7FEE7FEE7FEE727
:10615000FEE7FEE770B45E4B1B68082B19D05D4A62
:10616000D2F8883043F47003C2F88830BFF34F8F01
:10617000BFF36F8F4FF01023D3F80022002A75DB96
:10618000D3F80432002B71DB534B544A1A6070BCB5
:106190007047534B19680029E1D14FF080404FF010
:1061A0008052C0F80C114F4BC0F81011C0F83815D0
:1061B000D2F80414C3F82015D2F80814C3F8241533
:1061C000D2F80C14C3F82815D2F81014C3F82C1503
:1061D000D2F81414C3F83015D2F81814C3F83415D3
:1061E000D2F81C14C3F84015D2F82014C3F8441593
:1061F000D2F82414C3F84815D2F82814C3F84C1563
:10620000D2F82C14C3F85015D2F83014C3F8541532
:10621000D2F83414C3F86015D2F83814C3F86415F2
:10622000D2F83C14C3F86815D2F84014C3F86C15C2
:10623000D2F844642C4C2D49C3F870652C4D256070
:10624000FB23C1F81835D0F8E43ED2F8581204F513
:106250000F3423F00F0204F56D7401F00F031343A4
:106260004FF40072C0F8E43E226078E7214B01222F
:10627000C3F80425D3F80024002AFBD04FF01023E4
:1062800012221C49C3F80022D1F80034002BFBD0A5
:106290004FF0102312221749C3F80422D1F800242A
:1062A000144B002AFAD00022C3F80425D3F80024A6
:1062B000002AFBD0BFF34F8F06490F4BCA6802F488
:1062C000E0621343CB60BFF34F8F00BFFDE700BF19
:1062D0003001001000ED00E08C3700200090D0036A
:1062E0003401001000C000408C56004000F0004017
:1062F0004881030000E001400400FA05A0DF704778
:10630000A2DF7047A6DF704762DF70470A88502A15
:1063100004D10B464288C988914200D070471A8A3E
:10632000012AFBD110B4446934B101469A7C9888A3
:1063300023465DF8044B18475DF8044BEEE700BFB9
:10634000F0B5724C0E68A2686168E36895B00546C6
:1063500020686E6104AC0FC405F1120104A8FFF7B8
:10636000D3FF18B10446204615B0F0BD14A941F280
:10637000235321F8483D2A46AB7C8DF80A30012092
:10638000FFF7BCFF04460028EDD1214603226846F2
:10639000FBF7D8FF9DF800709DF801309DF802E0F2
:1063A000012666F3030766F3030366F3071366F338
:1063B000420E214666F307171C220DA88DF80070C7
:1063C0008DF801308DF802E0FBF7BCFF9DF834300A
:1063D00095F812E00E9443F01203214641F224573F
:1063E000032201A81094119413948DF834308DF881
:1063F0000EE0ADF80C70CDF848D0FBF7A3FF9DF888
:1064000006309DF804E09DF8057066F3420364F3DE
:10641000C30364F3041364F3030766F3030E64F326
:10642000000366F3071E64F307172146142208A829
:106430008DF806308DF804E08DF80570FBF782FFCB
:1064400001AFADF82A400C9408AA03AC0DA905F1E0
:106450000A03288808940997ADF82860ADF82C60E5
:10646000FFF74EFF044600287FF47DAF01461C2253
:106470000DA8FBF767FF9DF83430A87C8DF80E005F
:1064800043F00A03214641F22557032201A80E9446
:1064900010941194129413948DF83430ADF80C705C
:1064A000FBF750FF9DF806309DF804009DF805703D
:1064B00066F3420364F3C30366F3030064F3041357
:1064C00066F3071066F3030764F300032146142202
:1064D0008DF8040066F3071708A88DF806308DF8CC
:1064E0000570FBF72FFFAB1C2888ADF82A4003ADE1
:1064F000089508AA0DA901AD0C940995ADF828607E
:10650000ADF82C60FFF7FCFE04462CE77C7402001B
:1065100070B588B00E4605468DF80720012404A802
:1065200010220021ADF80E40FBF70CFF7389ADF887
:1065300010300DF107020DF10E0304A928468DF865
:10654000124007920693FFF7DDFE08B070BD00BF52
:1065500048DF704710DF704760DF704761DF7047CA
:10656000FCF74ABC2DE9F047DFF8B090284ED9F887
:106570000040DFF8AC80274FB4FA84F482B064099D
:106580000025B5B93378DFF888A07BB901A8FFF7FB
:10659000DFFF052834D020B3FCF71EFC6CB1337844
:1065A000DFF86CA001240025002BEFD002B0BDE87D
:1065B000F087002CFAD1DFF858A09AF80030002BB1
:1065C000F4D102A93A68B8F8003021F8043D104629
:1065D000FFF7C4FF052817D068B1FCF7FDFB0024C6
:1065E000CFE70198FDF756FA0B4B1B68002BD5D06F
:1065F00001989847D2E71046D9F800309847EEE75F
:10660000002CD3D10125D8E7002DC8D0CEE700BF9C
:10661000C8410020CC410020D0410020D4410020BE
:10662000CA410020014B1878704700BFC9410020C3
:1066300011B111F0030F01D007207047F8B51A4FC0
:106640001A4E1B4D1B4C396032802B602368DB07D0
:1066500008D50123C4F880301749FFF77BFF30B11C
:106660002360F8BD1449FFF775FF00B1F8BD134B67
:1066700001221A70FDF71EFA0E4A92F81633C3F380
:106680004113012B0CD90E4B986818B94FF48003B5
:106690001360F8BD1A6842F480021A600020F8BD49
:1066A00042F20200F8BD00BFCC410020CA410020E8
:1066B000D841002000E100E061650200C9410020EE
:1066C000E8410020034618B1024A002013607047D9
:1066D0000E207047D441002008B5094B1B6833B128
:1066E000984700B908BDBDE80840FCF775BB054BED
:1066F0001B78002BF6D0BDE80840FFF733BF00BF82
:10670000D8410020C941002082B0034B0193019B76
:106710000360002002B070471837002010B5034610
:1067200082B002A81A6840F8042DFFF715FF019AFD
:106730001B68934204460BD110B9204602B010BD2D
:1067400002460D490120FCF7DBF8204602B010BDDF
:106750000A490220FCF7D4F84FF08052019BD2F88E
:106760000C210749C3EB822202F100520220FCF700
:10677000C7F8204602B010BDF47402008C74020009
:10678000C0740200034B1B68186A034B002808BF43
:1067900018467047783700209037002008B5034B23
:1067A0001868FFF7EFFFD0F8EC0008BD783700203D
:1067B00082B001B901A93AB143B113780B601278E4
:1067C000101C18BF012003E0104601E06FF001002B
:1067D00002B0704710B5431E0A44914204D011F82C
:1067E000014B03F8014FF8E710BD00000CB430B5C1
:1067F000164B0C1E9DB01D6804DA8B232B604FF0E6
:10680000FF301EE04FF40273ADF8143014BF04F1F2
:10681000FF332346049307934FF6FF7302900690CD
:10682000ADF81630209A21AB02A92846019300F05A
:106830007DF8431CBCBF8B232B6014B1029B00224C
:106840001A701DB0BDE8304002B0704778370020A4
:10685000034613F8012B002AFBD1181A01387047A0
:1068600049B1FF2A85BF8A2303600A704FF0FF30C9
:1068700098BF01207047084670472DE9F0478E68A1
:106880009E4282460C46914698463ED88A8912F42A
:10689000906F3AD0256809696F1A6569022305EB84
:1068A000450595FBF3F57B1C43449D4238BF1D46CF
:1068B00053050FD5294600F085FB064698B13A46A8
:1068C0002169FFF787FFA38923F4906343F08003D6
:1068D000A38113E02A4600F0D3FB064670B9216974
:1068E000504600F021FB0C23CAF80030A38943F086
:1068F0004003A3814FF0FF30BDE8F087266165615A
:106900003E44ED1B2660A5604646464528BF4646E8
:1069100032464946206800F0EBFAA3689B1BA3604F
:1069200023681E4426600020BDE8F0872DE9F04F63
:106930009DB0804603938B891C060D4616460DD5E7
:106940000B695BB9402100F03DFB2860286118B954
:106950000C23C8F80030CDE040236B61002309937D
:1069600020238DF82930DFF89CB130238DF82A30B0
:1069700037463C4614F8013B1BB9B7EB060910D06B
:1069800003E0252BF9D02746F3E74B46324629464C
:106990004046FFF772FF013000F0A780099B4B448F
:1069A00009933B78002B00F0A08000234FF0FF32CA
:1069B00004930793059206938DF853301A9301269A
:1069C000052221784E4800F043FA671C049B38B139
:1069D0004B4A801A06FA00F0184304903C46EFE751
:1069E000D90644BF20228DF853201A0744BF2B221A
:1069F0008DF8532022782A2A03D0079A00210A20F2
:106A00000BE0039A111D12680391002A10DA52421A
:106A100043F00200079204900BE0274601343B78D4
:106A2000303B092B03D800FB02320121F5E701B10D
:106A300007923B782E2B1ED17B782A2B0AD1039B01
:106A40001A1D1B680392002BB8BF4FF0FF330237AB
:106A5000059310E000230593781C19460A24074685
:106A600001303A78303A092A03D804FB0121012386
:106A7000F5E703B1059103223978224800F0E8F9DF
:106A800040B14023CBEB000003FA00F0049B184315
:106A90000490013739781C488DF8281006227E1C96
:106AA00000F0D6F988B1194B33B9039B073323F0B3
:106AB00007030833039314E003AB00932A46144BF7
:106AC00004A94046AFF3008007E003AB00932A46D9
:106AD0000F4B04A9404600F093F8B0F1FF3F824607
:106AE00003D0099B5344099342E7AB895B0601D469
:106AF000099801E04FF0FF301DB0BDE8F08F00BFF6
:106B00003F76020045760200497602000000000050
:106B10007B6802002DE9F04791461F460A698B68A1
:106B2000DDF820809342B8BF1346C9F8003091F8D1
:106B3000432006460C4612B10133C9F800302368E1
:106B4000990642BFD9F800300233C9F800302568F1
:106B500015F0060510D104F1190A07E00123524689
:106B600039463046C04701301AD00135E368D9F8BC
:106B700000209B1A9D42F1DB94F8433022680033D9
:106B800018BF012392060FD5E1185A1C302081F856
:106B90004300224494F8451082F84310023303E086
:106BA0004FF0FF30BDE8F08704F14302394630462C
:106BB000C0470130F4D02268D9F80050E36802F0F1
:106BC0000602042A08BF5D1B2269A3680CBF25EAE0
:106BD000E57500259342C4BF9B1AED184FF00009DC
:106BE0001A344D4509D00123224639463046C04764
:106BF0000130D5D009F10109F3E70020BDE8F087A5
:106C00002DE9F04317460A7E85B06E2A984606465F
:106C10000C460C9B01F1430E00F0AE8011D8632AA4
:106C200022D009D8002A00F0BB80582A40F0CA8040
:106C300081F84520834955E0642A1ED0692A1CD07A
:106C4000C0E0732A00F0B08009D86F2A2ED0702AD5
:106C500040F0B8800A6842F020020A603EE0752ADF
:106C600024D0782A3AD0ADE01A6801F14205111D0E
:106C70001960136884F84230A8E021681A6811F09E
:106C8000800F02D0111D196008E011F0400F02F1D1
:106C90000401196002D0B2F9003000E01368002B43
:106CA0003CDA2D225B4284F8432037E021681A68E1
:106CB00011F0800F02D0111D196007E011F0400F94
:106CC00002F10401196001D0138800E01368227EEC
:106CD0005C496F2A14BF0A2208221BE078225A4915
:106CE00084F845202268186812F0800F00F104052E
:106CF0001D6003D1550601D5038800E00368D00765
:106D000044BF42F0200222601BB9226822F0200218
:106D100022601022002084F8430001E049490A2241
:106D20006568A560002D08DB206820F00400206065
:106D30002BB9002D7DD175460CE0002B79D075461E
:106D4000B3FBF2F002FB1033CB5C05F8013D0346C8
:106D50000028F5D1082A0BD12368DA0708D5236962
:106D600062689A42DEBF302305F8013C05F1FF3529
:106D7000C5EB0E0323612EE008681A68496910F01C
:106D8000800F03D0101D1860136808E010F0400F4A
:106D900002F104001860136801D0198000E0196046
:106DA00000232361754616E01A68111D19601568E5
:106DB00062680021284600F04BF808B1401B606073
:106DC000636804E004F1420584F842200123236152
:106DD000002384F84330CDF800803B4603AA2146C7
:106DE0003046FFF797FE013002D14FF0FF3026E02A
:106DF00023692A4639463046C0470130F5D023681A
:106E00009B0710D5002504F1190907E001234A4624
:106E100039463046C0470130E7D00135E368039A70
:106E20009B1A9D42F2DBE068039B9842B8BF18466C
:106E300005E00B7884F8423004F142058AE705B09A
:106E4000BDE8F08350760200617602000000000089
:106E500001F0FF01102A2BDB10F0070F08D010F80B
:106E6000013B013A8B422DD010F0070F42B3F6D10F
:106E7000F0B441EA012141EA014122F007047FF028
:106E800000070023F0E80256083C85EA010586EA7F
:106E9000010685FA47F5A3FA87F586FA47F6A5FABB
:106EA00087F68EB9EED1F0BC01F0FF0102F00702C7
:106EB00032B110F8013B013A83EA010313B1F8D172
:106EC0000020704701387047002D06BF3546033853
:106ED000073815F0010F07D1013015F4807F02BF8C
:106EE000013015F4C03F0130F0BC0138704700BFDD
:106EF000884210B501EB020301D8421E0BE0984214
:106F0000FBD28118D21AD34204D013F8014D01F8F4
:106F1000014DF8E710BD994204D011F8014B02F879
:106F2000014FF8E710BD000038B50546002946D0EE
:106F300051F8043C0C1F002BB8BFE41800F0D6F841
:106F40001F4A1368114613B96360146032E0A3420C
:106F50000ED92268A018834204BF18685B6863607A
:106F600004BF121822600C6024E0A24203D813462A
:106F70005A68002AF9D118681918A1420BD1216862
:106F8000014458188242196014D1106852685A603E
:106F9000014419600EE002D90C232B600AE021683D
:106FA0006018824204BF10685268626004BF09180A
:106FB00021605C602846BDE8384000F098B838BDD4
:106FC000E041002070B5CD1C25F0030508350C2DDF
:106FD00038BF0C25002D064601DBA94202D90C233F
:106FE000336046E000F082F8234B1C681A462146C5
:106FF000A1B10B685B1B0ED40B2B03D90B60CC1813
:10700000CD501EE08C420DBF63684B686360136017
:1070100018BF0C4615E00C464968E9E7174C236891
:107020001BB9304600F052F820602946304600F087
:107030004DF8431C18D0C41C24F00304A0420DD109
:107040002560304600F053F804F10B00231D20F0BA
:107050000700C31A0ED05A42E25070BD211A3046C2
:1070600000F034F80130EBD10C233360304600F0EF
:107070003EF8002070BD00BFE0410020DC41002050
:10708000F8B5074615460E4621B91146BDE8F84049
:10709000FFF798BF1AB9FFF747FF2846F8BD00F081
:1070A00027F885420ED929463846FFF78BFF04465C
:1070B00050B131462A46FFF78DFB31463846FFF77F
:1070C00033FF01E03046F8BD2046F8BD38B5064C28
:1070D000002305460846236000F014F8431C02D143
:1070E000236803B12B6038BDF4410020704770471E
:1070F00051F8040C0028BEBF091851F8043CC01810
:1071000004387047044A05491368002B08BF0B4632
:107110001844106018467047E4410020F8410020F0
:10712000F8B500BFF8BC08BC9E467047F8B500BF74
:10713000F8BC08BC9E46704718370020FFFFFFFFD1
:10714000FFFFFFFFFFFFFFFFFFFFFFFF000000004B
:10715000000000000000D601070100005B25303868
:10716000645D00004F766572666C6F770D0A0000F3
:107170004C3E00203A4552524F523A466174616C7F
:107180000D0A00003A494E464F3A48697420776527
:10719000616B2068616E646C65720D0A000000000E
:1071A0000D0E0F10010000074150503A494E464F56
:1071B0003A53656E7420627574746F6E20737461D7
:1071C0007465206368616E676520746F20616C6C04
:1071D00020636F6E6E65637465642063656E7472A0
:1071E000616C732E0D0A00004150503A494E464FD3
:1071F0003A5265636569766564204C4544204F4E7C
:107200002066726F6D206C696E6B20307825782156
:107210000D0A00004150503A494E464F3A526563BC
:107220006569766564204C4544204F464620667269
:107230006F6D206C696E6B2030782578210D0A0007
:107240004150503A494E464F3A436F6E6E656374F3
:1072500065642077697468206C696E6B20307825CE
:10726000782065737461626C69736865642E0D0AB9
:10727000000000004150503A494E464F3A436F6E6D
:107280006E656374696F6E2030782578206861734D
:10729000206265656E20646973636F6E6E656374EA
:1072A00065642E20526561736F6E3A2030782558E0
:1072B0000D0A00004E6F726469635F426C696E6B09
:1072C000790000004150503A494E464F3A4D756C96
:1072D00074697065726970686572616C2065786147
:1072E0006D706C6520737461727465642E0D0A0094
:1072F000E44000206E72665F626C655F6761747463
:107300003A4552524F523A73645F626C655F6761EF
:107310007474635F65786368616E67655F6D7475CB
:107320005F72657175657374282920726574757252
:107330006E656420756E657870656374656420762B
:10734000616C756520307825782E0D0A00000000EC
:107350006E72665F626C655F676174743A45525223
:107360004F523A73645F626C655F6761705F64611E
:1073700074615F6C656E6774685F75706461746575
:10738000282920287265717565737429206F6E2015
:10739000636F6E6E656374696F6E20307825782038
:1073A00072657475726E656420756E65787065635C
:1073B0007465642076616C756520307825782E0DB3
:1073C0000A0000006E72665F626C655F67617474CC
:1073D0003A4552524F523A73645F626C655F67611F
:1073E0007474735F65786368616E67655F6D7475EB
:1073F0005F7265706C7928292072657475726E658C
:107400006420756E65787065637465642076616C60
:10741000756520307825782E0D0A00006E72665F43
:10742000626C655F676174743A4552524F523A73A9
:10743000645F626C655F6761705F646174615F6CFB
:10744000656E6774685F75706461746528292028AB
:107450007265706C79292072657475726E6564202E
:10746000756E65787065637465642076616C7565AA
:1074700020307825782E0D0A0000000023D1BCEAC8
:107480005F782315DEEF1212000000005344483AE3
:107490005741524E494E473A52414D2073746172E2
:1074A000742073686F756C642062652061646A750E
:1074B0007374656420746F20307825782E0D0A006F
:1074C0005344483A5741524E494E473A52414D2053
:1074D00073697A652073686F756C642062652061DA
:1074E000646A757374656420746F20307825782E13
:1074F0000D0A00005344483A4552524F523A7364C1
:107500005F626C655F656E61626C652829207265DB
:107510007475726E656420756E65787065637465E8
:10752000642076616C75653A20307825782E0D0AD6
:10753000000000004300504F534958002E00002027
:107540002020202020202020282828282820202013
:1075500020202020202020202020202020202088C3
:107560001010101010101010101010101010100427
:107570000404040404040404041010101010101077
:10758000414141414141010101010101010101016B
:107590000101010101010101010110101010101081
:1075A000424242424242020202020202020202023B
:1075B0000202020202020202020210101010200057
:1075C00000000000000000000000000000000000BB
:1075D00000000000000000000000000000000000AB
:1075E000000000000000000000000000000000009B
:1075F000000000000000000000000000000000008B
:10760000000000000000000000000000000000007A
:10761000000000000000000000000000000000006A
:10762000000000000000000000000000000000005A
:107630000000000000000000000000000000002327
:107640002D302B2000686C4C00656667454647006E
:107650003031323334353637383941424344454688
:10766000003031323334353637383961626364651E
:087670006600000000000000AC
:08767800E4ABFF7F01000000FC
:1076800000000000000000000000000000000000FA
:1076900000000000000000000000000000000000EA
:1076A00000000000000000000000000000000000DA
:1076B00000000000000000000000000000000000CA
:1076C00000000000000000000000000000000000BA
:1076D00000000000000000000000000000000000AA
:1076E0001837002000200040000000000B000300BD
:1076F0006D4D02000090D003430000000000000028
:107700000000000000000000000000000000000079
:107710000000000000000000430000000000000026
:107720000000000000000000000000000000000059
:107730000000000000000000430000000000000006
:107740000000000000000000000000000000000039
:1077500000000000000000004300000000000000E6
:107760000000000000000000000000000000000019
:1077700000000000000000004300000000000000C6
:1077800000000000000000000000000000000000F9
:1077900000000000000000004300000000000000A6
:1077A00000000000000000000000000000000000D9
:1077B0000000000000000000430000000000000086
:1077C00000000000000000000000000000000000B9
:1077D000000000000000000061680200B1670200C4
:1077E000000000003E7502003C7502004476020075
:1077F0004476020044760200447602004476020099
:107800004476020044760200447602004476020088
:10781000FFFFFFFFFFFFFFFFFFFFFFFFFFFF000076
:1078200001004153434949000000000000000000EE
:107830000000000000000000000000000000000048
:1078400000004153434949000000000000000000CF
:107850000000000000000000000000000000000028
:1078600000000000252202000122020000000000AA
:04000003200061195F
:00000001FF
