:10000000000004204926000071260000732600002D
:100010007526000077260000792600000000000009
:100020000000000000000000000000007B2600002F
:100030007D260000000000007F26000081260000D1
:100040008326000083260000B52100003D1C00002F
:100050008326000083260000611300008326000031
:1000600083260000832600008326000083260000EC
:1000700083260000832600008326000083260000DC
:1000800083260000010C0000832600008326000068
:10009000A10C0000832600008326000083260000B8
:1000A00083260000832600008326000083260000AC
:1000B00083260000832600000000000000000000EE
:1000C000832600008326000083260000832600008C
:1000D000832600008326000083260000832600007C
:1000E000832600008326000083260000832600006C
:1000F0000000000083260000000000000000000057
:1001000000000000000000000000000000000000EF
:1001100000000000000000000000000000000000DF
:1001200000000000000000000000000000000000CF
:1001300000000000000000000000000000000000BF
:1001400000000000000000000000000000000000AF
:10015000000000000000000000000000000000009F
:10016000000000000000000000000000000000008F
:10017000000000000000000000000000000000007F
:10018000000000000000000000000000000000006F
:10019000000000000000000000000000000000005F
:1001A000000000000000000000000000000000004F
:1001B000000000000000000000000000000000003F
:1001C000000000000000000000000000000000002F
:1001D000000000000000000000000000000000001F
:1001E000000000000000000000000000000000000F
:1001F00000000000000000000000000000000000FF
:1002000010B5054C237833B9044B13B10448AFF350
:1002100000800123237010BDF001002000000000C9
:1002200004340000084B10B51BB108490848AFF36F
:1002300000800848036803B910BD074B002BFBD0B2
:10024000BDE81040184700BF00000000F401002086
:1002500004340000EC01002000000000154B002BCE
:1002600008BF134B9D46A3F5803A00218B460F46ED
:100270001348144A121A00F065F80F4B002B00D0F7
:1002800098470E4B002B00D0984700200021040017
:100290000D000D48002802D00C48AFF3008000F09C
:1002A0002BF82000290002F033F900F011F800BF0C
:1002B0000000080000000420000000000000000012
:1002C000F0010020180900200000000000000000DC
:1002D00008B5074B044613B10021AFF30080054B6E
:1002E0001868836A03B19847204600F033F800BFCE
:1002F00000000000E831000070B50E4B0E4CE41A0F
:10030000A41000251E46A54204D056F82530984773
:100310000135F8E702F05CFF084C094BE41AA41021
:1003200000251E46A54204D056F8253098470135D1
:10033000F8E770BDE4010020E4010020E80100209E
:10034000E401002002440346934202D003F8011B5B
:10035000FAE77047FEE700BF0378012B04BF014AAC
:10036000137070470C0300202DE9F04FC7B01C46F6
:100370009248002914BF0A23002316460D46009315
:1003800001F00CFF002840F0E480002C00F0E58034
:1003900006AB83460193519B539A9E1820250296E3
:1003A00058460099019A0B46034404933133D318FD
:1003B0000393171800295FD07B4203F003038B429D
:1003C00028BF0B46062900F2EB800B46019A012B51
:1003D000155407F1010200F0E180022B7D7007F156
:1003E000020200F0DB80032BBD7007F1030200F076
:1003F000D580042BFD7007F1040200F0CF80062B9E
:100400003D7107F1050240F0D1807D71BA1D9E4615
:10041000009999422ED0009EC3EB060AAAF104016E
:1004200006F1FF3B8908C3EB0B0B0131BBF1020F57
:100430004FEA810C12D90344019E4FF0203001296C
:1004400006EB030BF05005D00229CBF8040001D0D5
:10045000CBF80800D4456244E6440BD000981570F0
:100460000EF10103834205D20EF1020E7045557064
:1004700000D99570009B1F44039B059707F1330932
:1004800007F1030A264603F101084C46029FDDF8F6
:1004900044910DE00AF8035C0AF8025C0AF8015C7A
:1004A0000AF1030AA24508F8015C08F101082FD0FF
:1004B000BE42EFD24E456BD2509B13F806B00AF8FD
:1004C000015C4FEA2B105FFA80FE09280BF00F0049
:1004D000D4BF0EF1300E0EF1370E092894BF303024
:1004E00037300AF803EC0AF8020C02F0ABF9584472
:1004F0000AF1030A407810F0970F08BF4FF02E0B57
:10050000A24508F801BC06F1010608F10108CFD1A7
:10051000049B03980297059F019903F1430A0D225A
:100520000A23027443745246254887F8305002F07B
:10053000A5F95FFA8AF222492048344601F082FD8B
:1005400038B91E4801F02AFE18B9029B9C42FFF4FC
:1005500028AF204647B0BDE8F08F55B306A82B68FA
:10056000184A01904FF4807102F094F90028F0DBF2
:100570000546304602F0C0F9019BC22828BFC220C0
:10058000834602463146581902F078F9AB4402E737
:10059000C9EB0600529B13F800B090E79E4637E780
:1005A000002B7FF413AF3A469E4634E74FF0050E1A
:1005B0002EE706AB25460193DBE700BF6400002071
:1005C0000C0200200C3200002DE9F0416B48C6B04F
:1005D0000C4616461D4601F0E1FDA8B9C4B106AFB0
:1005E0002368674A38464FF4807102F053F90028B7
:1005F0000ADB4C9B8046062B00F2BD80DFE803F04F
:10060000146670327C405200002046B0BDE8F08194
:100610004C9B062B00F2AC80DFE803F0049C969024
:10062000847E8A004FF00008304602F065F900EB46
:100630000803FF2B044640F29380002CE4DB08EB18
:100640000402B2F5807FDFD8D4B206A94D4802F08B
:1006500015F922464B49494801F0F4FCB0FA80F004
:100660004009D2E7C0F58071AA686C682B680192D6
:100670000094324607EB080002F00CF90446DCE770
:10068000C0F580712869EA682B680390AC686D68D2
:10069000009502920194324607EB080002F0FAF846
:1006A0000446CAE7C0F580716A6928692B6804921C
:1006B000EA680390AC686D68009502920194324636
:1006C00007EB080002F0E6F80446B6E7C0F58071D3
:1006D0002B68324607EB080002F0DCF80446ACE772
:1006E000C0F580716A682B68009207EB08003246FB
:1006F00002F0D0F80446A0E7C0F58071EA68AC6863
:100700002B686D68009502920194324607EB080051
:1007100002F0C0F8044690E74FF480714FF00008F3
:1007200006AFAFE74FF480714FF0000806AFE5E782
:100730004FF480714FF0000806AFB5E74FF48071B9
:100740004FF0000806AF8FE74FF480714FF00008BC
:1007500006AFC7E74FF480714FF0000806AFB7E768
:1007600006AB314603EB0800224602F087F864E747
:100770000024224669E7002461E700BF64000020EE
:100780000C3200000C020020F0B51A4F3B7889B003
:100790001BB1194B1B78834229D0184D06460FCD4B
:1007A0006C460FC495E80F004FF0000E84E80F0070
:1007B0000625052107224FF0EB7311480391082409
:1007C00002928DF814E000950194069301F09CFBD1
:1007D000002E0C4A0A4818BF0022694601F05EFA52
:1007E00018B9054A012316703B7009B0F0BD00200E
:1007F00009B0F0BD0E0300200D030020EC31000015
:10080000640000205903000000487047C90500003B
:10081000004870476903000038B50020FFF7B4FFB7
:10082000044668B9FFF7F0FF0546FFF7F1FF054BF7
:10083000FF22C3F810541C605C60C3F814049A6073
:10084000204638BD100300200120FFF79DBF00BFE8
:100850002DE9F041224C064600200D46A76800F025
:1008600045FDA2686368D4F8008013440133C8EBE7
:100870000303012B1BD8ABB10121002361F301035A
:100880006FF38203052161F3C50308EA02021549EB
:1008900004EB82026FF3891308F1010761F39F23D0
:1008A0002760D3600020BDE8F04100F027BD08F1CB
:1008B00001030020236000F021FD0122002362F3E8
:1008C00001036FF3820307EA080766F3C50304EB2D
:1008D00087046FF3891365F39F23E360BDE8F0811C
:1008E00010030020143200002DE9F84F3A4C8046E6
:1008F000002003F1030A99460F461646A56800F04A
:10090000F5FCA3686168D4F800B019444FEAAA0A5C
:1009100001310AF10300CBEB010181420AF101022E
:100920000BF1010A1AD2A1B10121002261F30102E7
:100930006FF3820205210BEA030B61F3C502274B1B
:10094000C4F800A06FF3891204EB8B0463F39F22B9
:10095000E2600020BDE8F84F00F0D0BC5244002017
:10096000226000F0CBFC0221A3680BEB0100002207
:1009700005EA0A0A05EA0B0B61F30102054001339F
:1009800068F3C502C5EB030804EB8A0A04EB8B0B82
:1009900008FA01F869F39F5204EB8500C845CBF8CB
:1009A0000C2000F10C00CAF80C7005D34A46314601
:1009B000BDE8F84F01F062BF4246314601F05EFFEC
:1009C000C8EB090206EB080104F10C0092B2BDE885
:1009D000F84F01F053BF00BF100300201432000095
:1009E0002DE9F0474C4E96E80C009A428AB070D040
:1009F000B06804E0C4F3891202EB9452134400EA95
:100A00000305023506EB85020133546814F0030236
:100A1000F0D0022A28D0C4F38312C4F3952C002A04
:100A200075D00DF1100E7546D71800EA030106EBDC
:100A300081010133C96845F8041BBB42F5D100921E
:100A4000C4F3C20073466246D6F81044324D00210A
:100A5000A04738B177603068C01B18BF01200AB0CA
:100A6000BDE8F0876F68F6E703F1010A20EA0A01A2
:100A70000340013106EB830389004FEA945888450F
:100A8000DA68DFF894E0C4F3891326D9A9B300EA41
:100A90000A0C5FFA81F90EEB8C0CC9EB08010CF122
:100AA0000C0C0EF10C00C9B203910290CDF8049029
:100AB000CDF800C00021C4F3C200D6F81474B847C2
:100AC000404520D006EB850560F38F146C60776895
:100AD000C1E700200AB0BDE8F08700EA0A000EEB8B
:100AE00080000C308DE801010021DEF814940391A0
:100AF0000291C4F3C200C847E2E70EF10C0C0846AD
:100B00005FFA88F9D0E703300AEB9007A2E71F46A7
:100B10000DF1100E93E700BF100300200D4B10B431
:100B2000195C1F298CBF0C484FF0A0404FF0010208
:100B3000D0F8044588BF01F01F0102FA01F323EA4F
:100B400004022340C0F80825C0F80C355DF8044BBA
:100B5000704700BF203200000003005030B44FF057
:100B6000A04303224FF400554FF480444FF400405B
:100B70004FF48031C3F83427C3F83827C3F83C2733
:100B8000C3F84027C3F80855C3F80845C3F808055B
:100B9000C3F8081530BC704700B585B0002303903A
:100BA000194601AA44F20100ADF80430029300F0A6
:100BB00003F805B05DF804FB08B50D490120FFF707
:100BC00047FEFFF741FEFFF70BFF0028FBD1094965
:100BD0000320FFF73DFEBFF34F8F0749074BCA685D
:100BE00002F4E0621343CB60BFF34F8F00BFFDE719
:100BF000243200003432000000ED00E00400FA0569
:100C0000F8B5204A204B0025C2F84051C2F84451A3
:100C1000C2F84851C2F84C51C2F80051C2F8045110
:100C20001B6813B31949D2F804250C68141B1A6801
:100C300024F07F44A2422F4609D8197CDE69A41A09
:100C4000154499B91EB133461A68A242F5D9104B22
:100C500010491A780B789A420DD00F490F4A41F883
:100C600023504FF48013C2F80031F8BD1F745A6945
:100C700098699047E6E7531CDBB2022B08BF0023BC
:100C80000B70EAE7001001402C0700202807002025
:100C900030070020310700204008002000E100E07C
:100CA0002DE9F04F884A89491378097899428BB029
:100CB00037D00133DBB2022B08BF00238449137005
:100CC000844A0E68029152F82300834905910B680B
:100CD00002993218002522F07F420A602C462946EC
:100CE000AE46ABB11A68824200F2E681DD68C3F815
:100CF00000E0801A1444DA6935B1371927F07F47CC
:100D0000D9619D605F60194613460125002BE9D12A
:100D1000002D40F0DC820023069301230893069AFD
:100D200008E06D4B05931B68694A02920021069307
:100D300008911A46694BDFF8AC811B780393059B39
:100D40001B681C46029B1F680023BA460F46099386
:100D5000C3460793994618464FF0010E0193A446E7
:100D60003FB37D68BE683946FF695D4BCAEB050439
:100D700024F07F449C423CD8A3190B6048608860F3
:100D800081F810E0C861002A68D015689D4249D2F8
:100D9000164603E025689D4234D22646F4695B1B63
:100DA000002CF7D1CC610B601446F1612246002F74
:100DB000D7D198F8003098F80110994200F094804B
:100DC000591C03EB43039BF8024008EBC303C9B271
:100DD0008C421C798BF8001008BF8BF80070022C35
:100DE00099684ED0032C3FD0012C24D014462246C3
:100DF000DDE7C5EB0A0525F07F45B54209D2731B37
:100E00000B60BBE7ED1A2560CC610B601446F16105
:100E1000CCE708604860886081F810E0C861EAB1FA
:100E200015680023EB1A0C4613608C46CA614FF01C
:100E300001092246BBE70C7C0494002CD6D1DD6866
:100E40004D601E698E605C69CC609B698B61039B01
:100E5000002B8AD0049B4B601D4686E70C468C46CF
:100E60004FF001092246A2E70AB9BFE71A46D36943
:100E70001074002BFAD11C469C464FF00109224603
:100E800095E752B1914200F00B81134602E0B14266
:100E900007D03346DE69002EF9D114460874224685
:100EA00085E7994200F0FE801446F5693668DD61F9
:100EB00015B12B6833442B60019B0874A24218BF04
:100EC00001230193EBE700BF30070020310700202A
:100ED00028070020400800202C07002032070020AF
:100EE000FEFF7F00340700205746DDF804A0B9F16B
:100EF000000F40F04981079B002B40F0E581099BE2
:100F0000002B40F0DC81BAF1000F03D1069B9A421E
:100F100000F03F81002A00F041816C49029BD1F82A
:100F200004051B686A4C17682578C21A22F07F42B4
:100F30000332002D51D1674DDFF89CC1DFF89CE1F1
:100F40004FF48036C1F84463C1F804634FF40036AF
:100F5000C5F880612E6001250D60DCF800602F214E
:100F600000BF00BF00BF00BF00BF00BF00BF00BF89
:100F700076452FD000BF00BF00BF00BF00BF00BF3D
:100F800000BF00BF00BF00BF00BF00BF00BF00BF69
:100F900000BF00BF00BF00BF00BF00BF00BF00BF59
:100FA00000BF00BF00BF00BF00BF00BF00BF00BF49
:100FB00000BF00BF00BF00BF00BF00BF00BF00BF39
:100FC00000BF00BF00BF00BF00BF00BF00BF00BF29
:100FD00000BF00BF0139C3D1257097422CBFDA1979
:100FE0009A183A4922F07F43C1F84035D1F80425D8
:100FF000121A1B1A22F07F4223F07F4303329A42D7
:1010000048D9D1F80435344AC1F84035126833491B
:101010002F2300BF00BF00BF00BF00BF00BF00BF45
:1010200000BF8A422FD000BF00BF00BF00BF00BF7B
:1010300000BF00BF00BF00BF00BF00BF00BF00BFB8
:1010400000BF00BF00BF00BF00BF00BF00BF00BFA8
:1010500000BF00BF00BF00BF00BF00BF00BF00BF98
:1010600000BF00BF00BF00BF00BF00BF00BF00BF88
:1010700000BF00BF00BF00BF00BF00BF00BF00BF78
:1010800000BF00BF00BF013BC3D1124B4FF4003281
:10109000C3F80021124A002313700BB0BDE8F08F93
:1010A00016461346D2F81C90B9F1000F1AD0CC4660
:1010B0004C464FF00109F8E6002D62D1121A1A6071
:1010C000069301230893069A34E600BF00100140FE
:1010D0004808002000E100E0740000200024F40033
:1010E000320700207B4C7C4DC4F808E07B4C4FF06D
:1010F0002F0C246800BF00BF00BF00BF00BF00BFAF
:1011000000BF00BFAC422FD000BF00BF00BF00BF78
:1011100000BF00BF00BF00BF00BF00BF00BF00BFD7
:1011200000BF00BF00BF00BF00BF00BF00BF00BFC7
:1011300000BF00BF00BF00BF00BF00BF00BF00BFB7
:1011400000BF00BF00BF00BF00BF00BF00BF00BFA7
:1011500000BF00BF00BF00BF00BF00BF00BF00BF97
:1011600000BF00BF00BF00BFBCF1010CC2D1012411
:1011700025460994CC464C46CA4603950795A94690
:1011800093E6059C236099E7059B1946C1F800C0CA
:10119000B1E6089B002B3FF47DAFBBE64D49504BB9
:1011A0004E4E4D4C4FF480304FF400370125C3F8BC
:1011B0008070C1F848032F23C1F808034D603068E0
:1011C0001E4600BF00BF00BF00BF00BF00BF00BF82
:1011D00000BFA0422FD000BF00BF00BF00BF00BFB4
:1011E00000BF00BF00BF00BF00BF00BF00BF00BF07
:1011F00000BF00BF00BF00BF00BF00BF00BF00BFF7
:1012000000BF00BF00BF00BF00BF00BF00BF00BFE6
:1012100000BF00BF00BF00BF00BF00BF00BF00BFD6
:1012200000BF00BF00BF00BF00BF00BF00BF00BFC6
:1012300000BF00BF00BF013EC3D18D6002990A60AC
:1012400000BF00BF00BF00BF00BF00BF00BF00BFA6
:10125000A0422FD000BF00BF00BF00BF00BF00BF33
:1012600000BF00BF00BF00BF00BF00BF00BF00BF86
:1012700000BF00BF00BF00BF00BF00BF00BF00BF76
:1012800000BF00BF00BF00BF00BF00BF00BF00BF66
:1012900000BF00BF00BF00BF00BF00BF00BF00BF56
:1012A00000BF00BF00BF00BF00BF00BF00BF00BF46
:1012B00000BF00BF013BC3D10A4B1A70EAE60A4BDC
:1012C0009DF80C1019701EE6029B1F6017E6059A28
:1012D000136020E5001001400024F4007400002099
:1012E00000E100E0480800203207002072B6024A00
:1012F00013680133136070474C080020034A1368D9
:10130000013B136003B962B6704700BF4C08002070
:10131000002810B418DB00F1604303F56143490174
:10132000C9B283F80013C3B24009800000F16040E5
:1013300000F5614003F01F0201239340C0F88031A3
:1013400003605DF8044B7047C3B2044A03F00F0416
:1013500049012244C9B21176E6E700BFFCEC00E087
:101360002DE9F04F89B00025CE4B039502951A6800
:10137000012A00F04C82CC4B1A68012A00F0398215
:10138000CA4B1A68012A00F02682C94B1A68012A42
:1013900000F01382C74B1A68012A00F00082C64B86
:1013A0001A68012A00F0ED81C44B1A68012A00F086
:1013B000DA81C34B1A68012A00F0C781C14B1A6851
:1013C000012A00F0B18115F0FF0F1AD0BE4F01269F
:1013D0000024A30003F18043354203F5C0434FEAE4
:1013E00046060BD0D3F8100557F82420D3F8101573
:1013F000C0F30520C1F3014102B190470134082C2C
:10140000E7D1002D02DB09B0BDE8F08FAE4DDFF86B
:10141000BC824FF0FF330693079395F9603004AF19
:1014200000225C1C7A6004922E4600F000815FFA74
:1014300083FE2EF0C00008AB4FEAD00903EB090C85
:1014400001210EF007031CF8082C01FA03F312EA3D
:10145000030421D032184FEA9E1192F9302056F839
:101460002220002A00F03981032900F039811F2849
:1014700000F2068104464FF0A04A04F5E0791CF81A
:10148000184C5AF829C01C40CCF3014C40F0EC80B9
:10149000BCF1030F00F0238295F96130581C35D060
:1014A000DBB223F0C00008AA4FEAD00C02EB0C0E0E
:1014B0004FF0010903F007021EF8081C09FA02F2B6
:1014C000114223D006EB0009990999F9309056F89A
:1014D0002990B9F1000F00F00981032900F009817A
:1014E0001F2800F2F58084464FF0A04A0CF5E07CFE
:1014F0001EF818BC5AF82CE01BEA020FCEF3014E7E
:1015000040F0C380BEF1030F00F0CE8195F9623048
:10151000591C34D0DBB223F0C00008AA4FEAD00C2B
:1015200002EB0C0E4FF0010903F007021EF8081C35
:1015300009FA02F2114222D006EB0009990999F941
:10154000309056F82990B9F1000F00F0E38003299C
:1015500000F0E3801F2800F2828084464FF0A04A0A
:101560000CF5E07C1EF818BC5AF82CE01BEA020FC0
:10157000CEF3014E68D1BEF1030F00F07A8195F9E8
:1015800063305A1C38D0DBB223F0C00008AA4FEAFF
:10159000D00C02EB0C0E4FF0010903F007021EF80D
:1015A000081C09FA02F2114226D006EB000999093B
:1015B00099F9309056F82990B9F1000F00F0A08009
:1015C000032900F0A0801F288ABF03F01F0C844667
:1015D000DFF8F8A01EF818BC98BF4FF0A04A0CF531
:1015E000E07C1BEA020F5AF82CE0CEF3014E20D12A
:1015F000BEF1030F00F01981002C3FF404AF4FF04F
:10160000A0430299D3F81035D8F81025994203D198
:10161000039991423FF4F7AE029395F96030049834
:10162000059903925C1C069007917FF400AF00249B
:1016300032E7BEF1020FDFD1032900F07681B9F164
:10164000000FD9D0C847D7E7BEF1020F97D10329C1
:1016500000F06E81B9F1000F91D0C8478FE703F019
:101660001F0CDFF868A07BE7BCF1020FDFD1032974
:1016700000F064810024002A3FF40EAF90470BE78E
:101680000EF01F04DFF844A0F7E6BEF1020F7FF46E
:101690003DAF032900F04F81B9F1000F3FF436AFA1
:1016A000C84733E700610040046100400861004022
:1016B0000C6100401061004014610040186100405E
:1016C0001C6100407C610040500800200003005075
:1016D00003F01F0CDFF86CA208E7032940F0A38099
:1016E00017F809401C4307F80940C0E603297FF4B6
:1016F0000DAF17F80CA04AEA020A07F80CA0EFE6B3
:1017000003297FF479AF17F80CA04AEA020A07F818
:101710000CA058E703297FF432AF17F80CA04AEA6F
:10172000020A07F80CA015E700221A601B68019353
:101730004FF0A042019BD2F81025824B0292D3F8C1
:101740001035039345F000453DE67F4AD2F8042367
:1017500016067FF533AE00221A601B680093009BCB
:1017600045F080052AE6784AD2F8042357067FF52B
:1017700020AE00221A601B680093009B45F04005D4
:1017800017E6714AD2F8042392067FF50DAE0022C7
:101790001A601B680093009B45F0200504E66A4A26
:1017A000D2F80423D1067FF5FAAD00221A601B6837
:1017B0000093009B45F01005F1E5634AD2F804233D
:1017C00010077FF5E7AD00221A601B680093009BAD
:1017D00045F00805DEE55C4AD2F8042354077FF59E
:1017E000D4AD00221A601B680093009B45F00405ED
:1017F000CBE5554AD2F8042396077FF5C1AD002208
:101800001A601B680093009B45F00205B8E54E493D
:10181000D1F8041311F0010129D01D601B68009359
:10182000009B1546A7E5144636E603297FF407AF6B
:101830004FF4003C1F288BBF424A4FF0A04203F0F8
:101840001F03034602EB830E0134DEF8002722F467
:101850004032CEF80027DEF8002742EA0C02E4B25C
:10186000CEF80027B9F1000F7FF4ECAEC7E60D46C5
:1018700081E503297FF4EEAE4FF4003C1F2848D8E1
:1018800003464FF0A04202EB830E0134DEF800372E
:1018900023F44033CEF80037DEF800274CEA02028A
:1018A000E4B2CEF80027D5E603297FF4F5AE4FF475
:1018B000003C1F2831D803464FF0A04202EB830EB4
:1018C0000134DEF8003723F44033CEF80037DEF879
:1018D00000274CEA0202E4B2CEF80027DCE6032936
:1018E0007FF4C9AE4FF400391F281AD803464FF0D1
:1018F000A04404EB83030124D3F800C72CF4403C3C
:10190000C3F800C7D3F800E749EA0E0EC3F800E7B2
:10191000B1E603F01F030B4AB5E703F01F03094AC2
:10192000CCE70EF01F03074CE3E74FF4403C81E7A0
:101930004FF4403CA2E74FF4403CBAE74FF4403943
:10194000D2E700BF00030050006000402DE9F041E5
:1019500044796D4EE7003D19AD0006EB050E9EF88B
:101960001CC0BCF1000F02D00820BDE8F08172510C
:10197000CEF804300B7B0D78012B40F2AD801F2D8B
:1019800086BF05F01F05DFF884E14FF0A04E01236C
:10199000AB40CEF808350B781F2B86BF03F01F0332
:1019A000DFF868E14FF0A04E03F5E07301254EF833
:1019B000235091F801E0BEF1FF0F00F08A80BEF1E4
:1019C0001F0F7BD90EF01F0C504B05FA0CF5C3F816
:1019D0000C550CF5E07C032543F82C5091F802C01F
:1019E000BCF1FF0F72D0BCF11F0F8BBF0CF01F03B7
:1019F0006346DFF818814FF0A04803F5E073002537
:101A000048F82350CB78FF2B1CD01F2B92BF4FF0F0
:101A1000A048DFF8F88003F01F03012505FA03F35F
:101A2000C8F80835CB781F2B88BF03F01F0303F5D8
:101A3000E0738CBFDFF8D4804FF0A048032548F84E
:101A40002350CB78457905EBC50506EB8505AB77CB
:101A500003680D78C3F80855C3F80CE5C3F810C542
:101A60008D68C3F824554D7B91F80CE0003518BF04
:101A70000125BEF1020F3FD0BEF1030F39D0BEF1F8
:101A8000010F01D145F00205C3F854554D79C3F853
:101A9000C055A2B340250722C3F80453C3F800255C
:101AA000097990F90400FFF733FC3C4406EB840607
:101AB0000123002033777077BDE8F0814FF0A04319
:101AC00005FA0EF5C3F80C55F44682E74FF0FF3CDB
:101AD00098E74FF0FF3E81E71F2D86BF05F01F05F9
:101AE000DFF828E04FF0A04E0123AB40CEF80C35D4
:101AF00051E745F00605C7E745F00405C4E70722AE
:101B0000C3F80025D1E700BFB8080020000300504B
:101B10002DE9F0434479474EE7003D19AD0006EB4F
:101B2000050E83B09EF81D809DF828C0B8F1000F07
:101B300003D0112003B0BDE8F083755915B101251C
:101B40008EF81D503D19AD0005F1080EB644354420
:101B5000CEF804108EF80820CEF80C308EF810C0A5
:101B600095F821E095F81E8005F120090EF0FC059E
:101B70006FF38205B8F1FF0F89F801500DD0B8F16D
:101B80001F0F92BF4FF0A04EDFF8ACE008F01F0827
:101B9000012505FA08F5CEF80C5569B101F060454C
:101BA000B5F1005F08D03C4406EB8406002310200A
:101BB000737703B0BDE8F08323B103F06045B5F15E
:101BC000005FF0D105680020C5F84415C5F8482528
:101BD000C5F83435C5F838C5C5F81801D5F8183139
:101BE000019301223B190199C5F85005C5F840053C
:101BF0002A6156F823301BB14023C5F8043399E716
:101C0000D5F81831002BFBD03B1906EB83039B7FE3
:101C1000FF2B0DD01F2B92BF4FF0A041064903F0C0
:101C20001F03012202FA03F3C1F80835002081E7FF
:101C300000207FE7B808002000030050134AD2F8C4
:101C4000183113B300B50021114BC2F81811D2F8A6
:101C500018119A7F83B0FF2A019101990BD01F2A96
:101C600092BF4FF0A0400B4802F01F02012101FA81
:101C700002F2C0F8082500225A771A7259681A68C9
:101C80000548904703B05DF804FB70470030004002
:101C9000B808002000030050C0080020F0B5047907
:101CA000954E6401331987B0DD7E15B1082007B069
:101CB000F0BD4D7F1D770B685F1C19D01F2B4FF0B7
:101CC00001058ABF8D4F4FF0A04703F01F0305FAAF
:101CD00003F3C7F808350B681F2B86BF03F01F03FB
:101CE000864D4FF0A04503F5E073032745F82370B8
:101CF0004B685D1C0BD01F2B86BF03F01F037F4D6D
:101D00004FF0A04503F5E073002745F823700379F1
:101D100006EB43131B7F002B4DD003688D69C3F87E
:101D200024554F7D0B7D05683B43C5F86C35036832
:101D30000F684D68C3F80C75C3F814550B7D012B63
:101D400000F0AC80331905465A600B696A4833517C
:101D5000EAB12B79097F2A6800EB4310037F002B3F
:101D600076D1C2F81C31D2F81C712A680097009F06
:101D7000C2F84431D2F844212B6861480192019A9B
:101D8000C3F80403286840F30730FFF7C1FA2B7942
:101D90002A6806EB43131B7F002B55D00823C2F89B
:101DA0000035344400200123E376E0752076A075E9
:101DB000A07607B0F0BD03688D69C3F824554F7D48
:101DC0000B7D05683B43C5F86C3591E8A0000368BE
:101DD000C3F81475C3F80C550B7D012BB2D18B6879
:101DE0005F1C0BD01F2B86BF03F01F03434D4FF02A
:101DF000A04503F5E073002745F82370CB685D1C10
:101E00001BD01F2B4FF001058ABF3C4F4FF0A0475E
:101E100003F01F0305FA03F3C7F80835CB681F2B3F
:101E200088BF03F01F0303F5E0738CBF334D4FF001
:101E3000A045032745F82370CB6805688F68C5F86F
:101E40000835C5F810757DE70423C2F80035A8E70A
:101E50000023C2F81031D2F810712A680297029F4D
:101E6000C2F82031D2F820712A680397039FC2F884
:101E70002431D2F824712A680497049FC2F84431AF
:101E8000D2F844212B6805921E48059AC3F8040332
:101E9000286840F30730FFF73BFA78E78B685F1C50
:101EA0000BD01F2B86BF03F01F03144D4FF0A0452E
:101EB00003F5E073002745F82370CB685D1CBCD0A8
:101EC0001F2B8ABF0D4F4FF0A04703F01F030125C2
:101ED00005FA03F3C7F80835CB681F2B88BF03F05A
:101EE0001F0303F5E0738CBF044F4FF0A047032599
:101EF00047F82350CB68A0E7DC080020000300501F
:101F00008000020010030200F0B50379484E01681A
:101F10005B01F218127F002A00F083800022C1F8D2
:101F20000025F21842495268B2B1027901EB421120
:101F30000A7F002A78D102683E49C2F80813026875
:101F40003D4D120B51B24909203102F01F0201240C
:101F500004FA02F245F821200279076806EB4212E2
:101F6000D7F80C55127FD7F814454FF0FF3E002AE2
:101F700049D0D7F80825D7F81015C7F80CE5C7F8E9
:101F800014E50068C0F808E5C0F810E56F1C0BD038
:101F90001F2D86BF05F01F0528484FF0A04005F50E
:101FA000E075022740F82570651C0BD01F2C86BFFA
:101FB00004F01F0421484FF0A04004F5E07402250E
:101FC00040F82450481C0BD01F2986BF01F01F0188
:101FD0001A484FF0A04001F5E071022440F821407A
:101FE000511C0BD01F2A86BF02F01F0213494FF06D
:101FF000A04102F5E072022041F8220033440022A1
:10200000DA765A60F0BDD7F80825D7F81015C7F86A
:1020100014E5C7F80CE50068C0F808E5C0F810E55D
:10202000B4E7C1F800257CE70268054985E700BFF1
:10203000DC0800208402020000E100E00003005000
:1020400010030200F0B50379534C5B01E51887B02B
:102050002D7F3DB101F06045B5F1005F02D0102049
:1020600007B0F0BD23444C4F9E7D16B1112007B040
:10207000F0BD9A7599609E8205796D017A19137F7A
:1020800013BB0168C1F81C31D1F81C6101680496CA
:102090000126049F8E600168D2F808E0C1F81C3167
:1020A000D1F81C310593059B968A938A5768B6B27E
:1020B00001331EF806609BB29382C1F81C65002FA5
:1020C0002FD0002007B0F0BD03689168C3F82061ED
:1020D000D3F8207103680197019FC3F85861D3F8C2
:1020E000586103680296967D029FC3F84415C3F8B1
:1020F00048650368012199605368002BE1D10368AA
:1021000001E0002945D1D3F82021D3F85811002A45
:10211000F7D0002914BF0F2000202C440023A37502
:102120009EE7967D938A9BB29E4202F1140122D9CA
:10213000016804E0938A9BB2B3F5807F03D0D1F8A5
:102140001C31002BF6D0938A9BB2B3F5807FE9D087
:10215000C1F81C71D1F81C310393039BB2F814C071
:10216000938A1FFA8CFC01331EF80CC09BB2938239
:10217000C1F81CC5D6E70B889BB2B3F5807F08D0A9
:102180000268D2F81C31002BFBD00123D360002061
:10219000C3E70F20C1E700BFDC0800200279044B31
:1021A00003EB4213987D003018BF0120704700BF39
:1021B000DC08002070B59B4C237F8EB0002B75D1BE
:1021C000994AD2F80413890548D4974BD3F80423CD
:1021D000520704D5D3F80821002A40F0CA80924B58
:1021E000D3F81C21C2B1A28AA07D8E4992B282424C
:1021F0004FF00002C3F81C2180F0A980D3F81C2105
:102200000692069A888A8A8A8D6880B20132285C92
:1022100092B28A82C3F81C05834BD3F84421DAB109
:102220000022C3F84421D3F84411A27E04910499FA
:10223000002A40F08980E27D7A4B6AB10022587E04
:10224000D968DA7501228DF830000B918DF82820BD
:102250000AA893E8060090470EB070BDD2F824118A
:102260000029B2D0C2F82431D2F82411A37E0791FC
:102270004FF401710798C2F808130BB9012353609A
:10228000694A02238DF82830D2F88034C2F88034AD
:10229000E07DE2680D9300238DF83000E37523762E
:1022A00021680B9263680AA8984798E75E4BD3F8B9
:1022B0002421002A40F09380D3F8101161B1C3F8B3
:1022C0001021D3F8101103910399D3F83C15E07D48
:1022D000C9B2884200F0AA80534BD3F84421B2B16E
:1022E0000022C3F84421D3F84411E07D0191019903
:1022F0004C4960B1D3F83C35C8688DF830300123C3
:10230000CA750B908DF828300AA80AC99847464B21
:10231000D3F82021002A9FD00022C3F82021D3F82F
:102320002011A07D009100993E49002894D0D3F857
:102330004C058B688DF830008A750B938DF828203A
:102340000AC90AA8984787E701221A6073E7D3F8F9
:102350001C310593059B00283FF45EAF8B688DF818
:1023600030008A750B938DF828200AC90AA898476F
:1023700052E7E17D2B4A002970D00021C3F80811F3
:10238000D3F8081108910899D068517ED3F8183510
:102390004354537ED17D0133DBB25376627E214BB1
:1023A0008A427FF41CAF1A7E002A6DD19B7E13B93E
:1023B0001D4B01225A601C4AE06863684FF40171AA
:1023C000C2F80813627E8DF83020002501220B90A0
:1023D0002168E5758DF828200AA89847FFE60022B5
:1023E000C3F82421D3F82411029102218DF828107A
:1023F0000299D3F88014C3F880140D91D3F83C15DA
:10240000E368E27522768DF830100B9321686368DB
:102410000AA89847044BD3F84421002A3FF477AF29
:102420005EE700BFDC08002000200040217EF1B103
:10243000D3F80062E17526F02001E568C3F80012C8
:1024400026698DF8300001238DF828302276216826
:102450000B95E66063680AA898473DE7C3F8081142
:10246000D3F808210992099AD3F8183596E7E2685B
:10247000E17501238DF830008DF828300B9294E837
:102480000A000AA8984727E7DE685D7E1869DA75B2
:1024900001210022D8601A765A768DF828100B9602
:1024A0008DF8305093E806000AA8904797E600BFE1
:1024B000114B124910B5012203201A70FEF7C8F91A
:1024C0000F48104C00F018FA0D4A0F4983B2032050
:1024D000FEF70AFA237803B910BD0C490320FEF772
:1024E000B7F9204600F008FA224683B206490320D5
:1024F000BDE81040FEF7F8B904090020683200007A
:102500006C000020FC08002088320000943200009B
:10251000F0B587B0FEF722FB0020FEF77DF908B189
:10252000FEF73AFB3E490320FEF792F93D4B0FCBF5
:1025300002AC84E80F001D2721461C260425032435
:102540000023394A39488DF80B708DF80A608DF8F0
:1025500009508DF80840FFF7F9F908B1FEF71CFBA8
:10256000334C344F07260025072200213248FDF75F
:10257000E9FE0096304B31492C4825700722FFF7C1
:10258000C7FA08B149E020BF2378002BFBD0FEF743
:1025900027FA0028FBD1FEF7C1FA294B3A682949EE
:1025A00000BF00BF00BF00BF00BF00BF00BF00BF33
:1025B0008A422FD000BF00BF00BF00BF00BF00BFD6
:1025C00000BF00BF00BF00BF00BF00BF00BF00BF13
:1025D00000BF00BF00BF00BF00BF00BF00BF00BF03
:1025E00000BF00BF00BF00BF00BF00BF00BF00BFF3
:1025F00000BF00BF00BF00BF00BF00BF00BF00BFE3
:1026000000BF00BF00BF00BF00BF00BF00BF00BFD2
:1026100000BF00BF013BC3D1A6E7FEF7BDFAB3E799
:10262000AC32000050320000B124000060320000E3
:102630000409002074000020FC0800206C00002029
:10264000400D03000024F4000649074A074B9B1A7B
:1026500003DD043BC858D050FBDC00F013F8FDF755
:10266000FDFD00001034000000000020F0010020FB
:10267000FEE7FEE7FEE7FEE7FEE7FEE7FEE7FEE732
:10268000FEE7FEE770B45E4B1B68082B19D05D4A6D
:10269000D2F8883043F47003C2F88830BFF34F8F0C
:1026A000BFF36F8F4FF01023D3F80022002A75DBA1
:1026B000D3F80432002B71DB534B544A1A6070BCC0
:1026C0007047534B19680029E1D14FF080404FF01B
:1026D0008052C0F80C114F4BC0F81011C0F83815DB
:1026E000D2F80414C3F82015D2F80814C3F824153E
:1026F000D2F80C14C3F82815D2F81014C3F82C150E
:10270000D2F81414C3F83015D2F81814C3F83415DD
:10271000D2F81C14C3F84015D2F82014C3F844159D
:10272000D2F82414C3F84815D2F82814C3F84C156D
:10273000D2F82C14C3F85015D2F83014C3F854153D
:10274000D2F83414C3F86015D2F83814C3F86415FD
:10275000D2F83C14C3F86815D2F84014C3F86C15CD
:10276000D2F844642C4C2D49C3F870652C4D25607B
:10277000FB23C1F81835D0F8E43ED2F8581204F51E
:102780000F3423F00F0204F56D7401F00F031343AF
:102790004FF40072C0F8E43E226078E7214B01223A
:1027A000C3F80425D3F80024002AFBD04FF01023EF
:1027B00012221C49C3F80022D1F80034002BFBD0B0
:1027C0004FF0102312221749C3F80422D1F8002435
:1027D000144B002AFAD00022C3F80425D3F80024B1
:1027E000002AFBD0BFF34F8F06490F4BCA6802F493
:1027F000E0621343CB60BFF34F8F00BFFDE700BF24
:102800003001001000ED00E0740000200090D003C3
:102810003401001000C000408C56004000F0004021
:102820004881030000E001400400FA05034B1B68E7
:10283000186A034B002808BF184670476000002044
:102840007800002008B5034B1868FFF7EFFFD0F8B9
:10285000EC0008BD6000002082B001B901A93AB1C6
:1028600043B113780B601278101C18BF012003E0ED
:10287000104601E06FF0010002B0704710B5431E32
:102880000A44914204D011F8014B03F8014FF8E7D4
:1028900010BD00000CB430B5164B0C1E9DB01D6869
:1028A00004DA8B232B604FF0FF301EE04FF40273ED
:1028B000ADF8143014BF04F1FF332346049307939B
:1028C0004FF6FF7302900690ADF81630209A21ABB8
:1028D00002A92846019300F07DF8431CBCBF8B235E
:1028E0002B6014B1029B00221A701DB0BDE830406D
:1028F00002B0704760000020034613F8012B002A45
:10290000FBD1181A0138704749B1FF2A85BF8A23C5
:1029100003600A704FF0FF3098BF012070470846EF
:1029200070472DE9F0478E689E4282460C469146DC
:1029300098463ED88A8912F4906F3AD02568096982
:102940006F1A6569022305EB450595FBF3F57B1CC2
:1029500043449D4238BF1D4653050FD5294600F01C
:1029600089FB064698B13A462169FFF787FFA3899C
:1029700023F4906343F08003A38113E02A4600F020
:10298000D7FB064670B92169504600F025FB0C23A1
:10299000CAF80030A38943F04003A3814FF0FF3011
:1029A000BDE8F087266165613E44ED1B2660A560A9
:1029B0004646464528BF464632464946206800F00E
:1029C000EFFAA3689B1BA36023681E4426600020C7
:1029D000BDE8F0872DE9F04F9DB0804603938B89C9
:1029E0001C060D4616460DD50B695BB9402100F05B
:1029F00041FB2860286118B90C23C8F80030CDE0ED
:102A000040236B610023099320238DF82930DFF8E0
:102A10009CB130238DF82A3037463C4614F8013BF0
:102A20001BB9B7EB060910D003E0252BF9D02746D8
:102A3000F3E74B46324629464046FFF772FF013026
:102A400000F0A780099B4B4409933B78002B00F0D2
:102A5000A08000234FF0FF32049307930592069362
:102A60008DF853301A930126052221784E4800F044
:102A700047FA671C049B38B14B4A801A06FA00F0EB
:102A8000184304903C46EFE7D90644BF20228DF856
:102A900053201A0744BF2B228DF8532022782A2A6C
:102AA00003D0079A00210A200BE0039A111D126837
:102AB0000391002A10DA524243F002000792049078
:102AC0000BE0274601343B78303B092B03D800FB51
:102AD00002320121F5E701B107923B782E2B1ED17E
:102AE0007B782A2B0AD1039B1A1D1B680392002BAB
:102AF000B8BF4FF0FF330237059310E00023059372
:102B0000781C19460A24074601303A78303A092AD7
:102B100003D804FB01210123F5E703B1059103224A
:102B20003978224800F0ECF940B14023CBEB0000AB
:102B300003FA00F0049B18430490013739781C48CD
:102B40008DF8281006227E1C00F0DAF988B1194BA6
:102B500033B9039B073323F007030833039314E0CF
:102B600003AB00932A46144B04A94046AFF3008000
:102B700007E003AB00932A460F4B04A9404600F040
:102B800093F8B0F1FF3F824603D0099B5344099369
:102B900042E7AB895B0601D4099801E04FF0FF30B2
:102BA0001DB0BDE8F08F00BFCF330000D53300006B
:102BB000D933000000000000232900002DE9F04770
:102BC00091461F460A698B68DDF820809342B8BFA2
:102BD0001346C9F8003091F8432006460C4612B15E
:102BE0000133C9F800302368990642BFD9F8003094
:102BF0000233C9F80030256815F0060510D104F13C
:102C0000190A07E00123524639463046C0470130D1
:102C10001AD00135E368D9F800209B1A9D42F1DBF8
:102C200094F843302268003318BF012392060FD571
:102C3000E1185A1C302081F84300224494F84510D2
:102C400082F84310023303E04FF0FF30BDE8F08715
:102C500004F1430239463046C0470130F4D02268BF
:102C6000D9F80050E36802F00602042A08BF5D1B91
:102C70002269A3680CBF25EAE57500259342C4BF0D
:102C80009B1AED184FF000091A344D4509D0012365
:102C9000224639463046C0470130D5D009F10109F6
:102CA000F3E70020BDE8F0872DE9F04317460A7EE0
:102CB00085B06E2A984606460C460C9B01F1430EE1
:102CC00000F0AE8011D8632A22D009D8002A00F083
:102CD000BB80582A40F0CA8081F84520834955E0DE
:102CE000642A1ED0692A1CD0C0E0732A00F0B0808C
:102CF00009D86F2A2ED0702A40F0B8800A6842F0B6
:102D000020020A603EE0752A24D0782A3AD0ADE04D
:102D10001A6801F14205111D1960136884F84230E8
:102D2000A8E021681A6811F0800F02D0111D196007
:102D300008E011F0400F02F10401196002D0B2F96D
:102D4000003000E01368002B3CDA2D225B4284F84F
:102D5000432037E021681A6811F0800F02D0111D5E
:102D6000196007E011F0400F02F10401196001D071
:102D7000138800E01368227E5C496F2A14BF0A2280
:102D800008221BE078225A4984F8452022681868F6
:102D900012F0800F00F104051D6003D1550601D526
:102DA000038800E00368D00744BF42F0200222609D
:102DB0001BB9226822F0200222601022002084F831
:102DC000430001E049490A226568A560002D08DB3F
:102DD000206820F0040020602BB9002D7DD17546BD
:102DE0000CE0002B79D07546B3FBF2F002FB1033F8
:102DF000CB5C05F8013D03460028F5D1082A0BD12C
:102E00002368DA0708D5236962689A42DEBF302357
:102E100005F8013C05F1FF35C5EB0E0323612EE0FB
:102E200008681A68496910F0800F03D0101D1860F7
:102E3000136808E010F0400F02F1040018601368F6
:102E400001D0198000E0196000232361754616E067
:102E50001A68111D1960156862680021284600F083
:102E60004FF808B1401B6060636804E004F142055C
:102E700084F8422001232361002384F84330CDF8F5
:102E800000803B4603AA21463046FFF797FE0130FB
:102E900002D14FF0FF3026E023692A4639463046FA
:102EA000C0470130F5D023689B0710D5002504F1F9
:102EB000190907E001234A4639463046C047013028
:102EC000E7D00135E368039A9B1A9D42F2DBE06884
:102ED000039B9842B8BF184605E00B7884F842304F
:102EE00004F142058AE705B0BDE8F083E033000055
:102EF000F1330000000000000000000000000000AE
:102F000001F0FF01102A2BDB10F0070F08D010F89A
:102F1000013B013A8B422DD010F0070F42B3F6D19E
:102F2000F0B441EA012141EA014122F007047FF0B7
:102F300000070023F0E80256083C85EA010586EA0E
:102F4000010685FA47F5A3FA87F586FA47F6A5FA4A
:102F500087F68EB9EED1F0BC01F0FF0102F0070256
:102F600032B110F8013B013A83EA010313B1F8D101
:102F70000020704701387047002D06BF35460338E2
:102F8000073815F0010F07D1013015F4807F02BF1B
:102F9000013015F4C03F0130F0BC0138704700BF6C
:102FA000884210B501EB020301D8421E0BE09842A3
:102FB000FBD28118D21AD34204D013F8014D01F884
:102FC000014DF8E710BD994204D011F8014B02F809
:102FD000014FF8E710BD000038B50546002946D07E
:102FE00051F8043C0C1F002BB8BFE41800F0D6F8D1
:102FF0001F4A1368114613B96360146032E0A3429C
:103000000ED92268A018834204BF18685B68636009
:1030100004BF121822600C6024E0A24203D81346B9
:103020005A68002AF9D118681918A1420BD12168F1
:10303000014458188242196014D1106852685A60CD
:10304000014419600EE002D90C232B600AE02168CC
:103050006018824204BF10685268626004BF091899
:1030600021605C602846BDE8384000F098B838BD63
:103070000C09002070B5CD1C25F0030508350C2D7A
:1030800038BF0C25002D064601DBA94202D90C23CE
:10309000336046E000F082F8234B1C681A46214654
:1030A000A1B10B685B1B0ED40B2B03D90B60CC18A2
:1030B000CD501EE08C420DBF63684B6863601360A7
:1030C00018BF0C4615E00C464968E9E7174C236821
:1030D0001BB9304600F052F820602946304600F017
:1030E0004DF8431C18D0C41C24F00304A0420DD199
:1030F0002560304600F053F804F10B00231D20F04A
:103100000700C31A0ED05A42E25070BD211A304651
:1031100000F034F80130EBD10C233360304600F07E
:103120003EF8002070BD00BF0C09002008090020F7
:10313000F8B5074615460E4621B91146BDE8F840D8
:10314000FFF798BF1AB9FFF747FF2846F8BD00F010
:1031500027F885420ED929463846FFF78BFF0446EB
:1031600050B131462A46FFF789FB31463846FFF712
:1031700033FF01E03046F8BD2046F8BD38B5064CB7
:10318000002305460846236000F014F8431C02D1D2
:10319000236803B12B6038BD1409002070477047C5
:1031A00051F8040C0028BEBF091851F8043CC0189F
:1031B00004387047044A05491368002B08BF0B46C2
:1031C00018441060184670471009002018090020A4
:1031D000F8B500BFF8BC08BC9E467047F8B500BF04
:1031E000F8BC08BC9E46704700000020FFFFFFFFB0
:1031F000FFFFFFFFFFFFFFFFFFFFFFFF00000000DB
:10320000000000000000D601070100005B253038F7
:10321000645D00004F766572666C6F770D0A000082
:103220000D0E0F103A4552524F523A466174616C7E
:103230000D0A00003A494E464F3A486974207765B6
:10324000616B2068616E646C65720D0A000000009D
:10325000FFFFFFFF07FF000000000040000000002C
:1032600000300040030001004150503A494E464FA3
:103270003A5472616E7366657220636F6D706C652F
:103280007465642E0D0A00004150503A494E464F75
:103290003A0D0A004150503A494E464F3A20526585
:1032A0006365697665643A200D0A00004150503A22
:1032B000494E464F3A535049206578616D706C65B0
:1032C0000D0A00004300504F534958002E000020C3
:1032D00020202020202020202828282828202020C6
:1032E0002020202020202020202020202020208876
:1032F00010101010101010101010101010101004DA
:103300000404040404040404041010101010101029
:10331000414141414141010101010101010101011D
:103320000101010101010101010110101010101033
:1033300042424242424202020202020202020202ED
:103340000202020202020202020210101010200009
:10335000000000000000000000000000000000006D
:10336000000000000000000000000000000000005D
:10337000000000000000000000000000000000004D
:10338000000000000000000000000000000000003D
:10339000000000000000000000000000000000002D
:1033A000000000000000000000000000000000001D
:1033B000000000000000000000000000000000000D
:1033C00000000000000000000000000000000023DA
:1033D0002D302B2000686C4C006566674546470021
:1033E000303132333435363738394142434445463B
:1033F00000303132333435363738396162636465D1
:0834000066000000000000005E
:0834080054CEFF7F010000001B
:1034100000000000000000000000000000000000AC
:10342000000000000000000000000000000000009C
:10343000000000000000000000000000000000008C
:10344000000000000000000000000000000000007C
:10345000000000000000000000000000000000006C
:10346000000000000000000000000000000000005C
:103470000000002000200040000000004E6F726439
:10348000696300000090D0034300000000000000CA
:10349000000000000000000000000000000000002C
:1034A00000000000000000004300000000000000D9
:1034B000000000000000000000000000000000000C
:1034C00000000000000000004300000000000000B9
:1034D00000000000000000000000000000000000EC
:1034E0000000000000000000430000000000000099
:1034F00000000000000000000000000000000000CC
:103500000000000000000000430000000000000078
:1035100000000000000000000000000000000000AB
:103520000000000000000000430000000000000058
:10353000000000000000000000000000000000008B
:103540000000000000000000430000000000000038
:10355000000000000000000000000000000000006B
:1035600000000000000000000929000059280000A8
:1035700000000000CE320000CC320000D433000046
:10358000D4330000D4330000D4330000D43300001F
:10359000D4330000D4330000D4330000D43300000F
:1035A000FFFFFFFFFFFFFFFFFFFFFFFFFFFF000029
:1035B00001004153434949000000000000000000A1
:1035C00000000000000000000000000000000000FB
:1035D0000000415343494900000000000000000082
:1035E00000000000000000000000000000000000DB
:1035F00000000000250200000102000000000000A1
:04000003000026498A
:00000001FF
