:100000000000042079180000A1180000A3180000C7
:10001000A5180000A7180000A918000000000000A3
:10002000000000000000000000000000AB1800000D
:10003000AD18000000000000AF180000B11800006B
:10004000690A00004525000049230000B31800009C
:10005000B3180000B3180000B3180000B318000074
:10006000A1510000B3180000B3180000B31800003D
:10007000B3180000B3180000B3180000B318000054
:10008000B3180000B3180000B3180000B318000044
:10009000B3180000B3180000B3180000B318000034
:1000A000B3180000B3180000B3180000B318000024
:1000B000B3180000B31800000000000000000000AA
:1000C000B3180000B3180000B3180000B318000004
:1000D000B3180000B3180000B3180000B3180000F4
:1000E000B3180000B3180000B3180000B3180000E4
:1000F00000000000B3180000000000000000000035
:1001000000000000000000000000000000000000EF
:1001100000000000000000000000000000000000DF
:1001200000000000000000000000000000000000CF
:1001300000000000000000000000000000000000BF
:1001400000000000000000000000000000000000AF
:10015000000000000000000000000000000000009F
:10016000000000000000000000000000000000008F
:10017000000000000000000000000000000000007F
:10018000000000000000000000000000000000006F
:10019000000000000000000000000000000000005F
:1001A000000000000000000000000000000000004F
:1001B000000000000000000000000000000000003F
:1001C000000000000000000000000000000000002F
:1001D000000000000000000000000000000000001F
:1001E000000000000000000000000000000000000F
:1001F00000000000000000000000000000000000FF
:1002000010B5054C237833B9044B13B10448AFF350
:1002100000800123237010BDF802002000000000C0
:1002200010130100084B10B51BB108490848AFF383
:1002300000800848036803B910BD074B002BFBD0B2
:10024000BDE81040184700BF00000000FC0200207D
:1002500010130100F002002000000000154B002BDD
:1002600008BF134B9D46A3F5803A00218B460F46ED
:100270001348144A121A00F065F80F4B002B00D0F7
:1002800098470E4B002B00D0984700200021040017
:100290000D000D48002802D00C48AFF3008000F09C
:1002A0002BF82000290001F0A3F800F011F800BF9E
:1002B0000000080000000420000000000000000012
:1002C000F80200204037002000000000000000007D
:1002D00008B5074B044613B10021AFF30080054B6E
:1002E0001868836A03B19847204600F033F800BFCE
:1002F0000000000060EA000070B50E4B0E4CE41ADE
:10030000A41000251E46A54204D056F82530984773
:100310000135F8E70EF098FB084C094BE41AA410DD
:1003200000251E46A54204D056F8253098470135D1
:10033000F8E770BDE8020020E8020020EC0200208F
:10034000E802002002440346934202D003F8011B56
:10035000FAE77047FEE700BFF0B51746C7B01C4686
:10036000B9B106AE0B68604A30464FF480710DF0AB
:1003700085FE00280ADB4C9B0546062B00F2B28066
:10038000DFE803F012323B4653637500002047B0AC
:10039000F0BD4C9B062B00F2A380DFE803F0048B3A
:1003A00090957C818600002538460DF0A1FE43190A
:1003B000FF2B044640F28D80002CE7DB2C44B4F583
:1003C000807FE3D80A27002506AE22467119002057
:1003D00001F064F90544241A08B9013F01D0002C4A
:1003E000F3D1012047B0F0BDC0F5807123683A46D3
:1003F00070190DF043FE0446DEE7C0F580716268B7
:100400002368009270193A460DF038FE0446D3E78F
:10041000C0F58071A2682368646800940192701925
:100420003A460DF02BFE0446C6E7C0F58071E2683F
:100430002368D4F808E0646802928DE810403A46D8
:1004400070190DF01BFE0446B6E7C0F580712069F7
:10045000E26823680390D4F808E0646802928DE8AB
:1004600010403A4670190DF009FE0446A4E7C0F5A5
:1004700080716269206923680492E2680390D4F86D
:1004800008E0646802928DE810403A4670190DF059
:10049000F5FD044690E74FF48071002506AEC6E7EF
:1004A0004FF48071002506AED1E74FF4807100252E
:1004B00006AEDEE74FF48071002506AE96E74FF4F6
:1004C0008071002506AE9AE74FF48071002506AED4
:1004D000A0E706AE3946701922460DF062FD6BE7C3
:1004E00000246FE7002469E764EA00002DE9F04F7B
:1004F0001446C7B01D46002900F02381002B00F0F0
:1005000004810A2302934FF0000B06AF519B539ACC
:10051000134420261C4602990BEB0103049331334C
:10052000FB18039307EB0B031A460193002965D0D0
:10053000534203F003038B4228BF0B46062900F207
:10054000DB800B46019907F80B600A46012B02F18C
:10055000010200F0CF80022B4E7001F1020200F088
:10056000C980032B8E7001F1030200F0C3800A469C
:10057000042BCE7002F1040200F0BC80062B0E7139
:1005800001F1050240F0BE804E718A1D9846029925
:1005900099422ED00298C3EB0009A9F1040100F1A1
:1005A000FF3E8908C3EB0E0E0131BEF1020F4FEA88
:1005B000810C12D95B444FF0203E012907EB030B5D
:1005C00047F803E005D00229CBF804E001D0CBF8CE
:1005D00008E0E1456244E0440BD00299167008F14E
:1005E00001038B4205D208F102008842567000D206
:1005F0009670019B029A134401931A46039B059738
:1006000002F1330A274602F1030B544603F10109B4
:10061000DDF844A10DE00BF8036C0BF8026C0BF84D
:10062000016C0BF1030BA34509F8016C09F10109F9
:100630002FD0AF42EFD9AA4556D9509B13F8058069
:100640000BF8016C4FEA28105FFA80FE092808F0C9
:100650000F00D4BF0EF1300E0EF1370E092894BFF3
:10066000303037300BF803EC0BF8020C0DF06EFC59
:1006700040440BF1030B407810F0970F08BF4FF088
:100680002E08A34509F8018C05F1010509F10109BE
:10069000CFD1049B039903F1430A019B3C460D22F1
:1006A0004FF00A0B059F0A7481F811B0A14683F838
:1006B00030604FF000085446224607EB0801002046
:1006C00000F0ECFF8044241A10B9BBF1010B01D0FB
:1006D000002CF1D14D454C464FF0000BFFF41BAF01
:1006E000284647B0BDE8F08FCAEB0500529B13F8CF
:1006F0000080A5E798464AE7002B7FF423AF019AD4
:10070000984647E74FF0050841E706AF0B68114AE6
:1007100038464FF480710DF0B1FC0028E0DB0A236D
:100720000646029320460DF0E3FCC22828BFC220F3
:10073000834602462146B8190DF033FC0025B34428
:10074000E4E61BB902952E4606AFEBE702918B4615
:1007500006AFDBE664EA000070B5074D074E2B7864
:1007600013B13378834205D0044601F055F80123D4
:1007700034702B70002070BD15030020140300207E
:10078000004870475903000000487047ED0400001E
:1007900038B50120FFF7E0FF044638B9FFF7F0FF56
:1007A0000546FFF7F1FF024B5D619861204638BDB9
:1007B00018030020704700BF10B5054C82B000231D
:1007C0000A46646900931946A04702B010BD00BFF5
:1007D0001803002030B585B004AB054C43F8042D58
:1007E00001250A46646900950021A04705B030BD87
:1007F0001803002070B586B0064C0A9E03920325AC
:1008000004930A4664690596009503AB0021A0474E
:1008100006B070BD1803002000B585B0002303901A
:10082000194601AA44F20100ADF80430029300F029
:1008300003F805B05DF804FB08B50A490120FFF78D
:10084000BBFF09490320FFF7B7FFBFF34F8F0749ED
:10085000074BCA6802F4E0621343CB60BFF34F8FCB
:1008600000BFFDE76CEA00007CEA000000ED00E05C
:100870000400FA0572B6024A136801331360704728
:1008800034030020034A1368013B136003B962B6C6
:10089000704700BF3403002000B583B06A46ADF84E
:1008A0000000019144F202000021FFF7C5FF03B0F0
:1008B0005DF804FB704700BF0C4B0D4901221A6024
:1008C0000B680B4A002BFBD010B40A48074B0124DD
:1008D0000021046083B0116012680192019AD3F87C
:1008E0000805C0B203B05DF8044B704700D000406B
:1008F00000D1004004D0004000F01AB910B50C46F9
:1009000000F062F921462046BDE8104000F02CB905
:1009100010B50D4C23780BB1852010BD0B4A6360D8
:10092000E3601068A36010F00100236107D04FF06E
:1009300080420123C2F818352370002010BD072122
:1009400000F0CEF8F3E700BF3803002000E100E03C
:1009500030B51B4DAB7883B0044673B110B143681A
:10096000012098470020FFF785FFEB680020013346
:10097000EB60FFF787FF03B030BD03F0FF00FFF728
:1009800079FF64B12A6942B1944208D0134601E06C
:100990009C4204D01B68002BFAD122602C61EB68CA
:1009A000002BE2D1074A08491360136801934FF006
:1009B000804202200123019CC2F804030B60D4E7AB
:1009C0003803002004010040080000404FF080433D
:1009D000D3F81804C0F30040704700BF30B51A4D7B
:1009E0006B7883B0044673B110B143680020984718
:1009F0000020FFF73FFF6B68002001336B60FFF7BB
:100A000041FF03B030BD03F0FF00FFF733FF64B1D7
:100A1000AA6842B1944208D0134601E09C4204D037
:100A20001B68002BFAD12260AC606B68002BE2D10E
:100A3000064A1360136801934FF080430122019925
:100A4000C3F804231A60D6E73803002000010040F1
:100A50004FF08043D3F80C0400F00110A0F1011016
:100A6000B0FA80F04009704710B51A4B1A6882B08E
:100A7000A2B100221A601B6800934FF0804301224C
:100A8000154C0099C3F80823A368627033B10CCBEE
:100A90000020A2609847A368002BF8D10F4B1A687A
:100AA000AAB100221A601B6801934FF08043022212
:100AB000094C0199C3F8082323690122A27033B1BC
:100AC0000CCB0120226198472369002BF8D102B09A
:100AD00010BD00BF000100403803002004010040A9
:100AE000002810B418DB00F1604303F561434901AD
:100AF000C9B283F80013C3B24009800000F160401E
:100B000000F5614003F01F0201239340C0F88031DB
:100B100003605DF8044B7047C3B2044A03F00F044E
:100B200049012244C9B21176E6E700BFFCEC00E0BF
:100B300030B4084B0848094C09490A4A036003F1DC
:100B4000100503F1200008602560C2F8043501207B
:100B500030BC704750030020800300208403002035
:100B60004C03002000E0004010B5144B1B688B4282
:100B7000044603D0184610220DF013FA104B002241
:100B80000121C3F800214FF080701A46196001E07E
:100B9000013812D0D2F800310949002BF8D00022D8
:100BA000084BC1F800211968A14205D02046102247
:100BB0000DF0F7F9012010BD012010BD84030020C5
:100BC00000E000404C030020024B01461022186850
:100BD0000DF0E7B98003002008B42DE9F041C7B05B
:100BE0000024DDF83481069407460E46154621465A
:100BF000FC2207A8FFF7A6FB0394B8F1000F37D03B
:100C00004EA80346039042464FF4807106A80DF0AB
:100C1000A3FAFF2802D90320FFF7FEFD06A8FFF77D
:100C2000C9FD154902460320FFF7D4FDE7B1DDB148
:100C30003846FFF7BFFD04462846FFF7BBFD2246B6
:100C4000009033460D490120FFF7D4FD04AA00218E
:100C500044F20200ADF810600595FFF7EDFD47B0D6
:100C6000BDE8F04101B070470E20FFF7D5FDDFE78A
:100C70000E20FFF7D1FDC3E7CCEA000098EA0000A0
:100C8000024B53F820300846184700BFB0EB000075
:100C9000024B53F820300846184700BF38EB0000DD
:100CA000024B5878B0FA80F0400970479407002052
:100CB000034A044B10681B68C01A18BF0120704714
:100CC000A0070020A4070020014B1878704700BF40
:100CD00064000020014B1878704700BF65000020B9
:100CE0004FF0A0434FF400510022C3F80C15C3F895
:100CF00008257047014B01221A70704765000020DB
:100D000028B10268024B1188927819809A70704756
:100D1000A807002070B403680F4D93F820200F4CF3
:100D2000243393E8030085B02B688DF80C2001AACA
:100D300082E8030007CA03EB43060133412B2B6013
:100D400004EB860408BF002384E8070008BF2B607B
:100D500005B070BC704700BFA407002094030020BA
:100D60000268034B92E8030083E80300704700BF6A
:100D70009407002010B5114A11481368591C4129E5
:100D800008BF0021116003EB43030E4A9B00D418F7
:100D9000D158227A0131013A01F04EF8204601F093
:100DA000E2FF4FF0A043084800224FF400410270D8
:100DB000C3F80C15C3F8082510BD00BFA00700201C
:100DC000A0000020940300206500002010B50D4C09
:100DD0000D4994F820200D480DF0E3F894F82830E0
:100DE0000B490133204684F8283001F079FE4FF09A
:100DF000A0434FF480410022C3F80C15C3F8082526
:100E000010BD00BFB007002048070020C606002024
:100E10004D110000F8B52D4D2D4800242C7000F028
:100E2000F9FF4FF0A0434FF480414628C3F808155E
:100E3000C3F80C4505D80246002843D101232B7086
:100E4000F8BD472425464622224E2148711C00F059
:100E5000A9FF3046012220490DF0A3F82A46314669
:100E60001E480DF09EF81E4B1E4993F8292093F85A
:100E700028505E6242F001020B2602F0FD026FF381
:100E8000820283F820401E8341F2342E1846022647
:100E900000240135052783F82920A3F816E083F8FC
:100EA000285083F82A705E751E7583F82B4001F078
:100EB00017FE4FF0A0434FF48042C3F80C25C3F84F
:100EC0000845F8BD451CECB2BEE700BF6400002039
:100ED000A0000020C60600209C0700204807002034
:100EE000B00700204D11000070B5182082B003F04B
:100EF000D1F80D4C5225064600212846266002F006
:100F000043F903F0C7F82368706102A9012201F8D0
:100F1000012D5869DD730DF044F82068034902F093
:100F200089F802B070BD00BF90070020ED100000EE
:100F300070B5182082B003F0ADF80F4C502506466E
:100F400000212846266002F01FF903F0A3F8236869
:100F5000706102A941F2342221F8022DDD730222D0
:100F600058690DF01EF8206804490023037402F04C
:100F700061F802B070BD00BF90070020ED100000C6
:100F800070B5182082B003F085F8114C6025064634
:100F900000212846266002F0F7F803F07BF80AA348
:100FA000D3E9002302A961E90223236870610822C2
:100FB000DD7358690CF0F5FF2068064900230374BF
:100FC00002F038F802B070BDF9CDAB896745230156
:100FD00090070020ED10000070B5182082B003F0DB
:100FE00059F80E4C5325064600212846266002F08B
:100FF000CBF803F04FF82368706102A90A2221F8A8
:10100000022DDD73022258690CF0CBFF20680449E1
:101010000023037402F00EF802B070BD90070020A8
:10102000ED10000070B5182082B003F033F80024F2
:101030000D4D0646214620462E6002F0A5F803F02D
:1010400029F82B68706102A90F2201F8012D586957
:10105000DC731C7401220CF0A4FF2868034901F022
:10106000E9FF02B070BD00BF90070020ED10000046
:10107000094B1A780AB90120704700B583B05B7834
:101080000093064A064B074840F20911FFF7A4FDFA
:10109000002003B05DF804FBA807002098EB0000D7
:1010A00078EB0000ACEB000030B583B000F010FA34
:1010B00002AC0C4A0025137844F8045D43F0400369
:1010C0002046137000F0CAFC074A1368294643F013
:1010D00008030720136002F083FE204600F0C3FCE3
:1010E00003B030BD900300203837002070B582B0C7
:1010F00002AA1349134D0B78144642F8080D43F029
:101100000203104600260B70FFF7FAFD44F8046D49
:10111000204600F0A3FC0C4A1368314643F0080354
:101120000720136002F05CFE204600F09CFC2B6858
:10113000586903F065F8286803F062F802B070BDE2
:1011400090030020900700203837002030B583B08E
:10115000437800901BB9144A137801331370134A73
:10116000137802AC43F00803002568461370FFF7BC
:10117000F7FD44F8045D204600F070FC0C4A13684B
:10118000294643F008030720136002F029FE204699
:1011900000F069FC4FF0A0434FF48042C3F80825EB
:1011A000C3F80C5503B030BD9C070020900300200D
:1011B0003837002008B50549054802F09FFE05496B
:1011C000054A00230B60136008BD00BF4CEB000014
:1011D00088030020A0070020A407002030B5114C90
:1011E000114D237855F8205001228240134383B0DB
:1011F00023700DB10846A84702AC002544F8045DF1
:10120000204600F02BFC094A1368294643F00803E6
:101210000720136002F0E4FD204600F024FC03B038
:1012200030BD00BF900300205CEB00003837002089
:1012300030B5364C2378D80783B05DD4990751D4A4
:101240005A0745D41D0739D4D8062DD4990621D480
:101250005A0615D493B102AC002544F8045D20462B
:1012600000F0FCFB2A4A1368072043F008032946D4
:10127000136002F0B5FD204600F0F5FB03B030BD71
:1012800083F04003002206212248237002F078FEFA
:101290002378DFE783F02003002205211D48237017
:1012A00002F06EFE2378D3E783F0100300220421BE
:1012B0001848237002F064FE2378C7E783F0080320
:1012C000002203211348237002F05AFE2378BBE763
:1012D00083F00403002202210E48237002F050FE26
:1012E0002378AFE783F0020300220121094823702D
:1012F00002F046FE2378A3E7002283F001031146A3
:101300000448237002F03CFE237897E79003002006
:1013100038370020880300204FF0A0434FF480317D
:101320000022C3F80C15C3F8082570474FF0A043FE
:101330004FF480310022C3F80815C3F80C2570471C
:10134000F0B50369234A244D23F47F43934285B0CB
:101350000446297805D004F1240001F004FD05B00D
:10136000F0BD038B0A2BF6D1828841F234239A42D6
:10137000F1D18378022BEED103890B2BEBD1436A99
:101380001E78B1421DD094F82030002BE3D0134FCB
:101390003B785BB90131C9B2B14207D0711A0091F3
:1013A0000F4B104A10485C21FFF716FC04A90023DC
:1013B00041F8044D02202E703B70FFF70FFF05B07F
:1013C000F0BD064F3B78002BC5D094F82030002BA1
:1013D000ECD1C0E702003412F007002080000020AA
:1013E000DCEB0000F8EB00000CEC0000FFF720BF86
:1013F00030B583B001F0EEF90020FFF7C9F90028FD
:1014000058D12E490320FFF7D7F94FF0A04500230C
:101410004FF4F031032403E0D20748BF45F82040E1
:101420000133202B41FA03F203F5E070F4D14FF0C1
:10143000A0434FF4F0320024C3F808254FF40051C4
:10144000C3F80C451E4802F0C7FD1E4802F0B0FC70
:1014500002AD1D4802F0ACFC00F00CF9FFF7AAFE4B
:1014600021462046FFF7BAFE45F8044D284600F015
:10147000F5FA164A1368214643F008030720136063
:1014800002F0AEFC284600F0EEFAFFF741FA2046E3
:10149000FFF7A4FAFFF7DCFA0028FBD00020FFF7E3
:1014A00057FAFFF793FA0028FBD003F053FA03F042
:1014B00051FAFAE7FFF7B0F9A3E700BF2CEC000000
:1014C000F407002068000020740000203837002056
:1014D0002DE9F041A4B024AA4FF0010802F8898D4B
:1014E00000214FF05D0001F005FF1AA801F0C6FFD2
:1014F0001CA801F0C3FF1EA8002401F0BFFF0522B5
:1015000037498DF83D400DA80CF04BFD23460BA943
:101510001AA8822202F04CF89DF811508DF8104064
:1015200005F0FD0545EA0805234602A91CA883220B
:101530008DF811508DF80C4002F03AF89DF81C50CF
:1015400068F30205234664F3C60505A91EA8842294
:101550008DF81C5002F02CF81022224920A80CF023
:1015600020FD18AA21464FF0710001F0C3FEBDF81E
:1015700028301694052262F3C91317A7D7E900672C
:101580001A4668F30202C3F3072343F0040341F24F
:10159000342E21468DF828200B2510AA4FF0730019
:1015A0008DF82930ADF848E08DF85C40CDE914673E
:1015B000ADF84A5001F09EFE214608AA4FF0750092
:1015C00001F098FE21464046FFF708FE24B0BDE832
:1015D000F08100BFAFF30080FACDAB8967452301EE
:1015E00088EC00004CEC000000B583B090F820308F
:1015F0000093044A044B05488A21FFF7EDFA03B033
:101600005DF804FB70EC00005CEC0000ACEB00004B
:1016100000210420FFF7E2BD08B500210520FFF7F7
:10162000DDFD4FF0A0434FF400410022C3F8081540
:10163000C3F80C2508BD00BF4FF0A0434FF4803025
:101640000022C3F80C05C3F8082501B9704700B59E
:1016500083B0054B0091054A05486921FFF7BCFAA4
:1016600003B05DF804FB00BF90EC0000ACEC0000A0
:10167000C0EC0000F0B4074E074F35460FCD3C4696
:101680000FC495E8070084E8070039463046F0BCEF
:1016900000F00ABB84000020A00000202DE9F84FD4
:1016A0004300DFF870A11E180AEBC6068846F16AEF
:1016B0000129174641D031D3022939D1013000EB3D
:1016C0004000756A4FEAC0094FF0000B1CE0326A17
:1016D000641BBC420AEB09012346A2EB050428BFA8
:1016E0003B469C42486828BF1C4628444146224647
:1016F0000CF057FC336A25449D4208BF00253F1B70
:10170000A344A044756215D0B36AAB4203F1FF3421
:10171000DDD8326A1344013B5C1BDAE7B16A726AB6
:1017200091429CBF346A091901398A1A974236D905
:101730004FF0000B5846BDE8F88FB16A756AA942B0
:1017400027D90139326AC5EB010B03440AEBC30AFE
:10175000BB45DAF824502F4B28BFBB46561B01303F
:10176000B34500EB40003BD303EBC0043246606856
:1017700041462844C6EB0B050CF013FC606808EBEF
:1017800006012A460CF00DFCCAF824505846BDE864
:10179000F88F326A8C18013CC5EB040BD5E7034483
:1017A0000AEBC30A0130DAF82460DAF82040194B5A
:1017B000A41BA74200EB40001ED303EBC00522464A
:1017C0006868414630443E1B0CF0EBFB686808EB50
:1017D000040132460CF0E5FBBB46CAF82460A9E7D9
:1017E00003EBC003414658685A4628445D440CF058
:1017F000D8FBCAF824509DE703EBC0034146586864
:101800003A4630443E440CF0CCFBBB46CAF8246058
:1018100090E700BF042D0020F8B5114C2378F3B9F0
:10182000A362104A63620220A365E362E365636515
:101830000D4F0E4D0E49206110234FF400762365A5
:101840006061A261A264E01DE7612662E5640CF0BC
:1018500047FC084920460CF043FC2023A371F8BD47
:10186000042D0020ECEC00008429002074290020C5
:10187000F8EC0000FCEC00000649074A074B9B1AF5
:1018800003DD043BC858D050FBDC00F013F8FEF732
:10189000E5FC00001C13010000000020F8020020FD
:1018A000FEE7FEE7FEE7FEE7FEE7FEE7FEE7FEE710
:1018B000FEE7FEE770B45E4B1B68082B19D05D4A4B
:1018C000D2F8883043F47003C2F88830BFF34F8FEA
:1018D000BFF36F8F4FF01023D3F80022002A75DB7F
:1018E000D3F80432002B71DB534B544A1A6070BC9E
:1018F0007047534B19680029E1D14FF080404FF0F9
:101900008052C0F80C114F4BC0F81011C0F83815B8
:10191000D2F80414C3F82015D2F80814C3F824151B
:10192000D2F80C14C3F82815D2F81014C3F82C15EB
:10193000D2F81414C3F83015D2F81814C3F83415BB
:10194000D2F81C14C3F84015D2F82014C3F844157B
:10195000D2F82414C3F84815D2F82814C3F84C154B
:10196000D2F82C14C3F85015D2F83014C3F854151B
:10197000D2F83414C3F86015D2F83814C3F86415DB
:10198000D2F83C14C3F86815D2F84014C3F86C15AB
:10199000D2F844642C4C2D49C3F870652C4D256059
:1019A000FB23C1F81835D0F8E43ED2F8581204F5FC
:1019B0000F3423F00F0204F56D7401F00F0313438D
:1019C0004FF40072C0F8E43E226078E7214B012218
:1019D000C3F80425D3F80024002AFBD04FF01023CD
:1019E00012221C49C3F80022D1F80034002BFBD08E
:1019F0004FF0102312221749C3F80422D1F8002413
:101A0000144B002AFAD00022C3F80425D3F800248E
:101A1000002AFBD0BFF34F8F06490F4BCA6802F470
:101A2000E0621343CB60BFF34F8F00BFFDE700BF01
:101A30003001001000ED00E0D80000200090D0033D
:101A40003401001000C000408C56004000F00040FF
:101A50004881030000E001400400FA05EFF3108321
:101A6000036072B67047036883F310887047000004
:101A7000024B1A7802B91870704700BFB82B0020CB
:101A80000148012100F07EBBAC2B002013B501A85A
:101A9000FFF7E4FF0F4C104B104801221A70694603
:101AA000224602F02FFF01A8FFF7DDFF2368FF2B7E
:101AB00084BFFF232360236853B1064B0098196845
:101AC000C9B200F0D3FA18B178200549FEF7E4FE58
:101AD00002B010BDB42B0020B92B0020982B0020A1
:101AE00004ED0000F0B585B004AC002544F80C5DB1
:101AF000064620460F46FFF7B1FF1748012330F88E
:101B00001620BB4013439BB220F81630204604AC8D
:101B1000FFF7A9FF44F8085D2046FFF79FFF0F4A33
:101B20001368204604AC43F002031360FFF79BFFE9
:101B300044F8045D2046FFF791FF094A13682946DF
:101B400043F002030720136002F04AF92046FFF732
:101B50008AFF05B0F0BD00BF3437002030370020C9
:101B60003837002070B50578012D04461DD1244B6F
:101B70009B6803B970BD0025237A9D420ED263682D
:101B80001F48595D02F034FE1E4B1D481E6B02F0CB
:101B900065FE0830864203D90135EDE7FFF770FF97
:101BA000237A63B3002001461FE0022D0DD1037B91
:101BB000012B06D1FF20FFF75BFF00202946FFF72E
:101BC00091FFBDE87040FFF75BBFC5B90E4C0F4BEE
:101BD00025700F4D1968284602F066FE95E80C0046
:101BE0009A4206D1287C20B90121BDE87040FFF758
:101BF00079BF23781BB9BDE87040FFF747BF70BDC0
:101C0000842B0020BC2B0020B92B0020B42B0020FB
:101C1000982B0020012806D0044A054B02280CBF4F
:101C20001846104670470348704700BF00509D009B
:101C300000B0AF0300E0D70170B5074B9C6A0546C2
:101C400044B1064802F00AFE234601462846BDE894
:101C50007040184770BD00BFBC2B0020842B0020B3
:101C600070B5074BDC69054644B1064802F0F6FD45
:101C7000234601462846BDE87040184770BD00BFA6
:101C8000BC2B0020982B002008B5054B5B6B13B1D3
:101C9000044A117898470020BDE80840FFF7E8BEE5
:101CA000BC2B0020B82B002070B503688AB0054615
:101CB0000C461BB1FF203349FEF7EEFDEB7D082BF0
:101CC00004D04FF480702F49FEF7E6FD287DFFF722
:101CD000A1FFAB7D0890003318BF01238DF81C30A5
:101CE0006B7D2949002B0CBF00230E238DF81D307E
:101CF000EB6804932B690593AB6803936B680293BD
:101D000003238DF8243002A800238DF8253000F03D
:101D100021F978B1009040F20D111A4A1B4B1C4872
:101D2000FEF75AFFFF20FFF7A3FE28680221FFF706
:101D3000D9FE22E00FCC174E35460FC50FCC0FC58C
:101D40000FCC0FC594E8030085E80300316A21B188
:101D50001148726A02F0EEFC01E00F4B9960F16AE3
:101D600029B10C4B0D481A6B02F0E4FC01E00B4B5F
:101D7000996000F0CFFAFFF783FE094B18780AB09C
:101D800070BD00BF04ED0000651B000071ED000098
:101D900059ED0000BC2B0020982B0020842B002044
:101DA000B82B00202DE9F041836A05460C46174602
:101DB0004BB3C36A3BB3154802F050FD0646B84228
:101DC00094BF04EB000804EB0708444505D00F4816
:101DD00002F0E2FC04F8010BF7E7B74207D92C68E0
:101DE000FE20FFF745FE20460221FFF77BFE084B51
:101DF00006481C6B02F032FD0830844203D9BDE86E
:101E0000F041FFF73DBEBDE8F08100BF842B00200C
:101E1000BC2B0020C06A10B1014802F01FBD704702
:101E2000842B002010B5034C204602F017FDE36818
:101E3000181A10BD982B002070B5036A06460C4690
:101E4000154633B9E1B94FF4A1701349FEF724FDEB
:101E50001AE0FFF7E7FFA84201D3254408E0346801
:101E6000FC20FFF705FE20460221FFF73BFE0BE0BA
:101E7000AC4209D0094814F8011B02F0B9FCF7E79D
:101E80000648134602F068FC054B1B781BB9BDE8F9
:101E90007040FFF7FBBD70BD04ED0000982B0020E3
:101EA000B92B0020074B00221A60074A938A9168D9
:101EB0009BB2C95C938A01339BB29382034BC3F8F4
:101EC0001C1570471C210040F42B0020002000400E
:101ED0001FB501238DF80030054B8DF808000191E6
:101EE0005A6819686846904705B05DF804FB00BF62
:101EF000F42B00201FB5084B8DF80800996801915C
:101F000000228DF800209A7568465A681968904733
:101F100005B05DF804FB00BFF42B00200A4B0B4911
:101F2000D87D0B4A18B90860D2F8183570470020E0
:101F30000860597ED2F81805DA6850545A7E01328A
:101F4000D2B25A76704700BFF42B0020082100401F
:101F500000200040F8B53D4C94F81BC0BCF1000FC8
:101F600072D13B4B002808BF18464FF0A0420368CF
:101F7000457F257703F5E0734FF0030E42F823E029
:101F800006680123B340C2F80835436803F5E073DF
:101F900042F823C02F4B8669C3F82465077D467D30
:101FA0003E43C3F86C6590E8C000C3F80C65C3F805
:101FB0001475067D3DB1012E1BD1876807F5E077CA
:101FC00042F827C006E0012E13D1876807F5E077B5
:101FD00042F82750C76807F5E07742F827E0C7685E
:101FE000BE40C2F80865C6688268C3F80865C3F8D1
:101FF0001025036961602360B1B1017F164A55B1B4
:10200000164800230360036143611360114B144AB7
:10201000C3F8042305E0134B1D601560124AC3F892
:10202000E821022002F0E4FF227F0A4B0AB10822D5
:1020300000E00422C3F8002500200123E07520768B
:10204000A075E376A076F8BD0820F8BDF42B00203B
:10205000D8ED000000200040442100401021004045
:10206000100302001C21004080000200F8B53D4C26
:10207000E37E012B06460F4604D040F257103A4942
:10208000FEF70AFC27B94FF4AC703749FEF704FCA1
:1020900026B940F259103449FEF7FEFB237F23B1E5
:1020A000320C1204B2F1005F57D1A27D2D4D002AEF
:1020B00055D1AF75AE60AA822C48F3B12C4B2D4997
:1020C0001A600A602C4AAF7DC2F84465C2F84875B0
:1020D0000122026068681A4618B10020F8BD002B82
:1020E00037D110680B68003318BF01230028F6D0E1
:1020F000002B0CBF00200F202CE0204E336001236A
:102100000360FFF7CFFE6B683546002BE5D1A27D5B
:10211000A38A9BB293420ED22B6823B9A38A9BB2A7
:10212000B3F5807FF8D1A38A9BB2B3F5807FEFD05F
:10213000FFF7B8FEEBE70B4B9B8A9BB2B3F5807FB2
:1021400007D02B68002BFCD00D4B01221A60002019
:1021500000E00F200023A375F8BD1020F8BD11206A
:10216000F8BD00BFF42B002083ED000008200040E4
:102170002021004058210040002000401C21004048
:102180000C20004070B55B4DEB7E012B06460C46E3
:1021900004D040F2F7105849FEF77EFB24B94FF403
:1021A000FC705549FEF778FB2B7F23B1320C1204EB
:1021B000B2F1005F1BD1686840B1504A13B14FF4CF
:1021C000047101E04FF40171C2F80813E97D494A36
:1021D00089B1117E002953D058B1484A13B14FF448
:1021E000047301E04FF40173C2F8043301E01020DE
:1021F00070BD112070BDD475D66051761176002B5C
:102200006BD1AA7E3AB933B93D4A136042F81C3CFF
:102210003A4B01221A606A685ABB3A4B1A601E4652
:10222000374B394A1B6812683068003318BF0123E6
:10223000041C18BF012412B90CB94BB9F0E73BB923
:1022400034B9FFF76BFE6B7EEA7D9A42E8D82346ED
:102250000022EA750BB1032070BD0CB10F2070BDD8
:10226000244B9A7E01230AB1244A00E0274A1360D6
:1022700004E04FF40172214BC3F80423002070BD29
:10228000166114760BB90123BBE7214B1960596322
:10229000C3F82464C3F82844D3F8F02042F02002A5
:1022A000C3F8F0206B68ABB9194B1A68586B14333C
:1022B00000301B6818BF0120003318BF012312B97A
:1022C00008B9002BF0D00022EA75002BC3D10028FA
:1022D000C4D170BD4FF40472CDE70D4B1960596342
:1022E000C3F82464C3F82844A3F5887301221A6054
:1022F000D8E700BFF42B002083ED00000020004051
:1023000024210040442100400821004004200040D6
:1023100010210040094B1A7F22B140F242200849A7
:10232000FEF7BABA9A7E42B906490A6041F81C2CF7
:10233000A1F5927101220A609A767047F42B002071
:1023400083ED000024210040F0B56B4C6B4D217FE4
:1023500085B0002958D06A490A68BAB10023022220
:102360000B608DF80020674AD2F88014C2F8801400
:102370000391D2F83C258DF80820E268E3752376B6
:10238000019263682168684698471CE05E4B1968B3
:10239000C9B15C4E1A60D6F83C35E07DDBB298429C
:1023A00011D1237E5BB1D6F80072E16827F02007D7
:1023B000C6F80072E3752369E360227601E0E16804
:1023C000E375FFF785FD2B686BB14C4B00221A605B
:1023D000E17D494B39B1DA754A4AD968D2F83C05F2
:1023E000C0B2FFF775FD494B1A68002A00F08280E1
:1023F00000221A60A37D002B7CD0424BD3F84C0501
:10240000C0B2FFF777FD75E03E4BD3F8042312F41A
:10241000007F184622D03A4A1668FEB111604FF488
:102420000172C3F80823A37E13B9394B01221A6045
:10243000344A02238DF80030D2F88034C2F8803458
:102440000393E37D8DF80830E36801930023E3757F
:102450002376684663682168984728E0D0F80433FB
:102460005B0724D52B4B1B680BB3FFF757FD627E30
:10247000E17D214B91421AD11A7E42B1DA751A6977
:10248000D968DA600022587E1A765A760DE09B7E73
:1024900013B91F4B01221A601A4B4FF40172C3F893
:1024A0000823607EE1680023E375FFF711FD1A4AF7
:1024B000136863B1A38AA07D9BB2984202D9FFF74B
:1024C000F1FC04E00023136008B1FFF713FD2B6853
:1024D00083B10A4B00221A60A37E13B1094B01227B
:1024E0001A60E27D044B2AB10022587ED968DA7561
:1024F000FFF7EEFC05B0F0BDF42B002044210040B6
:1025000024210040002000401021004020210040F4
:1025100004200040082100401C21004008B502F0C2
:1025200013FD002003F066F8054B0020FE2283F81F
:10253000CA0083F82020BDE8084001F079BB00BF45
:1025400038360020F7B59A4CD4F80C31002B00F047
:102550009F800023C4F80C3103F028F901380328C8
:1025600000F28A80DFE800F04F4F0202D4F8004406
:1025700034B9204603F03EF8204603F03FF987E0E7
:102580008C4D95F8CA3033B902F050FBD5E93623AB
:10259000801AC5F8CC0095F8C930864C03F0FF00CE
:1025A00033B1012384F8CA30002384F8C9306FE0C6
:1025B00003F020F8D4F8D4401CB978207E49FEF707
:1025C0006BF9267832061BD494F88F10D5F8CC001E
:1025D0000131C9B202F03CFF84F88F602644C4F890
:1025E000830016F8013C84F8903003EB8303DB1082
:1025F0005A3B04F8013C714804F1870102F081FF65
:1026000003F0E8F831E06B4D95F8C9302C4603F043
:10261000FF075BB14FF47370694902F047FC002378
:1026200085F8C930012385F8CA3031E095F8CA3001
:10263000D5F8D460CBB102F087FC384602F0DAFF5F
:102640005B4BD3F85C214AB1D3F8303133B1B6F8E3
:1026500001301B074CBFFC23072300E0FE2384F856
:102660002030002384F8CA3002E0072385F82030A8
:10267000002001F0DDFA0BE0D4F8504503F096F8A5
:1026800000940190DA214F484B4A4F4BFEF7A4FAD1
:10269000474BD3F82821002A00F087800027C3F891
:1026A0002871444B93F8E02002F0FF06002A46D13F
:1026B000D3F8D400427804788178C078C2F3401708
:1026C00002F00502012AE4B283F8C97018BF83F84A
:1026D000C960052C98BF0022C1F3011598BF83F88B
:1026E000C920012D84BF002283F8C92093F8C94076
:1026F0002F4AC1F38101FCB1022903D004D8B9B932
:10270000302102E0402100E07021C2F860152F4A1C
:1027100005211170D07051781221517091780021EB
:1027200091702349C1F80425012283F8E0203CE0A0
:10273000204B002183F8C9100123136235E0D3F840
:10274000D42091789088D688D2F80640D2F80A50E2
:102750001F4AC1F38101D9B14FF6FF7E704505D004
:10276000B2F866E0864518BF83F8C970022908D11F
:10277000B2F86A20B24212D14FF6FF72964211D1DE
:102780000DE0D2E920018D4208BF844207D109E063
:10279000B2F86610814202D192F8882012B9002264
:1027A00083F8C920024B01221A6203B0F0BD00BFBA
:1027B0000010004038360020F8ED00001C370020E3
:1027C0001D25000069F700004BEE0000142C0020CE
:1027D000802D002070470000024B53F8203008463F
:1027E000184700BF7CEE0000024B53F8203008462B
:1027F000184700BF2CEF0000024B0022C3F8B023A3
:10280000704700BF802D0020094BD3F8B023938A76
:102810005BB192F8293003F0020303F0FF002BB103
:10282000507D023818BF012070470120704700BF5B
:10283000802D0020084BD3F8B023127D022A08D146
:10284000B3F86A304FF6FD70834294BF0020012038
:1028500070470020704700BF802D0020084BD3F840
:10286000B0335A7D022A09D1198B4FF6FF7291427B
:1028700004D193F8290000F0010070470020704750
:10288000802D0020094BD3F8B02392F8293003F0B3
:10289000040101F0FF0029B1507D18B183F002005E
:1028A000C0F3400000F00100704700BF802D002001
:1028B000094AD2F8B03393F82930990709D492F82D
:1028C000880018B183F00400C0F3800000F001001C
:1028D00070470020704700BF802D0020084BD3F8C0
:1028E000B02392F8293003F0020303F0FF001BB17C
:1028F000507D831E5842584100F00100704700BFD0
:10290000802D002070B5084DD5F8B0432046A6684C
:1029100000F098FF204694F8283000F80C3FB047AC
:102920000023C5F8B03370BD802D0020054BD3F8CF
:10293000B033E6225A7393F828201A730020FFF769
:10294000E1BF00BF802D0020054BD3F8B033E82253
:102950005A7393F828201A730020FFF7D3BF00BFE3
:10296000802D0020054BD3F8B033EC225A7393F836
:1029700028201A730020FFF7C5BF00BF802D00205C
:10298000054BD3F8B033F5225A7393F828201A7305
:102990000020FFF7B7BF00BF802D002010B5064C08
:1029A000D4F8B00300F04EFFD4F8B00304F06AFF8F
:1029B0000023C4F8B03310BD802D002037B5084C7B
:1029C0000025D4F8B00301908DF8005000F03AFFD4
:1029D000684605F0EFFCC4F8B05303B030BD00BF4B
:1029E000802D002030B5274D93B0D5F8B043482254
:1029F00068460021FDF7A6FC012394F829208DF8F4
:102A000000309DF8013062F300038DF80130637DE2
:102A10008DF80230237D8DF80330E38AADF8043061
:102A2000D4E90623CDE90223B5F86630ADF81030BD
:102A300094F82A308DF8203094F82B308DF821301E
:102A4000D4E90C23CDE90A2394F838308DF83030DE
:102A5000636A0E9394F820308DF83C300A4B109343
:102A6000237D022B04D1B5F86A30ADF8183003E0AD
:102A7000D5E92023CDE90623684603F0EFFB13B028
:102A800030BD00BF802D00208D2A0000034BD3F8FD
:102A9000B0335873042000F039BE00BF802D0020F1
:102AA0000B2003F0F3BC000010B5084B0020D3F856
:102AB000B043FFF713FF28B1204604F0B3FE80F0C7
:102AC0000100C0B200F0010010BD00BF802D002049
:102AD0000148024901F012BA1C2C0020E0EE00006F
:102AE00038B50D46044620B940F2DB100849FDF721
:102AF000D3FE25B94FF4EE700549FDF7CDFE0C234A
:102B00002371A5602046BDE8384000F07DBE00BFBF
:102B100098EE0000034B04480022C3F8B0230421C0
:102B200001F02EBA802D00201C2C002038B50A4B55
:102B3000D3F8B02305461C4622B140F2EF100749F6
:102B4000FDF7AAFEC4F8B053002105480A46BDE8C7
:102B5000384001F015BA00BF802D002098EE00002B
:102B60001C2C002002480321002201F009BA00BFFA
:102B70001C2C002000B593B090F850308DF8003038
:102B800090F851308DF8013003788DF80230438889
:102B9000ADF80430D0E90223CDE90223037C8DF89F
:102BA0001030438AADF81230D0E90623CDE9062370
:102BB00090F824308DF82030C26C036A09939B1A78
:102BC0008DF8283090F825308DF82C3090F826308C
:102BD0008DF82D30836A0C9390F830308DF83430B6
:102BE00090F831308DF83530D0E90E23CDE90E2341
:102BF00090F840308DF840306846FEF7A1FB05F0B4
:102C000083F913B05DF804FB02480121002201F0B2
:102C1000B7B900BF1C2C0020034B93F8693313B1E4
:102C20000D2000F073BD7047802D002038B50B4C8F
:102C300094F86833254613B100F038FE18B900F057
:102C400075FE30B938BD94F86833013B84F86833B9
:102C5000EDE7012385F8693338BD00BF802D0020E2
:102C600010B5084C012304F5627084F8693301F053
:102C700065FF18B904F5627001F0F4FEBDE810407C
:102C800003F0D2B9802D002008B5FFF7CFFF0B4825
:102C900090F8683363B980F8693300F5627001F029
:102CA0001BFF03F0EBFB0120BDE8084000F0C0BFB4
:102CB0000D20BDE8084000F029BD00BF802D002098
:102CC00010B5124C42F2107004F566730021C3E98E
:102CD0000001012384F8A0330D4BC4F8A433022370
:102CE00084F8703304F55B700A4BC4F8743301F058
:102CF0005FF8032384F87C33074BC4F8803304F572
:102D00005E70BDE8104001F053B800BF802D002078
:102D1000192C0000612C0000892C0000044A92F854
:102D20006833013382F868330D2000F0EFBC00BF38
:102D3000802D002008B5FFF779FF084B93F8692331
:102D400052B193F8681309B9032001E00220002171
:102D5000BDE8084001F044B808BD00BF802D002048
:102D6000C06C00F0D5BD03790068C01A00F0D0BD7A
:102D700070B543789A070E4601D5002070BD0578DE
:102D8000FF2D04BF0B4A92F84A505B074CBF846882
:102D900000F10804011D2A4630460BF0F3F8002824
:102DA00006DB304621462A460BF0ECF80028E4DD2D
:102DB000E82070BD802D0020A0F14003DBB2212B64
:102DC00001D80B7005E0A0F17103102B03D84F3828
:102DD00008700220704707289ABF08700120002061
:102DE00070470000522810B520D0512822D1134C32
:102DF00094F868304BB102F0A3FD082000F088FE83
:102E00000620BDE8104000F083BE02F099FD53207B
:102E100004F16A0102F094FD602004F1800102F0E7
:102E20008FFD502004F1660102F08AFDBDE81040DC
:102E300003F0DABDBDE8104002F082BD802D002015
:102E400070B5054614462A78C068FF2A04BF0C4BAB
:102E500093F84A200E460BF0A4F86B789B060DD52C
:102E600004F14000C0B2612888BF04F1500031462F
:102E700088BFC0B2BDE87040FFF7B4BF70BD00BFEF
:102E8000802D0020053808B506280BD8DFE800F0B3
:102E90000F0A040A0A060800002008BDF42008BD35
:102EA000FB2008BD40F219100249FDF7F5FCE820AF
:102EB00008BD00BF54EF000038B502460F4B1401A7
:102EC00008461919497849060BD50D4D95F8A810F3
:102ED00029B12B3A012A04D895F8A9200AB9E8208B
:102EE00038BD1A19D1681A5DFF2A02D1044B93F834
:102EF0004A200BF056F8002038BD00BFF4EF000068
:102F0000802D002032282DE9F041064688461746DC
:102F100004D940F28D101C49FDF7BEFC1B4D05EB9A
:102F200006156B7818070ED5D90727D428463946D9
:102F3000FFF71EFF044620BB304641463A46BDE837
:102F4000F04100F091BB5A060AD5114A92F8A81038
:102F5000B1B1A6F12B01012902D892F8A9207AB1CA
:102F6000DB070BD428463946FFF702FF044640B979
:102F7000284639463246FFF763FF02E0FB2400E0B3
:102F8000E8242046BDE8F08154EF0000F4EF000093
:102F9000802D002038B50E4C0E49C82220460BF07B
:102FA00000F80BF031F884F852000BF02DF884F89B
:102FB000400004F17C0000F061FA04F1840000F0AC
:102FC0005DFA04F18C00BDE8384000F057BA00BF4C
:102FD000902D002058F3000038B51248124D712191
:102FE00000F053FA1148732100F04FFA1048752190
:102FF00000F04BFAFFF7CEFF40246B789B0609D513
:10300000612C88BF04F11000E9688CBFC0B2204673
:10301000FFF7E8FE0134E4B2732C05F11005ECD1A2
:1030200038BD00BF0C2E0020F4EF0000142E00204D
:103030001C2E002038B50D46044618B97B200549E2
:10304000FDF72AFC08232371A5602046BDE838401F
:1030500000F0DABB54EF000037B5C5B228460DF1D9
:1030600007011446FFF7A8FE01280AD002280FD155
:103070009DF807000A4B214603EB0010FFF778FE8E
:103080000CE02146284600F0D9FCFFF7FBFE05E0E6
:1030900040F247100349FDF7FFFBE82003B030BDC5
:1030A000F4EF000054EF0000024BC3F8E4000B20E3
:1030B00000F02CBB802D0020024BC3F8E4000A2056
:1030C00000F024BB802D002070B50A4CD4F8E43009
:1030D000D4F8D8501878AE68FFF7D4FE2B4603F822
:1030E0000C0F1846B047284600F0ACFB0023C4F88C
:1030F000D83070BD802D0020F7B5214BD3F8D820F3
:1031000004461D4622B14FF417701E49FDF7C4FB5B
:1031100024B940F25E201B49FDF7BEFBA768C5F845
:10312000D840207D164E0DF10701FFF745FE237DA7
:103130006373012804F10C0509D00ED3022817D1BE
:103140009DF807002169FFF7B7FE207307E03046BE
:1031500000F8DC3F00F0F8FB0FE0F423237328466F
:10316000B84700232046C6F8D83000F06BFB04E0D7
:1031700040F27E200349FDF78FFB03B0F0BD00BF96
:10318000802D002054EF000007B5C0B20DF10701FB
:10319000FFF712FE012802D0022814D01EE09DF88D
:1031A0000730072B09D800FA03F313F05D0F1AD18B
:1031B00013F0A00F14D19B0714D440F29F200B49A9
:1031C000FDF76AFB0AE09DF80730094A1B01985C8D
:1031D000FF2808D1074B93F84A0004E0002002E0E2
:1031E000022000E0042003B05DF804FB54EF00006F
:1031F000F4EF0000802D00202DE9F743284BD3F891
:10320000D82004461E4622B140F202202549FDF78F
:1032100043FB24B94FF401702249FDF73DFBA76839
:10322000C6F8D840E07B6073002626730DF10701D5
:10323000D4F814901A4DFFF7BFFD012804F10C08D3
:103240000AD01BD3022823D19DF80700217C4A46CF
:10325000FFF758FE207313E0E47B31462046FFF76A
:1032600093FF4946024605F1E00085F8DC400AF08C
:1032700098FE05F1DC0000F079FB0EE0F4232373E7
:10328000204600F0DFFA4046B847C5F8D86004E0B1
:103290004FF40A700349FDF7FFFA03B0BDE8F0836D
:1032A000802D002054EF00002DE9F041104DD5F89D
:1032B000D8400021207DA768D4F81080FFF764FF74
:1032C000D5F8E4600246311D40460AF06AFE3078C7
:1032D000FFF7D8FD234603F80C0F1846B8472046E1
:1032E00000F0B0FA0023C5F8D830BDE8F08100BF87
:1032F000802D00207FB50E46C5B2144622B94FF48A
:1033000035701A49FDF7C8FA28460DF10F01FFF78D
:1033100053FD012803D025D3022807D01BE0214606
:10332000284600F0B1FBFFF7ADFD1CE0104B452D2A
:1033300093F84A3008D13BB900930E480B4A0E4B24
:103340004FF43971FDF748FC9DF80F0031462246D5
:10335000FFF7D8FD07E040F2EF200449FDF79CFAA3
:10336000002000E0F42004B070BD00BF54EF000066
:10337000802D002099EF0000A8EF00007FB504A980
:10338000C6B2002401F8014D30461546FFF714FD82
:1033900002289DF80F2006D10B48294600EB0210A9
:1033A000FFF74EFD0EE0012804D13046294600F01B
:1033B0006BFB07E000940548054A064B40F20731D5
:1033C000FDF70AFC04B070BDF4EF000069F70000DF
:1033D00054EF0000E3EF000070B50E4604460025F0
:1033E000B54208D0207861786268FFF735FE08346E
:1033F00018B90135F4E7002070BDE82070BD70B544
:103400000E4604460025B54207D0207861786268F0
:10341000FFF7B4FF01350834F5E770BD7138C0B26D
:10342000132808B507D8012383400748184040B93E
:1034300013F4E03F06D147200449FDF72DFAFF20A1
:1034400008BD082008BD00BF15000E0020F40000D4
:103450007138C0B2132808B504D80122054B824048
:1034600013402BB9B1200449FDF716FA002008BD1E
:10347000084608BD15000E0020F4000010B50446F3
:1034800000F0AAFF0023237110BD38B504460D4695
:1034900000F0AEFF014628B120462A4600F003F8AE
:1034A0002046F5E738BD712A70B505460C4616462C
:1034B0000ED101F108008221FFF7E7FF04F11000AF
:1034C0008321FFF7E2FF04F118008421FFF7DDFFFD
:1034D0002846214601F0F2F821463046FFF7B8FFB2
:1034E00000F08EFE2B79013B2B7170BD38B50D4677
:1034F000044620B94FF4AE700849FDF7CDF92046D7
:1035000000F076FF014630B10B79AB4203D0204684
:1035100000F092FFF6E7084638BD00BF20F4000037
:10352000A1F14F0370B51646DAB20F4B03EB02134D
:1035300005465B781B070C4603D4E7200B49FDF7D3
:10354000ABF92046FFF76AFF86420BD23146284688
:10355000FFF7CCFF014618B128462246FFF7A3FF2C
:10356000002070BDF92070BDF4EF000020F40000D1
:10357000752808B517D005D8712809D073280BD144
:10358000202008BD822805D006D384280BD903E06B
:10359000302008BD142008BD40F285100349FDF716
:1035A0007BF9FF2008BD0C2008BD00BF20F40000FF
:1035B0002DE9F8439846A2F14F031546DAB2284B9D
:1035C00003EB021306465B781B070F4603D4D52096
:1035D0002449FDF761F92846FFF720FF804539D2DD
:1035E000294642463046FFF79BFF2846FFF7C0FFBB
:1035F000814600F04FFD044678B339464A460AF04A
:10360000D0FC712D84F804801AD107F1080001F074
:103610007FF818B104F10800FFF730FF07F1100040
:1036200001F076F818B104F11000FFF727FF07F159
:10363000180001F06DF818B104F11800FFF71EFF33
:103640003046214600F05CFF3379013333710020AE
:10365000BDE8F883F920BDE8F883FA20BDE8F883D7
:10366000F4EF000020F4000010B50B46054901EB13
:10367000001100F14F04C8681146E2B2BDE81040E5
:10368000FFF796BFF4EF000010B5114C204600F094
:10369000AFFEA8B1227ACAB90122227203790D2B9A
:1036A00005D80C4ABDE8104052F823301847D42002
:1036B0000949FDF7F1F82046BDE8104000F0B6BF1B
:1036C000DC200549BDE81040FDF7E6B810BD00BF9D
:1036D000802D00206CF40000A4F4000037B502AC8B
:1036E000002544F8045D2046FEF7B8F9064A136841
:1036F000294643F004030720136000F071FB2046C5
:10370000FEF7B1F903B030BD3837002037B502AC51
:10371000002344F8043D05462046FEF79FF906497C
:1037200001234A68AB4013434B602046FEF79BF9E8
:10373000FFF7D4FF03B030BD802D00202DE9F34109
:1037400002AC002544F8045D174F2046FEF786F9C9
:103750002046D7F804800126FEF785F92B463D4622
:1037600016EA080FDFB20DD02046FEF777F96B6836
:103770005E406E602046FEF776F90C4B53F827301A
:10378000984704E00133102B4FEA4606E8D1204663
:10379000FEF764F96B680BB1FFF7A0FF2046FEF758
:1037A00062F902B0BDE8F081802D0020F0F4000045
:1037B00010B5144C204600F00FFEFFF7EBFBFFF7AF
:1037C0007FFA02F0C9FB02F01BFDFFF781F904F05C
:1037D00089FD08F049F904F01FFB05F0A3FE07F08E
:1037E00099FA06F039F907F085F806F0FBFB05F0C9
:1037F00039FA05F0D3FB07F017FD08F0DDFE0023D2
:10380000636010BD802D002010B5044620B940F241
:1038100033100A49FDF740F823790D2B04D94FF4F2
:103820009A700649FDF738F80548214600F08AFEEF
:103830000C20BDE81040FFF769BF00BFA4F40000F2
:10384000802D002038B5054620B94FF49E700C49F4
:10385000FDF722F80B4C204600F0CAFD85420DD141
:1038600000232372204600F0E1FE204600F0C0FD58
:1038700020B10C20BDE83840FFF748BF38BD00BF7D
:10388000A4F40000802D002010B5064800F0CEFE04
:10389000044628B933200449FCF7FEFF204610BD3A
:1038A000883810BD3C36002030F5000010B594205B
:1038B00000F0F0FB044638B1831CC0F88C3004F1F2
:1038C0008801034800F03EFE201C18BF012010BDF7
:1038D0003C36002013B50A4800F07EFD0424FFF7B3
:1038E000E5FF38B9012300930648074A074B262114
:1038F000FDF772F9013C14F0FF04F0D102B010BDE5
:103900003C36002077F5000030F500008CF5000013
:1039100010B5044618B950200349FCF7BDFFA01E9E
:10392000BDE8104000F06CBC30F50000014800F02C
:10393000EFBE00BF3C36002000F18801014800F0D6
:1039400001BE00BF3C36002010B5044618B92B203C
:103950000449FCF7A1FF044B1C610720BDE810409F
:1039600000F066B9B9F500003836002010B50446FD
:1039700018B93A200449FCF78FFF044BDC6006209D
:10398000BDE8104000F054B9B9F500003836002009
:1039900007B50B4607282AD8DFE800F0040704041F
:1039A0000E11192002F052F81FE002A9124A41F844
:1039B000042D1846042216E002A9002209E002A9FB
:1039C0004FF4857221F8042D184602220BE002A95B
:1039D0000A2201F8042D1846012204E002A902225D
:1039E00021F8042D18460AF0DCFA072000E00A202E
:1039F00003B05DF804FB00BF00F8FF0710B50B4CE7
:103A000023691BB945200A49FCF746FF2369094988
:103A10000722227518786075FFF7BAFF002320751A
:103A200005482361FFF748FB10BD00BF3836002072
:103A3000B9F50000503600204C36002013B50122A5
:103A400004460DF107000AF0ACFA032C0AD0042C4E
:103A50000FD0ACB99DF807300B3B0F2B94BF07205C
:103A600005200EE09DF80730052B34BF0720052008
:103A700007E09DF80730002B0CBF0720052000E071
:103A8000072002B010BD000070B505460E46FFF7D6
:103A9000D5FF0728044618D1072D0FD80123AB40C6
:103AA00013F0E20F10D113F00D0F02D1DB0605D594
:103AB0000BE02846314601F043FF06E0B8200449F8
:103AC000FCF7EAFE0A2400E00B24204670BD00BF8C
:103AD000B9F5000010B50B4CE3681BB959200A4931
:103AE000FCF7DAFEE168072323750B78637511F89C
:103AF000040BFFF7C9FF002320750448E360FFF7BC
:103B0000D3FA10BD38360020B9F500004C3600203D
:103B1000032838B5044604D0A0F108035D425D4196
:103B200000E00125FFF702FF20B11DB9BDE83840D4
:103B300001F01CBC204601F0F1FBA04208BF0720A9
:103B400038BD000010B5084CD4F8BC301878FFF729
:103B5000DFFF002384F8C00004F1C000C4F8BC30CB
:103B600003F0BAF910BD00BF3836002037B502ACFB
:103B7000002544F8045D2046FDF770FF064A1368EF
:103B8000294643F001030720136000F029F920467D
:103B9000FDF769FF03B030BD38370020044B002229
:103BA0001A80DA611A61DA60C3F8BC20704700BF7E
:103BB000383600202DE9F34102AC002544F8045DBD
:103BC000DFF868802046FDF749FFB8F8007020460E
:103BD000FDF749FFBFB22B46012645463E425FFA3C
:103BE00083F80ED02046FDF739FF2B8873409BB237
:103BF0002B802046FDF737FF0B4B53F828309847B2
:103C000004E00133082B4FEA4606E7D12046FDF7D2
:103C100025FF2B889BB20BB1FFF7A8FF2046FDF7CD
:103C200022FF02B0BDE8F08100F600003836002027
:103C300037B502AC002344F8043D05462046FDF7A5
:103C40000DFF074901230A88AB4013439BB20B8049
:103C50002046FDF708FFFFF789FF03B030BD00BF26
:103C6000383600202DE9F34102AD002445F8044D1B
:103C7000104E2846FDF7F2FE2846D6F80080FDF7E4
:103C8000F2FE012717EA080F0CD02846FDF7E6FEE2
:103C9000336828467B403360FDF7E5FE064B53F85A
:103CA000243098470134032C4FEA4707EAD102B089
:103CB000BDE8F0813037002020F6000000F058BF4A
:103CC00001F030B92DE9F04385B004AD002445F88A
:103CD000104D2846FDF7C2FE274623462046012107
:103CE0002C4C228892B211425FFA83F941D000280D
:103CF00039D00DF11008002648F80C6D4046FDF74C
:103D0000ADFE2288012303FA09F313439BB22380FB
:103D100004AC4046FDF7A7FE44F8086D2046FDF7C9
:103D20009DFE1D4A1368204604AC43F00203136055
:103D3000FDF799FE44F8046D2046FDF78FFE174A03
:103D40001368314643F002030720136000F048F87F
:103D50002046FDF788FE2846FDF785FE104B3046CD
:103D600053F8273011E022884A4092B222804F4611
:103D700001200133032B4FEA4101B1D12846FDF761
:103D800072FE074B53F827300020984705B0BDE876
:103D9000F08300BF34370020303700203837002050
:103DA0002CF60000014800F017BB00BF242C0020B7
:103DB00010B5044618B92C200749FCF76DFDA3681F
:103DC0001BB92D200449FCF767FD21460348BDE8D7
:103DD000104000F0B7BB00BF38F60000242C0020D4
:103DE00070B5054608480E4600F002FB044650B187
:103DF0002379AB4202D1A368304698472146024856
:103E000000F01AFBF2E770BD242C00202DE9F043EE
:103E1000884689B017469946054618B9A9203449FD
:103E2000FCF73AFD2B686A791C681E79D2B204EB64
:103E30008606B9F1000F0AD12B7943B1B4421DD2E5
:103E4000237883F08003934218D00434F6E704EB20
:103E5000890413E02378434541D16378FF2B11D0C7
:103E60002B68D3F80890B9F1000F03D1F520204951
:103E7000FCF712FD60783946C84718B90434B442DB
:103E8000E8D32EE0A378FF2B24D02B68D3F80C8046
:103E9000B8F1000F04D140F203101549FCF7FCFC07
:103EA0006E79A0783946C0476B79F6B29E4211D040
:103EB0006B7900950194029662780392A27804923D
:103EC0000593E37806930B48094A0B4B40F2171110
:103ED000FCF782FEE378FF2B05D06B7103E01B0635
:103EE000CCD5002000E0012009B0BDE8F08300BF80
:103EF0007DF60000BFF60000EBF600002DE9F84368
:103F00008846064618B94D201C49FCF7C5FCB8F197
:103F1000000F03D14E201949FCF7BEFCC6F8008003
:103F200098F8053073710025B571D8F80090FF241A
:103F300098F80430EFB29F4218D2FF2C0FD019F836
:103F40002730FF2B03D174200C49FCF7A5FC19F98D
:103F50002730002B03DA7A200849FCF79DFC19F87A
:103F600027300135FF2B08BF3C46E1E7FF2C02D08C
:103F70009C4228BFFF243471BDE8F8837DF6000021
:103F80007FB5837904460D46164653B143790193B4
:103F9000009002910D480E4A0E4B4FF49B71FCF7B6
:103FA0001BFE0123A3712046294632460023FFF75A
:103FB0002DFF38B92379FF2B04D0204629463246FD
:103FC000FFF724FF0023A37104B070BD1EF70000AB
:103FD0007DF600003FF7000037B50C460546FCF7BC
:103FE00069FCFCF769FC09F0E7FFA30707D004238D
:103FF00000930D480D4A0E4B3521FCF7EDFD284688
:10400000214600F021F800F01DFDFFF7CBFEFFF781
:1040100061FC01F00BF9FFF7C1FD08F0B1FC03B042
:10402000BDE83040FFF7C4BB51F700006BF700005C
:10403000AEF70000436823F001031844014B40F839
:10404000043C7047BEBAADDE38B504460C480D4698
:1040500000F044FE0023A3600A4B23606560204605
:10406000FFF7E8FF084B236104F10C011A6819609F
:10407000064B51601C60064BE2602C441C6038BD4E
:104080002C2C002033CCAA55DC000020282C00204A
:10409000302C00202DE9F84F0646524F52480F367B
:1040A00000F01DFE26F003063B680436182ED3F8F8
:1040B000009038BF1826BB4245D0A3F10C044B4AF0
:1040C00053F80C3C93422546904603D0CF204849F4
:1040D000FCF7E2FB636823F00103234453F8042C4C
:1040E000444B9A4203D0D0204149FCF7D5FBDFF87E
:1040F0000CB1E368DBF800209342DA4603D33E4A72
:104100001268934205D9BB4203D0D4203849FCF74A
:10411000C3FB2369DBF80020934203D3364A1268BD
:10412000934205D9BB4203D0D8203149FCF7B4FBF8
:104130006368B34203D39A1B302A0AD820E04B4667
:10414000D9F80090B7E7284800F0CAFD0020BDE884
:10415000F88FE718284B62601B6815199F4228BF2B
:1041600000279D423BD26E60AC60204642F804803E
:10417000FFF760FF2846FFF75DFFBFB1BD6015E0A8
:10418000E368DAF8002093421BD31B4A126893427B
:1041900017D82369DAF80020934219D3164A126817
:1041A000934215D8E268236953601A606B680E4821
:1041B00043F001036B6000F093FD05F10C00BDE8D6
:1041C000F88FBB42E5D0F2200949FCF765FBE0E738
:1041D000BB42E7D0F6200649FCF75EFBE2E700238E
:1041E0005B60FFDEDC0000202C2C002033CCAA55C5
:1041F000E7F70000BEBAADDE302C0020282C0020EE
:104200002DE9F0476D4B1A68904204469A4603D355
:104210006B4B1B68984204D940F20B106949FCF7BC
:104220003BFB002C00F0C8806748654D00F057FD4F
:10423000DAF80030A4F10C09994502D32B689945AE
:1042400004D940F219105F49FCF726FB5F4F54F880
:104250000C3CBB4204D04FF48D705A49FCF71CFB58
:10426000D9F804305A4E23F001034B4453F8043C70
:10427000B34204D040F21B105249FCF70DFBD9F8B1
:104280000430D90704D44FF48F704E49FCF704FB77
:10429000D9F804402B68D9F8088024F00104C9F843
:1042A00004404C449C4228BF0024002C48D0236882
:1042B000BB4204D040F227104249FCF7EDFA636894
:1042C00023F00103234453F8043CB34204D04FF4D9
:1042D00094703C49FCF7E0FA6368DA0730D4E3688D
:1042E000DAF80020934202D32A68934207D9394A68
:1042F000934204D04FF498703249FCF7CDFA236909
:10430000DAF80020934202D32A68934207D9314A4F
:10431000934204D04FF49A702A49FCF7BDFAE26840
:10432000236953601A606268D9F8043013442A681C
:10433000C9F804304B44934202D20BB1C3F8089041
:10434000B8F1000F03D0D8F80430DB070AD5214BB1
:10435000C9F810301A6809F10C0151601960C9F8E8
:104360000C2024E0D8F80030BB4204D04FF4A270F7
:104370001449FCF791FAD8F8043023F001034344C0
:1043800053F8043CB34204D040F245100D49FCF709
:1043900083FAD9F80420D8F8043013442A68C8F8FE
:1043A00004304344934202D20BB1C3F8088006485C
:1043B000BDE8F04700F094BCBDE8F087282C002051
:1043C000302C0020E7F700002C2C002033CCAA551D
:1043D000BEBAADDEDC00002010B5044618B950208E
:1043E0000249FCF759FA246010BD00BF34F8000000
:1043F00010B5044618B958200749FCF74DFA236850
:104400001BB959200449FCF747FA2368A34214BF9B
:104410001868002010BD00BF34F8000010B5044635
:1044200018B966200349FCF737FA2068A04208BF94
:10443000002010BD34F8000038B50C46054618B908
:1044400073200C49FCF728FA1CB974200949FCF7C1
:1044500023FA2846FFF7CCFF18B975200549FCF769
:104460001BFA2846FFF7DAFF844214BF20680020B9
:1044700038BD00BF34F8000038B50D46044618B901
:1044800024200B49FCF708FA1DB925200849FCF740
:1044900003FA2046FFF7ACFF014628B1A94204D039
:1044A0002046FFF7C9FFF7E738BD012038BD00BF40
:1044B00034F8000070B50E461446054618B93F2082
:1044C0000E49FCF7E9F91EB940200C49FCF7E4F964
:1044D0001CB941200949FCF7DFF928462146FFF7BE
:1044E000CBFF18B142200549FCF7D6F933682360A9
:1044F00034602B689E4208BF2C6070BD34F8000009
:1045000038B50C46054618B982200D49FCF7C4F9A8
:104510001CB983200A49FCF7BFF928462146FFF75A
:10452000ABFF18B184200649FCF7B6F92B68AB4203
:1045300015BF1A68246022602C6018BF1C6038BD4B
:1045400034F8000038B50C46054618B999200D49D5
:10455000FCF7A2F91CB99A200A49FCF79DF92846F4
:104560002146FFF789FF18B19B200649FCF794F913
:104570002B68AB421BBF1A68226024601C602C6051
:1045800038BD00BF34F800002DE9F8430E469146CF
:10459000054618B9B4201D49FCF77EF91EB9B520AF
:1045A0001A49FCF779F9B9F1000F03D1B620174980
:1045B000FCF772F928463146FFF75EFF18B1B720C5
:1045C0001249FCF769F92846FFF712FF4FF000087F
:1045D0000446BCB120463146C847074628465FB16D
:1045E000B8F1000F03D13146FFF78AFF0BE04146D7
:1045F0003246FFF75FFF06E02146FFF71DFFA046AA
:104600000446E6E727463846BDE8F88334F800005C
:1046100038B505460C46FFF7B7FF28B928462146AE
:10462000BDE83840FFF78EBF38BD000010B5044626
:1046300018B9E0200749FCF72FF92368A34206D0F8
:104640001868984216BF026824601A6010BD0020E6
:1046500010BD00BF34F8000038B50C46054620B93F
:1046600040F213101449FCF717F92B6823B94FF4E3
:104670008A701149FCF710F924B940F215100E495F
:10468000FCF70AF9236823B94FF48B700A49FCF749
:1046900003F92846FFF7C2FE844204D140F2171006
:1046A0000549FCF7F9F823682A689A4208BF2C608C
:1046B00023681B68236038BD34F8000038B50D4608
:1046C000044618B9FD201149FCF7E6F81DB9FE2093
:1046D0000E49FCF7E1F82046FFF78AFE85422046A6
:1046E00003D1BDE83840FFF7A1BFFFF781FE0146C7
:1046F00050B10B68AB42204603D1BDE83840FFF70C
:10470000ABBFFFF799FEF2E738BD00BF34F80000F9
:1047100010B5044620B940F261100549FCF7BCF819
:104720002046FFF77BFEB0FA80F0400910BD00BFC5
:1047300034F8000070B50E461546044618B91D2021
:104740000449FCF7A9F8002323606360A660E560D4
:10475000237470BD78F80000F8B50F4615461E4664
:10476000044618B92B200B49FCF796F8B54203D93B
:104770002C200849FCF790F8204639463246FFF7CE
:10478000D9FFB54203BF002323600123256008BF82
:104790002374F8BD78F80000F7B5044618B939203D
:1047A0001249FCF779F894E80C009A4201D1237C75
:1047B00083B102AE002546F8045D3046FDF74EF9A0
:1047C0006268A168531C63608F5CE268934206D103
:1047D000656004E03A200549FCF75EF8E9E73046F9
:1047E0002574FDF740F9384603B0F0BD78F80000B5
:1047F00073B50E46044618B965201749FCF74CF806
:1048000002AD002345F8043D2846FDF727F9237C37
:104810001BB169201049FCF73FF82368A268591CB6
:104820002160D654237CE26833B16368013393423C
:10483000636004BF002363602368934204BF0023C6
:10484000236094E80C009A4204BF01232374284695
:10485000FDF709F902B070BD78F800002DE9F341C9
:10486000064618B983200F49FCF716F802AF00235B
:1048700047F8043D3846FDF7F1F896E82001F46862
:10488000367C3846FDF7EFF83EB9454536BF60192E
:10489000C8EB0500C8EB000000E0204602B0BDE810
:1048A000F08100BF78F80000F7B50F46044618B94C
:1048B0004C201349FBF7F0FFE3689F4203D94D20DA
:1048C0000F49FBF7E9FFC7B102AD002645F8046DBB
:1048D0002846FDF7C3F82046FFF7C0FF636826743B
:1048E000B84294BF1818D819E3686060984224BF92
:1048F000C01A60602846FDF7B6F803B0F0BD00BFEF
:1049000078F80000F7B50F461646044618B9A820F7
:104910000E49FBF7C1FF02AD002345F8043D2846D0
:10492000FDF79CF8A268636813443B6023686168E4
:104930008B4202D1237C0BB902E000D8E3685B1AFA
:1049400033602846FDF78FF803B0F0BD78F800001B
:10495000704700002DE9F34102AD002445F8044DF5
:10496000124E2846FDF77AF82846D6F8008001272F
:10497000FDF779F82346344617EA080FDEB20DD06A
:104980002846FDF76BF8236828465F402760FDF74F
:104990006AF8074B53F82630984704E00133052B9B
:1049A0004FEA4707E8D102B0BDE8F0813837002070
:1049B000C4F80000F8B50C46D0E9026700F028FA08
:1049C000361A67EB0107D4E9024500F021FA201AF4
:1049D00065EB0101002E77F1000307DA002871F181
:1049E00000030EDA8F4208BF864206E0002871F10C
:1049F000000308DBB94208BFB04234BF01200020E9
:104A0000F8BD0020F8BD0120F8BD73B502AE00234B
:104A100046F8043D04463046FDF720F8D4E9024547
:104A200000F0F6F9201A65EB0101002871F100038E
:104A3000BCBF0020002100F01BFA3046FDF713F840
:104A400002B070BD08B500F0F5F800F097F9034822
:104A5000FFF7C2FC024B00221A7008BD382C002060
:104A6000342C002038B504461848FFF7C1FC054631
:104A70001CB992201649FBF70FFFE3691BB993207D
:104A80001349FBF709FFD4E90423002A73F100035B
:104A900003DA94200E49FBF7FFFE00F0B9F9D4E9E0
:104AA000042380185941C4E902010A4A07482146F3
:104AB000FFF7AEFD0548FFF79BFC854204D020467A
:104AC000BDE83840FFF7A1BF38BD00BF382C00203B
:104AD000D8F80000B549000073B504461448FFF744
:104AE00087FC06461CB9A5201249FBF7D5FE1048E5
:104AF0002146FFF7E3FD0E48FFF77AFC054680B933
:104B000002AC00F06BF944F8045D2046FCF7A6FF08
:104B1000094A1368204623F001031360FCF7A3FF42
:104B200003E0B04201D0FFF770FF02B070BD00BFDC
:104B3000382C0020D8F800003037002010B504468B
:104B400018B9BC200849FBF7A7FE0848FFF750FC3E
:104B5000014628B1A14204D00448FFF76DFCF7E7F5
:104B600010BD012010BD00BFD8F80000382C002077
:104B7000F7B52A48FFF73CFC044668B9284B1A7879
:104B80001D461AB1D8202749FBF786FE01232B705A
:104B900002E02846FCF767FF002C3CD0204B1F4862
:104BA00000221A70FFF742FD0446C369006A984765
:104BB000237E012B0CD100F02BF9D4E904238018BB
:104BC0005941C4E90201184A14482146FFF720FD63
:104BD0001248FFF70DFC0446D8B102AD002345F89A
:104BE000043D2846FCF73AFFD4E9026700F010F9CB
:104BF000301A67EB0101B0F10A0241F1FF33002ADC
:104C000073F10003C5DB00F033F92846FCF72BFFF6
:104C100001E000F0E3F803B0F0BD00BF382C002045
:104C2000342C0020D8F80000B549000000F0F0B89E
:104C300000F00EB808B5FBF76BFE28B12120034940
:104C4000BDE80840FBF728BE08BD00BF1BF9000007
:104C500000283ED01F4B204A1B6800BF00BF00BF8A
:104C600000BF00BF00BF00BF00BF93422FD000BFF6
:104C700000BF00BF00BF00BF00BF00BF00BF00BF3C
:104C800000BF00BF00BF00BF00BF00BF00BF00BF2C
:104C900000BF00BF00BF00BF00BF00BF00BF00BF1C
:104CA00000BF00BF00BF00BF00BF00BF00BF00BF0C
:104CB00000BF00BF00BF00BF00BF00BF00BF00BFFC
:104CC00000BF00BF00BF00BF00BF00BF00BF013872
:104CD000C3D17047D80000200024F400704770470B
:104CE0007047000037B509288CBF04460A2401A884
:104CF000FCF7B4FE0025094B09481D75294600F054
:104D000015FA084B02191D6002210123044800F026
:104D100035FA01A8FCF7A7FE03B030BD402C0020F7
:104D200074F900004881004073B502AC002544F8D6
:104D3000085D06462046FCF791FE0E4901230A68ED
:104D40002046B34002AC13430B60FCF78CFE44F8E2
:104D5000045D2046FCF782FE074A1368294643F0AB
:104D6000020307201360FFF73BF82046FCF77BFEA9
:104D700002B070BD303700203837002010B5114820
:104D80001149124A00F05AF918B16E201049FBF788
:104D900083FD104B0B4800221A601A611A7500F04F
:104DA000A7F90848002100F0C1F90028F9D00A4B02
:104DB000044800221A6001210B46BDE8104000F0B3
:104DC000DDB900BF74F900007CF90000814F0000DC
:104DD00084F90000402C00204481004013B501A854
:104DE000FCF73CFE074B084800241C7502212246B4
:104DF000234600F0C3F9054B01A81C60FCF733FE05
:104E000002B010BD402C002074F900004881004021
:104E10002DE9F743134C01A8FCF720FE00211248AE
:104E2000D4F8008000F082F9002105460E48D4F83D
:104E300000900E4C00F07AF9074601A82668FCF7AE
:104E400012FEB9F1000F04D00136B8F1000F08BF0F
:104E50003D46236900202843C01846F1000103B0F5
:104E6000BDE8F0834481004074F90000402C00202C
:104E7000012908BF002837B504460D460FD3FFF7B8
:104E8000C7FF241801A84D41FCF7E8FD064B01229D
:104E900001A8C3E902451A75FCF7E5FD01E0FFF73B
:104EA00021FF03B030BD00BF402C0020F7B50746FE
:104EB00001A80D46FCF7D2FD164B9A691C461AB1A3
:104EC000ED201549FBF7E8FC00211448A56100F02E
:104ED0002DF9134E054600247A1C10483460032136
:104EE0002A44012300F04AF90C48214600F01EF93B
:104EF000401BB84209D3094803212246234600F04B
:104F00003DF934600220FFF70FFF01A8FCF7ABFD6D
:104F100003B0F0BD402C002084F9000074F90000BB
:104F20004C81004010B5064CA36923B940F2031030
:104F30000449FBF7B1FCA36998470023A36110BDA6
:104F4000402C002084F9000007B501A8FCF786FD7D
:104F5000002203211346074800F010F9064A0023F7
:104F60001360064A01A89361FCF77DFD03B05DF86C
:104F700004FB00BF74F900004C810040402C00206D
:104F8000B0F5A47F10B514D0B0F5A67F16D0B0F55B
:104F9000A27F21D1144B1A6801321A601A7D12B314
:104FA0001A689868DB689A421DD1BDE81040FFF787
:104FB00099BE0020BDE81040FFF7B6BE0A4B9C69C1
:104FC00024B940F271100949FBF766FCFFF7BCFFFA
:104FD0002346BDE8104018474FF4C7700349BDE8A9
:104FE0001040FBF759BC10BD402C002084F9000094
:104FF00000284FEA4111BFBF00F00F020E4BC9B2AB
:105000009954A8BF00F1604300F01F024FEA50100E
:10501000A8BF03F561434FEA8000A8BFC9B200F101
:105020006040A8BF83F8001300F56140012393405E
:10503000C0F880310360704714ED00E0F8B52A4EE7
:1050400005790C2303FB056307461B7A0C46002BEE
:1050500045D1002A45D011B9244C04EBC5040C23DA
:105060006B43F118F25063684B600022797938681D
:10507000D3B2994206D99B0003F5A0730021C15019
:105080000132F3E7E17840F30730FFF7B1FF396809
:105090006278D1F8043502F0030223F003031343CE
:1050A000C1F804353968A278D1F8083502F0030256
:1050B00023F003031343C1F8083539682278D1F887
:1050C000103502F00F0223F00F031343C1F810351F
:1050D0000C2303FB056501232B720020F8BD08207B
:1050E000F8BD0720F8BD00BF602C002030FA00009A
:1050F00038B50C4B02790C2101FB02320546127ABD
:10510000012A1C4603D073200749FBF7C5FB2B6817
:1051100001221A602B790C2202FB034302221A722D
:1051200038BD00BF602C0020DAF9000038B5114B03
:1051300002790C460C2101FB023305461B7A022B37
:1051400003D09C200C49FBF7A7FB6B79A34203D843
:105150009D200949FBF7A0FB04F110039B00DBB283
:105160002A680121D15004F5A8742B6853F8240053
:1051700038BD00BF602C0020DAF9000030B54FF4D4
:1051800080348C40056813B1C5F8044301E0C5F8CC
:105190000843036801F5A87143F8212030BD0000E1
:1051A00038B50E4C00252368A4F5004080B26BB1E1
:1051B0000B4BD3F804234FF48033AB40134205D09C
:1051C00000232360074B1A6859689047064B043444
:1051D0009C4205F10105E6D138BD00BF4081004089
:1051E00000800040602C002050810040012810B554
:1051F000044608D009D3032809D0B8200949FBF791
:105200004BFB002004E0042002E0032000E0052026
:10521000054900F0C3FA00F0C9FA001B18BF0120CD
:1052200010BD00BF38FA000000370020F7B5244D4C
:105230002B782BB9234800F057F9234800F054F994
:1052400000F04CFC00F0A2FA01A8FCF707FCFFF705
:10525000EDFC06460F46FFF7E9FC1C4C801B61EB9A
:105260000701C4E9360101A8FCF7FDFB002384F81F
:10527000CB30C4F8CC3084F8C93084F8CA3084F814
:10528000E0302B78CBB9FEF7FFFA0130C4F8D40038
:1052900018B97F200E49FBF7FFFAFEF7F5FA00F187
:1052A0008801094800F02DF9FEF7EEFA00F18801B7
:1052B000054800F026F901232B7003B0F0BD00BFB4
:1052C0006C2C00201C3700202437002038360020AA
:1052D00038FA000007B504280CD8DFE800F0150301
:1052E00009050700092010E006200EE001200CE06F
:1052F00002200AE0009040F213110548054A064BCF
:10530000FBF76AFC052000E0082003B05DF804FB11
:1053100069F7000038FA000082FA0000082810B58A
:105320000FD004D803280CD006280CD005E009289B
:1053300001D0FB2801D1012406E0EF200A49FBF748
:10534000ABFA002400E0032400F030FAA04209D0B8
:105350002046FFF74BFF28B100F028FABDE81040C7
:10536000FFF7B8BF072010BD38FA000008B500F0FD
:105370001DFA032805D1054BD3F83831012B08BF9E
:105380000420BDE80840FFF7A5BF00BF00100040A3
:10539000064BD3F84401002228B1C3F84821042069
:1053A000C3F844217047C3F848017047001000401B
:1053B0000146022000F0F2B970B50E46054620B94C
:1053C0004FF4B3701049FBF767FA2B6823B940F22A
:1053D00067100D49FBF760FA0C4800F0A5F870B1B2
:1053E000B0F188040BD0094800F0B1F8307029689A
:1053F0000748883100F085F82C60012070BD01233A
:105400003370002070BD00BF38FA00001C37002048
:1054100024370020054B0022C3F80C21C3F82821B3
:105420004FF48162C3F80423704700BF00100040AE
:10543000064B0022C3F80022C3F80C21C3F8282130
:105440004FF48162C3F80823704700BF001000408A
:105450000938A0EB411070470C4B0022C3F83C21E7
:1054600001225A62094BD3F83C111A4651B9D3F8BC
:10547000401139B9D3F850150329F3D0D3F850357A
:10548000022BEFD0D2F86806C0B27047001000407F
:10549000144B0022C3F84421C3F84821C3F84C211F
:1054A0000122DA620F4BD3F844216AB9D3F84821BC
:1054B00052B9D3F84C213AB9D3F85025032AF1D088
:1054C000D3F85035022BEDD0064BD3F85025032AE4
:1054D00003D0D3F85035022B01D1FFF759BF00207C
:1054E000704700BF0010004013B5044601A8FCF748
:1054F000B5FA00236360236001A8FCF7B4FA02B098
:1055000010BD37B5054601A80C46FCF7A7FA6B6835
:1055100013B92C606C6000E01C600023236001A8BC
:10552000FCF7A1FA03B030BD37B5054601A8FCF77A
:1055300095FA2C682CB123682B6003B96B600023AB
:10554000236001A8FCF78FFA204603B030BD13B5E5
:10555000044601A8FCF782FA01A82468B4FA84F48E
:10556000FCF781FA6409204602B010BD024B53F8E3
:1055700020300846184700BFF8FB000001207047A4
:10558000064B0022C3F80022C3F8102101221A6141
:10559000D3F81021002AFBD0704700BF0010004054
:1055A000064BD3F85025002AFAD1C3F80021012276
:1055B0005A60D3F80021002AFBD070470010004049
:1055C000034B002283F8CA2083F8C920FFF7D8BF15
:1055D00038360020FFF7E4BF08B5FFF7D1FFFFF72B
:1055E000DFFF034B002283F8C92083F8CA2008BDDF
:1055F00038360020FFF7C4BF07B5064B06485B7975
:1056000000934FF4C671054A054BFBF7E5FA03B06A
:105610005DF804FB702C002069F70000E8FA000038
:1056200032FB00000220FEF703BB0120FEF700BBA7
:1056300030B5044685B020B940F259103449FBF723
:105640002BF9344BD3F850151A4619B1D3F850350D
:10565000022BF6D1D2F850252E4B022A0BD0D3F8CC
:10566000502542B1D3F8503500932B48284A2B4B94
:10567000CC21FBF7B1FA274B0022C3F8002101220D
:105680001A601A46D2F80011224B0029FAD0244998
:10569000002081F8CA002268013AC3F80425246872
:1056A000227802F0200202F0FF059AB1A2781206D9
:1056B000012442F40172224381F8C940C3F85C011D
:1056C000C3F83001C3F844266FF48052C3F848266B
:1056D0000B2202E081F8C9500222C3F800220D4BD0
:1056E00001229A60D1F8D420C3F80425FFF79EFA6E
:1056F0001030C0F3171004AA0A3020F07F4042F89F
:10570000040D00214FF04800FDF738FE05B030BD14
:10571000E8FA00000010004050FB0000B1FB000060
:1057200038360020164B174A002183F8E01083F822
:10573000CA1083F8C910C2F838111146D1F85005C3
:10574000104A0028FAD1D3F8D430C2F804350E4BF1
:1057500093F8683053B944F20703C2F800322023AB
:10576000C2F86035BA23C2F8443502E00323C2F818
:105770000032044B0022C3F8002101225A60704716
:105780003836002000100040802D002001480249DA
:10579000FEF7B4BB702C002098FA000003460A46BE
:1057A00001481946FEF7ECBB702C0020014B5879DC
:1057B000704700BF702C0020044BD3F80031002B41
:1057C000FAD001200249FFF7E9BF00BF00100040F6
:1057D0000037002008B50748FFF7A6FE064B10B9B2
:1057E000C3F8D40008BD8738C3F8D400BDE808402A
:1057F000FFF798BF243700203836002013B5124C2D
:10580000D4F8D4304BB9FFF7E5FFD4F8D43023B93E
:1058100040F203100D49FBF73FF8FFF783FF0C4BF5
:10582000D3F80021002AFAD0D3F85025032A09D052
:10583000D3F8503500930748044A074B40F23F1114
:10584000FBF7CAF902B010BD38360020E8FA0000B4
:1058500000100040CCFB0000B1FB000010B5044676
:10586000FFF78EFE2046BDE81040FFF7C7BF0000DF
:1058700070B5114BD3F8005204460F4BD3F85025A6
:10588000042AFAD0D3F850250C2AF6D0D3F85025A4
:105890000B2AF2D0D3F85025092AEED0D3F85025A0
:1058A000012AEAD0D3F850650020FFF7A3FE267046
:1058B0006560204670BD00BF0010004013B51C4B52
:1058C0000C460A2828D8DFE800F02E27101A2727D0
:1058D0002727272706000022C3F8002101221A608B
:1058E000D3F80021002AFBD01DE00022C3F80021DC
:1058F00001225A60D3F80021002AFBD013E00022D5
:10590000C3F8002101225A60D3F80021002AFBD0FD
:10591000074B01229A6006E0009062210548064A82
:10592000064BFBF759F9024BC3F8004202B010BD19
:105930000010004069F7000049FC000093FC0000E3
:1059400010B5512886B00C4614D84E286FD20228C4
:1059500036D003281BD0002860D104A8FFF788FFA9
:105960002378344A0A3B03EB830303F07F03C2F836
:1059700008354DE059285AD004D8532857D0572815
:105980004CD154E0A0F16003012B47D84FE004A8AC
:10599000012208F006FB9DF81030042B03D9B22039
:1059A0002549FAF779FF234A9DF810102348D2F8C9
:1059B0006C36415C23F007030B43C2F86C3636E0CB
:1059C00001220DF10F0008F0ECFA9DF80F309A0655
:1059D0004CBF43F0C00303F03F0304A88DF80F3021
:1059E000FFF746FF9DF80F305AB2002A05DA1E3243
:1059F000D8BFD82303F0FC0306E0092A03DC012A00
:105A0000D8BF002300E009230A4ADBB2C2F80C35F4
:105A10009DF810000599FFF751FF08E0084B00932F
:105A20000190F0210748044A074BFBF7D5F806B070
:105A300010BD00BF0010004049FC0000D1FC000078
:105A400020FC000069F70000B0FC000030B502281F
:105A500085B00C460CD0032814D008BB194BD3F8E2
:105A60000835052203F07F03B3FBF2F30A3306E0A7
:105A7000144BD3F80C3503F03F0363F07F038DF82C
:105A80000F3017E00F4BD3F86C5605F00705042DC7
:105A900003D9BD200C49FAF7FFFE0C4B5B5DEEE726
:105AA0000B4B009301904FF48D710A48064A0A4B44
:105AB000FBF792F820460DF10F01012208F071FA70
:105AC00005B030BD0010004049FC000032FC000071
:105AD00037FC000069F70000B0FC000038B5184C36
